:020000040800F2
:1000000000040020B9010008BB010008BB01000882
:10001000BB010008BB010008BB010008BB010008D0
:10002000BB010008BB010008BB01000875C6000841
:10003000BB010008BB010008BB010008B1D80008E3
:10004000BB010008BB010008BB010008BB010008A0
:10005000BB010008BB010008E93100082932000893
:1000600069320008AD320008F1320008BB01000817
:10007000BB010008BB01000895DF0008BB010008B8
:1000800035330008BB010008BB010008BB010008B4
:10009000BB010008BB010008BB010008BB01000850
:1000A000BB010008BB01000869DB00087DDB00081C
:1000B000BB010008BB010008BB010008BB01000830
:1000C000D1D80008D5330008BB01000889340008E6
:1000D000BB010008BB010008BB010008BB01000810
:1000E00072B6264880F30888254880F30988254899
:1000F00025490860022080F31488BFF36F8F0BF04E
:10010000DBFF0BF0ABFD4FF0553020491B4A91420D
:100110003CBF41F8040BFAE71D49194A91423CBF24
:1001200041F8040BFAE71B491B4A1C4B9A423EBF9D
:1001300051F8040B42F8040BF8E700201849194A5B
:1001400091423CBF41F8040BFAE70BF0B9FF0BF00A
:10015000B4FF154C154DAC4203DA54F8041B884724
:10016000F9E706F0DBF8124C124DAC4203DA54F812
:10017000041B8847F9E70BF0A1BF00000004002032
:10018000000C00200000000808ED00E00000002046
:100190000004002074010108000C002064110020FC
:1001A000681100202C3A0020E0000008E000000860
:1001B000E0000008E000000892E700F000F8FEE729
:1001C0002DE9F04FC1F80CD0C3689D46BDE8F08F13
:1001D000002383F311882846A04700200CF07EF905
:1001E000FEE70CF0B1F800DFFEE7000053B94AB9B2
:1001F000002908BF00281CBF4FF0FF314FF0FF302F
:1002000000F06EB9ADF1080C6DE904CE00F006F80F
:10021000DDF804E0DDE9022304B070472DE9F04782
:10022000089E0D4604468E46002B40F083808A428D
:10023000174647D9B2FA82F34BB1C3F1200105FA50
:1002400003FE20FA01F19F4041EA0E0E9C404FEA66
:100250001748BEFBF8FC1FFA87F908FB1CE20CFBF1
:1002600009F0210C41EA024290420AD9BA180CF175
:10027000FF3180F01881904240F21581ACF1020C00
:100280003A44121AB2FBF8F008FB102200FB09F105
:10029000A4B244EA0244A14209D93C1900F1FF3258
:1002A00080F00381A14240F2008102383C44641A8C
:1002B000002140EA0C401EB10022DC40C6E90042A9
:1002C000BDE8F08702B9FFDEB2FA82F3002B4FD10E
:1002D0008D1A01214FEA124E1FFA82F8B5FBFEFC7F
:1002E0000EFB1C5508FB0CF0220C42EA0545A84207
:1002F00007D97D190CF1FF3202D2A84200F2E98041
:1003000094462D1AB5FBFEF00EFB105508FB00F8C5
:10031000A4B244EA0544A04507D93C1900F1FF32D4
:1003200002D2A04500F2D9801046A4EB080440EAAE
:100330000C40C0E78B4208D9002E00F0B1800021AC
:10034000C6E900050846BDE8F087B3FA83F1002945
:100350004BD1AB4202D3824200F2B980841A65EBE2
:10036000030301209E46002EAAD0C6E9004EA7E74F
:100370009F40C3F12002D1404FEA174EB1FBFEF07F
:100380001FFA87F80EFB101124FA02F29D4000FBC1
:1003900008FC2A43150C45EA0145AC4504FA03F470
:1003A00009D97D1900F1FF3180F08F80AC4540F212
:1003B0008C8002383D44A5EB0C05B5FBFEF10EFB2D
:1003C000115C01FB08F995B245EA0C45A94507D92E
:1003D0007D1901F1FF3274D2A94572D902393D4429
:1003E000A5EB090541EA004178E7C1F120078B4000
:1003F00022FA07FC4CEA030C25FA07F44FEA1C4EDC
:10040000B4FBFEF91FFA8CF80EFB194420FA07F32F
:1004100009FB08FA8D401D432B0C43EA0444A24516
:1004200002FA01F200FA01F309D91CEB040409F104
:10043000FF3048D2A24546D9A9F102096444A4EB91
:100440000A04B4FBFEF00EFB104400FB08FAADB248
:1004500045EA0444A24508D91CEB040400F1FF3529
:100460002DD2A2452BD90238644440EA0940A0FBB2
:100470000289A4EB0A044C45C6464D4619D316D052
:100480005EB1B3EB0E0264EB050404FA07F722FA3F
:1004900001F31F43CC40C6E900740021BDE8F0879A
:1004A000314630460CE78C46EBE61046FFE6434506
:1004B000E6D2B8EB020E69EB0C050138E0E72846FE
:1004C000D3E711468CE78146B9E7084673E708464B
:1004D00049E7ACF1020C3D4413E702383C4424E701
:1004E000704700BF08B5062000F008FB01200DF0A2
:1004F00027F800BF024B0146186800F09BB900BF07
:10050000000C0020024B0146186800F03FB900BF04
:10051000000C0020830770B4CDB23DD0541E0AB346
:100520000378AB421FD0431C05E014F1FF3419D30C
:100530000278AA4217D013F0030F184603F1010303
:10054000F3D1032C11D84CB30378AB420BD0044445
:10055000431C02E00278AA4205D09C42184603F1EF
:100560000103F7D1002070BC704702460E02B6B2FC
:100570002E4346EA0646136810467340A3F1013144
:1005800021EA030313F0803F02F10402DCD1043CB2
:10059000032C1046EFD8D6E71446D2E72046E2E710
:1005A000032A70B412D940EA0105AD0704460B4690
:1005B00020D11946204653F8045B54F8046BAE4230
:1005C00018D1043A032A20461946F2D8541E72B1B3
:1005D00003780A789A4208BF241806D00CE010F875
:1005E000013F11F8012F934206D1A042F7D100201C
:1005F00070BC7047541EEBE7981A70BC704700BF80
:10060000844641EA000313F0030349D1403A23D35F
:100610000B6803604B6843608B688360CB68C36082
:100620000B6903614B6943618B698361CB69C3616A
:100630000B6A03624B6A43628B6A8362CB6AC36252
:100640000B6B03634B6B43638B6B8363CB6BC3633A
:1006500040304031403ADBD230320BD30B6803607C
:100660004B6843608B688360CB68C3601030103187
:10067000103AF3D20C3205D351F8043B40F8043B56
:10068000043AF9D2043208D0D2071CBF11F8013B5A
:1006900000F8013B01D30B8803806046704700BF20
:1006A000082A13D38B07B1D010F00303AED0C3F1E7
:1006B0000403D21ADB071CBF11F8013B00F8013B11
:1006C000A4D331F8023B20F8023B9FE7043AD9D388
:1006D000013A11F8013B00F8013BF9D20B780370A5
:1006E0004B7843708B78837060467047F0B4860710
:1006F00046D0541E002A3CD0CAB2034602E014F190
:10070000FF3436D303F8012B9D07F8D1032C29D9E8
:10071000CDB245EA05250F2C45EA054533D9A4F1AC
:100720001006360903F1200707EB061703F1100244
:1007300042E9045542E902551032BA42F8D1721C1E
:1007400014F00C0F03EB021204F00F0613D0331F4A
:1007500023F003030433134442F8045B9342FBD1B8
:1007600006F003042CB1C9B21C4403F8011B9C42DF
:10077000FBD1F0BC704734461346002CF3D1F8E7A8
:1007800014460346C2E71A462646E0E700293AD057
:1007900038B551F8043C0C1F002BB8BFE4180546CF
:1007A00000F05AFA224B1A682AB1A2420DD92168E8
:1007B0006018824221D0626028461C60BDE8384043
:1007C00000F04CBAA34203D81A465368002BF9D163
:1007D00011685018A04217D022D8216860188342AF
:1007E00003BFD3E900030918C4E900136360546030
:1007F0002846BDE8384000F031BAD2E90002014491
:10080000C4E90012D8E770472068014450188342B9
:100810001160EDD1D3E900030144C2E90013E7E719
:100820000C2328462B60BDE8384000F017BA00BF03
:1008300068110020F8B5CD1C25F0030508350C2DF6
:1008400038BF0C25002D064633DBA94231D82A4F8C
:1008500000F002FA3A6852B113685B1B04D43FE01F
:1008600023685B1B29D522465468002CF8D179688F
:1008700000293BD0294630460CF046FE431C28D0C8
:10088000C41C24F00304A04205D0211A30460CF009
:100890003BFE01301DD02560304600F0DFF904F149
:1008A0000B0020F00700231DC21A01D01B1AA35011
:1008B000F8BD0C2200203260F8BD0B2B05D8A242F7
:1008C000636811D05360E7E7144623601C44256039
:1008D000E2E70C233046336000F0C0F90020F8BD99
:1008E0000B2BF1D8144653683B60D5E730460CF02B
:1008F0000BFE7860BEE700BF6811002038B5124BD0
:1009000005461C68A06B18B10023C0E9045338BD2C
:100910001820FFF7EFFDA06378B101220023C0E9A2
:1009200004230A4B0B24836000230949094A84816C
:10093000C0E90012C0E9045338BD0246064B42210B
:10094000064800F041F900BF000C0020ECDE050075
:100950000E33CDAB34126DE6A4000108BC000108D3
:1009600038B51A4B1C68A26B92B1146918495369C7
:1009700001FB04F1174800FB0313A4FB0045611CB5
:100980001D4445F1000323F00040C2E9041338BDC3
:100990001820FFF7AFFD0246A06388B101240025AF
:1009A0000B21C0E904450C4B0948136003460B4D6D
:1009B0000B4C91810B49C2E90154C2E9041338BDC3
:1009C000094B4E21094800F0FFF800BF000C002041
:1009D0002DF451582D7F954C0E33CDAB34126DE66E
:1009E000ECDE05002E7F954CA4000108BC00010838
:1009F00010B580210446FFF71DFF606440B100225E
:100A0000031F7C3043F8042F8342FBD1002010BD2C
:100A10004FF0FF3010BD00BF436C0BB1002070479A
:100A2000E6E700BF1F2970B5054608D8436C164697
:100A30000C464BB153F8240043F8246070BD1622D5
:100A40004FF0FF302A6070BDFFF7D2FF08B96B6C22
:100A5000F0E74FF0FF3070BD1F2938B5054620D8AC
:100A6000426C0C466AB152F8213053B1012B16D0BA
:100A7000591C10D00025204642F82450984728469B
:100A800038BD284600F070F8224601462846BDE8E9
:100A9000384000F055B8162301202B6038BD0020E7
:100AA00038BD16234FF0FF302B6038BD1F2921D8E9
:100AB00038B5436C05460C4683B153F8242003EB4C
:100AC00084034AB1511C10D0012A0CD000252046C5
:100AD0001D609047284638BD012038BDFFF788FFCC
:100AE00028B96B6CE9E7032038BD022038BD4FF010
:100AF000FF3038BD4FF0FF30704700BF024B01465A
:100B00001868FFF7A9BF00BF000C0020024B0A467F
:100B100001461868FFF786BF000C0020034B1868D9
:100B2000436C0BB10020704762E700BF000C00204F
:100B3000024B01461868FFF7B9BF00BF000C002048
:100B400070B50D460023074C064611462846236023
:100B50000CF0FEFC431C00D070BD2368002BFBD0C2
:100B6000336070BD283A00200CF0FABC20F003017D
:100B700010F00300C0F1000051F8043B00F1040C38
:100B80004FEACC0C6FF000021CBF22FA0CF21343A8
:100B90004FF0010C4CEA0C2C4CEA0C4CA3EB0C0271
:100BA00022EA030212EACC1204BF51F8043B0430DB
:100BB000F4D0C2F1000102EA0102B2FA82F2C2F1FB
:100BC0001F0200EBD200704700B50A4C05462068B2
:100BD00085B01C46C06852B1074BCDE90132009187
:100BE0002B462246054900F023F8FFF77BFC044B17
:100BF0001A46F2E7000C0020F0000108000101088D
:100C0000FC00010808B513460022FFF7DDFF00BF16
:100C10000CB410B582B004AC54F8042B23460194F4
:100C200000F060F802B0BDE8104002B0704700BFAD
:100C30000EB430B582B005AC54F8042B054D014616
:100C400023462868019400F04DF802B0BDE830401A
:100C500003B07047000C0020704700BF704700BF12
:100C60009368013B002B93600FDA10B49469A342A0
:100C700008DB0A2906D01368581C10601970084652
:100C800010BC704710BC00F07BBB1368581C106090
:100C900019700846704700BF9BB1F8B513440F4662
:100CA00006465D1E541E01E0AC4208D03A4614F8D8
:100CB000011F3046FFF7D4FF431CF5D1F8BD0020DB
:100CC000F8BD0020704700BF936810B5144613B9F3
:100CD0005360184610BD00F013FE0023C4E9013331
:100CE00010BD00BF2DE9F04F9FB08B4690461C46CB
:100CF000039018B18369002B00F0B980A34B9B458A
:100D000000F0BB80A24B9B4500F0C980A14B9B45E6
:100D100004BF039BD3F80CB0BBF80C30180740F1AC
:100D2000B480DBF81030002B00F0AF8030230021BE
:100D300020228DF8323098F8003005940B918DF810
:100D40003120954E0127002B00F08980252B00F0E3
:100D50001781454603E0252B00F0A58025466B78DA
:100D60006C1C002BF7D1B4EB080A78D042465346EE
:100D700059460398FFF790FF013070D00B9B6A78BB
:100D800053440B93002A6AD000234FF0FF32013402
:100D90000693CDE908338DF85B301C93079206E08B
:100DA0002C46069B801B07FA00F018430690254648
:100DB000052215F8011B3046FFF7ACFBAA460028B8
:100DC000EED1069BD90644BF20228DF85B201A077E
:100DD00048BF2B22217848BF8DF85B202A2967D194
:100DE000059A1168043200290592C0F29E8009918B
:100DF0006178A51C2E2974D0684C03222046FFF789
:100E000089FB002800F087804022069B001B02FA25
:100E100000F00343069305F101082B7806221946DA
:100E20005F488DF83030FFF775FB002800F08380B5
:100E30005C4B002B72D005AB00935A465A4B06A967
:100E40000398AFF300808146B9F1FF3F07D00B9BB9
:100E50004B440B9398F80030002B7FF477AFBBF82E
:100E60000C305B0618D40B981FB0BDE8F08F00F073
:100E700027FD464B9B457FF445AF039BD3F804B059
:100E8000BBF80C3018073FF54CAF5946039800F0FB
:100E9000D7FA00283FF44AAF4FF0FF30E4E7039B56
:100EA000D3F808B038E7B4EB080A3FF46DAF5DE75C
:100EB000A1F13002092A88BFA2469BD8099B01E014
:100EC0002C460135297803EB830302EB4303A1F1A0
:100ED0003002092AAA46F3D92E2904F10205099302
:100EE0008AD19AF801102A292FD1059B0AF1020014
:100EF0001A680433002A079205939AF802100AF13F
:100F0000030538DB254C824603222046FFF702FB0F
:100F100000287FF479AFA84655467EE7059B073346
:100F200023F007030833059391E7494243F0020396
:100F3000099106935CE705AB00935A461A4B06A944
:100F4000039800F0D3F881467EE70023A1F1300238
:100F5000092A079301D915E05546697803EB830305
:100F600002EB4303A1F13002092A05F1010AF3D98A
:100F70000235079340E74FF0FF33824607933BE784
:100F8000444601E7AA46013536E700BF9CF4000855
:100F90007CF400085CF40008300101083801010805
:100FA0003C01010800000000990C000810B4044C3A
:100FB00013460A460146206810BCFFF793BE00BFE7
:100FC000000C00202DE9F0470C460969A568914600
:100FD0008D42B8BF0D46156094F8431006461F4673
:100FE000DDF8208011B16A1CC9F800202368990639
:100FF0005CD5D9F800200232C9F80020236813F02C
:10100000060F19461DD1E1688A1A002AD8BF194671
:1010100017DD002504F1190A05E0E368D9F800207E
:101020009B1AAB420CDD0123524639463046C0477D
:10103000013005F10105F0D14FF0FF30BDE8F08738
:10104000216894F84330003318BF01238A060AD57B
:101050003021E21882F8431094F845105A1C2244BB
:1010600082F84310023304F1430239463046C04748
:101070000130E1D02368A26803F00603042B216944
:101080001DD08A4226DD4FF00009521A91440025F6
:101090001A3401E04D451DDA012322463946304617
:1010A000C047013005F10105F4D1C5E713F0060F83
:1010B00013D094F84330003318BF0123D3E7D9F895
:1010C0000000E3688A42A3EB000323EAE379DCDC57
:1010D000002BDCDC0020BDE8F087E168D9F80020B7
:1010E0008A1A002AD8BF194693DCAAE72DE9F043F3
:1010F0000C46097E85B06E2906461746984604F1CF
:10110000430C0C986DD039D9732900F0F48044D980
:10111000752900F00281782940F00F817823226838
:10112000DFF854E284F845300168150651F8043BB5
:10113000016040F1A180D10744BF42F0200222604B
:10114000002B00F093801022002184F84310606887
:101150000028A060C0F2C680216821F0040121604F
:10116000002B40F0A280002840F0BE806546082A8F
:1011700000F0AB80ACEB0503236141E0632900F094
:10118000E3801AD8002938D0582940F0D68084F856
:1011900045102268DFF8E4E1C6E76F2900F0BD8062
:1011A000702940F0CA8078232268DFF8CCE142F051
:1011B0002002226084F84530B6E7642902D069290C
:1011C00040F0BB8022680368110603F1040557D57F
:1011D000196805600B46002959DB0A22DFF89CE1FB
:1011E000B5E7036822681D1D6169056015061B6867
:1011F00002D4500600F1BB801960002365462361CC
:10120000CDF800803B4603AA21463046FFF7DAFEC0
:10121000013020D02A46236939463046C047013084
:1012200019D0226803989207E36819D51A1A002A80
:1012300016DD002504F1190904E0E36803981A1A81
:10124000AA420DDD01234A4639463046C0470130E7
:1012500005F10105F1D14FF0FF3005B0BDE8F08395
:101260009842B8BF184605B0BDE8F0832168102247
:1012700021F02001216067E7500648BF9BB25AE782
:101280005106A5D5B3F9003005601946A3E72D2016
:1012900061685B42002984F84300A16002DB22F010
:1012A000040222600A22DFF8D4E0654600E00B4623
:1012B000B3FBF2F102FB11301EF80000934205F877
:1012C000010DF4D2082A7FF455AF2368DB077FF5C0
:1012D00051AF626823699A423FF74CAF3023013D1A
:1012E0002B7047E7002BE0D19EF8003004F1420557
:1012F00084F842303BE703686268191D01601D688D
:1013000000212846FFF706F9002832D0401B606014
:101310002061002384F8433072E72268036812F0EA
:10132000800F03F104051AD01B6805606F290CBFFC
:1013300008220A22DFF844E006E7012384F842107D
:10134000236104F14205E4E70122036804F1420548
:10135000191D1B68016084F842302261D9E712F040
:10136000400F0DBF1B6805601B880560DEE7198014
:1013700043E76068CCE700BF580101084401010859
:10138000F8B50D461446064608B1836943B3254BAC
:101390009C422AD0244B9C4229D0244B9C4208BF1B
:1013A000F468A269A389A2601A0722D5236903B34E
:1013B00022686169D31AEDB299422F4629DD0133C3
:1013C000A168501C0139A1602060157062699A42C1
:1013D00016D0A389DB0701D50A2D11D03846F8BDF8
:1013E00000F06EFA0F4B9C42D4D17468D9E7B46810
:1013F000D7E72146304600F023F838B92369D7E70C
:101400002146304600F032F90028E7D04FF0FF3790
:10141000E4E72146304600F029F90028F6D10123FF
:101420002268CDE79CF400087CF400085CF4000816
:10143000024B0A4601461868FFF7A2BF000C0020C5
:101440003B4B70B51D6806460C460DB1AB69DBB170
:10145000384B9C421ED0384B9C424AD0374B9C4262
:1014600008BFEC68B4F90C2093B2190718D52069AD
:1014700008B313F001022CD000226369A2605B4222
:10148000A36160B3002070BD284600F019FA294B13
:101490009C42E0D16C68B4F90C2093B21907E6D4F1
:1014A000DD063CD5580726D4206942F00803A38105
:1014B0009BB20028DDD103F42072B2F5007FD8D0B2
:1014C0003046214600F016FCA389206913F0010282
:1014D000D2D1990758BF6269A2600028D2D1B4F96D
:1014E0000C301A06CFD543F04003A3814FF0FF30F4
:1014F00070BDAC68B6E7616B51B104F14403994229
:1015000004D03046FFF742F9B4F90C20002363639E
:101510000023206922F02402C4E90003C5E709235F
:1015200042F0400233604FF0FF30A28170BD00BF37
:10153000000C00209CF400087CF400085CF4000817
:101540002DE9F0418F890C463A07804641D44B681B
:10155000002B59DDE66A002E53D0002317F4805289
:10156000D8F80050216AC8F8003051D10123404614
:10157000B047431C5FD0A789E66A216A7F0705D57B
:101580006268636B801A0BB1236CC01A0246002399
:101590004046B047461C45D1D8F80030B4F90C207D
:1015A000002B55D01D2B01D0162B5AD100222369B8
:1015B000C4E90032616BC8F8005011B304F1440370
:1015C000994202D04046FFF7E1F800206063BDE891
:1015D000F0810E69AEB10D680E60B90714BF00232B
:1015E0006369AD1BA3600AE02B463246A76A216AF5
:1015F0004046B8470028A5EB000506440ADD002D4B
:10160000F2DC0020BDE8F0810B6C002BA2DCF8E7D7
:10161000606DB3E7A3894FF0FF3043F04003A3812F
:10162000BDE8F081002322696360A3892260DA04A7
:10163000C0D56065BEE7D8F80030002B9BD01D2BCD
:101640000CD0162B0AD0A38943F04003A381D9E71D
:101650002169C4E90013D304ACD5EAE7C8F8005007
:10166000CFE742F04002A281CCE700BF0B6923B371
:1016700010B5044682B008B18369BBB1104B9942E2
:1016800012D0104B994216D00F4B994208BFE16817
:10169000B1F90C302BB1204602B0BDE81040FFF785
:1016A0004FBF002002B010BD6168F1E7019100F06A
:1016B00007F90199E2E7A168EAE70020704700BF57
:1016C0009CF400087CF400085CF4000820B1054B91
:1016D00001461868FFF7CABF034B0449186800F0B9
:1016E000B3BA00BF000C002058F400086D160008C3
:1016F00000207047014900F0A7BA00BF6D1600082E
:101700000020704770B568254A1E05FB02F50E469D
:1017100005F17401FFF78EF8044640B100210C304A
:10172000666005F168022160A060FEF7DFFF2046D9
:1017300070BD00BF1E4B70B51D680646AB6943B354
:101740004835D5E90134013B05D51EE0013B5A1C63
:1017500004F1680419D0B4F90C20002AF6D1002550
:10176000144B6566C4E90055A560C4E90455A5613C
:101770002946E360082204F15C00FEF7B7FFC4E9E4
:101780000D55C4E91255204670BD2C682CB1254674
:10179000D7E7284600F010F8D2E704213046FFF7DB
:1017A000B1FF044628600028F1D10C233360EAE73A
:1017B00058F400080100FFFF2DE9F84F0023334AD9
:1017C000C0E9123312680365904208BF0123304913
:1017D00008BF836181620546FFF7ACFF6860284659
:1017E000FFF7A8FFA86028460024FFF7A3FF042303
:1017F0006E68E8602146F3607466C6E90044B46030
:10180000C6E90444B46106F15C000822FEF76EFFED
:10181000DFF888B0AF68DFF888A0DFF88890DFF8DD
:1018200088801C4BC6E9086BC6E90AA9C6F8308057
:101830002146FB6008227C66C7E90044BC60C7E91A
:101840000444BC6107F15C00FEF750FFEE68124BE8
:10185000C7E9087BC7E90AA9C7F830802146F360C9
:101860007466C6E90044B460C6E90444B46106F194
:101870005C000822FEF73AFF0123C6E9086BC6E9BF
:101880000AA9C6F83080AB61BDE8F88F58F40008AB
:10189000F51600080900010012000200A11E000850
:1018A000C91E0008091F0008291F0008024B034930
:1018B000186800F0C9B900BF58F400086D16000898
:1018C000836903B978E77047704700BF704700BF6E
:1018D000704700BF704700BF024B0349186800F013
:1018E0008FB900BF000C0020F1160008024B03491D
:1018F000186800F085B900BF000C0020011700082F
:101900009368002B00F0FC802DE9F04FB1F90C300A
:101910000C469BB2190783B0824690462BD52269AC
:101920004AB313F00202D8F8006033D000273D46D6
:10193000D4F828B0216ADFF8C492C5B14D452B46D2
:101940003A4628BF4B465046D847002840F3CE8041
:10195000D8F8083007441B1A2D1AC8F80830002B95
:1019600000F0B380D4F828B0216A002DE6D1D6E982
:1019700000750836E1E721465046FFF761FD002873
:1019800040F03781B4F90C30D8F800609BB213F006
:101990000202CBD113F0010940F0B4804D46A76894
:1019A0002068002D55D09A0540F1C080AF42BB465B
:1019B00000F2EE8013F4906F2FD0D4E9041707EBF8
:1019C0004707A0EB010B07EBD777681C7F10584443
:1019D000B8423A4684BF07463A465B0540F1F0807C
:1019E00011465046FEF726FF002800F0FC805A46BC
:1019F00021690190FEF704FEA289019B22F4906206
:101A000042F08002A281A7EB0B0203EB0B0067619F
:101A1000AB462F4623612060A2605A46494600F03B
:101A2000B3F92368A2685B44AB460025D71BA760C7
:101A30002360D8F80870D944A7EB0B07C8F80870E2
:101A4000002F42D0B4F90C30A7689BB22068002D5B
:101A5000A9D1D6E900950836A3E70BF1080353F89E
:101A6000047C9B4653F8086C0833002FF7D03A46A5
:101A70000A213046FEF74EFD002854D00130A0EB7D
:101A800006094B4620682169BB4228BF3B46884275
:101A9000626903D9A5681544AB421ADC9A4200F387
:101AA00081801346A56A3246216A5046A847051E22
:101AB0001CDDB9EB05096ED00120D8F808302E44A2
:101AC0005B1B7F1BC8F8083013BB002003B0BDE8C8
:101AD000F08F31462A4600F057F9236821462B44FF
:101AE00023605046FFF7C2FD0028E2D0B4F90C3065
:101AF0004FF0FF3043F04003A38103B0BDE8F08F07
:101B00000020704733469146104617464E469B4686
:101B1000002FA2D00028B4D13A460A213046FEF761
:101B2000F9FC0028AAD17B1C9946ABE723698342C4
:101B300017D36269AA4214D82F4BA76A9D4294BF5B
:101B40002B466FF0004393FBF2F3216A02FB03F391
:101B500050464A46B847B0F1000BC7DDA5EB0B0570
:101B600067E7AF4228BF2F4649463A4600F00CF9D6
:101B7000A3682268DB1B3A44BB46A3602260002BAB
:101B8000ECD121465046FFF771FD0028E6D0ADE7C5
:101B90002F46AB4641E721465046FFF767FD002838
:101BA0008BD0A3E71A4631461D46019300F0ECF8AE
:101BB000A1682268019BC91A1344A160236078E7D9
:101BC000504600F047F9034600287FF41CAF216916
:101BD0005046FEF7DBFD0C22B4F90C30CAF80020A9
:101BE00023F0800384E70C22B4F90C30CAF80020FB
:101BF0007EE74FF0FF3069E7FEFFFF7F00FCFF7FCD
:101C00002DE9F04110F148071AD088460026D7E99F
:101C10000154013D0ED4A389013D012B06D9B4F92D
:101C20000E30013302D02046C04706436B1C04F13E
:101C30006804F0D13F68002FE9D13046BDE8F0815B
:101C40003E463046BDE8F0812DE9F84310F14806E4
:101C50001ED0884607464FF00009D6E90154013DE1
:101C600010D4A389013D012B08D9B4F90E300133FA
:101C700004D021463846C04749EA00096B1C04F1EC
:101C80006804EED13668002EE7D14846BDE8F883F7
:101C9000B1464846BDE8F88370B50C46B1F90E1060
:101CA00096B0002916461D4613DB6A460BF039FC38
:101CB00000280EDB019A4FF4806302F47042A2F513
:101CC0000052B2FA82F2002052092A60336016B044
:101CD00070BD0022A3892A601B0604D54023002082
:101CE000336016B070BD4FF480630020336016B0CF
:101CF00070BD00BF8A890B46920706D5012103F10A
:101D0000470259611A601A61704770B582B001AB21
:101D10006A460C460646FFF7BFFF00990546304667
:101D2000FEF788FDB4F90C3070B1164A0099B26222
:101D3000019A43F08003A3812060C4E904018AB9B9
:101D40002B43A38102B070BD9A05FBD4012123F07F
:101D5000030304F1470243F00203A381616122609F
:101D60002261EFE73046B4F90E100BF0E6FB10B934
:101D7000B4F90C30E4E7A38923F0030343F0010333
:101D80001BB2DDE7F51600088842F0B40DD98B18B8
:101D900083420AD9841832B1224613F8014D994280
:101DA00002F8014DF9D1F0BC70470F2A0ED8034656
:101DB000541E002AF7D001340C44013B11F8012BCA
:101DC000A14203F8012FF9D1F0BC704740EA0103AA
:101DD0009B073AD1A2F110073F0901F1200606EB5B
:101DE000071601F1100300F1100453F8105C1033D2
:101DF00044F8105C53F81C5C103444F81C5C53F835
:101E0000185C44F8185C53F8145CB34244F8145C52
:101E1000EBD17B1C1B0112F00C0F194402F00F05D3
:101E2000034415D00E46043DAD0803EB850C1C1F82
:101E300056F8047B44F8047F6445F9D10135AD00C0
:101E40002B44294402F00302B2E7541E0346B2E7D2
:101E50002A46ADE709B3F8B51446CAB106460D46A1
:101E600000F066F8A04202D32F463846F8BD21465E
:101E70003046FEF7DFFC07460028F6D0224629460A
:101E8000FEF7BEFB30462946FEF780FC3846F8BD1B
:101E90002746FEF77BFC3846F8BD1146FEF7CABC64
:101EA00010B50C46B1F90E100BF023FB002803DB34
:101EB000636D0344636510BDA38923F48053A3813C
:101EC00010BD00BF002070472DE9F041B1F90C4072
:101ED0009846E3050D461746B1F90E10064609D49B
:101EE00024F48054AC8143463A463046BDE8F04184
:101EF0000BF006BB022300220BF000FBB5F90C40EF
:101F0000B5F90E10ECE700BF10B50C46B1F90E1094
:101F10000BF0F4FAA389421C0EBF23F4805343F460
:101F200080536065A38110BDB1F90E100BF0EABAC1
:101F300051F8043C181F002BBCBF0B58C018704749
:101F40000E4A0023114610B5147C84420FD11C2286
:101F50005343CA18906848B1CB58FF2818BF434371
:101F60004FF0010018BF5B000133536010BD013317
:101F7000062B02F11C02E7D10020F7E7040F002036
:101F8000F0B50A4D00242E462F7C874207D11C2035
:101F900000FB0464012061762276A376F0BD013453
:101FA000062C05F11C05EFD10020F7E7040F0020F7
:101FB000094A30B500231446157C854205D11C2200
:101FC000012002FB0343596030BD0133062B02F1AF
:101FD0001C02F1D10020F7E7040F002070B50B4C74
:101FE00000232546267C864209D11C204343E8185D
:101FF000E95000238260C3604374012070BD013347
:10200000062B04F11C04EDD10020F7E7040F00209B
:1020100070B500252E46284C6368002B49D0E06837
:10202000C8B9637CB3FA83F35B09637409F0D8FA27
:10203000D4E900239342E06025D266606674E660CE
:1020400063690BB1207C98470135062D04F11C040F
:10205000E2D1012070BD09F009FB23689842E0D26B
:102060006368002BECD0204602F082F90028EBD008
:10207000637C207C93B1FF2808D1A27E217E607E04
:1020800007F0C8F9E0E79B1A6360E9E76E28DBD840
:10209000A37E227E617E06F01BFBD5E7FF2803D1DD
:1020A0001A4619461846EBE76E28CDD81A46194647
:1020B000F1E76374E360C7E7040F002007B5037816
:1020C0008DF8003043788DF8013083788DF8023038
:1020D00003798DF80330C37868468DF804300DF02D
:1020E0002DF803B05DF804FB08B5074B5A78032AB6
:1020F00007D8586809F0BAFAC72894BF0020012011
:1021000008BD0020FCE700BFA40C002070470000C1
:1021100000224FF4007108B50B480BF092FBFFF75B
:10212000F5FF00BF00BF00BF00BF00BF00BF00BF82
:1021300000BF00BF00BF00BF00BF00BF00BF00BFA7
:1021400000BF00BF00BF08BD0004004008B501F09B
:102150000BFA08BD08B5054C20780CF0E7FA20789A
:10216000FFF7F4FF05200AF0BEF9F5E780350020FF
:1021700010B5084C236803F07142074B13432360EA
:1021800009F02EFA054B18602068BDE8104003F0F6
:102190002DBC00BF803500200001010E741100200D
:1021A00010B5074C012220464FF400510BF049FBBB
:1021B0004FF40053A361BDE8104001F0EBBA00BF3B
:1021C0000008004001207047124B10B51C789CB9E4
:1021D000114B1B78042B0FD103F0F6FA03F00AFB26
:1021E00003F0BCFA03F036FB204609F097F82046CE
:1021F000BDE8104009F0AEB80CF0A4FF48B10CF0F7
:102200008BFA0028FBD1BDE8104044F620600AF0AC
:102210006AB910BD80350020D439002038B50023BC
:102220000C46084D0B7030B109F0DAF90023286034
:102230002370002038BD286809F018FA3228F3D836
:10224000F7E700BF84110020084B9A78012A07D0D5
:10225000022A09D0064B1868B0FA80F0400970478E
:1022600058780128F6D170470120FCE7A40C002023
:10227000E812002008B5054B9B78013B012B02D9E1
:10228000FFF7E2FF08BD0120FCE700BFA40C00201F
:1022900008B509F0A5F9014B986008BDA40C002011
:1022A00010B5094C23782070637009F099F96060CB
:1022B000FFF7EEFF00F092FDBDE810400022034B57
:1022C00053201A700CF0BABEA40C0020801100201C
:1022D0002DE9F0410C4615460746002842D0B1FAD8
:1022E00081F35B09A3B15C4E5C4A3378002C3DD08E
:1022F0004FF40051012B91610AD030460BF080FA67
:1023000030460AF04BFE5648564B836008F0D4FF27
:10231000A74201D0FFF758FF534E3378013B012B02
:1023200004D80320FFF7BCFF0023B3704F4E33786F
:10233000A34200D11DB100224D4B9A619A833470A3
:1023400024B1631E042B747098BFB470306803F01E
:102350004DFB3378062B78D8DFE803F0751936404B
:102360004A545E000B1E18BF0123BBE74FF000511B
:10237000042B9161CCD03F4BDFF8E4801C703E4BC6
:102380003046C8F8083009F0D5FB4046BEE731209A
:1023900075B10CF053FE52200CF050FE01200CF0F1
:1023A00059FE4EF20C4143F22D400CF0A9FE512093
:1023B0000CF044FEFFF76CFF2A462146384601F038
:1023C00067FE0120BDE8F0813220002DF0D00CF036
:1023D00035FE52200CF032FE0220E0E73320002DC3
:1023E000E6D00CF02BFE52200CF028FE0320D6E79E
:1023F0003420002DDCD00CF021FE52200CF01EFE0B
:102400000420CCE73520002DD2D00CF017FE52204E
:102410000CF014FE0520C2E73020002DC8D00CF0CF
:102420000DFE082115480CF03BFE122114480CF05B
:102430004FFE4EF20C4143F22D400CF061FE522053
:102440000CF0FCFDB3E71120B2E711200CF0F6FD13
:10245000FFF78EFEAEE700BFD43900200008004031
:1024600044110020BD200008A40C0020803500206D
:10247000640C0020D0250020F5BB0008BCF4000847
:10248000C4F40008002313B50DF107018DF80730DF
:10249000FFF7C4FE044690B19DF80730013B032BC3
:1024A0000DD8DFE803F002060F1200221146094B97
:1024B00002E00022074B99781878FFF709FF2046C1
:1024C00002B010BD00220621F1E7024B002259782C
:1024D000F2E700BF8035002013B5124C20460CF007
:1024E000ADF80123A37703F07EFA0F4C206008B902
:1024F000FFF73EFEE37843F00103E37009F070F864
:102500000A4BFF22186000234FF4A871009308487B
:10251000084B09F0B5FFFFF7FBFD0120FFF7B2FF05
:1025200002B010BD640C0020803500207411002022
:10253000881100205521000848B1074A1378013B53
:10254000012B07D893782BB90320FFF7A9BE0122EE
:10255000024B1A70704700BFA40C002080110020AD
:10256000014B1878704700BFA40C0020014B9870F5
:10257000704700BFA40C0020014BD870704700BF0B
:10258000A40C00200122014B1A707047801100201A
:102590002DE9F0411B4C1C4EE278B168C2F34202B7
:1025A00029B9FFF775FE00252846BDE8F081174BD5
:1025B00053F8228023782BB9154B1B78042B01D1BB
:1025C000FFF766FE134F3D7875B100233B70124B49
:1025D000E2781B695B0A63F300022378E27063B15F
:1025E00000F0F8FF0546DFE7B8F1000FDCD0B06877
:1025F00009F03CF84045E8D2D6E7054B1B78042BA0
:10260000EED1CEE780350020A40C002068F500084C
:10261000D4390020801100200004004010B50C4B7C
:102620005A781946012A03D0022A08D0002005E072
:102630009C78012C03D101F037F8204610BD486882
:1026400009F014F8C728F1D9FFF7FEFDF6E700BF3F
:10265000A40C002010B5074BD87810F0FD0404D16D
:102660000220FFF71DFE204610BD0320FFF718FED5
:102670000120F9E7A40C002038B50A4D0024EB78BE
:10268000033B012B08D80320FFF70AFE2046AC705D
:1026900000F0AAFF012038BD0220FFF701FE20460E
:1026A000F9E700BFA40C002038B50A4D0024EB78F0
:1026B000033B012B08D80320FFF7F2FD2046AC7046
:1026C00000F0B2FF012038BD0220FFF7E9FD2046EF
:1026D000F9E700BFA40C002070B59A4C9A4D206811
:1026E000B0B108F0C3FFB0F5FA6F11D30026552042
:1026F00026600CF0A3FC57200CF0A0FC70200CF01E
:102700009DFC29783246B1FA81F04009FFF7E0FDDF
:102710002B7823B18D4B93F820208D4B1A702368B2
:10272000DBB98C4E306808F0A1FF40F6B733984211
:1027300013D92B788BB10BF0EFFF70B9834CA37FCB
:102740005BB108F04DFF306053200CF077FC94F83B
:10275000213013B970200CF071FC7F4BEA781B69B3
:102760007E4C5B0A63F300020020EA70FFF78AFEEA
:102770002378032B1ED8DFE803F0022858AEE36865
:1027800033B1984720B10120FFF78AFD0023A370E1
:10279000236933B1984720B10120FFF781FD02235F
:1027A000A370636933B1984720B10120FFF778FD2A
:1027B0000123A3700CF03CFB694B1B78002B00F04D
:1027C000C080BDE8704002F075B8A369002BF1D05D
:1027D00098470028EED001F0D5FD624C207010BB68
:1027E00004F056FF00F00100207007F0F1FB2A789A
:1027F0005D4B1A700022554B9A772A685B4B134049
:102800006BB95B4C2378012B09D04FF40052594B24
:1028100020469A610AF0F4FF20460AF0BFFB02202E
:10282000FFF73EFDC6E70120DCE7E369002BC1D0DE
:1028300098470028BED000224F4B1A704FF08052AC
:10284000454B9A612A68494B1340B3F1807F10D001
:10285000A37853B3013B012B0BD86378022B08D02C
:10286000FFF7B2FC11200CF0E9FB0BF055FF00283C
:10287000FBD100F099FE0023E3703B4B2A781B78D4
:102880009A4208D12A68394B1340B3F1807F02D0B5
:10289000A07800F095FBA378012B19D0022B14D05F
:1028A000002B87D1FFF7D6FE84E7284B5B7E002BF9
:1028B000DFD111200CF0C2FB0BF02EFF0028FBD162
:1028C00047F2305009F00FFED3E7FFF7D5FE71E76E
:1028D000FFF7EAFE6EE7236A002B3FF46BAF9847E1
:1028E00000283FF467AF0122184B9A771D4B1B78E5
:1028F0002BB14FF48052184B9A6107F04FFB012027
:10290000FFF7C0FD30B92A78A2B1697802460846BF
:10291000FFF7DEFC0024184B1C7000F039FEFFF7B7
:10292000B7FC00F05BFA2046FFF7BAFC53200CF02E
:1029300085FB3FE70E4B1B78012BEBD111466878E6
:10294000E6E770BD7411002080350020640C002083
:10295000D02500207C11002000040040A40C0020A1
:10296000791100207011002078110020FF00000173
:10297000D439002000080040801100200120704759
:1029800008B5FFF7FBFF08BD37B504460D46FFF756
:102990007FFC29462046FFF7F3FF60B1074B1A780A
:1029A0004AB1074B20461B78D9090091C3F30013A5
:1029B000A9780CF061FA03B030BD00BF803500206B
:1029C000D035002000B50B4B8FB0322193F8213069
:1029D000094A01A803F0C1FF01A808F003F90BF0B0
:1029E00097FE08F0FFF8054808F0FCF80FB05DF816
:1029F00004FB00BF640C0020D6F40008E7F40008D4
:102A00002B4B13B51A7804464AB12A4B01211B7887
:102A1000DB09009300230CF02FFA02B010BD002850
:102A2000FBD0031FDBB2A02B12D8234B0146186842
:102A300008F0CAFC20B1204602F088FE02F00AFF2E
:102A4000204602F07BFE02B0BDE8104002F002BF5B
:102A500000F12003DBB2072B07D800F007040120A8
:102A6000A040C0B202F0A0FEEDE700F15B03DBB2D4
:102A7000022B06D8243880B202B0BDE8104008F01E
:102A80004DBC00F15803DBB21A2B07D80B4A32F8C1
:102A9000130002B0BDE8104008F05CBC3334E4B26F
:102AA000122CBAD8012102B0BDE8104001F0E7BFF6
:102AB00080350020D0350020DC0F002032F50008E2
:102AC000244B13B51A7804464AB1234B1B78DB0913
:102AD0000093002319460CF0CFF902B010BD002876
:102AE000FBD0031FDBB2A02B06D802F02FFE02B0F2
:102AF000BDE8104002F0AEBE00F12003DBB2072BB0
:102B000007D800F007040120A040C0B202F054FE34
:102B1000EDE700F15B03DBB2022B05D8104602B0F3
:102B2000BDE8104008F0FABB00F15803DBB21A2BE5
:102B300005D8104602B0BDE8104008F00BBC333495
:102B4000E4B2122CC9D8114602B0BDE8104001F021
:102B500096BF00BF80350020D03500202DE9F3411D
:102B60000446C0B1114E3378C3B10127DFF840806D
:102B7000204601F018FF054698F80030E030DB09E8
:102B8000009301210023327880B207FA05F50CF09A
:102B900073F9AC43ECD102B0BDE8F08102F004FE61
:102BA00002B0BDE8F04102F055BE00BF8035002004
:102BB000D03500202DE9F3410446C0B1114E3378E1
:102BC000C3B10127DFF84080204601F0ECFE98F801
:102BD00000300546DB0900930023E03019463278C7
:102BE00080B207FA05F50CF047F9AC43ECD102B01E
:102BF000BDE8F08102F0E0FD02B0BDE8F04102F076
:102C000029BE00BF80350020D03500202DE9F041DD
:102C100004460E4601F01AFBE0B92378013B122B63
:102C20004FD8DFE803F00A1A496369737676764E67
:102C3000AF7B7F858E979A9DA600002363700C233F
:102C4000A370544B31461B782046002B40F09F80E8
:102C500008F0D6FF0120BDE8F0816378013B032B2B
:102C60002FD8DFE803F0020C0F2308F0B9FC030EA5
:102C7000A370030CE370030A23716071E1E707F0AE
:102C800023FCF4E72546A77804F11B08052FD8D8C4
:102C9000F8B203F009FA030CEB70030A2B716871A8
:102CA0000335454507F10107F0D1CAE70023A370BA
:102CB000E37023716371C4E76378022B04D0052BA2
:102CC00010D0FF232370BCE7E378A07840EA03200C
:102CD000237940EA0340637940EA036000BA07F0D1
:102CE000F9FBAEE7A07807F01EFCAAE7E278A1782E
:102CF000607807F085FFBEE722796379A17843EA1F
:102D000002236078E27807F091FF9AE707F0A3FFCB
:102D100097E73146204607F0F2FC92E707F0FCFF08
:102D200060708EE707F0FAFF030A6370A07088E70F
:102D30006078A378E178221D43EA002007F0F1FFD4
:102D40007FE76078A378E178221D43EA002008F04D
:102D500004F876E708F019F873E707F046FFDFE7B5
:102D60006078A378E178221D43EA002007F09BFFFA
:102D700067E76078A378E178221D43EA002007F036
:102D8000A9FF5EE70123044A6370137059E70CF052
:102D900031FA5FE78035002079110020437813B1C4
:102DA000FF23037070478378012BF9D10378072B39
:102DB00007D0082BF4D1084BDB78C3F34203C37070
:102DC0007047C1780729EDD8034BDA7861F34302E5
:102DD000DA70186802F00ABE8035002008B508F0E5
:102DE000FFFB014B186008BDD8120020154B10B531
:102DF0001C7884B9144B1B78052B08D0022B06D005
:102E000008F0EEFB114B1860114B1C7010BD114BFC
:102E10001B699B0503D4BDE81040FFF7DFBF0B4BD8
:102E200018680028F7D008F021FC41F65733984283
:102E3000ECD9FFF7D3FFBDE810400122044B1A7014
:102E4000FFF7A0BB80350020D4390020D812002025
:102E5000DC120020000400402DE9F0411B4C064626
:102E600025781DB101242046BDE8F081FFF778FBED
:102E70000138012805D80320FFF712FA2846FFF78A
:102E800075FB94F80080B8F1000FEBD1104D2B7852
:102E9000052BE7D1B5F84C309B0702D50D4F3C7898
:102EA00024B9FF2E94BF00240124DCE7FFF758FB70
:102EB0000328D7D887F80080FFF790FF28460AF04C
:102EC00019F9284601F002FACDE700BF803500204D
:102ED000D4390020DC120020704700001A4B70B576
:102EE0009C6C0F2644F4C0649C649B6C012301F02D
:102EF00003048B4021F0030101F1804101F5A05151
:102F00008D68A400C0F38320A04006FA04F425EAEB
:102F1000040528438860D8430C4912F0010F8C68DF
:102F200014BF1C4304408C6012F0020FCA6814BF27
:102F30001A430240CA60054A536111680B4313608B
:102F400053680340536070BD000C014000180040FE
:102F50000F281FD8DFE800F0080C0F1215181818FA
:102F600018181B1B1B1B1B1B062108460AF0FBBA6B
:102F700006210720FAE706210820F7E706210920A5
:102F8000F4E706210A20F1E706211020EEE70621EA
:102F90002120EBE7704701207047000008B5FFF7DC
:102FA000FAFF48B1054801220921FFF797FFBDE864
:102FB00008400920FFF7CCBF08BD00BF0004004057
:102FC0002DE9F8430546302383F31188FFF7E6FF28
:102FD00000264FF001086B4F57F8043B002D40F0DE
:102FE000B780581C0DD023F00F0903F00F0308FA27
:102FF00003F421460522484624040AF022FCC9F8BD
:1030000018400136112EE7D1062401275E4E56F8EE
:10301000040B002D40F0A980421C27D000F00F01C6
:10302000202207FA01F120F00F000AF00AFC00BF8D
:1030300000BF00BF00BF00BF00BF00BF00BF00BF98
:1030400000BF00BF00BF00BF00BF00BF00BF00BF88
:1030500000BF56F8040C032200F00F08414620F090
:103060000F00FFF73BFF4046FFF772FF013CCED158
:1030700084F3118872B60120444A136823F00103D7
:103080001360434B434A5A610022A30003F160439B
:1030900003F56143D3F80011D5B2012D94BF00218F
:1030A00001F0010109B1C3F880010132202AF1D1F8
:1030B0000134082CE8D1384C636843F00073636036
:1030C000364B1A6802F009021A601A6842F46C3230
:1030D00042F004021A6040F2B3321A62304B43F0FD
:1030E00001039847236943F00403236130BF2D4B4C
:1030F00043F0010398472369244A23F00403236122
:103100001368294C43F001031360E36943F0800323
:10311000E361A36C43F40073A36408F09FFD02F025
:10312000F7FFE36C43F00803E364E36CA36C43F440
:103130008053A364A36CE36C43F01003E364E36C7B
:10314000FFF7CAFE002383F3118862B6BDE8F88357
:10315000591C3FF456AF03F00F01202208FA01F189
:1031600023F00F000AF06DFB4BE7431C3FF47EAFEA
:1031700000F00F01402207FA01F120F00F000AF0E1
:1031800060FB73E788F5000828F6000810E000E00F
:1031900000180040FFFF070000ED00E000000140C4
:1031A00000F60008CCF50008000C01400120704733
:1031B00001207047012303FA01F2024210B50C46C8
:1031C0000DD009290CD012290CD10420FFF7D4F915
:1031D0002046FFF7EBFF10B12046FFF7E9FF10BDD7
:1031E0000320F3E71846F1E708B50D4B5A69D207FB
:1031F00007D51A68002122F0010201201A60FFF7AA
:10320000D9FF4022074BC3F88020BFF34F8FBFF395
:103210006F8F0122024B5A61BDE8084009F058BA8D
:103220000018004000E100E008B50D4B586910F0AF
:10323000020006D01A68012122F002021A60FFF78C
:10324000B9FF8022074BC3F88020BFF34F8FBFF335
:103250006F8F0222024B5A61BDE8084009F038BA6C
:103260000018004000E100E008B50E4B586910F06E
:10327000040006D01A68022122F004021A60FFF747
:1032800099FF4FF48072084BC3F88020BFF34F8F33
:10329000BFF36F8F0422034B5A61BDE8084009F069
:1032A00017BA00BF0018004000E100E008B50E4B5F
:1032B000586910F0080006D01A68032122F00802AD
:1032C0001A60FFF777FF4FF40072084BC3F88020B5
:1032D000BFF34F8FBFF36F8F0822034B5A61BDE8D6
:1032E000084009F0F5B900BF0018004000E100E017
:1032F00008B50E4B586910F0100006D01A6804216A
:1033000022F010021A60FFF755FF4FF48062084B5D
:10331000C3F88020BFF34F8FBFF36F8F1022034B92
:103320005A61BDE8084009F0D3B900BF0018004059
:1033300000E100E038B5254B5C69A20604F478751D
:1033400007D51A68052122F0200228461A60FFF7E7
:1033500031FF600608D51D4A06211368284623F070
:1033600040031360FFF726FF210608D5174A0721FF
:103370001368284623F080031360FFF71BFFE20564
:1033800008D5124A08211368284623F48073136075
:10339000FFF710FFA30508D50C4A0921136828463A
:1033A00023F400731360FFF705FF4FF48032084BDE
:1033B000C3F88020BFF34F8FBFF36F8F4FF4787245
:1033C000024B5A61BDE8384009F082B9001800404C
:1033D00000E100E038B52A4B5C69620504F47C45E5
:1033E00007D51A680A2122F4806228461A60FFF77E
:1033F000E1FE230508D5224A0B211368284623F451
:1034000000631360FFF7D6FEE00408D51C4A0C21C8
:103410001368284623F480531360FFF7CBFEA10402
:1034200008D5174A0D211368284623F4005313606A
:10343000FFF7C0FE620408D5114A0E211368284622
:1034400023F480431360FFF7B5FE230408D50C4A2C
:103450000F211368284623F400431360FFF7AAFEE8
:103460000222084BC3F88420BFF34F8FBFF36F8F46
:103470004FF47C42024B5A61BDE8384009F028B94C
:103480000018004000E100E008B50E4B586910F448
:10349000802006D01A68122122F480221A60FFF7D9
:1034A00089FE0822084BC3F88420BFF34F8FBFF377
:1034B0006F8F4FF48022034B5A61BDE8084009F03A
:1034C00007B900BF0018004000E100E010B5074C4C
:1034D00023784BB900F07CFF01F083FA07F0F2FE8D
:1034E00001F080FA01232370012010BDDF120020BB
:1034F00010B5044C23781BB100F05EFF002323704D
:10350000012010BDDF12002038B5154C00252378AE
:10351000032B22D8DFE803F0020B131B0A23114808
:103520004370857007F0F2FE0123237038BDF62347
:103530000C488370457007F0E9FE0223F5E7F62397
:1035400008484370857007F0E1FE0323EDE70A2386
:1035500004484570837007F0D9FE2570E6E700BF88
:10356000DD120020F4120020054B1B7833B1054B0F
:103570001B780BB9FFF7C8BF0BF02ABD704700BF1F
:10358000E2120020803500200120704701207047A2
:1035900008B5044B1B780BB9FFF798FFFFF7F4FF52
:1035A00008BD00BFDF12002008B5064B1B780BB129
:1035B000FFF79EFF0023044A1370044A1360FFF7CD
:1035C000E5FF08BDDF120020EC120020F012002001
:1035D0000120704708B5FFF7FBFF08BD014B1878C5
:1035E000704700BFE0120020014B1870704700BF09
:1035F000E0120020014B1878704700BFE112002054
:10360000084B10B50446187058B9FEF7A9FF0228F8
:1036100007D80320FEF744FE2046BDE81040FEF721
:10362000A5BF10BDE1120020FFF7EABF024B1878DA
:1036300080F00100FFF7E4BFE11200200122014BFE
:103640001A707047E1120020084B1A78084B1B785B
:103650004BB982F00102A0F5A443203B1F2B8CBF85
:103660001046012070470022F5E700BFE11200205C
:10367000E012002000231946094A937213609375E3
:10368000D36082F82230936182F82E305362054A6B
:1036900001330B2B917242F80C1BF9D1704700BF1C
:1036A000AC0F0020C80C002008B502F0A1FDFFF708
:1036B000E1FF0022014B1A6008BD00BFE8120020A4
:1036C00001EB410201460148FCF79ABF8435002016
:1036D0002DE9F0411A4B1B4C1B78657813F0010360
:1036E000194E92B01AD00027DFF8608018F8011B3D
:1036F00007EB470001EB41010322314468440137E5
:10370000FCF77EFF182FF1D12078294600EB40000E
:103710006844FFF7D5FF12B0BDE8F081A278E078E9
:1037200002EB42013144904201F10301DBD9013245
:1037300001F8023C01F8033C01F8013CD2B2F2E787
:1037400004360020E70F0020843500204CFA0008E2
:1037500038B500F017FE044640B9002320461A464B
:103760001946013404F0B4FF572CF6D15725074C05
:103770002846A37822786178013504F0A9FF6F2DDF
:1037800004F10304F4D1012038BD00BF84350020CA
:103790000120704710B5FFF799FEFEF79DFE00F07F
:1037A00023FE48B1054C01224FF4805120460AF017
:1037B00048F84FF48053A36110BD00BF00040040DF
:1037C00000230E4A10B513700D4A0E4C13700E4AAA
:1037D000136003F05DFF68B900F0D4FD50B906F046
:1037E00007FC4FF08053A36100F014FEBDE81040C9
:1037F00002F08BB94FF48053F5E700BFDE120020D2
:10380000E312002000040040E412002008B502F09A
:1038100049F904F02BFF02F0DFF80C4B188060F040
:103820007F001870188802F0DAF80022084B1A702E
:1038300004F06AF903F0F4FE04F04EF900F038FEEB
:1038400018B1BDE80840FFF7BBBF08BDD035002068
:10385000061C002037B504460D4600F097FF0028EF
:1038600000F0CE80002D00F0CB8047F613639C4221
:103870003AD8B4F5FC4F07D247F603439C4200F018
:10388000BC80284603B030BDA4F5FC44132CF8D806
:1038900001A353F824F000BFFF3800082B390008BB
:1038A0004F3900087339000899390008BF390008FA
:1038B00083380008833800088338000883380008FC
:1038C00083380008833800088338000883380008EC
:1038D000833800088338000883380008E539000879
:1038E000ED390008F539000847F643639C42C8D11A
:1038F0000122444B1A700022434B1A60C1E7002397
:1039000001200DF107018DF80730FEF787FC9DF8C7
:103910000730042B02D013F0FD0FB2D10122114663
:103920003A4B1878FEF7D4FCABE7002301200DF1E9
:1039300007018DF80730FEF771FC9DF80730042B66
:1039400002D013F0FD0F9CD101220221E8E70023F1
:1039500001200DF107018DF80730FEF75FFC9DF89F
:103960000730042B02D013F0FD0F8AD1012203216E
:10397000D6E7002301200DF107018DF80730FEF78F
:103980004DFC9DF80730042B03D013F0FD0F7FF49E
:1039900078AF01220421C3E7002301200DF10701C4
:1039A0008DF80730FEF73AFC9DF80730042B03D062
:1039B00013F0FD0F7FF465AF01220521B0E700236E
:1039C00001200DF107018DF80730FEF727FC9DF867
:1039D0000730DA1E012A02D9002B7FF452AF0122F0
:1039E00006219DE70020FFF70BFE4AE70122084B66
:1039F0001A7046E7FFF71AFE43E7FFF707FF40E7B5
:103A000005463EE7E3120020E41200208035002046
:103A1000E112002070B5FEF75FFE002501261C4C68
:103A2000206858B1A37A4BB907F020FE636898422A
:103A300004D301212089A672FFF70CFF0135042D64
:103A400004F10C04ECD100250126124C206858B179
:103A5000A37A4BB907F00AFE6368984204D30121A8
:103A60002089A672FFF7F6FE01350B2D04F10C0438
:103A7000ECD1094B1A783AB100221A700AF04CFEC8
:103A80000028FBD1FFF7C2FE00F026FD70BD00BF8D
:103A9000AC0F0020C80C0020F912002008B5064B1E
:103AA0001B780BB9FFF712FD4FF48052034B9A615C
:103AB000BDE8084007F060BDDF12002000040040B0
:103AC0002DE9F7430D46BF4A897804461368D1B102
:103AD000032B00D801331360FEF7DAFBBA4B002743
:103AE00098461A89944226D195F802900C26B9F18D
:103AF000000F0CD007F074FD7E4348F80600B34B6E
:103B00000027984635E0002BE5D0013BE3E77E43F4
:103B100008EB0607BB7A13B948F80630EFE74946C9
:103B20002046FFF797FE87F80A9048F8069000288D
:103B3000E5D1002492E00137042F03F10C03D0D12A
:103B4000DDE77E4308EB0607BB7A13B948F8063079
:103B50001DE049462046FFF77DFE87F80A9048F8A9
:103B600006900028E5D012E001370B2F03F10C037B
:103B70000DD01A899442F7D195F802900C26B9F12C
:103B8000000FDED007F02CFD7E4348F806002946E2
:103B90002046FFF759FD0028CBD02946204600F0EB
:103BA0005BFD0028C5D047F610639C4235D8B4F5BC
:103BB000FC4F1AD247F620039C4200F0278147F6BB
:103BC00003439C42B5D02946204600F017FE00284A
:103BD000AFD029462046FFF73FF90028A9D020465C
:103BE0002946FEF7D1FE044638E0A4F5FC44013C2A
:103BF000AB780F2C40D8DFE814F05D00780093001C
:103C0000AE00C900F1003C001E0136013C0142013A
:103C100048014E0154015A016001A4F5FC43403BA8
:103C20009AB2032ACFD8032BCDD801A252F823F0A1
:103C3000413C00084F3C0008653C0008333B00084D
:103C4000AB78002B3FF475AFFEF7BCFE71E7AC78A4
:103C50005F4B14B101221A706BE71C70204603B051
:103C6000BDE8F083AB78002B3FF463AFFEF78AFC2E
:103C70005FE7584A13705CE7002B3FF45AAF564C8D
:103C80002278012A3FF455AF002301200DF10701EE
:103C90008DF80730FEF7C2FA9DF80730042B03D0E9
:103CA00013F0FD0F7FF445AF002201212078FEF7CD
:103CB0000FFB3EE7002B3FF43CAF474C2278022A33
:103CC0003FF437AF002301200DF107018DF80730D5
:103CD000FEF7A4FA9DF80730042B03D013F0FD0F74
:103CE0007FF427AF00220221E0E7002B3FF421AF51
:103CF000394C2278032A3FF41CAF002301200DF138
:103D000007018DF80730FEF789FA9DF80730042B7C
:103D100003D013F0FD0F7FF40CAF00220321C5E7A1
:103D2000002B3FF406AF2C4C2278042A3FF401AF5D
:103D3000002301200DF107018DF80730FEF76EFA20
:103D40009DF80730042B03D013F0FD0F7FF4F1AE84
:103D500000220421AAE7002B3FF4EBAE1E4C227890
:103D6000052A3FF4E6AE002301200DF107018DF88E
:103D70000730FEF753FA9DF80730042B03D013F0F9
:103D8000FD0F7FF4D6AE002205218FE7002B3FF414
:103D9000D0AE114C2278062A3FF4CBAE002301208E
:103DA0000DF107018DF80730FEF738FA9DF807305E
:103DB000DA1E012A02D9002B7FF4BBAE00220621B5
:103DC00074E700BFE8120020AC0F0020C80C0020F0
:103DD000E2120020DE12002080350020002B3FF48C
:103DE000A8AE394C2378002B3FF4A3AE0025012068
:103DF0000DF107018DF80750FEF710FA9DF8073016
:103E0000012B3FF696AE2A4629464FE7AB78002BAA
:103E10003FF48FAE00F0B6FA80F00100C0B200F0BF
:103E2000B9FA00F0AFFA60B106F0CAF84FF4805268
:103E3000264B9A617DE60BB103F058FE03F028FC97
:103E4000F1E703F025FC00287FF473AE00F09AFA46
:103E5000044600287FF46DAE06F0CAF84FF0805299
:103E60001A4B9A61FAE6002B3FF463AE03F01AFE98
:103E70005FE6002B3FF45DAE03F020FE59E6002B19
:103E80003FF457AE03F070FD53E6002B3FF451AE04
:103E900003F07EFD4DE6002B3FF44BAE03F016FD24
:103EA00047E6002B3FF445AE03F022FD41E6002B30
:103EB0003FF43FAE03F030FD3BE6002B3FF439AE5C
:103EC00003F03EFD35E600BF8035002000040040D1
:103ED00001207047F8B505460C464C4E4C4F214624
:103EE0002846FFF7F5FF50B1062C08D8DFE804F0AC
:103EF00004084C7B7B8888000022444B1A60F8BD84
:103F000032684ABBA5F12603032B0AD8DFE803F089
:103F100002151A1F9623642200212620FEF730F88E
:103F200001224FF4FA712846FEF758F82846FEF7AA
:103F300007F807F055FB3060E1E7FF220023114648
:103F40002720EBE77F230022FF212820E6E700223D
:103F5000FF2311462920E1E7104607F087FB47F2CF
:103F60002F53984203D905242A4B1C70B7E77B7E58
:103F70000BB10324F8E7284B1B78002B3CD02846D4
:103F8000BDE8F840FDF7DCBF3068F8B9A5F12603BD
:103F9000032BB4D8DFE803F0020B1015962364223C
:103FA00000212620FDF7ECFF0122C821BBE7FF22FC
:103FB000002311462720F5E77F230022FF21282038
:103FC000F0E70022FF2311462920EBE707F04EFB24
:103FD00047F22F53984201D90624C5E77B7E002B78
:103FE000C9D00424C0E7FF224FF4FA612846FDF748
:103FF000F5FF2846FDF7A4FF0022064B1A707EE766
:104000000022044B1A70FEF7BDFAB8E7F012002048
:10401000640C0020EC12002080350020014B197840
:10402000FFF758BFEC1200200120704770B506461C
:104030000D4626200021FDF7BBFF10B900242046C5
:1040400070BD00212720FDF7B3FF0028F6D0002126
:104050002820FDF7ADFF0028F0D000212920FDF732
:10406000A7FF0028EAD029463046FFF7DDFF0446C7
:104070000028E3D00022044B29461D70034B304634
:104080001A60FFF727FFDAE7EC120020F012002099
:1040900070B50C461546FEF795F8064680B17CB122
:1040A000134B5B7E13BB013C052C09D8DFE804F001
:1040B000030C120808182DB102212620FFF7B6FFC5
:1040C000304670BD0121F8E715B102212720F5E740
:1040D0000121FBE715B102212820EFE70121FBE7D1
:1040E00015B102212920E9E70121FBE71E46E7E798
:1040F000640C002008B5094B1B786BB9FEF730FA49
:1041000050B9074B1A783AB1064A527E22B959780B
:10411000BDE80840FEF7DCB808BD00BFEC12002087
:1041200080350020640C0020704700002DE9FF4717
:10413000414E05460F46FFF7F7FFFFF7DBFF3478E8
:10414000002C32D03D4D2B6813B907F049FA286096
:10415000286807F08BFA41F28733984205D9337803
:104160000133337007F03CFA28603378013B032BAE
:1041700017D8DFE803F0020C10140022C820114603
:1041800005F048F90024204604B0BDE8F08700227D
:10419000C8211046F4E70021C8220846F0E7C822EB
:1041A000F6E7002434702C60EDE7254B1B78BBB993
:1041B00039462846FFF7CCFA0028E3D0394628468E
:1041C000FFF7E6FA0028DDD03946284600F0EAF984
:1041D00004460028D6D039462846FDF719FFD2E715
:1041E000002320461A461946013404F071FA572C70
:1041F000F6D10024DFF84CA0DFF84C900DF1040854
:104200000A26514632464046FCF7FAF999F81F3023
:10421000E2B2B3FBF6F6964214F8080008D9002380
:10422000FF211A46013404F053FA0A2CE8D1BFE703
:1042300000231A461946F5E7E3120020E412002095
:10424000DE12002040F60008640C002070B5054620
:104250000E46FEF71DF8FEF783F910B10320FEF7B6
:104260001FF82B780A2B0ED10124084B31461C7005
:10427000074B28461B781BB907F0C2FC204670BDCF
:104280000AF0B8FFFAE70020F9E700BFF9120020B2
:1042900080350020012810B5044611D002280AD12B
:1042A000FEF75EF90138012805D80320FDF7F8FF75
:1042B0000020FEF75BF92046BDE8104007F036B954
:1042C000014B1870F7E700BF40110020014808F0CB
:1042D0000AB900BFA0860100F8B5204C0546237836
:1042E0001F4E002B38D0E3781E4F13F001032DD161
:1042F000FA7F1E2A2AD81A46FF210320FDF740FE26
:1043000003224FF4FA712846FDF768FE0123164A8E
:1043100033701370E378FA7F03F001031343134CF7
:1043200017D1238813B907F095F92080208807F06A
:1043300096F942F21073984203D900232380FFF7C5
:104340007DF92846BDE8F840FDF7FABD002333703B
:10435000E0E700232380F4E73370F2E780350020A4
:10436000FA120020640C0020FB1200200013002031
:10437000037C032B06BF024B18780120704700BF57
:10438000FA120020024B1878C0F34000704700BFBB
:10439000CC350020034B1A7860F341021A7018687C
:1043A00001F02BBBCC3500200222024B1A7018689A
:1043B00001F023BBCC3500204FF08052034B01208D
:1043C0009A614FF000529A61704700BF00040040AC
:1043D0004FF40052034B01209A614FF480529A61CE
:1043E000704700BF0004004010B5084C0022802137
:1043F000074809F026FA204601224FF4005109F03F
:1044000020FA4FF400530120A36110BD00040040C6
:104410000008004010B5224C01224FF48051204684
:1044200009F00FFA4FF480530122A3614FF4007199
:104430001C4809F006FA01224FF48071194809F06E
:1044400000FA01220221174809F0FBF920228021FD
:10445000144809F0F6F920224021124809F0F1F938
:1044600020224FF400714FF0804009F0EAF901F08A
:10447000C1FA0D4B186008B9FFF796FF07F0B0F8C6
:104480000A4B18604FF08043186910F4007018BF91
:10449000022000F0F7F90320FDF752FD012010BDC6
:1044A0000004004000080040CC3500200413002028
:1044B00008B5FDF75DFE0023C8211A46FF20FDF771
:1044C0005FFD03224FF4FA71FF20FDF787FDFF2007
:1044D000FDF736FD012008BD38B5284C206807F0EF
:1044E000C5F840F6B73398420DD907F079F8244A59
:1044F000206013692349C3F3C0130B701369224A68
:10450000C3F380131370214DEB7813F0010303D133
:104510001F4A117801B113701E4B1B7873B11A4BEF
:104520001B785BB91C4C2278032A02D066200AF063
:1045300085FD0122164B1A7003232370EB78DB07ED
:1045400009D4154C2278012A05D012B165200AF051
:1045500075FD002323704FF0804318690F4BC0F3A3
:10456000402018700E4B1A78824204D0187000B1A7
:10457000022000F087F9012038BD00BF041300209D
:1045800000080040FF0E0020000F002080350020B2
:10459000FD120020FC120020FB120020021300205C
:1045A000FE12002010B506F095FE10F0020F234B0E
:1045B0003BD04FF000729A614FF080729A614FF4D5
:1045C00000329A6106F086FE420705D5C8235520C1
:1045D0001A46194604F07CF8194B1B785B070AD57C
:1045E000184B187800F0DFF928B9C82302201A46C2
:1045F000194604F06DF8144B1B78A3B9134B1B78C4
:104600008BB9134C2278022A02D064200AF016FDDE
:104610000022FF231146032004F05AF801220D4B1B
:104620001A7002232370012010BD4FF400729A61AA
:104630004FF480729A610222C3E700BF0008004075
:10464000CC3500200E130020FF0E0020FD120020AC
:10465000FB120020FC12002047F60663984270B55A
:1046600073D01ED847F62303984231D005D847F2BD
:104670000B03984251D001244DE047F60263984263
:104680000AD8B0F5FC4FF6D38B78002BF3D03C4B17
:104690001C7804F001043EE047F605639842F3D02D
:1046A000E9E747F61763984245D047F645639842D5
:1046B00030D047F616639842DDD1314B1B785A074C
:1046C000D9D4E3208C78002C3CD0FEF799F922E075
:1046D0008B78002BCFD00722294C2178C1F3C2035D
:1046E0000133B3FBF2F2C2EBC2029B1A0A4663F338
:1046F000C5022270234A03EB4303D118D55C4E78E0
:1047000005F0FAFC31460246284605F0E6FC206832
:1047100001F073F90024204670BD8C78002CFAD08B
:10472000174A137883F00401C1F3800161F3820317
:1047300013701068ECE7124B1B785B079BD4E720E3
:104740008C78C0E7FEF7BCF995E78C78002C92D006
:104750000D4B0B4D1E783EB12B786FF300032B7081
:10476000286801F04AF9D6E7597832463046FDF715
:10477000AFFD2B7843F001032B702868C8E700BF1A
:10478000CC3500207CF900088035002047F6056212
:1047900008B503469342084604D009D8A3F5FC4364
:1047A000022B0ED868B1084B187800F0010007E022
:1047B00047F64562934204D111B1FFF727F8002074
:1047C00008BD0120FCE700BFCC3500200420704765
:1047D00003280DD805290BD8102A09D8662301EB28
:1047E000011103FB0010034B024433F81200704721
:1047F000012070474CF600080120704701207047E7
:10480000704708B5FFF7FCFF08BD000013B502AB09
:1048100003E903000F4B1B78B3B99DF802300098F1
:1048200073B16AB100F0A2FC04460146009800F0A2
:104830006BFC2046009902B0BDE8104001F0EEBAD2
:1048400000F07CFC0446F4E7009800F08FFC00992F
:10485000F1E700BF0D130020034610B400885C8808
:104860000A4640EA0440998810BCFFF7CFBF0120F8
:10487000704710B504460021FFF7EEFF2146FFF711
:10488000C0FF10BD10B501248440E4B2204601F001
:104890009FF82046BDE8104000F099BB704708B56E
:1048A00000F038FBFFF7FAFFBDE8084046F2A81019
:1048B00007F019BE08B5FFF7F2FFBDE8084006F0A3
:1048C000EDBE08B5FFF7EBFFBDE8084006F00EBFF0
:1048D00038B501210546FFF7BFFF2946044605F01C
:1048E00029FE08B9002038BD29462046FFF7E8F820
:1048F0000028F7D02946204606F02AFB0028F1D0F0
:104900002946204606F004F80028EBD02946204628
:1049100006F09CFA0028E5D02946204605F0B2FCB6
:104920000028DFD02946204606F060FB0028D9D0B9
:10493000AB787BB147F65A439C4222D00ED847F65B
:1049400001439C421AD047F603439C4214D0B4F56D
:10495000F84F0ED02846FFF74FFFC4E747F65B43FA
:104960009C4211D047F65C439C42F3D101F000F821
:10497000F0E7FFF79FFFB5E701F00CF8FFF7A1FFA5
:10498000B0E701F001F8E5E701F001F8E2E708B56A
:1049900000F030F803F0F8F8002005F0C9FABDE89F
:1049A0000840FFF77BB8034600091CBF03460420FC
:1049B0009A081EBF13460230C0B25B081CBF01300C
:1049C000C0B27047704701207047704738B5054640
:1049D000FFF7F9FF044610B12846FFF7F6FF20461F
:1049E00038BD704710B50446FFF7ECFF2046FFF7CF
:1049F000EDFF10BD08B506F065FCFFF7F3FF08BD3D
:104A000010B506F05FFC074B04461A78824207D0C7
:104A1000187006F0E5FD044B18602046FFF7E2FF32
:104A200010BD00BF0C1300200813002010B586B085
:104A30006C4684E803009DF802300BB100F0DAFE0A
:104A40000023ADF8163094E80300ADF8141089B2D5
:104A50000490ADF80C0004AC41B14FF6FF7382B284
:104A60009A4203D02046FFF702FF18B194E80300F2
:104A700000F0F4FD06B010BD008800F097BB704751
:104A800038B505460C46FDF7BBFF1CB92846FEF7B6
:104A900017F838BD6420013C07F025FDA4B2F4E707
:104AA00008B539280CBF50210021FFF7E9FF08BDE8
:104AB0002DE9F047877981460C46857800F064FE41
:104AC0003F090646F0B12E46E5B1C4F3072303F0D3
:104AD000F002402A09D004F12002D2B2072A24D9D8
:104AE0001FB903F0E003202B21D0AE4B5E7816F007
:104AF000040607D0022000F007FF00F045FE80F01A
:104B00000106F6B2C4F3033ABAF10B0F3ED8DFE860
:104B10001AF0100010005E005E00CA003D003D006B
:104B20003D00E2004001520152010026EAE73E4604
:104B3000E8E7C4F30723C4F3032713F0F00F18BF0B
:104B40003F01E4B285B157B104F12003DBB2072B7A
:104B5000384600D92CB900F027FE00F07BFE204635
:104B60005EE000F037FEF8E72046FDF7A9FF6FB1E1
:104B700004F12003DBB2072B384600D914B900F04A
:104B80001BFE01E000F02EFE00F064FEAAF1080A10
:104B9000BAF1030F03D806F095FBFFF723FF002EB1
:104BA00000F0628100F0E8FD10F0010040F05C814F
:104BB00089F8020000F0D8FD00F03CFA484600F009
:104BC00069F900F0D1FDBDE8F04700F03FBAC4F349
:104BD000072303F0F003C4F30328202BE4B218BF2B
:104BE0004FEA081874B1012C48D0002D4ED0002F88
:104BF00047D099F80630DA07B1D56FF3071389F873
:104C000006303EE0674B5B78590714D45DB1B8F1CC
:104C1000000F04D0404600F0C7FD00F01BFE00204E
:104C2000FDF7EEFEB2E72846FDF74AFFB8F1000FA8
:104C3000ACD04046A3E795B13FB900F0E1FD40EAB2
:104C40000800C0B2FDF78AFFA0E7012FF5D100F000
:104C5000D7FD40EA0800C0B200F0DEFD96E72FB9AC
:104C600000F0ECFD4046FDF7A5FF8FE7012F8DD04A
:104C70004046FDF79FFF00F0E1FD87E71DB1052FDE
:104C800084D84046DEE7042F80D8EBE7002FE9D038
:104C9000392C0CBF4FF4FA50012007F024FC2046B9
:104CA000FDF70EFF72E714F4406FC4F3812308D0C0
:104CB000012B7FF46BAF65B1C4F3090006F04AFB2A
:104CC00064E725B1C4F3090006F028FB5EE7284637
:104CD000FAE72846F2E714F4407F29D1002D7FF44B
:104CE00055AFC4F342108000C2B204F00F0014F0BC
:104CF000100300FA02F0C5B21EBF0F209040C0435F
:104D0000C4F3812418BFC3B2022C43EA050009D0C2
:104D1000032C0AD0012C02D000F064F936E700F031
:104D200059F933E700F066F930E700F050F92DE764
:104D3000C4F3012215B302F00103002B3FF426AFA8
:104D4000C4F342108000C2B204F00F0014F010034C
:104D500000FA02F0C5B21EBF0F209040C043C4F35A
:104D6000812418BFC3B2022C43EA05000BD0032CE8
:104D70000CD0012C04D000F087F907E75308DCE7DA
:104D800000F07AF902E700F087F9FFE600F040F959
:104D9000FCE6E7B2C4F3032435B1204600F04AF93B
:104DA00038464FE7D03500203846FDF703FF204650
:104DB00000F04CF9EAE65FFA84F8A8F1F003042B5E
:104DC0003DD8DFE803F003220E151E003DB1042F8D
:104DD0003FF6DCAEC4F3042000F042F9D6E6052F1E
:104DE000F6E7C4F30420002DE2D100F023F9CDE66C
:104DF00025B1C4F3042000F016F9C7E600F010F95D
:104E0000C4E61A4B5B785B0704D4C4F30420002D7E
:104E1000CED0EAE74DB1C4F30424204600F00AF9ED
:104E20000321204600F04CFDB0E6012000F06CFDAF
:104E3000012F7FF6ABAE022000F066FDA6E62DB195
:104E40000FB14046ECE6C4F30420CEE74FB1B8F111
:104E5000390F0CBF4FF4FA50012007F044FB4046D5
:104E60001EE7C4F30420A3E7BDE8F087D035002097
:104E700038B501880446807800F0A4F9054600F0B2
:104E800013F900F0A3F829462046BDE83840FFF7A3
:104E90000FBE000037B5858804460146022201A8EE
:104EA000FBF7AEFBF5B14FF6FF73BDF804209A4255
:104EB00018D02046FFF70CFD70B900F065FC88B1F2
:104EC000A3787BB1084B5B785B070BD5022003B05E
:104ED000BDE8304000F018BD2046FFF7C9FF20466E
:104EE000FFF7C7FC03B030BDD035002008B5002067
:104EF00006F014FA002006F02DFA00F07BFCBDE865
:104F0000084000F0A7BC08B500F028FCBDE8084048
:104F1000FFF7ECBF08B500F057FCBDE80840FFF70D
:104F2000F2BFC2B2C0F30330062814D094BF00F120
:104F30000E03831D03F00F03012B10D8F02A10D0AD
:104F400004D8E72A8CBF002001207047F42A14BF40
:104F5000002001207047E72A03D9F12AF7E7002053
:104F600070470120704737B5858804460146022204
:104F700001A8FBF745FB6DB14FF6FF73BDF80420A8
:104F80009A4207D0208800F011F903B0BDE8304004
:104F9000FFF7C7BF002003B030BD82B002AB03E90A
:104FA000030002B0704782B002AB03E9030002B015
:104FB0007047704708B5FFF7FCFF08BD08B5FFF75D
:104FC000F9FF014B187008BD0E1300207047FFF762
:104FD000F5BF0000024B1B781843FFF7EFBF00BF7F
:104FE0000E130020024B1B781840FFF7E7BF00BFED
:104FF0000E130020024B1B785840FFF7DFBF00BFA5
:105000000E130020704708B5FFF7FCFF08BD000035
:1050100008B5FFF7F8FF014B187008BD0F1300200B
:105020000020FFF7F5BF012303FA00F0C0B2FFF73D
:10503000EFBF0000012303FA00F0034B1B78184375
:10504000C0B2FFF7E5BF00BF0F1300200123034AE2
:105050008340107820EA0300FFF7DABF0F13002027
:10506000012303FA00F0034B1B785840C0B2FFF74E
:10507000CFBF00BF0F130020024B1B781843FFF770
:10508000C7BF00BF0F130020024B1B781840FFF76B
:10509000BFBF00BF0F130020024B1B785840FFF723
:1050A000B7BF00BF0F130020704701F00703C90806
:1050B00030B501EB410101240139114400229C402B
:1050C000E4B211F8015F20FA02F343F300036B40EE
:1050D000234001326B40032A0B70F2D130BD002215
:1050E00010B500F00704C00800EB40000144104672
:1050F0008B5CE34003F00103934001321843032A21
:10510000C0B2F5D110BD000017B40C46C0F30721A2
:105110000529ADF804000CD89DF80430102B08D8F0
:10512000204603EB0113044A194403B010BCFFF7F7
:10513000BCBF03B010BC70471013002082B0ADF8A4
:105140000400C0F3072005280AD89DF80430102B6E
:1051500006D8054900EB0010184402B0FFF7BFBFA6
:10516000002002B0704700BF1013002073B5032465
:105170000C4BADF804001E780B4B1B781E4346FA0F
:1051800004F3DB07E5B205D4013CF8D2002528463C
:1051900002B070BD2846019900F051FE80B201288E
:1051A000F2D0F4E70F1300200E13002007B5ADF87E
:1051B00004000198FFF7DAFF019903B05DF804EBF2
:1051C00000F03DBE13B5104BADF804101B782BB1A9
:1051D000019802B0BDE81040FFF7E8BF70B1019838
:1051E000FFF7C4FF044601460198FFF78DFF2046F4
:1051F000019902B0BDE8104000F021BE0198FFF710
:105200009DFF0446F3E700BF0D13002010B50124F5
:1052100004FA01F104FA02F20A43D1B202408A42CE
:1052200004FA03F406BF2043C0B2A04310BD00003F
:1052300008B513460A46014603480078FFF7E6FF23
:10524000BDE80840FFF7E4BE0F130020F8B50C4B93
:105250000C4E1C780C4D3378A34200D1F8BD05EB01
:10526000C40335F834005F889A88D98840EA07403B
:1052700042EA01410134FFF796FE04F00704EAE731
:10528000811300208013002040130020064B10B42F
:1052900018885C889A88D98840EA044042EA01412B
:1052A00010BCFFF780BE00BF3813002084B0ADF8FB
:1052B0000C0049B14FF6FF7380B2C31A58425841EF
:1052C00080F0010004B070470120F9E7F0B50D4B04
:1052D0000D4C1B7826780D4CB34201D10020F0BD57
:1052E00004EBC3056F788F4206D114F83370874200
:1052F00002D1AD78954203D1013303F00703EBE708
:105300000120ECE7811300208013002040130020CF
:105310001E4A2DE9F041937913F0F00F0CD19378E8
:1053200053B11B4B91881C781A4B57781E7892F812
:105330000080194DB44201D1BDE8F0811088FFF71B
:10534000B5FFF8B105EBC4035878B8421AD115F887
:105350003400404516D19878A0B99888401A80B298
:10536000C7280FD80121907961F3071090719A79BD
:10537000064861F307129A71FFF78CFDBDE8F04112
:10538000FFF764BF013404F00704D3E738130020AB
:105390008113002080130020401300202DE9F04FDE
:1053A00087B0AD4E02AB0146044606221846FBF715
:1053B00027F93288B1881046FFF778FFB346A778FF
:1053C0000190002800F03581B4F804A0B578AAEB6C
:1053D000010194F8009094F801801FFA81FC02AB5F
:1053E000002D00F0E180B079BCF1C70F00F0F001B2
:1053F000009100F2B580009B2188002B7AD18A426F
:105400003D460FD177B9012363F30710B071FFF761
:105410003DFF3046FFF73EFDB379A371284607B044
:10542000BDE8F08F8DF810908DF8118051460498EA
:10543000FFF73CFF28B127B93A4641464846FFF7F7
:1054400045FF8DF810908DF8118051460498FFF7B4
:105450002DFF064618B9002F3BD10025DEE7002FAF
:1054600037D13A4641464846FFF730FF0546002807
:10547000F3D18DF808908DF809800298FFF796FE19
:10548000C0F30332032AC3B209D8012A11D910F498
:10549000706F13D0A27912F0F00F0FD1BEE7063271
:1054A00002F00F02012A0ED92046FFF7F3FC354621
:1054B000B4E710F4706F01D0002BAFD02033DBB213
:1054C000072BABD9F0E7EF2BA8D90F33DBB2022BB8
:1054D000F7E79BF80630604843F001038BF806308D
:1054E000FFF7D8FC082200215B48FBF7FFF8FFF725
:1054F000CDFEB2E78A420CD15FB9A0712046FFF71A
:10550000C9FC082221463046FBF77AF8FFF7BEFEB9
:1055100084E72046FFF727FDE8B1E7B19BF80630A6
:105520001F2B0DD9BBF8002004A8ADF810200022D5
:10553000ADF814A08DF812208DF81630FFF7AAFCF4
:10554000082221464448FBF75BF8FFF7E1FEFFF72E
:105550009DFE019D62E72046FFF79CFC01255DE76B
:10556000009991B98DF80A70ADF80CA08DF80890EB
:105570008DF8098093E80300FFF70FFD3046FFF731
:1055800089FC082230460099AFE723889A42C0D1AF
:10559000002FBED1A0712046FFF77CFC08223946BF
:1055A0003046FBF7A3F839E7BCF1C70F2FD83D46CB
:1055B000002FD0D023889A421CD1B379DA0713D4B4
:1055C00013F0F00210D0F02AA37106D0DBB2C3F3BF
:1055D0000312013262F30713A3712046FFF75AFC4E
:1055E000082221461C488FE7082221461A48FBF76B
:1055F00007F813E72046FFF7B6FC0028A0D1B379DF
:10560000204643F00103B371FFF744FC06E78DF831
:105610000A70ADF80CA08DF808908DF8098093E819
:105620000300FFF7BAFC082229463046FBF75EF874
:105630006CE7002F8FD02046FFF795FC0546002829
:1056400089D0082221463046FAF7DAFF3046FFF7C4
:1056500013FAFFF75DFE59E738130020F0B587B065
:105660006C4684E803002046FFF798FE2F4F06465D
:105670002F4D58B1BDF804100098FFF717FE18B170
:1056800094E80300FFF78FFC2A4C48E004AB94E851
:10569000030083E80300BDF80420BDF81010ADF846
:1056A0000C10002AF0D04FF6FF74BDF80CC038780B
:1056B000A4452978E8D0441C04F007048C420CD09F
:1056C00019461C4BADF8142003EBC0000822FAF772
:1056D00097FF3C70FFF7BAFDD6E7FFF71BFC0822E7
:1056E000314615483E702E70FBF700F8CCE704EB0E
:1056F000C000FFF753FEB0B12B7834F8330004EB51
:10570000C3035E889A88D98840EA064042EA01418C
:10571000FFF749FC2B78013303F007032B7028783F
:105720003B788342E3D107B0F0BD00BF8013002077
:10573000811300204013002038130020024B014643
:10574000186805F0ADBE00BFDC0F0020024B01461B
:10575000186805F0BDBE00BFDC0F0020014B1868C3
:1057600005F0CEBEDC0F0020024B93F90000C0F321
:10577000C7007047C2130020024B187800F00700E2
:10578000704700BFC2130020034B187810F00700C9
:1057900018BF0120704700BFC2130020014B1878CA
:1057A000704700BFC4130020024B1A7810431870D2
:1057B000704700BFC4130020024A137823EA000395
:1057C00013707047C41300200022014B1A707047F9
:1057D000C4130020024B1A7810431870704700BFA2
:1057E000C5130020024A137823EA000313707047A0
:1057F000C51300200022014B1A707047C51300200A
:10580000014B1878704700BFC3130020704708B5DC
:10581000FFF7FCFF08BD0000064A08B552785207A2
:1058200006D5054A1178814202D01070FFF7EFFFCC
:1058300008BD00BFD0350020C313002008B5044BBD
:105840001A781AB100201870FFF7E1FF08BD00BFF9
:10585000C313002010B5124B12491B780978124C63
:105860000B43124920680978437031B10B434370F0
:1058700005F08CFD08B1FFF7E1FF246820222046E7
:105880000B49FAF78DFE48B1214620220848FAF765
:10589000B7FE2046BDE8104005F020BD10BD00BF9A
:1058A000C4130020C5130020DC0F0020C313002008
:1058B000A2130020704708B5FFF7FCFF08BD0000E9
:1058C0000A4A10B5527852070CD5094C41EAC0017A
:1058D0002170FFF7AFFB94F90000C0F3C700FFF79A
:1058E000EAFF10BDBDE81040FFF7A4BBD035002093
:1058F000C2130020002008B5024B1870FFF7DBFF31
:1059000008BD00BFC213002008B50C4A92F9003050
:1059100023EA000040B2107042070ED1DBB283428E
:105920000BD0074B5B785B0707D5C0F3C700FFF7C9
:105930008DFBBDE80840FFF7DDBF08BDC2130020A6
:10594000D0350020094A08B55378C3F3800181425D
:105950000AD060F382035370108800F040F8BDE86D
:1059600008400220FFF7D0BF08BD00BFD03500209F
:10597000044B5878C0F3800080F0010000F0010073
:10598000FFF7E0BFD03500200120FFF7DBBF00208C
:10599000FFF7D8BF08B501F081F8BDE808404FF621
:1059A000FF71002001F05CB808B5002000F0F1FFA5
:1059B0004FF6E763984203D1BDE8084004F054BDB8
:1059C000002008BD022000F0D5BF032000F0D2BFA8
:1059D0000146032001F036B8042000F0DABF01468A
:1059E000042001F03DB80F2000F0E2BF01460F2077
:1059F00001F044B8132000F0DBBF0146132001F092
:105A00003DB80020FFF7F9BF08B50020FFF7EEFF13
:105A1000FFF7F7FF08BD000010B5002401F03EF8C5
:105A20004FF6E761002001F01BF80021022001F091
:105A300009F80021032001F005F8194B4FF4A0519B
:105A400004201C7001F00CF82146062000F0FAFF3B
:105A5000FF21072000F0F6FF2146082001F00EF894
:105A600021460D2000F0EEFF2146182001F006F837
:105A70002146172000F0E6FF21461C2000F0FEFF23
:105A80002146202000F0ECFF2146182000F0F6FF10
:105A9000204604F0FFFC04F027FDFFF7B5FF10BD22
:105AA0000E130020FFF7B8BF01460E2000F0CABF5A
:105AB00037B505F0CFFD0D4D04462B88834212D03B
:105AC0004FF6FF73ADF8003000238DF8023005F07B
:105AD000C1FD40F00100ADF8040002AB13E9030082
