:04000005080041B9F5
:020000040800F2
:103F000000312E3100000000000000000000000021
:103F1000E9E42D3444736D5F36384B204B6579628C
:103F20006F61726400000000000048616E67736892
:103F3000656E670000000000000000000000000047
:103F40000000000000000000000000000000000071
:103F50000000000000000000000000000000000061
:103F60000000000000000000000000000000000051
:103F70000000000000000000000000000000000041
:103F80000000000000000000000000000000000031
:103F90000000000000000000000000000000000021
:103FA0000000000000000000000000000000000011
:103FB0000000000000000000000000000000000001
:103FC00000000000000000000000000000000000F1
:103FD00000000000000000000000000000000000E1
:103FE00000000000000000000000000000000000D1
:103FF00000000000000000000000000000000000C1
:1040000000040020B9410008BB410008BB41000882
:10401000BB410008BB410008BB410008241C010053
:104020004D184016BB410008BB410008FD140108B3
:10403000BB410008BB410008BB410008372701080D
:10404000BB410008BB410008BB410008BB41000860
:10405000BB410008BB410008E17600082177000859
:1040600061770008A5770008E9770008BB410008E0
:10407000BB410008BB410008012E0108BB410008FC
:104080002D780008BB410008BB410008BB41000877
:10409000BB410008BB410008BB410008BB41000810
:1040A000BB410008BB410008ED290108012A0108B5
:1040B000BB410008BB410008BB410008BB410008F0
:1040C00055270108CD780008BB4100088179000818
:1040D000BB410008BB410008BB410008BB410008D0
:1040E00072B6264880F30888254880F30988254859
:1040F00025490860022080F31488BFF36F8F0CF00D
:1041000017FF0CF0F3FC4FF0553020491B4A914249
:104110003CBF41F8040BFAE71D49194A91423CBFE4
:1041200041F8040BFAE71B491B4A1C4B9A423EBF5D
:1041300051F8040B42F8040BF8E700201849194A1B
:1041400091423CBF41F8040BFAE70CF0F5FE0CF08D
:10415000F0FE154C154DAC4203DA54F8041B8847A9
:10416000F9E707F009FC124C124DAC4203DA54F89F
:10417000041B8847F9E70CF0DDBE000000040020B6
:10418000000C00200040000808ED00E000000020C6
:1041900000040020D8550108000C00204C1100201C
:1041A00050110020003F0020E0400008E0400008DF
:1041B000E0400008E040000892E700F000F8FEE769
:1041C0002DE9F04FC1F80CD0C3689D46BDE8F08FD3
:1041D000002383F311882846A04700200DF0C2F881
:1041E000FEE70CF0F3FF00DFFEE7000053B94AB929
:1041F000002908BF00281CBF4FF0FF314FF0FF30EF
:1042000000F076B9ADF1080C6DE904CE00F006F8C7
:10421000DDF804E0DDE9022304B070472DE9F04742
:10422000089E0D4604468846002B4DD18A4294468E
:1042300068D9B2FA82F252B101FA02F3C2F1200156
:1042400020FA01F10CFA02FC41EA030894404FEA1B
:104250001C41B8FBF1F71FFA8CFE01FB178807FB26
:104260000EF0230C43EA084398420AD91CEB0303DF
:1042700007F1FF3580F01E81984240F21B81023F1A
:1042800063441B1AB3FBF1F001FB103300FB0EFE7D
:10429000A4B244EA0344A6450AD91CEB040400F185
:1042A000FF3380F00981A64540F20681644402385C
:1042B0000021A4EB0E0440EA07401EB10023D440C5
:1042C000C6E90043BDE8F0878B4208D9002E00F014
:1042D000EE800021C6E900050846BDE8F087B3FA84
:1042E00083F100294AD1AB4202D3824200F2FC8022
:1042F000841A65EB030301209846002EE2D0C6E93C
:104300000048DFE702B9FFDEB2FA82F2002A40F08D
:104310009180A1EB0C0001214FEA1C471FFA8CFE93
:10432000B0FBF7F307FB1300250C45EA00450EFB35
:1043300003F0A84208D91CEB050503F1FF3802D2AF
:10434000A84200F2CE8043462D1AB5FBF7F007FBDA
:1043500010550EFB00FEA4B244EA0544A64508D958
:104360001CEB040400F1FF3502D2A64500F2B68032
:104370002846A4EB0E0440EA03409EE7C1F1200763
:104380008B4022FA07FC4CEA030C25FA07FA4FEAA5
:104390001C49BAFBF9F820FA07F309FB18AA8D406B
:1043A0001FFA8CFE1D4300FA01F308FB0EF02C0CE3
:1043B00044EA0A44A04202FA01F20BD91CEB0404BD
:1043C00008F1FF3A80F08880A04240F28580A8F191
:1043D00002086444241AB4FBF9F009FB104400FB02
:1043E0000EFEADB245EA0444A64508D91CEB040410
:1043F00000F1FF356CD2A6456AD90238644440EA20
:104400000840A0FB0295A4EB0E04AC42C846AE46A1
:1044100056D353D0002E69D0B3EB080264EB0E04E0
:1044200022FA01F304FA07F71F43CC40C6E90074EF
:10443000002147E70CFA02FCC2F1200125FA01F342
:104440004FEA1C4720FA01F195400D43B3FBF7F109
:1044500007FB11331FFA8CFE280C40EA034001FBD6
:104460000EF3834204FA02F408D91CEB000001F1B8
:10447000FF382FD283422DD902396044C01AB0FBD5
:10448000F7F307FB1300ADB245EA004503FB0EF05E
:10449000A84208D91CEB050503F1FF3816D2A84243
:1044A00014D9023B6544281A43EA014138E73146F2
:1044B000304607E72F46E4E61846F9E64B45A9D211
:1044C000B9EB020865EB0C0E0138A3E74346EAE7B7
:1044D000284694E74146D1E7D0467BE7644402385A
:1044E00047E7023B65442FE7084606E73146E9E621
:1044F000704700BF062008B500F0E0FA01200DF07B
:1045000063FF00BF024B0146186800F06DB900BFA1
:10451000000C0020024B0146186800F0FFB800BFF5
:10452000000C0020032A10B516D940EA010C1CF03B
:10453000030F04460B4622D119462046D1F800E06D
:10454000D0F800C00433F44504F1040417D1043A50
:10455000032A20461946EFD8541EA2B100F1FF3CB1
:10456000013901E0C3180CD01CF801EF11F8012F3C
:10457000A4EB0C039645F5D0AEEB020010BD541E23
:10458000ECE7184610BD104610BD00BF844641EA56
:10459000000313F0030349D1403A23D30B680360AF
:1045A0004B6843608B688360CB68C3600B690361B1
:1045B0004B6943618B698361CB69C3610B6A036299
:1045C0004B6A43628B6A8362CB6AC3620B6B036381
:1045D0004B6B43638B6B8363CB6BC3634030403166
:1045E000403ADBD230320BD30B6803604B68436038
:1045F0008B688360CB68C36010301031103AF3D2FF
:104600000C3205D351F8043B40F8043B043AF9D28C
:10461000043208D0D2071CBF11F8013B00F8013B5F
:1046200001D30B8803806046704700BF082A13D36C
:104630008B07B1D010F00303AED0C3F10403D21A3C
:10464000DB071CBF11F8013B00F8013BA4D331F894
:10465000023B20F8023B9FE7043AD9D3013A11F814
:10466000013B00F8013BF9D20B7803704B784370A3
:104670008B78837060467047830730B548D0541EEE
:10468000002A3FD00346CAB201E0013C3AD303F806
:10469000012B9D07F9D1032C2DD9CDB245EA052573
:1046A0000F2C45EA054536D9A4F1100222F00F0C73
:1046B00003F1200EE6444FEA121C03F1100242E916
:1046C000045542E9025510327245F8D10CF101024D
:1046D00014F00C0F03EB021204F00F0C13D0ACF12A
:1046E000040323F003030433134442F8045B9342AE
:1046F000FBD10CF003042CB1CAB21C4403F8012B0B
:104700009C42FBD130BD64461346002CF4D1F9E73E
:1047100003461446BFE71A46A446E0E7002952D0F4
:1047200038B551F8043C0C1F002BB8BFE4180546FF
:1047300000F0F0FA2B4A1368002B45D0A3420CD9A5
:1047400021686018834228D0636028461460BDE861
:10475000384000F0E1BAA3420FD81A465B68002B3C
:10476000F9D11168501884421DD034D3636054606D
:104770002846BDE8384000F0CFBA11685018A04272
:1047800015D028D8216860188342EFD118685B687B
:104790000144C4E900135460EAE718685B68014407
:1047A000C4E90013D1E7236819441160E0E72068E9
:1047B0000144501883421160DAD1D3E90003014467
:1047C000C2E90013D4E77047284663601460BDE86F
:1047D000384000F0A1BA0C2328462B60BDE83840D1
:1047E00000F09ABA50110020F8B5CD1C25F0030551
:1047F00008350C2D38BF0C25002D064623DBA942B9
:1048000021D8264F00F086FA3A6822B3144603E016
:1048100063682246FBB11C4623685B1BF8D40B2B54
:1048200015D8636894420CBF3B605360304600F07B
:1048300073FA04F10B00231D20F00700C21A01D007
:104840001B1AA350F8BD0C2300203360F8BD236071
:104850001C442560EAE77968D1B1294630460DF05D
:1048600097FD431C01460CD0C41C24F00304A04255
:1048700005D03046611A0DF08BFD013001D0256066
:10488000D4E70C233046336000F046FA0020F8BD30
:1048900030460DF07DFD7860DFE700BF501100204D
:1048A00038B5124B04461D68AA6B1AB10023C2E941
:1048B000044338BD1820FFF725FE0246A86378B1EF
:1048C00000210B2301209381C2E90401084B09490F
:1048D000094DC2E9011300231560C2E9044338BD44
:1048E0004221064B064800F0CDF900BF000C002025
:1048F000ECDE050034126DE60E33CDAB0855010831
:104900002055010838B5194B1C68A26B8AB1136990
:104910001749546903FB01F1164800FB0411A3FB7E
:104920000030013341EB0001C2E9043121F00040C5
:1049300038BD1820FFF7E6FD0246A06388B10124C8
:1049400000250B230A480C49C2E9044511600146C1
:104950000A4D0B4C93810B4BC2E90154C2E904315F
:1049600038BD4E21084B094800F08CF9000C00209E
:104970002DF451582D7F954C0E33CDAB34126DE68E
:10498000ECDE05002E7F954C0855010820550108E6
:1049900038B5446C0CB1002038BD80210546FFF7C6
:1049A00023FF0246686430B1031F7C3243F8044F92
:1049B0009342FBD1EFE74FF0FF3038BD1F29F8B528
:1049C000054608D8466C0C4617464EB156F82400EA
:1049D00046F82470F8BD16234FF0FF302B60F8BD69
:1049E0008021FFF701FF0646686440B10021031FE4
:1049F00000F17C0543F8041F9D42FBD1E6E74FF030
:104A0000FF30F8BD1F2938B5054620D8426C0C464A
:104A10006AB152F8213053B1012B16D0591C10D075
:104A20000025204642F824509847284638BD28469D
:104A300000F0F8F8224601462846BDE8384000F06C
:104A4000DDB8162301202B6038BD002038BD1623A9
:104A50004FF0FF302B6038BD1F292BD8426C38B582
:104A60000C46054682B152F8243002EB84024BB169
:104A7000591C1AD0012B16D00025204615609847E6
:104A8000284638BD012038BD8021FFF7ADFE024623
:104A9000686460B10020131F02F17C0143F8040F29
:104AA0009942FBD1DFE7032038BD022038BD4FF02B
:104AB000FF3038BD4FF0FF30704700BF38B5144BA2
:104AC0001F281D681FD86A6C044662B152F8203056
:104AD0004BB1012B15D0591C0FD0002542F82050A6
:104AE0009847284638BD284600F09CF822460146E3
:104AF0002846BDE8384000F081B8162301202B601D
:104B000038BD002038BD16234FF0FF302B6038BD74
:104B1000000C0020124B1F2870B51E6808D80D46E7
:104B2000716C044649B151F8240041F8245070BD1D
:104B300016234FF0FF30336070BD80213046FFF701
:104B400053FE0146706440B10022031F00F17C0C4B
:104B500043F8042F6345FBD1E5E74FF0FF3070BD0C
:104B6000000C002038B50B4B1D686C6C0CB100209C
:104B700038BD80212846FFF737FE686438B1031F2F
:104B800000F17C0243F8044F9342FBD1EFE74FF072
:104B9000FF3038BD000C002038B5174B1F281D68AA
:104BA00027D86A6C044682B152F8243002EB8402A2
:104BB0004BB1591C1BD0012B17D000252046156086
:104BC0009847284638BD012038BD80212846FFF788
:104BD0000BFE0246686460B10020131F02F17C01E5
:104BE00043F8040F8B42FBD1DEE7032038BD0220DF
:104BF00038BD4FF0FF3038BD000C002070B50026E6
:104C0000074D0446084611462E600DF0E5FB431C97
:104C100000D070BD2B68002BFBD0236070BD00BF9F
:104C2000581100200DF0E0BB20F0030110F003004C
:104C3000C0F1000051F8043B00F1040C4FEACC0C29
:104C40006FF000021CBF22FA0CF213434FF0010C6C
:104C50004CEA0C2C4CEA0C4CA3EB0C0222EA0302AB
:104C600012EACC1204BF51F8043B0430F4D0C2F174
:104C7000000102EA0102B2FA82F2C2F11F0200EB65
:104C8000D2007047144600B51A460A4B0D461B6801
:104C900085B0DE6803464CB10749019130460749AB
:104CA0000294009500F022F8FFF724FC04490C461A
:104CB000F3E700BF000C00205455010864550108BB
:104CC0006055010808B513460022FFF7DBFF00BF5F
:104CD0000CB400B583B004AB53F8042B019300F07F
:104CE00057F803B05DF804EB02B070470EB400B59E
:104CF000074A82B003AB0146106853F8042B0193B6
:104D000000F046F802B05DF804EB03B0704700BF56
:104D1000000C0020704700BF704700BF9368013B44
:104D2000002B936005DAD2F818C0634507DB0A2927
:104D300005D01368581C106008461970704700F0C1
:104D400069BB00BF9BB1F8B5134406460F46541E1D
:104D50005D1E01E0AC4208D03A46304614F8011F0F
:104D6000FFF7DCFF431CF5D1F8BD0020F8BD0020A3
:104D7000704700BF936810B5144613B918465360C6
:104D800010BD00F031FE0023C4E9013310BD00BFA7
:104D90002DE9F04F0E4692461C4607469FB018B1CB
:104DA0008369002B00F0A880954B9E4200F0AA80FA
:104DB000944B9E4200F0B580934B9E4208BFFE6824
:104DC000B389180740F1A3803369002B00F09F805E
:104DD000002320220B9330239AF80010059401251C
:104DE0008A4C8DF831208DF8323000297DD0D146A3
:104DF0000B4604E019F8013F002B00F09480252BAE
:104E0000F8D1B9EB0A0B40F0918099F80030002BF3
:104E10006BD000234FF0FF3209F10109CDE90723E0
:104E2000069309938DF85B301C9304E0001B05FA90
:104E300000F018430690CA460522204619F8011BC7
:104E400001F01CF8069B0028F0D1D90644BF2022AF
:104E50008DF85B201A0748BF2B229AF8001048BF34
:104E60008DF85B202A2972D1059A11680432002935
:104E70000592C0F2A08009919AF801100AF1010A86
:104E80002E2976D0DFF888910322484600F0F6FFFD
:104E900048B14022069BA0EB090002FA00F0034350
:104EA0000AF1010A06931AF8011B062259488DF8E7
:104EB000301000F0E3FF002800F08380564B002BF9
:104EC0006CD005A9009132463846544B06A9AFF381
:104ED00000800390039B013307D00B9B039A9AF841
:104EE000001013440B93002981D1B3895B0615D4BC
:104EF0000B981FB0BDE8F08F00F056FD404B9E426E
:104F00007FF456AF7E68B38918073FF55DAF314631
:104F1000384600F0E1FA00283FF45AAF4FF0FF3076
:104F2000E7E7BE684CE7B9EB0A0BDED0D046CAF122
:104F3000010A03E0934538D918F8011F3246384674
:104F4000FFF7ECFE01300AEB0802F3D1CDE7A1F147
:104F50003002092A94D8099B1AF8011F03EB830336
:104F600002EB4303A1F13002092AF5D92E29099356
:104F700088D19AF801102A292DD1059B0AF1020047
:104F80001A680433002A0593B8BF4FF0FF339AF82C
:104F9000021007928246B8BF079373E7059B073359
:104FA00023F007030833059397E70B9A99F800302D
:104FB0005A440B922BE7494243F0020309910693AE
:104FC0005AE705A9009132463846144B06A900F06D
:104FD000CBF803907EE70023A1F13002092A0AF101
:104FE000010A07933FF64EAF1AF8011F03EB830344
:104FF00002EB4303A1F13002092AF5D9079341E7F7
:105000006C4301084C4301082C43010894550108E6
:105010009C550108A055010800000000454D0008FE
:105020008C4600B586461346034A714610685DF803
:1050300004EB6246FFF7ACBE000C00202DE9F04700
:1050400091461E460A698B680C469A42B8BF1A46BA
:10505000C9F8002091F843300546DDF8208013B1EF
:105060000132C9F80020226891065DD5D9F80030D8
:105070000233C9F80030226812F0060F11461ED123
:10508000E168CB1A002BD8BF114618DD002704F1C8
:10509000190A06E0D9F80030E268A2EB030CBC451F
:1050A0000CDD0123524631462846C047013007F146
:1050B0000107EFD14FF0FF30BDE8F087216894F889
:1050C0004330003B18BF01238A060AD53021E2187D
:1050D00082F8431094F845105A1C2244023382F897
:1050E00043103146284604F14302C0470130E1D065
:1050F000236803F00603042B1DD0A36822699342A2
:1051000025DD00279B1A1F4404F11A09002401E041
:10511000BC421CDA01234A4631462846C0470130CA
:1051200004F10104F4D1C5E712F0060F12D0003BE0
:1051300018BF0123D5E7D9F80030E1682269C91A00
:10514000A36821EAE1779342DCDC0029DCDC002063
:10515000BDE8F087E168D9F80030CB1A002BD8BF42
:10516000114693DCABE700BF2DE9F04317460A7EFA
:1051700085B00C46064698460C9D01F1430C002A6A
:1051800033D0A2F15803D9B2202967D8202B65D893
:10519000DFE813F0DD006400640064006400640074
:1051A00064006400640064006400A3006E00640096
:1051B0006400640064006E006400640064006400C5
:1051C00021007F00BF0064006400AE0064007F0027
:1051D00064006400E40023681A0640F102812B6831
:1051E0006269191D29601B681A600023E14623616A
:1051F0003B4621463046CDF8008003AAFFF71EFF4C
:10520000013020D04A46394630462369C047013034
:1052100019D02368E0689B07039919D5431A002B1E
:1052200016DD002504F1190904E0E0680399431A2A
:10523000AB420DDD01234A4639463046C0470130B6
:1052400005F10105F1D14FF0FF3005B0BDE8F08365
:105250008842B8BF084605B0BDE8F083012384F852
:10526000422004F142092361002384F84330BFE760
:105270002368190602D45A0600F1BF8029680A681B
:10528000043129601146002A6ADB0A25DFF87CE137
:1052900010E02368180640F19A802B68191D2960D8
:1052A00019686F2A0CBF08250A25DFF860E1002382
:1052B00084F843306268002AA2607DDB236823F013
:1052C00004032360002959D1002A77D1E146082D33
:1052D00063D0ACEB090323618AE701222B6804F158
:1052E0004209196804332B6084F842102261BBE73D
:1052F0002B6800211A1D2A60D3F800906268484686
:1053000000F0BCFD00287FD0A0EB090060602061A8
:10531000AAE7236843F0200323607822DFF8F0E057
:1053200084F845202A68111D2960190642D45D06BB
:1053300040D51188D80744BF43F0200323600029DB
:1053400043D12368102523F020032360AFE75823BF
:10535000DFF8B8E084F845302368E3E72368DCE74A
:105360002D2284F8432062684942002AA26002DBB1
:1053700023F0040323600A25DFF890E0E146B1FB47
:10538000F5F30A4605FB131019461EF80030AA4231
:1053900009F8013DF3D2082D9BD12368D90798D590
:1053A000626823699A4294DC302309F1FF3989F855
:1053B00000308EE71168BDE70029DFD19EF800308C
:1053C00004F1420984F8423081E710256FE713F0B9
:1053D000400F2B6803F1040129600CBF196819887C
:1053E0005FE713F0400F2B68626903F10401296045
:1053F0001B6814BF1A801A60F7E62A68B2F9001019
:1054000004322A600A463EE7606880E7A855010832
:10541000BC550108F8B506460D46144608B1836927
:1054200043B3254B9C422AD0244B9C4229D0244B89
:105430009C4208BFF468A269A389A2601A0722D51A
:10544000236903B322686169D31AEDB299422F46EA
:1054500029DD0133A1680139A160511C216015705B
:1054600062699A4216D0A389DB0701D50A2D11D0B3
:105470003846F8BD00F098FA0F4B9C42D4D17468BE
:10548000D9E7B468D7E72146304600F025F838B9A7
:105490002369D7E72146304600F024F90028E7D0F9
:1054A0004FF0FF37E4E72146304600F01BF90028B3
:1054B000F6D101232268CDE76C4301084C43010873
:1054C0002C43010803460A46024908681946FFF7BB
:1054D000A1BF00BF000C00203C4B70B51D68064604
:1054E0000C460DB1AB69E3B1394B9C421FD0394B2F
:1054F0009C424DD0384B9C4208BFEC68B4F90C304C
:1055000018079AB219D5216911B312F001002FD0F2
:1055100000256069A5604042A06100292ED00020CE
:1055200070BD284600F040FA294B9C42DFD16C68E0
:10553000B4F90C3018079AB2E5D4D1063ED552071B
:1055400028D4216943F00803A3819AB20029DCD151
:1055500002F42070B0F5007FD7D02146304600F02D
:10556000FFFBB4F90C3021699AB212F00100CFD1DF
:10557000950758BF6069A0600029D0D1120658BFB6
:105580000846CDD543F040034FF0FF30A38170BDF6
:10559000AC68B3E7616B51B104F14402914204D0AD
:1055A0003046FFF7BBF8B4F90C30002262630022EA
:1055B000216923F02403C4E90012C3E7092243F060
:1055C000400332604FF0FF30A38170BD000C00201B
:1055D0006C4301084C4301082C430108F8B58B8942
:1055E0000C46190707463BD46268002A55DDE66A77
:1055F000002E50D000223D683A6013F4805250D102
:1056000001233846216AB047421C5CD0A389E66A70
:105610005B0705D56368C01A636B0BB1236CC01AB6
:105620000246216A00233846B047411C3BD13B6803
:10563000002B38D01D2B01D0162B4BD10023226913
:10564000C4E90023616B3D6029B304F1440399422E
:1056500002D03846FFF762F8002318466363F8BDAE
:105660002669C6B19A0718BF0023256808BF636979
:105670002660AD1BA3600CE02B463246D4F828C050
:105680003846216AE047B0F1000CA5EB0C056644F2
:1056900012DD002DF0DC0020F8BD226C002AA6DC13
:1056A000F9E7606DB4E70022236962602360A38993
:1056B000DB04C7D56065C5E7A3894FF0FF3043F031
:1056C0004003A381F8BD3B68002B9FD01D2B06D063
:1056D000162B04D0A38943F04003A381F8BD00201A
:1056E0003D60F8BD38B50B69BBB10C46054608B145
:1056F0008369B3B10D4B9C4211D00D4B9C4213D02A
:105700000C4B9C4208BFEC68B4F90C302BB121461D
:105710002846BDE83840FFF761BF002038BD6C68FF
:10572000F2E700F041F9E5E7AC68EDE76C4301080A
:105730004C4301082C43010838B540B303690446C3
:10574000E3B1174B1D680DB1AB69CBB1154B9C4252
:105750000FD0154B9C4221D0144B9C4208BFEC68E3
:10576000B4F90C3053B121462846BDE83840FFF764
:1057700035BF6C68B4F90C30002BF4D1002038BD73
:10578000284600F011F9074B9C42E2D1F1E7084BA3
:1057900008491868BDE8384000F0BEBAAC68DFE7D9
:1057A000000C00206C4301084C4301082C43010805
:1057B00028430108E556000800207047014900F021
:1057C000ABBA00BFE556000800207047682270B5EC
:1057D0004D1E02FB05F50E4605F17401FFF704F8B6
:1057E000044640B100210C30C4E9016005F16802B3
:1057F0002160FEF741FF204670BD00BF274B2DE919
:10580000F0411E680746B36953B34FF004084836A9
:10581000D6E90134013B04D51EE05A1C04F16804AA
:105820001AD0B4F90C50013B002DF6D11C4B0822C4
:105830002946C4E90055C4E90253C4E90455656624
:10584000A56104F15C00FEF717FFC4E90D55C4E93A
:1058500012552046BDE8F08135682DB12E46D7E7B8
:10586000304600F01FF8D0E74FF4D6713846FEF707
:10587000BBFF044668B1056029460546C0F80480B0
:105880000C304FF4D072A060FEF7F6FE34602E4666
:10589000BEE70C2330603B60DBE700BF2843010814
:1058A0000100FFFF0023334A2DE9F0471268C0E9E9
:1058B00012339042036508BF01232F4908BF83615B
:1058C00081620546FFF79AFF034628466B60FFF7A3
:1058D00095FFA86028460024FFF790FF04236E6818
:1058E000DFF898A0DFF89890DFF89880264FE860FE
:1058F0000822F3602146C6E90044C6E90444746600
:10590000B460B46106F15C00FEF7B6FE1F4BC6E959
:10591000086AC6E90A983763AE680822F360214630
:10592000C6E90044C6E904447466B460B46106F193
:105930005C00FEF7A1FE164BC6E9086AC6E90A98A4
:105940003763EE682146F3600822C6E90044C6E9E1
:1059500004447466B460B46106F15C00FEF78CFE2A
:105960000123C6E9086AC6E90B87C6F82890AB612F
:10597000BDE8F08728430108BD57000855600008BE
:105980007D600008BD600008DD60000809000100BE
:1059900012000200024B0349186800F0BDB900BFB5
:1059A00028430108E5560008836903B97AE7704780
:1059B000704700BF704700BF704700BF704700BF0F
:1059C000024B0349186800F087B900BF000C0020A3
:1059D000B9570008024B0349186800F07DB900BFB1
:1059E000000C0020C95700089368002B00F0B78016
:1059F0002DE9F04FB1F90C300C46190780461746D7
:105A000083B098B225D523691BB310F002033D681B
:105A10002DD04FF0000B5E46DFF8B8A2002E00F04C
:105A20008B80564533465A4628BF53464046216A26
:105A3000D4F828C0E047002840F38780BB6883443F
:105A40001B1A361ABB60002BE8D1002003B0BDE85A
:105A5000F08F21464046FFF73FFD002840F0368199
:105A6000B4F90C303D6898B210F00203D1D110F0B7
:105A7000010976D14E46002E5AD08205D4F808B0DE
:105A800040F1B580B3455A4600F2CD8010F4906FD6
:105A900000F0CB8023682169A3EB010B636903EB62
:105AA000430A0AEBDA7A0BF101034FEA6A0A33443C
:105AB0005345524684BF9A465246430540F1EA8018
:105AC00011464046FEF790FE002800F0F9805A4645
:105AD00021690190FEF75AFDA289019B22F4906290
:105AE00042F08002A28103EB0B0023613246AAEB55
:105AF0000B03B346C4F814A0A3602060B24600268E
:105B00004946019200F002FAA3682168019AA3EBCA
:105B10000B030A44A3602260B868D144A0EB0A00DA
:105B2000B860002891D0B4F90C0080B2002EA4D146
:105B3000D5E9009608359EE7D5E900B608356DE74A
:105B400021464046FFF7CEFD80B3B4F90C304FF04C
:105B5000FF3043F04003A38103B0BDE8F08F002085
:105B600070471E46AA46994618461D4656B3002859
:105B700032D04A4620682169B24228BF3246884264
:105B8000636904D9A16803EB010B5A4574DC9342A5
:105B900065DC2A464046216AD4F828C0E047B0F1C7
:105BA000000BD2DDB9EB0B09CAD00120BB685D4404
:105BB000A3EB0B03A6EB0B06BB60002B3FF445AF3A
:105BC000002ED4D10AF1080353F8046C9A4653F816
:105BD000085C0833002EF7D032460A21284600F030
:105BE0004DF9002869D00130A0EB0509C1E7206814
:105BF000236998421BD86369B34218D86FF0004CF0
:105C0000B44528BFB4469CFBF3FC4A4603FB0CF3A7
:105C10004046216AD4F828C0E047B0F1000A94DD7C
:105C2000A6EB0A0678E7B3463246206866E7B34536
:105C3000DA4628BFB2464946524600F067F9A368E3
:105C40002268A3EB0A035244A3602260002BE7D131
:105C500021464046FFF746FD0028E1D075E729467A
:105C60009346019200F052F9A368019A9B1AA3602F
:105C700023681A44226095E729465A4600F046F9FF
:105C8000236821465B4440462360FFF72BFD002834
:105C900088D05AE7404600F0B5F9034600287FF463
:105CA00022AF40462169FEF739FD0C22B4F90C30D1
:105CB000C8F8002023F0800349E7721C914659E799
:105CC0000C22B4F90C30C8F8002040E74FF0FF3048
:105CD000BCE600BF00FCFF7F2DE9F04100268846AE
:105CE00000F14807D7E90154013D0ED4A389013DD5
:105CF000012B06D9B4F90E30013302D02046C0473B
:105D000006436B1C04F16804F0D13F68002FE9D111
:105D10003046BDE8F08100BF2DE9F8434FF000099F
:105D20000746884600F14806D6E90154013D10D4E3
:105D3000A389013D012B08D9B4F90E30013304D0F9
:105D400021463846C04749EA00096B1C04F1680443
:105D5000EED13668002EE7D14846BDE8F88300BF93
:105D6000F0B58B890C46990797B007D5012204F14D
:105D70004703C4E90432236017B0F0BDB4F90E1034
:105D8000054600292DDB6A460CF00FFB002827DBB7
:105D9000019E4FF4806706F47046A6F50056B6FAE9
:105DA00086F6394628467609FEF71EFD30B3A389EC
:105DB0001A4A43F08003AA62C4E90407A381206061
:105DC000002ED9D02846B4F90E100CF0FAFA0028AB
:105DD000D2D0A38923F0030343F00103A381CBE7CF
:105DE000A38913F0800F14BF40274FF48067284623
:105DF00039460026FEF7F8FC0028D8D1B4F90C305B
:105E00009A05B9D4012123F0030304F1470243F0BA
:105E10000203C4E90421A3812260ADE7BD57000855
:105E200070B50C46B1F90E10164600291D4696B005
:105E300013DB6A460CF0B9FA00280EDB01994FF427
:105E4000806301F47041A1F50051B1FA81F10020A5
:105E500049092960336016B070BD0022B4F90C30D6
:105E60002A601B0604D540230020336016B070BDA5
:105E70004FF480630020336016B070BD5FFA81FC80
:105E8000810710D00346511E2AB90AE09A07184626
:105E90000AD0013905D3184613F8012B6245F5D114
:105EA000704700207047114603290CD80029F8D00C
:105EB0000346014401E08B42F3D0184613F8012B4E
:105EC0006245F8D1ECE7024610B54CEA0C2444EAEE
:105ED00004441046036804326340A3F1013E2EEAF5
:105EE000030313F0803F04D1043903291046F0D88E
:105EF00051B10346014401E08B4205D0184613F826
:105F0000012B6245F8D110BD002010BD88420DD98B
:105F10008B1883420AD900EB020CBAB1624613F81F
:105F200001CD994202F801CDF9D170470F2A0ED860
:105F3000034602F1FF3C4AB10CF1010C013B8C44D9
:105F400011F8012B614503F8012FF9D1704740EAA0
:105F500001039B074FD1A2F1100370B501F1200C92
:105F600023F00F0501F1100E00F11004AC441B09E1
:105F70005EF8105C0EF1100E44F8105C5EF81C5CCC
:105F8000103444F81C5C5EF8185C44F8185C5EF849
:105F9000145CE64544F8145CEAD1013312F00C0FAE
:105FA00001EB031102F00F0400EB031327D08E4620
:105FB000043C24F003064FEA940C1E441C1F5EF8B8
:105FC000045B44F8045FB442F9D10CF1010402F01F
:105FD000030203EB840301EB840102F1FF3C4AB1AD
:105FE0000CF1010C013B8C4411F8012B614503F8C5
:105FF000012FF9D170BD034602F1FF3C9CE7224618
:10600000EBE700BFF8B51446F9B1CAB106460D4634
:1060100000F068F8A04202D32F463846F8BD21466A
:106020003046FEF7E1FB07460028F6D02246294617
:10603000FEF7ACFA30462946FEF770FB3846F8BD4D
:106040002746FEF76BFB3846F8BD1146BDE8F84021
:10605000FEF7CABB10B50C46B1F90E100CF08DF965
:10606000002803DB636D0344636510BDA38923F43B
:106070008053A38110BD00BF002070472DE9F0417F
:106080000C46B1F90C101F46CB05054616460BD43D
:1060900021F48051A1813B4632462846B4F90E10C6
:1060A000BDE8F0410CF070B9B4F90E1002230022E3
:1060B0000CF068F9B4F90C10EAE700BF10B50C4613
:1060C000B1F90E100CF05EF9A389421C0EBF23F447
:1060D000805343F480536065A38110BDB1F90E1065
:1060E0000CF054B951F8040C0028A0F10400BCBF16
:1060F0000B58C018704700BF0F4A0023114610B557
:10610000147C844211D11C225343CA18906858B1A0
:10611000CB58FF281FBF58434000013050604FF05C
:10612000010004BF0133536010BD0133092B02F19C
:106130001C02E5D10020F7E7780E0020F0B50A4EEA
:1061400000253446377C874207D11C2000FB0540E0
:106150004176027683760120F0BD0135092D06F1E6
:106160001C06EFD10020F7E7780E0020094A30B571
:1061700000231446157C854205D11C22012002FB18
:106180000343996030BD0133092B02F11C02F1D1A8
:106190000020F7E7780E0020094A30B500231446A6
:1061A000157C854205D11C22012002FB0343596066
:1061B00030BD0133092B02F11C02F1D10020F7E7B9
:1061C000780E002070B50B4C00232546267C8642B5
:1061D00009D11C204343E818E95000238260C360C2
:1061E0004374012070BD0133092B04F11C04EDD16F
:1061F0000020F7E7780E002070B500252E462B4CC6
:106200006368002B4FD0E06808BB637CB3FA83F36C
:106210005B0963740AF026F9D4E900239342E06035
:106220002BD266606674E66063690BB1207C984788
:10623000207CFF2824D100221146104608F080F867
:1062400007353F2D04F11C04DAD1012070BD0AF09E
:106250004DF923689842D8D26368002BE4D02046D9
:1062600002F0B6FD0028EBD0637C207CB3B1FF28A0
:106270000CD1A27E217E607EE0E79B1A6360EBE793
:106280004328DDD800231A46194604E04328D7D80E
:10629000A37E227E617E07F0C7F9D1E7FF28CAD02E
:1062A0004328CDD8EFE76374E360C9E7780E002098
:1062B00007B543788DF8003083788DF80130C378C6
:1062C0008DF8023043798DF80330037968468DF8F4
:1062D00004300DF063FE03B05DF804FB08B5074B16
:1062E0005A78032A07D858680AF000F9C72894BFDB
:1062F0000020012008BD0020FCE700BFA40C002006
:106300007047000010B5144C202220464FF4004185
:106310000CF0DBF9204620224FF480410CF0D5F937
:10632000002280214FF080400CF0CFF9FFF7E8FF0A
:1063300000BF00BF00BF00BF00BF00BF00BF00BF65
:1063400000BF00BF00BF00BF00BF00BF00BF00BF55
:1063500000BF00BF10BD00BF0008004008B501F03D
:106360008BFB08BD08B5054C20780DF00FF920789F
:10637000FFF7F4FF05200AF0FAFFF5E7303B0020B5
:1063800010B5084C236803F07142074B1343236098
:106390000AF068F8054B18602068BDE8104004F06A
:1063A00050BE00BF303B00200001010E60110020F4
:1063B00010B5064C0122204602210CF086F902237A
:1063C000A361BDE8104001F001BC00BF0004004023
:1063D00001207047144B10B51C78BCB9134B1B78C7
:1063E000042B13D104F01AFD04F02EFD04F0E0FCA0
:1063F00004F05AFD05F030FF05F04AFF204609F091
:10640000C7FE2046BDE8104009F0DEBE0DF0CAFD13
:1064100048B10DF0B1F80028FBD1BDE810404CF2B6
:1064200050300AF0A4BF10BD303B0020AC3E00202D
:10643000002370B50D460446284E0B70002838D056
:106440000AF010F8264B30601A69160402D51A6952
:10645000510435D41A69120402D41B695E0431D484
:106460001F4A1169C1F3C033090405D5136913F438
:10647000804F14BF002302231A4A1278511E0429A8
:1064800022D9062A22D0002A0CBF03200020164A57
:1064900014B91178994202D11C1A18BF0124022B99
:1064A000137015D0032B15D0012B15D102232B709F
:1064B00004E030680AF01AF83228C1D8204670BDCE
:1064C0000323D9E70123D7E70120E0E70220DEE735
:1064D0000323ECE70123EAE70023E8E7701100203B
:1064E00000080040303B002066110020084B9A78DD
:1064F000012A07D0022A09D0064B1868B0FA80F0AA
:106500004009704758780128F6D170470120FCE710
:10651000A40C0020D812002008B5054B9B78013B45
:10652000012B02D9FFF7E2FF08BD0120FCE700BF05
:10653000A40C002008B509F095FF014B986008BD38
:10654000A40C002010B5094C23782070637009F06A
:1065500089FF6060FFF7EEFF00F04EFEBDE81040DF
:106560000022034B53201A700DF098BCA40C00209D
:106570006C110020F8B50C461546074660B300299B
:106580003FD0884201D0FFF725FF584E3378013BBA
:10659000012B04D80320FFF7D5FF0023B370544E1E
:1065A0003378A34200D11DB10022524B9A619A83E5
:1065B000347024B1631E042B747098BFB4703068BB
:1065C00004F03FFD3378062B00F28980DFE803F00A
:1065D000852A46505A646E000029D6D00222464BC6
:1065E000464E9A613378012BCDD030460CF04CF8F2
:1065F00030460BF017FC4248424B836009F094FD93
:10660000C1E74FF400323C4B3C489A610378042BBD
:10661000B9D03D4B3A4E19703C4BB3600AF0C0F90B
:106620003046EBE7312075B10DF038FC52200DF00B
:1066300035FC01200DF03EFC4EF2E94143F22D40C5
:106640000DF08EFC51200DF029FCFFF773FF2A4658
:106650002146384601F088FE0120F8BD3220002D89
:10666000F1D00DF01BFC52200DF018FC0220E1E7E8
:106670003320002DE7D00DF011FC52200DF00EFC60
:106680000320D7E73420002DDDD00DF007FC522089
:106690000DF004FC0420CDE73520002DD3D00DF003
:1066A000FDFB52200DF0FAFB0520C3E73020002D42
:1066B000C9D00DF0F3FB122115480DF021FC1A2171
:1066C00014480DF035FC4EF2E94143F22D400DF037
:1066D00047FC52200DF0E2FBB4E71120B3E7112094
:1066E0000DF0DCFBFFF74CFEAFE700BFA40C002071
:1066F000303B0020640C002000040040AC3E002031
:106700002C110020B1620008782B0020650A0108D6
:106710008C430108A0430108002313B50DF10701C4
:106720008DF80730FFF784FE044690B19DF80730DE
:10673000013B032B0DD8DFE803F002060F12002205
:106740001146094B02E00022074B99781878FFF7B1
:1067500011FF204602B010BD00220621F1E7024BD6
:1067600000225978F2E700BF303B002013B5124CED
:1067700020460CF093FE0123A37704F05FFC0F4C3E
:10678000206008B9FFF7FCFDE37843F00103E370F4
:1067900009F068FE0A4BFF22186000234FF4A8712D
:1067A00000930848084B0AF0AFFDFFF7ABFD01204E
:1067B000FFF7B2FF02B010BD640C0020303B002098
:1067C00060110020781100206563000848B1074A75
:1067D0001378013B012B07D893782BB90320FFF7DF
:1067E000B1BE0122024B1A70704700BFA40C0020FA
:1067F0006C110020014B1878704700BFA40C0020DA
:10680000014B9870704700BFA40C0020014BD8705A
:10681000704700BFA40C00200122014B1A70704782
:106820006C110020F8B51C4C1C4EE378B268C3F321
:1068300042031AB9FFF77EFE0020F8BD184A52F84D
:10684000235023782BB9174B1B78042B01D1FFF76A
:1068500071FE154F3B7893B100233B704FF080439E
:106860001B69E278DB0963F300022378E27073B1FD
:1068700001F0BEFF0028DFD101F032F9DDE7002D85
:10688000DAD0B06809F032FEA842E5D2D4E7054B71
:106890001B78042BECD1CDE7303B0020A40C00206A
:1068A0005C440108AC3E00206C11002010B50B4B7D
:1068B0005A78012A03D0022A08D0002005E09C78EB
:1068C000012C03D101F074F9204610BD586809F07D
:1068D0000DFEC728F1D9FFF709FEF6E7A40C00204A
:1068E00010B5074BD87810F0FD0404D10220FFF753
:1068F00029FE204610BD0320FFF724FE0120F9E702
:10690000A40C002038B50A4D0024EB78033B012B82
:1069100008D80320FFF716FE2046AC7001F0F0F80F
:10692000012038BD0220FFF70DFE2046F9E700BF29
:10693000A40C002038B50A4D0024EB78033B012B52
:1069400008D80320FFF7FEFD2046AC7001F0F8F8F0
:10695000012038BD0220FFF7F5FD2046F9E700BF12
:10696000A40C002070B5974C974D2068B0B109F089
:10697000BDFDB0F5FA6F11D30026552026600DF04D
:106980008DFA57200DF08AFA70200DF087FA2978D9
:106990003246B1FA81F04009FFF7ECFD2B7823B1C4
:1069A0008A4B93F820208A4B1A702368DBB9894EF2
:1069B000306809F09BFD40F6B733984213D92B7825
:1069C0008BB10CF0D9FD70B9804CA37F5BB109F09D
:1069D00049FD306053200DF061FA94F8213013B96D
:1069E00070200DF05BFA4FF080431B69EA78DB09F9
:1069F000794C63F300020020EA70FFF78DFE2378E4
:106A0000032B1ED8DFE803F002284FA6E36833B15A
:106A1000984720B10120FFF795FD0023A37023695B
:106A200033B1984720B10120FFF78CFD0223A370FA
:106A3000636933B1984720B10120FFF783FD01233B
:106A4000A3700DF025F9654B1B78002B00F0B88082
:106A5000BDE8704003F03EBAA369002BF1D098471F
:106A60000028EED002F020FA5D4B187008F02EFAE4
:106A70002A785C4B1A700022544B9A772A685A4B3A
:106A8000134063B9594C2378012B08D00222584B8C
:106A900020469A610BF0F8FD20460BF0C3F9022066
:106AA000FFF750FDCDE7E369002BCAD098470028D7
:106AB000C7D000224F4B1A704FF080434FF40012A2
:106AC0009A612A68484B1340B3F1807F10D0A378B5
:106AD00053B3013B012B0BD86378022B08D0FFF78F
:106AE00079FC11200DF0DAF90CF046FD0028FBD1FD
:106AF00000F0E0FF0023E3703A4B2A781B789A42BB
:106B000008D12A68384B1340B3F1807F02D0A078B7
:106B100000F074FCA378012B19D0022B14D0002BA9
:106B20008FD1FFF7DDFE8CE7284B5B7E002BDFD19A
:106B300011200DF0B3F90CF01FFD0028FBD147F236
:106B400030500AF014FCD3E7FFF7DCFE79E7FFF7DB
:106B5000F1FE76E7236A002B3FF473AF98470028D5
:106B60003FF46FAF0122194B9A771D4B1B782BB165
:106B70004FF0804320229A6108F096F90120FFF738
:106B8000CBFD30B92A78A2B1697802460846FFF7F2
:106B9000F1FC0024174B1C7000F080FFFFF7CAFCCB
:106BA00000F02AFB2046FFF7CDFC53200DF076F9CC
:106BB00047E70E4B1B78012BEBD111466878E6E7CF
:106BC00070BD00BF60110020303B0020640C00202D
:106BD000782B002068110020A40C002065110020F3
:106BE0005C11002064110020FF000001AC3E002079
:106BF000000400406C1100200120704708B5FFF729
:106C0000FBFF08BD37B504460D46FFF793FC294648
:106C10002046FFF7F3FF60B1074B1A784AB1074BE4
:106C200020461B78D9090091C3F30013A9780DF011
:106C300053F803B030BD00BF303B0020463B00207E
:106C400000B50B4B8FB0322193F82130094A01A8CF
:106C500005F0B9F901A808F0FFFE0CF089FC08F076
:106C6000FBFE054808F0F8FE0FB05DF804FB00BF1E
:106C7000640C0020BC430108CD4301082B4B13B525
:106C80001A7804464AB12A4B01211B78DB0900938C
:106C900000230DF021F802B010BD0028FBD0031F27
:106CA000DBB2A02B12D8234B0146186809F0C6FAB4
:106CB00020B1204604F074F804F0F6F8204604F001
:106CC00067F802B0BDE8104004F0EEB800F1200310
:106CD000DBB2072B07D800F007040120A040C0B2A8
:106CE00004F08CF8EDE700F15B03DBB2022B06D871
:106CF000243880B202B0BDE8104009F049BA00F172
:106D00005803DBB21A2B07D80B4A32F8130002B033
:106D1000BDE8104009F058BA3334E4B2122CBAD8A6
:106D2000012102B0BDE8104003F0BAB9303B0020A9
:106D3000463B0020D00F002024440108244B13B50B
:106D40001A7804464AB1234B1B78DB0900930023D1
:106D500019460CF0C1FF02B010BD0028FBD0031F84
:106D6000DBB2A02B06D804F01BF802B0BDE810403F
:106D700004F09AB800F12003DBB2072B07D800F02B
:106D800007040120A040C0B204F040F8EDE700F194
:106D90005B03DBB2022B05D8104602B0BDE8104001
:106DA00009F0F6B900F15803DBB21A2B05D81046EA
:106DB00002B0BDE8104009F007BA3334E4B2122C37
:106DC000C9D8114602B0BDE8104003F069B900BF50
:106DD000303B0020463B00202DE9F3410446C0B182
:106DE000114E3378C3B10127DFF84080204603F00D
:106DF000E8F8054698F80030E030DB0900930121FF
:106E00000023327880B207FA05F50CF065FFAC4339
:106E1000ECD102B0BDE8F08103F0F0FF02B0BDE8B4
:106E2000F04104F041B800BF303B0020463B002059
:106E30002DE9F3410446C0B1114E3378C3B10127A7
:106E4000DFF84080204603F0BCF898F80030054693
:106E5000DB0900930023E0301946327880B207FA4C
:106E600005F50CF039FFAC43ECD102B0BDE8F08180
:106E700003F0CCFF02B0BDE8F04104F015B800BF4C
:106E8000303B0020463B00202DE9F3410446C0B1D1
:106E9000114E3378C3B10127DFF84080204603F05C
:106EA00090F8054698F80030E030DB0900930121A6
:106EB0000023327880B207FA05F50CF00DFFAC43E1
:106EC000ECD102B0BDE8F08103F0AEFF02B0BDE846
:106ED000F04103F0E9BF00BF303B0020463B0020FB
:106EE0002DE9F3410446C0B1114E3378C3B10127F7
:106EF000DFF84080204603F064F898F8003005463B
:106F0000DB0900930023E0301946327880B207FA9B
:106F100005F50CF0E1FEAC43ECD102B0BDE8F08128
:106F200003F08AFF02B0BDE8F04103F0BDBF00BF2F
:106F3000303B0020463B00202DE9F04104460D4641
:106F400001F0F8FA00284AD12378013B202B54D8CD
:106F5000DFE803F011164E686E7A7D7D7D82C4886D
:106F60008C929DA8ABAEB9535353535353535353C1
:106F700053535353C900002363700C23A37025E0BF
:106F80006378013B032B38D8DFE803F0020C0F2CA9
:106F900009F068FA030EA370030CE370030A23716F
:106FA000607113E008F033FAF4E72646A77804F19D
:106FB0001C08052F0AD8F8B204F0AAFB030AF370E4
:106FC00030710236B04507F10107F2D1504B294626
:106FD0001B782046002B40F0978009F059FD0120D6
:106FE000BDE8F0810023A370E37023716371EDE7C6
:106FF0006378022B04D0052B10D0FF232370E5E724
:10700000E378A07840EA0320237940EA03406379DB
:1070100040EA036000BA08F001FAD7E7A07808F068
:1070200027FAD3E7E278A178607808F024FDB5E785
:1070300062792379A17843EA02235BBAE278607827
:107040009BB208F02EFDC1E708F040FDBEE72946DF
:10705000204608F088FAB9E7002008F0BBF908F0EC
:10706000E8F9B3E708F092FD6070AFE708F090FD33
:10707000030A6370A070A9E76078A378E17840EA1A
:10708000032040BA221D80B208F085FD9EE760789B
:10709000A378E17840EA032040BA221D80B208F0CC
:1070A00096FD93E708F0A8FD90E708F0D8FCDBE731
:1070B0006078A378E17840EA032040BA221D80B2CC
:1070C00008F02CFD82E76078A378E17840EA03209D
:1070D00040BA221D80B208F038FD77E701230D4A3F
:1070E0006370137072E762780B4B4AB1A1781A781B
:1070F00019B142F080021A7068E761F3C712FAE72B
:107100001B78C3F3C01339E70CF0A4FF67E700BF97
:10711000303B002065110020463B002010B543782D
:10712000044613B1FF23237011E08378013B032B46
:10713000F8D8DFE803F0021A28410378072B07D0BC
:10714000082BEFD12B4BDB78C3F34203C37010BD88
:10715000C1780729FBD8BDE81040264BDA7861F3E7
:107160004302DA70186803F06CBF0378072B05D070
:10717000082BD7D101F04DFBE070E8E7C078BDE8FF
:10718000104001F015BC0378072B0AD0082BC9D199
:1071900042790179C07801F03EFBA071000AE071EC
:1071A000D5E7C2798379017943EA0223BDE810402B
:1071B0004279C07801F045BB0378072B0DD0082B2E
:1071C000B0D12379C078617940EA032040BAA21D8A
:1071D00080B2BDE8104001F049BB2379C0786179E5
:1071E00040EA032040BAA21D80B2BDE8104001F081
:1071F00058BB00BF303B002008B509F033F9014B04
:10720000186008BDC8120020164B10B51C788CB948
:10721000154B1B78052B08D0022B06D009F022F95C
:10722000124B1860124B1C7010BD4FF080431B694D
:107230001B0603D4BDE81040FFF7DEBF0B4B1868F8
:107240000028F7D009F052F941F657339842EBD9AC
:10725000FFF7D2FFBDE810400122054B1A70FFF77F
:10726000DBBA00BF303B0020AC3E0020C81200203B
:10727000CC1200202DE9F0411B4C064625781DB1AB
:1072800001242046BDE8F081FFF7B4FA0138012857
:1072900005D80320FFF756F92846FFF7B1FA94F80E
:1072A0000080B8F1000FEBD1104D2B78052BE7D102
:1072B000B5F84C309B0702D50D4F3C7824B9FF2E12
:1072C00094BF00240124DCE7FFF794FA0328D7D801
:1072D00087F80080FFF790FF28460AF04FFE284607
:1072E00001F0C6F9CDE700BF303B0020AC3E0020E6
:1072F000CC120020704700001A4B70B59C6C0F2612
:1073000044F4C0649C649B6C012301F003048B4033
:1073100021F0030101F1804101F5A0518D68A40025
:10732000C0F38320A04006FA04F425EA04052843AC
:107330008860D8430C4912F0010F8C6814BF1C43BD
:1073400004408C6012F0020FCA6814BF1A43024056
:10735000CA60054A536111680B43136053680340C8
:10736000536070BD000C0140001800400F281FD86A
:10737000DFE800F0080C0F121518181818181B1B5E
:107380001B1B1B1B062108460BF031B806210720EA
:10739000FAE706210820F7E706210920F4E706218D
:1073A0000A20F1E706211020EEE706212120EBE775
:1073B000704701207047000008B5FFF7FAFFD0B111
:1073C000012207214FF08040FFF796FF0720FFF7CB
:1073D000CDFF03220F210848FFF78EFF0F20FFF794
:1073E000C5FF054803220E21FFF786FFBDE80840D0
:1073F0000E20FFF7BBBF08BD000800402DE9F04795
:107400003023054683F31188FFF7D6FF4FF00009BC
:107410000127904EDFF8408256F8043B95B1012DCC
:107420004FD143454DD123F00F0A03F00F0307FA64
:1074300003F421460522504624040BF046F9CAF80D
:10744000184001E0581CEED109F10109B9F10F0F04
:10745000E2D106240127814EDFF8049256F8040B8E
:10746000002D3AD0012D40F0E880484540F0E580FD
:1074700000F00F01202207FA01F120F00F000BF0BD
:1074800024F900BF00BF00BF00BF00BF00BF00BFA6
:1074900000BF00BF00BF00BF00BF00BF00BF00BFF4
:1074A00000BF00BF00BF56F8040C032200F00F0815
:1074B000414620F00F00FFF71FFF4046FFF756FF41
:1074C0000DE0591CC0D003F00F01202207FA01F192
:1074D00023F00F000BF0F9F8B6E7421CC8D1013CCD
:1074E000BCD122464FF400615E480BF0EEF800BFBD
:1074F00000BF00BF00BF00BF00BF00BF00BF00BF94
:1075000000BF00BF00BF00BF00BF00BF00BF00BF83
:1075100000BF03220B215348FFF7EEFE0B20FFF7BD
:1075200025FF84F3118872B64FF0E0220120136921
:1075300023F0010313614C4B4C4A5A610022A30013
:1075400003F1604303F56143D3F80011D5B2012D77
:1075500094BF002101F0010109B1C3F8800101329B
:10756000202AF1D10134082CE8D1414C636843F062
:10757000007363603F4B1A6802F009021A601A68D0
:1075800042F46C3242F004021A6040F2B3321A62E2
:10759000394B43F001039847236943F00403236107
:1075A00030BF364B43F0010398474FF0E022236988
:1075B00023F0040323611369314C43F00103136189
:1075C000E36943F08003E361A36C43F40073A364B5
:1075D00009F08CFA04F0D0F840F282324FF40061E6
:1075E00020480BF072F8E36C43F00803E364E36CAB
:1075F000A36C43F48053A364A36CE36C43F01003C7
:10760000E364E36CFFF776FE002383F3118862B630
:10761000D4F8903043F4C063C4F89030D4F890307C
:1076200023F4C063C4F89030D4F89030A36C23F4F2
:10763000C063A364A36CBDE8F087431C3FF44FAF65
:1076400000F00F01402207FA01F120F00F000BF0CB
:107650003CF844E77C440108030800401445010855
:107660000D0800400008004000180040FFFF070020
:1076700000ED00E000000140EC440108B8440108BE
:10768000000C01400120704701207047C31F10B556
:1076900004460B2B1AD8DFE803F011191919131936
:1076A0001715151919060420FFF7B0F82046FFF743
:1076B000E9FF10B12046FFF7E7FF10BD0320F3E715
:1076C0000220F1E70720EFE70520EDE70120EBE7D7
:1076D00001238B40034202D00846FFF7D7BF704713
:1076E00008B50D4B5A69D20706D51A68002022F05A
:1076F00001021A60FFF7CAFF4022084BC3F880203E
:10770000BFF34F8FBFF36F8F0122034B5A61BDE868
:10771000084009F021BF00BF0018004000E100E070
:1077200008B50D4B586910F0020006D01A68012107
:1077300022F002021A60FFF7CBFF8022074BC3F84A
:107740008020BFF34F8FBFF36F8F0222024B5A612D
:10775000BDE8084009F000BF0018004000E100E06B
:1077600008B50E4B586910F0040006D01A680221C3
:1077700022F004021A60FFF7ABFF4FF48072084B4F
:10778000C3F88020BFF34F8FBFF36F8F0422034BEA
:107790005A61BDE8084009F0DFBE00BF0018004094
:1077A00000E100E008B50E4B586910F0080006D063
:1077B0001A68032122F008021A60FFF789FF4FF4CC
:1077C0000072084BC3F88020BFF34F8FBFF36F8F59
:1077D0000822034B5A61BDE8084009F0BDBE00BF56
:1077E0000018004000E100E008B50E4B586910F0A9
:1077F000100006D01A68042122F010021A60FFF768
:1078000067FF4FF48062084BC3F88020BFF34F8FAF
:10781000BFF36F8F1022034B5A61BDE8084009F097
:107820009BBE00BF0018004000E100E038B5254BCA
:107830005C69A20604F4787507D51A68052122F060
:10784000200228461A60FFF743FF600608D51D4A4C
:1078500006211368284623F040031360FFF738FF22
:10786000210608D5174A07211368284623F080030C
:107870001360FFF72DFFE20508D5124A08211368AF
:10788000284623F480731360FFF722FFA30508D571
:107890000C4A09211368284623F400731360FFF78C
:1078A00017FF4FF48032084BC3F88020BFF34F8F8F
:1078B000BFF36F8F4FF47872024B5A61BDE83840C6
:1078C00009F04ABE0018004000E100E038B52A4B3C
:1078D0005C69620504F47C4507D51A680A2122F424
:1078E000806228461A60FFF7F3FE230508D5224A76
:1078F0000B211368284623F400631360FFF7E8FEAA
:10790000E00408D51C4A0C211368284623F4805350
:107910001360FFF7DDFEA10408D5174A0D21136897
:10792000284623F400531360FFF7D2FE620408D503
:10793000114A0E211368284623F480431360FFF791
:10794000C7FE230408D50C4A0F211368284623F4E8
:1079500000431360FFF7BCFE0222084BC3F88420EB
:10796000BFF34F8FBFF36F8F4FF47C42024B5A61CE
:10797000BDE8384009F0F0BD0018004000E100E02B
:1079800008B50E4B586910F4802006D01A681221F1
:1079900022F480221A60FFF79BFE0822084BC3F8EE
:1079A0008420BFF34F8FBFF36F8F4FF48022034BC0
:1079B0005A61BDE8084009F0CFBD00BF0018004083
:1079C00000E100E080B483B000AF034B7B6000BFF8
:1079D0000C37BD4680BC7047003F000810B5074C0F
:1079E00023784BB901F080FA02F009FB08F0A2FB02
:1079F00002F006FB01232370012010BDCF120020EE
:107A000010B5044C23781BB101F058FA0023237001
:107A1000012010BDCF12002038B5154C0025237869
:107A2000032B22D8DFE803F0020B131B0A231148B3
:107A30008370C57008F0A2FB0123237038BDF623C4
:107A40000C48C370857008F099FB0223F5E7F62314
:107A500008488370C57008F091FB0323EDE70A2303
:107A600004488570C37008F089FB2570E6E700BF05
:107A7000CD120020E4120020054B1B7833B1054BDA
:107A80001B780BB9FFF7C8BF0CF0D2B9704700BF25
:107A9000D2120020303B00200120704708B5044B73
:107AA0001B780BB9FFF79AFF01F058FA08BD00BF29
:107AB000CF12002008B5064B1B780BB1FFF7A0FFD3
:107AC0000023044A1370044A1360FFF7E5FF08BD62
:107AD000CF120020DC120020E012002001207047AD
:107AE00008B5FFF7FBFF08BD014B1878704700BFD2
:107AF000D0120020014B1870704700BFD012002038
:107B0000014B1870704700BFD0120020014B18784D
:107B1000704700BFD1120020084B10B50446187002
:107B200058B9FEF767FE022807D80320FEF70AFDC2
:107B30002046BDE81040FEF763BE10BDD112002004
:107B4000FFF7EABF024B187880F00100FFF7E4BFAF
:107B5000D11200200122014B1A707047D11200206F
:107B6000084B1A78084B1B784BB982F00102A0F53C
:107B7000A443203B1F2B8CBF1046012070470022DE
:107B8000F5E700BFD1120020D012002000231946D3
:107B9000054A93721360054A0333212B917242F810
:107BA0000C1BF9D1704700BFC40F0020C80C002087
:107BB00008B503F051FEFFF7E9FF0022014B1A6000
:107BC00008BD00BFD81200200120704708B5FFF79C
:107BD00005FFFEF7CBFD01F09BF948B10122202102
:107BE0004FF080400AF071FD4FF0804320229A61EF
:107BF00008BD000000230D4A10B513700C4A4FF069
:107C0000804413700B4A136007F078F901280AD0FA
:107C100007F06CF94FF40013A36101F081FABDE89D
:107C2000104003F0A4BA2023F6E700BFCE120020D4
:107C3000D3120020D412002008B503F069FA05F031
:107C4000C1FC03F0F4F9084B188060F07F00187055
:107C5000188803F0EFF901F0F9F918B1BDE8084010
:107C6000FFF7C8BF08BD00BF463B002037B504463C
:107C70000D4601F015FA002800F0CE80002D00F02E
:107C8000CB8047F613639C423AD8B4F5FC4F07D239
:107C900047F603439C4200F0BC80284603B030BD49
:107CA000A4F5FC44132CF8D801A353F824F000BF2A
:107CB000177D0008437D0008677D00088B7D000864
:107CC000B17D0008D77D00089B7C00089B7C0008E4
:107CD0009B7C00089B7C00089B7C00089B7C000828
:107CE0009B7C00089B7C00089B7C00089B7C000818
:107CF0009B7C0008FD7D0008057E00080D7E0008C5
:107D000047F643639C42C8D10122444B1A700022BB
:107D1000434B1A60C1E7002301200DF107018DF8E4
:107D20000730FEF785FB9DF80730042B02D013F0D7
:107D3000FD0FB2D1012211463A4B1878FEF71AFC1A
:107D4000ABE7002301200DF107018DF80730FEF7A6
:107D50006FFB9DF80730042B02D013F0FD0F9CD170
:107D600001220221E8E7002301200DF107018DF82F
:107D70000730FEF75DFB9DF80730042B02D013F0AF
:107D8000FD0F8AD101220321D6E7002301200DF146
:107D900007018DF80730FEF74BFB9DF80730042BE9
:107DA00003D013F0FD0F7FF478AF01220421C3E765
:107DB000002301200DF107018DF80730FEF738FB95
:107DC0009DF80730042B03D013F0FD0F7FF465AF4F
:107DD00001220521B0E7002301200DF107018DF8F4
:107DE0000730FEF725FB9DF80730DA1E012A02D97D
:107DF000002B7FF452AF012206219DE70020FFF700
:107E00008BFE4AE70122084B1A7046E7FFF79AFEFD
:107E100043E7FFF711FF40E705463EE7D312002096
:107E2000D4120020303B0020D112002008B5064BB0
:107E30001B780BB9FFF7D2FD4FF0804320229A61E7
:107E4000BDE8084008F0D8BACF1200202DE97747E6
:107E50000D46B44A897804461368A9B1032B00D8AB
:107E60000133B14E1360FEF765FB33899C4207D1A5
:107E700095F80280B8F1000F0AD008F0F3FA3060EC
:107E8000AA4B002698462FE0002BEAD0013BE8E7FA
:107E9000B37A0BB93360F3E741462046FFF7E6FEBD
:107EA00086F80A80C6F800800028E9D1002003B0D7
:107EB000BDE870870AFB06F608EB060A9AF80A3056
:107EC00013B948F806301FE049462046FFF7CEFEBA
:107ED0008AF80A9048F806900028E7D014E00136A6
:107EE0000B2E03F10C030FD01A899442F7D195F8A9
:107EF00002904FF00C0AB9F1000FDBD008F0B2FA93
:107F00000AFB06F648F8060029462046FFF728FE39
:107F10000028CBD02946204601F002FA0028C5D01F
:107F200047F607639C422DD8B4F5FC4F1BD247F6A9
:107F300020039C4200F01A8147F603439C42B5D0CF
:107F40002946204600F054FD0028AFD0294620469F
:107F5000FFF790F90028A9D02946204603B0BDE8D4
:107F60007047FEF74FBEA4F5FC44013CAB78062CED
:107F700033D8DFE814F050006B008600A100BC008D
:107F8000E3002F00A4F5FC43403B9AB2032AD7D864
:107F9000032BD5D801A252F823F000BFAD7F000813
:107FA000BB7F0008C77F0008AD7E0008AB78002BC0
:107FB0003FF47CAFFEF744FE78E7AA785C4B02B151
:107FC00001221A7072E7AB78002B3FF46FAFFEF717
:107FD00023FC6BE7574A137068E7002B3FF466AF4A
:107FE000554C2378012B3FF461AF002301200DF1A4
:107FF00007018DF80730FEF71BFA9DF80730042BB8
:1080000003D013F0FD0F7FF451AF0022012120783F
:10801000FEF7B0FA4AE7002B3FF448AF464C23780E
:10802000022B3FF443AF002301200DF107018DF82F
:108030000730FEF7FDF99DF80730042B03D013F04D
:10804000FD0F7FF433AF00220221E0E7002B3FF465
:108050002DAF394C2378032B3FF428AF00230120A8
:108060000DF107018DF80730FEF7E2F99DF80730B2
:10807000042B03D013F0FD0F7FF418AF002203216F
:10808000C5E7002B3FF412AF2B4C2378042B3FF4B1
:108090000DAF002301200DF107018DF80730FEF729
:1080A000C7F99DF80730042B03D013F0FD0F7FF4C0
:1080B000FDAE00220421AAE7002B3FF4F7AE1E4CD0
:1080C0002378052B3FF4F2AE002301200DF10701C8
:1080D0008DF80730FEF7ACF99DF80730042B03D07C
:1080E00013F0FD0F7FF4E2AE002205218FE7002B95
:1080F0003FF4DCAE104C2378062B3FF4D7AE0023C0
:1081000001200DF107018DF80730FEF791F99DF878
:108110000730DA1E012A02D9002B7FF4C7AE0022F5
:10812000062174E7D8120020C40F0020C80C0020DC
:10813000D2120020CE120020303B0020002B3FF452
:10814000B5AE124C2378002B3FF4B0AE00250120D1
:108150000DF107018DF80750FEF76AF99DF8073019
:10816000012B3FF6A3AE2A46294650E7AB78002BF9
:108170003FF4E6AE06F0C2FE4FF0804318B14FF474
:1081800000129A61DCE62022FBE700BF303B0020B2
:10819000014B1878704700BFDC12002001207047A7
:1081A0002DE9784105460C464E4EDFF83C812146CC
:1081B0002846FFF7F3FF50B1062C08D8DFE804F09B
:1081C00004094E7E7E8B8B000022464B1A60BDE870
:1081D000788132684ABBA5F12D03032B0AD8DFE86A
:1081E00003F002151A1F0022FF2311462D20FDF770
:1081F000A5FF01224FF4FA712846FDF7E3FF284658
:10820000FDF77AFF08F02EF93060E0E70022FF2347
:1082100011462E20EBE70022FF2311462F20E6E730
:108220000023FF2219463020E1E7104608F05EF9EE
:1082300047F22F53984203D905242C4B1C70B6E704
:1082400098F819300BB10324F7E7294B1B78002B62
:108250003DD02846BDE87841FDF74EBF3068F8B9FB
:10826000A5F12D03032BB2D8DFE803F0020B1015A4
:108270000022FF2311462D20FDF760FF0122C821B7
:10828000BAE70022FF2311462E20F5E70022FF2344
:1082900011462F20F0E70023FF2219463020EBE79C
:1082A00008F024F947F22F53984201D90624C4E775
:1082B00098F81930002BC8D00424BEE7FF224FF4F1
:1082C000FA612846FDF77EFF2846FDF715FF0022DC
:1082D000064B1A707BE70022044B1A70FEF79CFADB
:1082E000B7E700BFE0120020640C0020DC12002081
:1082F000303B0020014B1978FFF752BFDC12002001
:108300000120704770B506460D462D200021FDF76F
:1083100043FF10B90024204670BD00212E20FDF738
:108320003BFF0028F6D000212F20FDF735FF002865
:10833000F0D000213020FDF72FFF0028EAD0294699
:108340003046FFF7DDFF04460028E3D00022044B4F
:1083500029461D70034B30461A60FFF721FFDAE70C
:10836000DC120020E012002070B50C461546FEF726
:108370002FF8064680B17CB1134B5B7E13BB013CEA
:10838000052C09D8DFE804F0030C120808182DB1F9
:1083900002212D20FFF7B6FF304670BD0121F8E71E
:1083A00015B102212E20F5E70121FBE715B10221CD
:1083B0002F20EFE70121FBE715B102213020E9E78B
:1083C0000121FBE71E46E7E7640C002008B5094BD6
:1083D0001B786BB9FEF70EFA50B9074B1A783AB111
:1083E000064A527E22B95978BDE80840FEF7C2B865
:1083F00008BD00BFDC120020303B0020640C0020D0
:10840000704700002DE97F4FDFF8148105460E46C6
:10841000FFF7F6FFFFF7DAFF98F80040002C36D0A0
:10842000404D2B6813B908F01DF82860286808F043
:108430005DF841F28733984207D998F8003001334C
:1084400088F8003008F00EF8286098F80030013BFA
:10845000032B17D8DFE803F0020C1014002296203B
:10846000114605F06DFF0024204604B0BDE8708F72
:10847000002296211046F4E7002196220846F0E7F4
:108480009622F6E7002488F800402C60ECE7264BA3
:108490001B788BB931462846FFF796FB0028E2D0BF
:1084A0003146284601F0AEFB04460028DBD03146B9
:1084B0002846FDF7A1FED7E72246214620460DF1CA
:1084C000040805F03DFFC2464FF00A09DFF85CB032
:1084D0000A2259465046FCF759F8154BE2B2DB7FA9
:1084E000B3FBF9F1914215D9312B98F800000AD964
:1084F000002396221946013405F096F80A2C08F15B
:108500000108E5D1C6E71D2B4FF00003F1D81A464C
:108510009621F0E7002398F800001A461946EAE78A
:10852000D3120020D4120020CE120020B041010846
:10853000640C002070B505460E46FDF7FBFFFEF704
:1085400059F910B10320FDF7FDFF2B780A2B0ED14E
:108550000124084B31461C70074B28461B781BB979
:1085600008F096FA204670BD0BF074FDFAE7002083
:10857000F9E700BFEA120020303B0020094B0A4A0D
:108580009A610A4B0A4A1A60BFF34F8F09490A4B96
:10859000CA6802F4E0621343CB60BFF34F8F00BFA1
:1085A000FDE700BF00000140EB9C374AFC6F002054
:1085B000EFBEADDE00ED00E00400FA0570B51B4C27
:1085C000FEF7D0F9206858B1A37A4BB907F08EFFB7
:1085D0006368984204D301212089A172FFF746FB0A
:1085E00000250126124C206858B1A37A4BB907F038
:1085F0007DFF6368984204D301212089A672FFF7AA
:1086000035FB0335212D04F10C04ECD1FFF7DAF929
:10861000084B1A783AB100221A700AF0ADFF002810
:10862000FBD1FFF709FB00F09BFC70BDC40F0020DD
:10863000C80C0020EA120020012810B5044611D011
:1086400002280AD1FEF7D6F80138012805D8032000
:10865000FDF778FF0020FEF7D3F82046BDE8104074
:1086600007F0A4BE014B1870F7E700BF28110020E7
:10867000014808F07CBE00BFA08601000E4BF0B59B
:108680001B6893B11E2202FB00300C4A01231646E0
:1086900030F8115032F8027BDCB2AF4206D104F060
:1086A000070336F8133020F81130F0BD0133092BE1
:1086B000F0D10023F7E700BFEC12002010480108BA
:1086C0002DE9F74304460D4606F0ACFC00274FF0B9
:1086D0001E092D4EDFF8B4807080E0B2854250D97B
:1086E00000232B4A0FE01CF801EBBEF1FF0F01D075
:1086F00070451BD001310F29F5D10133DBB2062BB8
:1087000002F10F023BD094460021ECE7012A07D189
:10871000012B05D173888DF800708DF8017016E07B
:108720008DF801308DF80010738810E0D8F8002023
:108730002AB309FB032333F81120110AD3B2120A1A
:10874000E4D1002BECD18DF800308DF801308DF89C
:108750000230009804F04CFAC0F307238DF80400AF
:10876000C0F307408DF805308DF806009DF80630FF
:1087700020469DF804209DF8051004F055FF0134B3
:10878000ABE703B0BDE8F0834C0D0020EC120020F5
:10879000500D002070B40D461143014304D170BC4C
:1087A000B4220A48FBF768BF00241E260F2306FBED
:1087B00004F10648013B13F0FF03057042700844C2
:1087C000F8D10134062CF1D170BC7047F0120020B2
:1087D00010B5064A0B461478012C05D15878097853
:1087E000FFF74CFF204610BD0020FCE74C0D002099
:1087F000024B1878431E5842584170474C0D0020D8
:10880000B4235843C1EB01111144223000EB410065
:10881000704704207047032838B510D805290ED8B2
:108820000E2A0CD8FFF7ECFF054603F017FE0446AE
:10883000681C03F013FE44EA002080B238BD00201B
:10884000FCE7032870B51C460FD805290DD80E2A61
:108850000BD8FFF7D5FF0546E1B203F067FE210A0A
:10886000681CBDE8704003F061BE70BD2DE9F8439F
:10887000002405460F461646A14600F12208BC42D8
:1088800008EB040001D1BDE8F8832B19B3F5347F60
:1088900004DA03F0E3FD30550134F0E706F8049004
:1088A000FAE72DE9F04105460E461746002400F18F
:1088B0002208B44208EB040001D1BDE8F0812B1975
:1088C000B3F5347F02DA395D03F030FE0134F0E7AE
:1088D000032806D8B422504300F12201014803F0D6
:1088E0000BBE7047F0120020032838B50CD8084999
:1088F00000230C78012C07D14D78A84206D10B70CB
:10890000FFF7E6FF204638BD0020FCE71846FAE7EF
:108910004C0D0020032806D8B422504300F1220158
:10892000014803F031BE7047F0120020074B084A9F
:1089300010B51A600023074C2370607006F072FBBC
:1089400060806078BDE81040FFF7E4BFEC120020C3
:10895000F01200204C0D0020032808B50CD8074A5F
:108960005070FFF7D7FF06F0F3FA2D2802D02D2024
:1089700006F0EBFA012000E0002008BD4C0D0020BD
:10898000032810B510D8094A117869B9012450702C
:108990001470FFF7BFFF06F0DBFA2D2802D02D2060
:1089A00006F0D3FA204600E0002010BD4C0D002058
:1089B000032810B5044609D8FFF7ACFF2046FFF79F
:1089C00093FF2046BDE81040FFF7C6BF10BD000072
:1089D00008B5054802F044FBBDE808404FF4347286
:1089E0002221024803F088BD2C450108D44B010820
:1089F00008B50A4609490346087801280CD1A3F5B1
:108A0000A443203B1F2B06D9907820B150781178D1
:108A1000FFF734FE002008BD0120FCE74C0D0020CC
:108A200070B504460078FF2801D106F091FA0D498F
:108A300000220D4611F8016BD3B2864203D00132F9
:108A4000102AF7D113462278FF2A12BFFF220133E2
:108A500003F00F03E85C18BF2270BDE8704006F019
:108A600074BA00BF3948010838B50B780546FF2BAA
:108A70000C4602D106F06CFA2070284638BD38B595
:108A800040F2F62440F2063520460021013403F07E
:108A900010FDAC42F8D138BD10B506F059FA0023EC
:108AA0000246054911F8014BD8B2944203D0013374
:108AB000102BF7D1184610BD3948010810B50446EF
:108AC000FFF7EAFF2146BDE8104000F2F62003F070
:108AD000F0BC08B5FFF7E0FF00F2F62003F0BEFCA3
:108AE000082828BF002008BD70B506F031FA07231A
:108AF000124A12F8011B81421DD0013B13F0FF0303
:108B0000F7D10724FFF7E5FF0130B0FBF4F304FBD6
:108B100013040B4B13F8145003EB44035E7806F078
:108B200081FA31460246284606F055FAE0B2BDE821
:108B30007040FFF7C3BF0624E4E700BF49480108BF
:108B40002B48010838B5FFF76BFFFFF7C2FF074B53
:108B500013F8104003EB40035D7806F063FA2946F2
:108B600002462046BDE8384006F035BA2B480108D9
:108B70002DE9F0431C4B85B01B7823B3002201ACD8
:108B80001146104605F0DCFB0025A0460A26DFF85A
:108B90005C90174F0A2249464046FBF7F7FCFB7FE3
:108BA000EAB2B3FBF6F1914200D8BAB9312B207882
:108BB0000DD9002396221946013504F035FD0A2D02
:108BC00004F10104E6D1012005B0BDE8F0831D2BBE
:108BD0004FF00003EED81A469621EDE700232078E7
:108BE0001A461946E8E700BFA413002020480108F0
:108BF000640C002038B52A4B0446DB78294A13F070
:108C000001031ED0284B1B78A3B10023274920461F
:108C10000B60012111701A461946FDF78FFAFF22E9
:108C20004FF496712046FDF7CDFA2046BDE8384056
:108C3000FDF762BA1D490B60012111701A46FF2130
:108C4000EBE71B4DE97F0F29DFD812780AB31A46EC
:108C5000FF21FDF773FA01224FF4FA712046FDF768
:108C6000B1FAEB7F002BE0D1104D2B6813B907F060
:108C7000F9FB286028680028D7D007F037FC4EF6AB
:108C800060239842D1D9002301202B60FEF732FFE8
:108C9000CBE713461146FDF751FAFF22DCE700BF90
:108CA000303B0020760E0020A5130020A8130020E2
:108CB000640C002070B5294E04463578042D2CD85C
:108CC000DFE805F0033D1F30380007F03BFA244B86
:108CD000C0F34006187801F074F9022818BF214B40
:108CE000314618BF1D78204618BFC5F300152A4627
:108CF0000023FDF723FAFF2232212046FDF762FA16
:108D00000BE0FF231A461946FDF718FA0322C82183
:108D10002046FDF757FA012333702046BDE8704026
:108D2000FDF7EAB9FF231A461946FDF707FA0122B3
:108D3000C821E2E700233370FFF7BCFFEDE7002313
:108D40003370FFF7B7FF084B9B78002BE5D14FF04E
:108D500080434FF400129A61DFE700BFAE1300209A
:108D6000CA130020463B0020373B0020FF2810B5E7
:108D700004461CD10E4BD3F8F83023F07F43B3F5F3
:108D8000A04F0DD1002250231146FDF7D7F9204600
:108D90000121FDF7EBF92046BDE81040FDF7ACB925
:108DA000B3F5A00F03D1002350221946EDE710BD03
:108DB000780E002008B5054B00211870FB20FDF748
:108DC000EBF9BDE80840FB20FFF774BFAE130020AD
:108DD00038B5324B05461B784B2B02D80024204671
:108DE00038BD037CFA2B0BD0FB2B1ED02C4B1B78F1
:108DF000002BF3D1FFF7FCFC80F00104E4B2EEE7B6
:108E0000274B1C78002CE9D1836933F07F43E5D0F0
:108E1000437C33B1837E027E417E3E2004F004FC1D
:108E2000DDE7234622462146F7E71E4B1B78012B40
:108E3000D4D1FFF7DDFC04460028CFD16B7CB3B161
:108E40003820AB7E2A7E697E04F0EEFB3A20AB7EB2
:108E50002A7E697E04F0E8FBAB7E2A7E697E3B2099
:108E600004F0E2FBAB7E2A7E697E3C20D6E7034617
:108E700002460146382004F0D7FB2346224621460D
:108E80003A2004F0D1FB2346224621463B2004F041
:108E9000CBFB234622462146E7E700BFB413002060
:108EA000B8130020AE130020034B187810F0030015
:108EB00018BF0120704700BF603B00204FF48022A4
:108EC00008B5084B4FF400719A614FF080400122C1
:108ED00009F0FBFB4FF080434FF0007201209A61D4
:108EE00008BD00BF000C0040042208B5074B4FF43A
:108EF00000719A614FF08040012209F0E6FB4FF0CB
:108F000080434FF4007201209A6108BD000C0040BC
:108F100010B5104C01222046042109F0D6FB042391
:108F20000122A3614FF400714FF0804009F0CDFBA6
:108F30004FF080444FF400732046A36120224FF489
:108F4000004109F0C2FB2369034AC3F3C033012087
:108F5000137010BD000C0040A513002001207047C5
:108F60004FF080431B6970B52D4EC3F3C03333708F
:108F7000FDF740FC2B4C78B92B4D286807F0B6FA6A
:108F8000B0F57A7F08D907F06DFA286053200AF00F
:108F900085FF20780AF082FFFDF72CFC234D60B995
:108FA000EB78DA0705D4224B9A78224B1B781343CF
:108FB00021D14FF48022204B9A612A681F4B134025
:108FC000B3F1807F1AD11E4B1B78042B02D10122F2
:108FD0001C4B1A70EB78DB0720D53378E3B166239E
:108FE0002370194B20781A78824202D018700AF048
:108FF00055FF012070BD04220F4BDDE7002BE9D1A6
:109000000F4A1278042AE5D00E4A11780029E1D0DF
:109010001370FEF79FFDDDE76423E1E76523DFE7DB
:10902000A5130020AD130020B0130020303B00201A
:10903000373B0020AE130020000C0040FF00000171
:10904000AC3E0020C0130020AC130020042307B561
:109050008DF8043050238DF8053096238DF80630B6
:10906000019803F0C5FD0D4AC0F30721C0F3074383
:10907000107051709370C9B2DBB2C2B2FF20FDF71D
:109080005DF80322FA21FF20FDF79CF8FF20FDF791
:1090900033F8012003B05DF804FB00BF343B00202F
:1090A00008B547F60343984205D111B1FEF7C4FD58
:1090B0000021084608BD0121FBE70000024B40F2F9
:1090C000F220196803F04EBA403B002010B500248E
:1090D0000020FFF76FFE0E4A0E4B1C70138823F41E
:1090E000706323F00D0343F001031380FF2393709B
:1090F000094B1C70FFF7C3FC084B22461978B1FAE4
:1091000081F04009FDF736FABDE81040FFF7D6BF01
:10911000403B0020B6130020C0130020303B00204D
:1091200038B52C4C01220421204609F0CEFA042344
:10913000A36105F053FF284BC0F307221870C0F35A
:1091400007405A70987020224FF400414FF0804041
:1091500009F0BBFA4FF080431B69204AC3F3C033C8
:1091600040F2F220137003F097F91D4C206008B90B
:10917000FFF7ACFF60781B4C00F00F00FFF7D6FB49
:10918000FF22C821FA20FDF71DF8FA20FCF7B4FFF2
:10919000FF22C821FB20FDF715F8FB20FCF7ACFFF0
:1091A00005F040FF104B114D187005F02FFF207097
:1091B00005F032FF28704FF4FA6008F0D8F80C4B35
:1091C0001B784B2B04D800222978207805F000FF6B
:1091D000012038BD000C0040373B0020A5130020C3
:1091E000403B0020453B0020443B00203D3B00200D
:1091F000B413002037B505F0ABFE054605F0EEFED2
:10920000012DC0F307238DF80400434C8DF8053081
:10921000C0F307403BD1D8B90A2323702378013328
:10922000DBB20B2B237041D10023237005F0D6FE57
:10923000034613F47F0FC0F3074003D16422FF21DC
:1092400005F0C9FE2378354AD05C05F07EFE34E097
:109250009DF8043023B99DF8053043B10323DCE7C2
:10926000782B10D005D8282B09D0502B09D00923F2
:10927000D3E7A02B09D0C82BF9D10823CDE70423CD
:10928000CBE70523C9E70623C7E70723C5E7082D72
:1092900008D00E2D04D0022D06D00028BCD0BDE78A
:1092A0000023BAE70123B8E72570B7E70A2BBDD141
:1092B0000022FF21104605F08EFE05F08FFE237878
:1092C000C0F30742092B24D8DFE803F01D23230550
:1092D0000C0F1215181BFF21002003B0BDE8304011
:1092E00005F079BEFF212820F7E7FF215020F4E7A1
:1092F000FF217820F1E7FF21A020EEE7FF21C82021
:10930000EBE70021E8E7FF2003B0BDE8304005F0BF
:1093100007BFC820F8E700BFB5130020740F002076
:10932000F8B5BC4F06463B780D463BB18B782BB168
:109330000022114610463A7005F002F8B64B5C7EEA
:1093400034B9B64B1B781BB1331FA02B40F25F81A1
:1093500047F62A039E4200F2FD8047F620039E4214
:109360005CD8C12E00F07A8100F28880522E0BD892
:109370004E2E6FD8162E00F08B8176D8042E00F07A
:109380007881072E00F08C81012440E1A6F5FC468F
:109390001F2EF9D801A353F826F000BFE796000866
:1093A0002B9700086D97000889930008899300089F
:1093B000D7970008AF970008959800088993000890
:1093C0002D96000889930008899300088993000866
:1093D00089930008899300088993000889930008FD
:1093E00089930008899300088993000889930008ED
:1093F00089930008899300088993000889930008DD
:109400008993000889930008C9950008E79500082A
:1094100089930008A798000839960008A6F5F04639
:10942000213E092EB0D801A353F826F0C9990008AF
:10943000899300088396000889930008899300089F
:10944000899300081199000859990008D7980008D5
:10945000F1980008724B503E1B78022E00F23481C6
:10946000DFE816F026012C0138011A2E8CD16C4B46
:109470001B785F0788D55220AC7816E045F20223AE
:109480009E4200F089823ED8E72E00F0EC8112D88F
:10949000E32E00F0D181E42E7FF476AF604B1B7891
:1094A00018077FF571AF6520AC78002C00F01881AB
:1094B00000F088FCAAE0B6F5A44F7FF465AFAB7866
:1094C000002B00F0A38000212920FCF765FE554CFD
:1094D0000322FA212A20FCF775FE2A20FCF70CFE55
:1094E000207800F06EFD022840F09080207800F097
:1094F00068FD002840F04882022000F0D3FC0020E4
:1095000001F0B9F882E045F223239E4200F0EC829C
:1095100047F213039E4200F07F8145F221239E42D1
:109520007FF432AFAB78002B7FF42EAFFFF760F9FA
:1095300000283FF429AF3C4B1A7832B1002229466B
:1095400045F221201A70FFF743F90120364B1870BD
:1095500004465CE047F61F639E4210D8B6F5FC4F08
:10956000BFF414AFB6F5F84F7FF40EAFAC78002C13
:109570003FF40AAF02F088F8FFF700F847E0A6F5DD
:10958000FC464A3EB3B20B2B3FF6FEAE0B2E3FF627
:10959000FBAE01A353F826F00F9A0008539A000877
:1095A000779A000889930008899300088993000836
:1095B0008993000889930008899300089B9A000802
:1095C000B9980008C7980008AC78E5202CB1FDF7E1
:1095D00055FB3520FDF752FB18E0FDF7AFFB3520BA
:1095E000FDF7ACFB13E00E49CB7813F0F000AFD0E1
:1095F000AC7864B15A1C02F00F02062A94BF62F3E1
:1096000003036FF30303CB70FFF758FD00242046DC
:10961000F8BD00BFB8130020640C0020303B0020D0
:10962000403B0020CA130020B6130020AC78002C69
:10963000EDD0FFF7DFFDE9E7AC7854B1E320FDF7AB
:109640001DFB2C20FDF71AFB4FF4FA6007F08FFE8C
:10965000DCE72C20FDF772FBE320C1E7AC78E020CB
:109660001CB1FDF70BFB5220B4E7FDF767FB52205E
:10967000B6E7B24B1B7859077FF586AE5020AC7821
:1096800013E7AB78002B3FF47FAEFFF72DFABDE771
:10969000AA4B1B785A077FF577AE5120AC7804E7C8
:1096A000A64B1B785B077FF56FAE4F20AC78FCE6CE
:1096B0005E077FF569AE0420AC78F6E65C077FF5BF
:1096C00063AE1620AC78F0E658077FF55DAE072054
:1096D000AC78EAE659077FF557AE1A20AC78E4E695
:1096E00000F086FB93E7FFF783F8044600288DD14E
:1096F000AB78002B3FF448AE914B1B78012B7FF4E5
:1097000043AEFEF745FD00287FF43EAE50232D20EA
:109710001A461946FCF712FD022296212D20FCF76D
:1097200051FD2D20FCF7E8FC71E7FFF761F80446D6
:1097300000287FF46BAFAB78002B3FF425AE804B55
:109740001D78022D7FF420AEFEF722FD00287FF465
:109750001BAE50232E201A461946FCF7EFFC2A4672
:1097600096212E20FCF72EFD2E20DBE7FFF740F898
:10977000044600287FF44AAFAB78002B3FF404AED8
:109780006F4B1B78032B7FF4FFADFEF701FD002824
:109790007FF4FAAD50232F201A461946FCF7CEFC71
:1097A000022296212F20FCF70DFD2F20BAE7FFF7AC
:1097B0001FF800287FF42AAFAB78002B3FF4E4AD0C
:1097C0005F4B1B78002B7FF4DFADFEF7E1FC041E3E
:1097D00018BF01241BE7FFF70BF8044600287FF4AD
:1097E00015AFAB78002B3FF4CFAD554B1B78062B54
:1097F0007FF4CAADFEF7CCFC00287FF4C5AD502342
:1098000030201A461946FCF799FC02229621302096
:10981000FCF7D8FC302085E7AC78002C3FF4B4ADE1
:10982000002350211A46FF20FCF788FC0121FF206D
:10983000FCF79CFCFF2075E7424B187800F0C1FB59
:1098400002287FF4A1AD404B1B78DA067FF59CAD72
:10985000FEF7CEFF00287FF497ADE320AC78B4B1DB
:1098600000F0B0FAD3E6374B187800F0AAFB0228D4
:109870007FF48AAD344B1B78DB067FF585ADFEF7B0
:10988000B7FF00287FF480ADE720AC78E7E700F071
:10989000AFFA79E52A4B1B7803B1AB782B4A03F07A
:1098A00001031370B2E6AB78002B3FF4AFAE284A49
:1098B000137883F00103F4E7AB78002B3FF4A6AEF6
:1098C00001233B70A2E6AB78002B3FF49FAE6220F1
:1098D0000AF0E4FA9AE6AC78002C3FF455AD05F0B6
:1098E00027FCFF287FF450AD0220FFF763FA8EE6D5
:1098F000AB78002B3FF448AD05F01AFC33283FF657
:1099000043AD0220FFF756FA332005F009FC7DE64F
:10991000AC78002C3FF438AD4FF0804320229A61A0
:1099200005F080FB77280B4D02D99623AB70DBE75F
:1099300005F078FB1E30A87069E600BF403B0020B0
:10994000303B0020CA130020463B0020A413002017
:10995000B7130020373B0020AC78002C3FF414AD47
:109960004FF0804320229A6105F05CFB1E28684D71
:1099700006D800221146104604F0E2FC0023D5E789
:1099800005F050FB1E38D6E7207800F01AFB0228BD
:109990007FF43CAE0020B0E5AB78002B3FF436AE50
:1099A00000212A20FCF7F8FB5A4C0322FA21292037
:1099B000FCF708FC2920FCF79FFB207800F001FB56
:1099C00002283FF423AE91E5AB78002B3FF41CAEA8
