:04000005080041B9F5
:020000040800F2
:103F000000312E3100000000000000000000000021
:103F1000EAE42D3444736D5F36384B204B6579628B
:103F20006F61726400000000000048616E67736892
:103F3000656E670000000000000000000000000047
:103F40000000000000000000000000000000000071
:103F50000000000000000000000000000000000061
:103F60000000000000000000000000000000000051
:103F70000000000000000000000000000000000041
:103F80000000000000000000000000000000000031
:103F90000000000000000000000000000000000021
:103FA0000000000000000000000000000000000011
:103FB0000000000000000000000000000000000001
:103FC00000000000000000000000000000000000F1
:103FD00000000000000000000000000000000000E1
:103FE00000000000000000000000000000000000D1
:103FF00000000000000000000000000000000000C1
:1040000000040020B9410008BB410008BB41000882
:10401000BB410008BB410008BB410008F41A010085
:1040200064B8F1A4BB410008BB410008CD130108EE
:10403000BB410008BB410008BB410008072601083E
:10404000BB410008BB410008BB410008BB41000860
:10405000BB410008BB41000809760008497600080A
:1040600089760008CD76000811770008BB4100086A
:10407000BB410008BB410008D12C0108BB4100082E
:1040800055770008BB410008BB410008BB41000850
:10409000BB410008BB410008BB410008BB41000810
:1040A000BB410008BB410008BD280108D128010818
:1040B000BB410008BB410008BB410008BB410008F0
:1040C00025260108F5770008BB410008A9780008FB
:1040D000BB410008BB410008BB410008BB410008D0
:1040E00072B6264880F30888254880F30988254859
:1040F00025490860022080F31488BFF36F8F0CF00D
:104100007FFE0CF05BFC4FF0553020491B4A91427A
:104110003CBF41F8040BFAE71D49194A91423CBFE4
:1041200041F8040BFAE71B491B4A1C4B9A423EBF5D
:1041300051F8040B42F8040BF8E700201849194A1B
:1041400091423CBF41F8040BFAE70CF05DFE0CF025
:1041500058FE154C154DAC4203DA54F8041B884741
:10416000F9E707F071FB124C124DAC4203DA54F838
:10417000041B8847F9E70CF045BE0000000400204E
:10418000000C00200040000808ED00E000000020C6
:1041900000040020A8540108000C00204C1100204D
:1041A00050110020F83E0020E0400008E0400008E8
:1041B000E0400008E040000892E700F000F8FEE769
:1041C0002DE9F04FC1F80CD0C3689D46BDE8F08FD3
:1041D000002383F311882846A04700200DF02AF819
:1041E000FEE70CF05BFF00DFFEE7000053B94AB9C1
:1041F000002908BF00281CBF4FF0FF314FF0FF30EF
:1042000000F076B9ADF1080C6DE904CE00F006F8C7
:10421000DDF804E0DDE9022304B070472DE9F04742
:10422000089E0D4604468846002B4DD18A4294468E
:1042300068D9B2FA82F252B101FA02F3C2F1200156
:1042400020FA01F10CFA02FC41EA030894404FEA1B
:104250001C41B8FBF1F71FFA8CFE01FB178807FB26
:104260000EF0230C43EA084398420AD91CEB0303DF
:1042700007F1FF3580F01E81984240F21B81023F1A
:1042800063441B1AB3FBF1F001FB103300FB0EFE7D
:10429000A4B244EA0344A6450AD91CEB040400F185
:1042A000FF3380F00981A64540F20681644402385C
:1042B0000021A4EB0E0440EA07401EB10023D440C5
:1042C000C6E90043BDE8F0878B4208D9002E00F014
:1042D000EE800021C6E900050846BDE8F087B3FA84
:1042E00083F100294AD1AB4202D3824200F2FC8022
:1042F000841A65EB030301209846002EE2D0C6E93C
:104300000048DFE702B9FFDEB2FA82F2002A40F08D
:104310009180A1EB0C0001214FEA1C471FFA8CFE93
:10432000B0FBF7F307FB1300250C45EA00450EFB35
:1043300003F0A84208D91CEB050503F1FF3802D2AF
:10434000A84200F2CE8043462D1AB5FBF7F007FBDA
:1043500010550EFB00FEA4B244EA0544A64508D958
:104360001CEB040400F1FF3502D2A64500F2B68032
:104370002846A4EB0E0440EA03409EE7C1F1200763
:104380008B4022FA07FC4CEA030C25FA07FA4FEAA5
:104390001C49BAFBF9F820FA07F309FB18AA8D406B
:1043A0001FFA8CFE1D4300FA01F308FB0EF02C0CE3
:1043B00044EA0A44A04202FA01F20BD91CEB0404BD
:1043C00008F1FF3A80F08880A04240F28580A8F191
:1043D00002086444241AB4FBF9F009FB104400FB02
:1043E0000EFEADB245EA0444A64508D91CEB040410
:1043F00000F1FF356CD2A6456AD90238644440EA20
:104400000840A0FB0295A4EB0E04AC42C846AE46A1
:1044100056D353D0002E69D0B3EB080264EB0E04E0
:1044200022FA01F304FA07F71F43CC40C6E90074EF
:10443000002147E70CFA02FCC2F1200125FA01F342
:104440004FEA1C4720FA01F195400D43B3FBF7F109
:1044500007FB11331FFA8CFE280C40EA034001FBD6
:104460000EF3834204FA02F408D91CEB000001F1B8
:10447000FF382FD283422DD902396044C01AB0FBD5
:10448000F7F307FB1300ADB245EA004503FB0EF05E
:10449000A84208D91CEB050503F1FF3816D2A84243
:1044A00014D9023B6544281A43EA014138E73146F2
:1044B000304607E72F46E4E61846F9E64B45A9D211
:1044C000B9EB020865EB0C0E0138A3E74346EAE7B7
:1044D000284694E74146D1E7D0467BE7644402385A
:1044E00047E7023B65442FE7084606E73146E9E621
:1044F000704700BF062008B500F0E0FA01200DF07B
:10450000CBFE00BF024B0146186800F06DB900BF3A
:10451000000C0020024B0146186800F0FFB800BFF5
:10452000000C0020032A10B516D940EA010C1CF03B
:10453000030F04460B4622D119462046D1F800E06D
:10454000D0F800C00433F44504F1040417D1043A50
:10455000032A20461946EFD8541EA2B100F1FF3CB1
:10456000013901E0C3180CD01CF801EF11F8012F3C
:10457000A4EB0C039645F5D0AEEB020010BD541E23
:10458000ECE7184610BD104610BD00BF844641EA56
:10459000000313F0030349D1403A23D30B680360AF
:1045A0004B6843608B688360CB68C3600B690361B1
:1045B0004B6943618B698361CB69C3610B6A036299
:1045C0004B6A43628B6A8362CB6AC3620B6B036381
:1045D0004B6B43638B6B8363CB6BC3634030403166
:1045E000403ADBD230320BD30B6803604B68436038
:1045F0008B688360CB68C36010301031103AF3D2FF
:104600000C3205D351F8043B40F8043B043AF9D28C
:10461000043208D0D2071CBF11F8013B00F8013B5F
:1046200001D30B8803806046704700BF082A13D36C
:104630008B07B1D010F00303AED0C3F10403D21A3C
:10464000DB071CBF11F8013B00F8013BA4D331F894
:10465000023B20F8023B9FE7043AD9D3013A11F814
:10466000013B00F8013BF9D20B7803704B784370A3
:104670008B78837060467047830730B548D0541EEE
:10468000002A3FD00346CAB201E0013C3AD303F806
:10469000012B9D07F9D1032C2DD9CDB245EA052573
:1046A0000F2C45EA054536D9A4F1100222F00F0C73
:1046B00003F1200EE6444FEA121C03F1100242E916
:1046C000045542E9025510327245F8D10CF101024D
:1046D00014F00C0F03EB021204F00F0C13D0ACF12A
:1046E000040323F003030433134442F8045B9342AE
:1046F000FBD10CF003042CB1CAB21C4403F8012B0B
:104700009C42FBD130BD64461346002CF4D1F9E73E
:1047100003461446BFE71A46A446E0E7002952D0F4
:1047200038B551F8043C0C1F002BB8BFE4180546FF
:1047300000F0F0FA2B4A1368002B45D0A3420CD9A5
:1047400021686018834228D0636028461460BDE861
:10475000384000F0E1BAA3420FD81A465B68002B3C
:10476000F9D11168501884421DD034D3636054606D
:104770002846BDE8384000F0CFBA11685018A04272
:1047800015D028D8216860188342EFD118685B687B
:104790000144C4E900135460EAE718685B68014407
:1047A000C4E90013D1E7236819441160E0E72068E9
:1047B0000144501883421160DAD1D3E90003014467
:1047C000C2E90013D4E77047284663601460BDE86F
:1047D000384000F0A1BA0C2328462B60BDE83840D1
:1047E00000F09ABA50110020F8B5CD1C25F0030551
:1047F00008350C2D38BF0C25002D064623DBA942B9
:1048000021D8264F00F086FA3A6822B3144603E016
:1048100063682246FBB11C4623685B1BF8D40B2B54
:1048200015D8636894420CBF3B605360304600F07B
:1048300073FA04F10B00231D20F00700C21A01D007
:104840001B1AA350F8BD0C2300203360F8BD236071
:104850001C442560EAE77968D1B1294630460DF05D
:10486000FFFC431C01460CD0C41C24F00304A042EE
:1048700005D03046611A0DF0F3FC013001D02560FF
:10488000D4E70C233046336000F046FA0020F8BD30
:1048900030460DF0E5FC7860DFE700BF50110020E6
:1048A00038B5124B04461D68AA6B1AB10023C2E941
:1048B000044338BD1820FFF725FE0246A86378B1EF
:1048C00000210B2301209381C2E90401084B09490F
:1048D000094DC2E9011300231560C2E9044338BD44
:1048E0004221064B064800F0CDF900BF000C002025
:1048F000ECDE050034126DE60E33CDABD853010863
:10490000F053010838B5194B1C68A26B8AB11369C2
:104910001749546903FB01F1164800FB0411A3FB7E
:104920000030013341EB0001C2E9043121F00040C5
:1049300038BD1820FFF7E6FD0246A06388B10124C8
:1049400000250B230A480C49C2E9044511600146C1
:104950000A4D0B4C93810B4BC2E90154C2E904315F
:1049600038BD4E21084B094800F08CF9000C00209E
:104970002DF451582D7F954C0E33CDAB34126DE68E
:10498000ECDE05002E7F954CD8530108F05301084A
:1049900038B5446C0CB1002038BD80210546FFF7C6
:1049A00023FF0246686430B1031F7C3243F8044F92
:1049B0009342FBD1EFE74FF0FF3038BD1F29F8B528
:1049C000054608D8466C0C4617464EB156F82400EA
:1049D00046F82470F8BD16234FF0FF302B60F8BD69
:1049E0008021FFF701FF0646686440B10021031FE4
:1049F00000F17C0543F8041F9D42FBD1E6E74FF030
:104A0000FF30F8BD1F2938B5054620D8426C0C464A
:104A10006AB152F8213053B1012B16D0591C10D075
:104A20000025204642F824509847284638BD28469D
:104A300000F0F8F8224601462846BDE8384000F06C
:104A4000DDB8162301202B6038BD002038BD1623A9
:104A50004FF0FF302B6038BD1F292BD8426C38B582
:104A60000C46054682B152F8243002EB84024BB169
:104A7000591C1AD0012B16D00025204615609847E6
:104A8000284638BD012038BD8021FFF7ADFE024623
:104A9000686460B10020131F02F17C0143F8040F29
:104AA0009942FBD1DFE7032038BD022038BD4FF02B
:104AB000FF3038BD4FF0FF30704700BF38B5144BA2
:104AC0001F281D681FD86A6C044662B152F8203056
:104AD0004BB1012B15D0591C0FD0002542F82050A6
:104AE0009847284638BD284600F09CF822460146E3
:104AF0002846BDE8384000F081B8162301202B601D
:104B000038BD002038BD16234FF0FF302B6038BD74
:104B1000000C0020124B1F2870B51E6808D80D46E7
:104B2000716C044649B151F8240041F8245070BD1D
:104B300016234FF0FF30336070BD80213046FFF701
:104B400053FE0146706440B10022031F00F17C0C4B
:104B500043F8042F6345FBD1E5E74FF0FF3070BD0C
:104B6000000C002038B50B4B1D686C6C0CB100209C
:104B700038BD80212846FFF737FE686438B1031F2F
:104B800000F17C0243F8044F9342FBD1EFE74FF072
:104B9000FF3038BD000C002038B5174B1F281D68AA
:104BA00027D86A6C044682B152F8243002EB8402A2
:104BB0004BB1591C1BD0012B17D000252046156086
:104BC0009847284638BD012038BD80212846FFF788
:104BD0000BFE0246686460B10020131F02F17C01E5
:104BE00043F8040F8B42FBD1DEE7032038BD0220DF
:104BF00038BD4FF0FF3038BD000C002070B50026E6
:104C0000074D0446084611462E600DF04DFB431C2F
:104C100000D070BD2B68002BFBD0236070BD00BF9F
:104C2000581100200DF048BB20F0030110F00300E4
:104C3000C0F1000051F8043B00F1040C4FEACC0C29
:104C40006FF000021CBF22FA0CF213434FF0010C6C
:104C50004CEA0C2C4CEA0C4CA3EB0C0222EA0302AB
:104C600012EACC1204BF51F8043B0430F4D0C2F174
:104C7000000102EA0102B2FA82F2C2F11F0200EB65
:104C8000D2007047144600B51A460A4B0D461B6801
:104C900085B0DE6803464CB10749019130460749AB
:104CA0000294009500F022F8FFF724FC04490C461A
:104CB000F3E700BF000C002024540108345401081D
:104CC0003054010808B513460022FFF7DBFF00BF90
:104CD0000CB400B583B004AB53F8042B019300F07F
:104CE00057F803B05DF804EB02B070470EB400B59E
:104CF000074A82B003AB0146106853F8042B0193B6
:104D000000F046F802B05DF804EB03B0704700BF56
:104D1000000C0020704700BF704700BF9368013B44
:104D2000002B936005DAD2F818C0634507DB0A2927
:104D300005D01368581C106008461970704700F0C1
:104D400069BB00BF9BB1F8B5134406460F46541E1D
:104D50005D1E01E0AC4208D03A46304614F8011F0F
:104D6000FFF7DCFF431CF5D1F8BD0020F8BD0020A3
:104D7000704700BF936810B5144613B918465360C6
:104D800010BD00F031FE0023C4E9013310BD00BFA7
:104D90002DE9F04F0E4692461C4607469FB018B1CB
:104DA0008369002B00F0A880954B9E4200F0AA80FA
:104DB000944B9E4200F0B580934B9E4208BFFE6824
:104DC000B389180740F1A3803369002B00F09F805E
:104DD000002320220B9330239AF80010059401251C
:104DE0008A4C8DF831208DF8323000297DD0D146A3
:104DF0000B4604E019F8013F002B00F09480252BAE
:104E0000F8D1B9EB0A0B40F0918099F80030002BF3
:104E10006BD000234FF0FF3209F10109CDE90723E0
:104E2000069309938DF85B301C9304E0001B05FA90
:104E300000F018430690CA460522204619F8011BC7
:104E400001F01CF8069B0028F0D1D90644BF2022AF
:104E50008DF85B201A0748BF2B229AF8001048BF34
:104E60008DF85B202A2972D1059A11680432002935
:104E70000592C0F2A08009919AF801100AF1010A86
:104E80002E2976D0DFF888910322484600F0F6FFFD
:104E900048B14022069BA0EB090002FA00F0034350
:104EA0000AF1010A06931AF8011B062259488DF8E7
:104EB000301000F0E3FF002800F08380564B002BF9
:104EC0006CD005A9009132463846544B06A9AFF381
:104ED00000800390039B013307D00B9B039A9AF841
:104EE000001013440B93002981D1B3895B0615D4BC
:104EF0000B981FB0BDE8F08F00F056FD404B9E426E
:104F00007FF456AF7E68B38918073FF55DAF314631
:104F1000384600F0E1FA00283FF45AAF4FF0FF3076
:104F2000E7E7BE684CE7B9EB0A0BDED0D046CAF122
:104F3000010A03E0934538D918F8011F3246384674
:104F4000FFF7ECFE01300AEB0802F3D1CDE7A1F147
:104F50003002092A94D8099B1AF8011F03EB830336
:104F600002EB4303A1F13002092AF5D92E29099356
:104F700088D19AF801102A292DD1059B0AF1020047
:104F80001A680433002A0593B8BF4FF0FF339AF82C
:104F9000021007928246B8BF079373E7059B073359
:104FA00023F007030833059397E70B9A99F800302D
:104FB0005A440B922BE7494243F0020309910693AE
:104FC0005AE705A9009132463846144B06A900F06D
:104FD000CBF803907EE70023A1F13002092A0AF101
:104FE000010A07933FF64EAF1AF8011F03EB830344
:104FF00002EB4303A1F13002092AF5D9079341E7F7
:105000003C4201081C420108FC41010864540108AB
:105010006C5401087054010800000000454D000860
:105020008C4600B586461346034A714610685DF803
:1050300004EB6246FFF7ACBE000C00202DE9F04700
:1050400091461E460A698B680C469A42B8BF1A46BA
:10505000C9F8002091F843300546DDF8208013B1EF
:105060000132C9F80020226891065DD5D9F80030D8
:105070000233C9F80030226812F0060F11461ED123
:10508000E168CB1A002BD8BF114618DD002704F1C8
:10509000190A06E0D9F80030E268A2EB030CBC451F
:1050A0000CDD0123524631462846C047013007F146
:1050B0000107EFD14FF0FF30BDE8F087216894F889
:1050C0004330003B18BF01238A060AD53021E2187D
:1050D00082F8431094F845105A1C2244023382F897
:1050E00043103146284604F14302C0470130E1D065
:1050F000236803F00603042B1DD0A36822699342A2
:1051000025DD00279B1A1F4404F11A09002401E041
:10511000BC421CDA01234A4631462846C0470130CA
:1051200004F10104F4D1C5E712F0060F12D0003BE0
:1051300018BF0123D5E7D9F80030E1682269C91A00
:10514000A36821EAE1779342DCDC0029DCDC002063
:10515000BDE8F087E168D9F80030CB1A002BD8BF42
:10516000114693DCABE700BF2DE9F04317460A7EFA
:1051700085B00C46064698460C9D01F1430C002A6A
:1051800033D0A2F15803D9B2202967D8202B65D893
:10519000DFE813F0DD006400640064006400640074
:1051A00064006400640064006400A3006E00640096
:1051B0006400640064006E006400640064006400C5
:1051C00021007F00BF0064006400AE0064007F0027
:1051D00064006400E40023681A0640F102812B6831
:1051E0006269191D29601B681A600023E14623616A
:1051F0003B4621463046CDF8008003AAFFF71EFF4C
:10520000013020D04A46394630462369C047013034
:1052100019D02368E0689B07039919D5431A002B1E
:1052200016DD002504F1190904E0E0680399431A2A
:10523000AB420DDD01234A4639463046C0470130B6
:1052400005F10105F1D14FF0FF3005B0BDE8F08365
:105250008842B8BF084605B0BDE8F083012384F852
:10526000422004F142092361002384F84330BFE760
:105270002368190602D45A0600F1BF8029680A681B
:10528000043129601146002A6ADB0A25DFF87CE137
:1052900010E02368180640F19A802B68191D2960D8
:1052A00019686F2A0CBF08250A25DFF860E1002382
:1052B00084F843306268002AA2607DDB236823F013
:1052C00004032360002959D1002A77D1E146082D33
:1052D00063D0ACEB090323618AE701222B6804F158
:1052E0004209196804332B6084F842102261BBE73D
:1052F0002B6800211A1D2A60D3F800906268484686
:1053000000F0BCFD00287FD0A0EB090060602061A8
:10531000AAE7236843F0200323607822DFF8F0E057
:1053200084F845202A68111D2960190642D45D06BB
:1053300040D51188D80744BF43F0200323600029DB
:1053400043D12368102523F020032360AFE75823BF
:10535000DFF8B8E084F845302368E3E72368DCE74A
:105360002D2284F8432062684942002AA26002DBB1
:1053700023F0040323600A25DFF890E0E146B1FB47
:10538000F5F30A4605FB131019461EF80030AA4231
:1053900009F8013DF3D2082D9BD12368D90798D590
:1053A000626823699A4294DC302309F1FF3989F855
:1053B00000308EE71168BDE70029DFD19EF800308C
:1053C00004F1420984F8423081E710256FE713F0B9
:1053D000400F2B6803F1040129600CBF196819887C
:1053E0005FE713F0400F2B68626903F10401296045
:1053F0001B6814BF1A801A60F7E62A68B2F9001019
:1054000004322A600A463EE7606880E77854010863
:105410008C540108F8B506460D46144608B1836958
:1054200043B3254B9C422AD0244B9C4229D0244B89
:105430009C4208BFF468A269A389A2601A0722D51A
:10544000236903B322686169D31AEDB299422F46EA
:1054500029DD0133A1680139A160511C216015705B
:1054600062699A4216D0A389DB0701D50A2D11D0B3
:105470003846F8BD00F098FA0F4B9C42D4D17468BE
:10548000D9E7B468D7E72146304600F025F838B9A7
:105490002369D7E72146304600F024F90028E7D0F9
:1054A0004FF0FF37E4E72146304600F01BF90028B3
:1054B000F6D101232268CDE73C4201081C420108D5
:1054C000FC41010803460A46024908681946FFF7ED
:1054D000A1BF00BF000C00203C4B70B51D68064604
:1054E0000C460DB1AB69E3B1394B9C421FD0394B2F
:1054F0009C424DD0384B9C4208BFEC68B4F90C304C
:1055000018079AB219D5216911B312F001002FD0F2
:1055100000256069A5604042A06100292ED00020CE
:1055200070BD284600F040FA294B9C42DFD16C68E0
:10553000B4F90C3018079AB2E5D4D1063ED552071B
:1055400028D4216943F00803A3819AB20029DCD151
:1055500002F42070B0F5007FD7D02146304600F02D
:10556000FFFBB4F90C3021699AB212F00100CFD1DF
:10557000950758BF6069A0600029D0D1120658BFB6
:105580000846CDD543F040034FF0FF30A38170BDF6
:10559000AC68B3E7616B51B104F14402914204D0AD
:1055A0003046FFF7BBF8B4F90C30002262630022EA
:1055B000216923F02403C4E90012C3E7092243F060
:1055C000400332604FF0FF30A38170BD000C00201B
:1055D0003C4201081C420108FC410108F8B58B89D6
:1055E0000C46190707463BD46268002A55DDE66A77
:1055F000002E50D000223D683A6013F4805250D102
:1056000001233846216AB047421C5CD0A389E66A70
:105610005B0705D56368C01A636B0BB1236CC01AB6
:105620000246216A00233846B047411C3BD13B6803
:10563000002B38D01D2B01D0162B4BD10023226913
:10564000C4E90023616B3D6029B304F1440399422E
:1056500002D03846FFF762F8002318466363F8BDAE
:105660002669C6B19A0718BF0023256808BF636979
:105670002660AD1BA3600CE02B463246D4F828C050
:105680003846216AE047B0F1000CA5EB0C056644F2
:1056900012DD002DF0DC0020F8BD226C002AA6DC13
:1056A000F9E7606DB4E70022236962602360A38993
:1056B000DB04C7D56065C5E7A3894FF0FF3043F031
:1056C0004003A381F8BD3B68002B9FD01D2B06D063
:1056D000162B04D0A38943F04003A381F8BD00201A
:1056E0003D60F8BD38B50B69BBB10C46054608B145
:1056F0008369B3B10D4B9C4211D00D4B9C4213D02A
:105700000C4B9C4208BFEC68B4F90C302BB121461D
:105710002846BDE83840FFF761BF002038BD6C68FF
:10572000F2E700F041F9E5E7AC68EDE73C4201083B
:105730001C420108FC41010838B540B30369044626
:10574000E3B1174B1D680DB1AB69CBB1154B9C4252
:105750000FD0154B9C4221D0144B9C4208BFEC68E3
:10576000B4F90C3053B121462846BDE83840FFF764
:1057700035BF6C68B4F90C30002BF4D1002038BD73
:10578000284600F011F9074B9C42E2D1F1E7084BA3
:1057900008491868BDE8384000F0BEBAAC68DFE7D9
:1057A000000C00203C4201081C420108FC41010899
:1057B000F8410108E556000800207047014900F053
:1057C000ABBA00BFE556000800207047682270B5EC
:1057D0004D1E02FB05F50E4605F17401FFF704F8B6
:1057E000044640B100210C30C4E9016005F16802B3
:1057F0002160FEF741FF204670BD00BF274B2DE919
:10580000F0411E680746B36953B34FF004084836A9
:10581000D6E90134013B04D51EE05A1C04F16804AA
:105820001AD0B4F90C50013B002DF6D11C4B0822C4
:105830002946C4E90055C4E90253C4E90455656624
:10584000A56104F15C00FEF717FFC4E90D55C4E93A
:1058500012552046BDE8F08135682DB12E46D7E7B8
:10586000304600F01FF8D0E74FF4D6713846FEF707
:10587000BBFF044668B1056029460546C0F80480B0
:105880000C304FF4D072A060FEF7F6FE34602E4666
:10589000BEE70C2330603B60DBE700BFF841010846
:1058A0000100FFFF0023334A2DE9F0471268C0E9E9
:1058B00012339042036508BF01232F4908BF83615B
:1058C00081620546FFF79AFF034628466B60FFF7A3
:1058D00095FFA86028460024FFF790FF04236E6818
:1058E000DFF898A0DFF89890DFF89880264FE860FE
:1058F0000822F3602146C6E90044C6E90444746600
:10590000B460B46106F15C00FEF7B6FE1F4BC6E959
:10591000086AC6E90A983763AE680822F360214630
:10592000C6E90044C6E904447466B460B46106F193
:105930005C00FEF7A1FE164BC6E9086AC6E90A98A4
:105940003763EE682146F3600822C6E90044C6E9E1
:1059500004447466B460B46106F15C00FEF78CFE2A
:105960000123C6E9086AC6E90B87C6F82890AB612F
:10597000BDE8F087F8410108BD57000855600008F0
:105980007D600008BD600008DD60000809000100BE
:1059900012000200024B0349186800F0BDB900BFB5
:1059A000F8410108E5560008836903B97AE77047B2
:1059B000704700BF704700BF704700BF704700BF0F
:1059C000024B0349186800F087B900BF000C0020A3
:1059D000B9570008024B0349186800F07DB900BFB1
:1059E000000C0020C95700089368002B00F0B78016
:1059F0002DE9F04FB1F90C300C46190780461746D7
:105A000083B098B225D523691BB310F002033D681B
:105A10002DD04FF0000B5E46DFF8B8A2002E00F04C
:105A20008B80564533465A4628BF53464046216A26
:105A3000D4F828C0E047002840F38780BB6883443F
:105A40001B1A361ABB60002BE8D1002003B0BDE85A
:105A5000F08F21464046FFF73FFD002840F0368199
:105A6000B4F90C303D6898B210F00203D1D110F0B7
:105A7000010976D14E46002E5AD08205D4F808B0DE
:105A800040F1B580B3455A4600F2CD8010F4906FD6
:105A900000F0CB8023682169A3EB010B636903EB62
:105AA000430A0AEBDA7A0BF101034FEA6A0A33443C
:105AB0005345524684BF9A465246430540F1EA8018
:105AC00011464046FEF790FE002800F0F9805A4645
:105AD00021690190FEF75AFDA289019B22F4906290
:105AE00042F08002A28103EB0B0023613246AAEB55
:105AF0000B03B346C4F814A0A3602060B24600268E
:105B00004946019200F002FAA3682168019AA3EBCA
:105B10000B030A44A3602260B868D144A0EB0A00DA
:105B2000B860002891D0B4F90C0080B2002EA4D146
:105B3000D5E9009608359EE7D5E900B608356DE74A
:105B400021464046FFF7CEFD80B3B4F90C304FF04C
:105B5000FF3043F04003A38103B0BDE8F08F002085
:105B600070471E46AA46994618461D4656B3002859
:105B700032D04A4620682169B24228BF3246884264
:105B8000636904D9A16803EB010B5A4574DC9342A5
:105B900065DC2A464046216AD4F828C0E047B0F1C7
:105BA000000BD2DDB9EB0B09CAD00120BB685D4404
:105BB000A3EB0B03A6EB0B06BB60002B3FF445AF3A
:105BC000002ED4D10AF1080353F8046C9A4653F816
:105BD000085C0833002EF7D032460A21284600F030
:105BE0004DF9002869D00130A0EB0509C1E7206814
:105BF000236998421BD86369B34218D86FF0004CF0
:105C0000B44528BFB4469CFBF3FC4A4603FB0CF3A7
:105C10004046216AD4F828C0E047B0F1000A94DD7C
:105C2000A6EB0A0678E7B3463246206866E7B34536
:105C3000DA4628BFB2464946524600F067F9A368E3
:105C40002268A3EB0A035244A3602260002BE7D131
:105C500021464046FFF746FD0028E1D075E729467A
:105C60009346019200F052F9A368019A9B1AA3602F
:105C700023681A44226095E729465A4600F046F9FF
:105C8000236821465B4440462360FFF72BFD002834
:105C900088D05AE7404600F0B5F9034600287FF463
:105CA00022AF40462169FEF739FD0C22B4F90C30D1
:105CB000C8F8002023F0800349E7721C914659E799
:105CC0000C22B4F90C30C8F8002040E74FF0FF3048
:105CD000BCE600BF00FCFF7F2DE9F04100268846AE
:105CE00000F14807D7E90154013D0ED4A389013DD5
:105CF000012B06D9B4F90E30013302D02046C0473B
:105D000006436B1C04F16804F0D13F68002FE9D111
:105D10003046BDE8F08100BF2DE9F8434FF000099F
:105D20000746884600F14806D6E90154013D10D4E3
:105D3000A389013D012B08D9B4F90E30013304D0F9
:105D400021463846C04749EA00096B1C04F1680443
:105D5000EED13668002EE7D14846BDE8F88300BF93
:105D6000F0B58B890C46990797B007D5012204F14D
:105D70004703C4E90432236017B0F0BDB4F90E1034
:105D8000054600292DDB6A460CF077FA002827DB50
:105D9000019E4FF4806706F47046A6F50056B6FAE9
:105DA00086F6394628467609FEF71EFD30B3A389EC
:105DB0001A4A43F08003AA62C4E90407A381206061
:105DC000002ED9D02846B4F90E100CF062FA002843
:105DD000D2D0A38923F0030343F00103A381CBE7CF
:105DE000A38913F0800F14BF40274FF48067284623
:105DF00039460026FEF7F8FC0028D8D1B4F90C305B
:105E00009A05B9D4012123F0030304F1470243F0BA
:105E10000203C4E90421A3812260ADE7BD57000855
:105E200070B50C46B1F90E10164600291D4696B005
:105E300013DB6A460CF021FA00280EDB01994FF4BF
:105E4000806301F47041A1F50051B1FA81F10020A5
:105E500049092960336016B070BD0022B4F90C30D6
:105E60002A601B0604D540230020336016B070BDA5
:105E70004FF480630020336016B070BD5FFA81FC80
:105E8000810710D00346511E2AB90AE09A07184626
:105E90000AD0013905D3184613F8012B6245F5D114
:105EA000704700207047114603290CD80029F8D00C
:105EB0000346014401E08B42F3D0184613F8012B4E
:105EC0006245F8D1ECE7024610B54CEA0C2444EAEE
:105ED00004441046036804326340A3F1013E2EEAF5
:105EE000030313F0803F04D1043903291046F0D88E
:105EF00051B10346014401E08B4205D0184613F826
:105F0000012B6245F8D110BD002010BD88420DD98B
:105F10008B1883420AD900EB020CBAB1624613F81F
:105F200001CD994202F801CDF9D170470F2A0ED860
:105F3000034602F1FF3C4AB10CF1010C013B8C44D9
:105F400011F8012B614503F8012FF9D1704740EAA0
:105F500001039B074FD1A2F1100370B501F1200C92
:105F600023F00F0501F1100E00F11004AC441B09E1
:105F70005EF8105C0EF1100E44F8105C5EF81C5CCC
:105F8000103444F81C5C5EF8185C44F8185C5EF849
:105F9000145CE64544F8145CEAD1013312F00C0FAE
:105FA00001EB031102F00F0400EB031327D08E4620
:105FB000043C24F003064FEA940C1E441C1F5EF8B8
:105FC000045B44F8045FB442F9D10CF1010402F01F
:105FD000030203EB840301EB840102F1FF3C4AB1AD
:105FE0000CF1010C013B8C4411F8012B614503F8C5
:105FF000012FF9D170BD034602F1FF3C9CE7224618
:10600000EBE700BFF8B51446F9B1CAB106460D4634
:1060100000F068F8A04202D32F463846F8BD21466A
:106020003046FEF7E1FB07460028F6D02246294617
:10603000FEF7ACFA30462946FEF770FB3846F8BD4D
:106040002746FEF76BFB3846F8BD1146BDE8F84021
:10605000FEF7CABB10B50C46B1F90E100CF0F5F8FE
:10606000002803DB636D0344636510BDA38923F43B
:106070008053A38110BD00BF002070472DE9F0417F
:106080000C46B1F90C101F46CB05054616460BD43D
:1060900021F48051A1813B4632462846B4F90E10C6
:1060A000BDE8F0410CF0D8B8B4F90E10022300227C
:1060B0000CF0D0F8B4F90C10EAE700BF10B50C46AC
:1060C000B1F90E100CF0C6F8A389421C0EBF23F4E0
:1060D000805343F480536065A38110BDB1F90E1065
:1060E0000CF0BCB851F8040C0028A0F10400BCBFAF
:1060F0000B58C018704700BF0F4A0023114610B557
:10610000147C844211D11C225343CA18906858B1A0
:10611000CB58FF281FBF58434000013050604FF05C
:10612000010004BF0133536010BD0133092B02F19C
:106130001C02E5D10020F7E7780E0020F0B50A4EEA
:1061400000253446377C874207D11C2000FB0540E0
:106150004176027683760120F0BD0135092D06F1E6
:106160001C06EFD10020F7E7780E0020094A30B571
:1061700000231446157C854205D11C22012002FB18
:106180000343996030BD0133092B02F11C02F1D1A8
:106190000020F7E7780E0020094A30B500231446A6
:1061A000157C854205D11C22012002FB0343596066
:1061B00030BD0133092B02F11C02F1D10020F7E7B9
:1061C000780E002070B50B4C00232546267C8642B5
:1061D00009D11C204343E818E95000238260C360C2
:1061E0004374012070BD0133092B04F11C04EDD16F
:1061F0000020F7E7780E002070B500252E462B4CC6
:106200006368002B4FD0E06808BB637CB3FA83F36C
:106210005B0963740AF08EF8D4E900239342E060CE
:106220002BD266606674E66063690BB1207C984788
:10623000207CFF2824D100221146104607F0E8FFF9
:1062400007353F2D04F11C04DAD1012070BD0AF09E
:10625000B5F823689842D8D26368002BE4D0204672
:1062600002F04AFD0028EBD0637C207CB3B1FF280C
:106270000CD1A27E217E607EE0E79B1A6360EBE793
:106280004328DDD800231A46194604E04328D7D80E
:10629000A37E227E617E07F02FF9D1E7FF28CAD0C6
:1062A0004328CDD8EFE76374E360C9E7780E002098
:1062B00007B543788DF8003083788DF80130C378C6
:1062C0008DF8023043798DF80330037968468DF8F4
:1062D00004300DF0CBFD03B05DF804FB08B5074BAF
:1062E0005A78032A07D858680AF068F8C72894BF74
:1062F0000020012008BD0020FCE700BFA40C002006
:106300007047002280214FF0804008B50CF045F91D
:10631000FFF7F6FF00BF00BF00BF00BF00BF00BF18
:1063200000BF00BF00BF00BF00BF00BF00BF00BF75
:1063300000BF00BF00BF00BF08BD08B501F030FBC3
:1063400008BD000008B5054C20780DF087F82078CE
:10635000FFF7F3FF05200AF072FFF5E7283B002066
:1063600010B5084C236803F07142074B13432360B8
:1063700009F0E0FF054B18602068BDE8104004F00C
:10638000C8BD00BF283B00200001010E60110020A5
:1063900010B5064C0122204602210CF0FEF8022323
:1063A000A361BDE8104001F0A5BB00BF00040040A0
:1063B00001207047144B10B51C78BCB9134B1B78E7
:1063C000042B13D104F092FC04F0A6FC04F058FC5A
:1063D00004F0D2FC05F0A8FE05F0C2FE204609F04C
:1063E0003FFE2046BDE8104009F056BE0DF042FDCC
:1063F00048B10DF029F80028FBD1BDE810404CF25F
:1064000050300AF01CBF10BD283B0020A43E0020E5
:1064100038B500230C46084D0B7030B109F08AFFE7
:10642000002328602370002038BD286809F0C6FFCB
:106430003228F3D8F7E700BF70110020084B9A7894
:10644000012A07D0022A09D0064B1868B0FA80F05A
:106450004009704758780128F6D170470120FCE7C1
:10646000A40C0020D812002008B5054B9B78013BF6
:10647000012B02D9FFF7E2FF08BD0120FCE700BFB6
:10648000A40C002008B509F055FF014B986008BD29
:10649000A40C002010B5094C23782070637009F01B
:1064A00049FF6060FFF7EEFF00F04EFEBDE81040D0
:1064B0000022034B53201A700DF058BCA40C00208E
:1064C0006C110020F8B50C461546074660B300294C
:1064D0003FD0884201D0FFF76DFF584E3378013B23
:1064E000012B04D80320FFF7D5FF0023B370544ECF
:1064F0003378A34200D11DB10022524B9A619A8396
:10650000347024B1631E042B747098BFB47030686B
:1065100004F0FFFC3378062B00F28980DFE803F0FB
:10652000852A46505A646E000029D6D00222464B76
:10653000464E9A613378012BCDD030460CF00CF8E2
:1065400030460BF0D7FB4248424B836009F054FDC4
:10655000C1E74FF400323C4B3C489A610378042B6E
:10656000B9D03D4B3A4E19703C4BB3600AF080F9FC
:106570003046EBE7312075B10DF0F8FB52200DF0FD
:10658000F5FB01200DF0FEFB4EF2EA4143F22D40F7
:106590000DF04EFC51200DF0E9FBFFF773FF2A468A
:1065A0002146384601F074FE0120F8BD3220002D4E
:1065B000F1D00DF0DBFB52200DF0D8FB0220E1E71B
:1065C0003320002DE7D00DF0D1FB52200DF0CEFB93
:1065D0000320D7E73420002DDDD00DF0C7FB52207B
:1065E0000DF0C4FB0420CDE73520002DD3D00DF0F5
:1065F000BDFB52200DF0BAFB0520C3E73020002D73
:10660000C9D00DF0B3FB122115480DF0E1FB1A21A2
:1066100014480DF0F5FB4EF2EA4143F22D400DF027
:1066200007FC52200DF0A2FBB4E71120B3E71120C4
:106630000DF09CFBFFF794FEAFE700BFA40C002019
:10664000283B0020640C002000040040A43E0020F1
:106650002C110020B1620008702B002035090108C0
:106660005C42010870420108002313B50DF10701D7
:106670008DF80730FFF7CCFE044690B19DF8073047
:10668000013B032B0DD8DFE803F002060F120022B6
:106690001146094B02E00022074B99781878FFF762
:1066A00011FF204602B010BD00220621F1E7024B87
:1066B00000225978F2E700BF283B002013B5124CA6
:1066C00020460CF053FE0123A37704F01FFC0F4C6F
:1066D000206008B9FFF744FEE37843F00103E3705C
:1066E00009F028FE0A4BFF22186000234FF4A8711E
:1066F00000930848084B0AF06FFDFFF702FE0120E7
:10670000FFF7B2FF02B010BD640C0020283B002050
:1067100060110020781100204563000848B1074A45
:106720001378013B012B07D893782BB90320FFF78F
:10673000B1BE0122024B1A70704700BFA40C0020AA
:106740006C110020014B1878704700BFA40C00208A
:10675000014B9870704700BFA40C0020014BD8700B
:10676000704700BFA40C00200122014B1A70704733
:106770006C110020F8B51C4C1C4EE378B268C3F3D2
:1067800042031AB9FFF77EFE0020F8BD184A52F8FE
:10679000235023782BB9174B1B78042B01D1FFF71B
:1067A00071FE154F3B7893B100233B704FF080434F
:1067B0001B69E278DB0963F300022378E27073B1AE
:1067C00001F0AAFF0028DFD101F01EF9DDE7002D5E
:1067D000DAD0B06809F0F2FDA842E5D2D4E7054B63
:1067E0001B78042BECD1CDE7283B0020A40C002023
:1067F0002C430108A43E00206C11002010B50B4B67
:106800005A78012A03D0022A08D0002005E09C789B
:10681000012C03D101F060F9204610BD586809F041
:10682000CDFDC728F1D9FFF709FEF6E7A40C00203B
:1068300010B5074BD87810F0FD0404D10220FFF703
:1068400029FE204610BD0320FFF724FE0120F9E7B2
:10685000A40C002038B50A4D0024EB78033B012B33
:1068600008D80320FFF716FE2046AC7001F0DCF8D4
:10687000012038BD0220FFF70DFE2046F9E700BFDA
:10688000A40C002038B50A4D0024EB78033B012B03
:1068900008D80320FFF7FEFD2046AC7001F0E4F8B5
:1068A000012038BD0220FFF7F5FD2046F9E700BFC3
:1068B000A40C002070B5974C974D2068B0B109F03A
:1068C0007DFDB0F5FA6F11D30026552026600DF03E
:1068D0004DFA57200DF04AFA70200DF047FA29784A
:1068E0003246B1FA81F04009FFF7ECFD2B7823B175
:1068F0008A4B93F820208A4B1A702368DBB9894EA3
:10690000306809F05BFD40F6B733984213D92B7815
:106910008BB10CF099FD70B9804CA37F5BB109F08D
:1069200009FD306053200DF021FA94F8213013B99D
:1069300070200DF01BFA4FF080431B69EA78DB09E9
:10694000794C63F300020020EA70FFF78DFE237894
:10695000032B1ED8DFE803F002284FA6E36833B10B
:10696000984720B10120FFF795FD0023A37023690C
:1069700033B1984720B10120FFF78CFD0223A370AB
:10698000636933B1984720B10120FFF783FD0123EC
:10699000A3700DF0E5F8654B1B78002B00F0B88074
:1069A000BDE8704003F0FEB9A369002BF1D0984711
:1069B0000028EED002F00CFA5D4B187008F0EEF9EA
:1069C0002A785C4B1A700022544B9A772A685A4BEB
:1069D000134063B9594C2378012B08D00222584B3D
:1069E00020469A610BF0B8FD20460BF083F9022097
:1069F000FFF750FDCDE7E369002BCAD09847002888
:106A0000C7D000224F4B1A704FF080434FF4001252
:106A10009A612A68484B1340B3F1807F10D0A37865
:106A200053B3013B012B0BD86378022B08D0FFF73F
:106A3000C1FC11200DF09AF90CF006FD0028FBD1E5
:106A400000F0CCFF0023E3703A4B2A781B789A427F
:106A500008D12A68384B1340B3F1807F02D0A07868
:106A600000F062FCA378012B19D0022B14D0002B6C
:106A70008FD1FFF7DDFE8CE7284B5B7E002BDFD14B
:106A800011200DF073F90CF0DFFC0028FBD147F268
:106A900030500AF0D4FBD3E7FFF7DCFE79E7FFF7CD
:106AA000F1FE76E7236A002B3FF473AF9847002886
:106AB0003FF46FAF0122194B9A771D4B1B782BB116
:106AC0004FF0804320229A6108F056F90120FFF729
:106AD000CBFD30B92A78A2B1697802460846FFF7A3
:106AE000F1FC0024174B1C7000F06CFFFFF7CAFC90
:106AF00000F02AFB2046FFF7CDFC53200DF036F9BD
:106B000047E70E4B1B78012BEBD111466878E6E77F
:106B100070BD00BF60110020283B0020640C0020E5
:106B2000702B002068110020A40C002065110020AB
:106B30005C11002064110020FF000001A43E002031
:106B4000000400406C1100200120704708B5FFF7D9
:106B5000FBFF08BD37B504460D46FFF793FC2946F9
:106B60002046FFF7F3FF60B1074B1A784AB1074B95
:106B700020461B78D9090091C3F30013A9780DF0C2
:106B800013F803B030BD00BF283B00203E3B00207F
:106B900000B50B4B8FB0322193F82130094A01A880
:106BA00005F079F901A808F0BFFE0CF049FC08F0E7
:106BB000BBFE054808F0B8FE0FB05DF804FB00BF4F
:106BC000640C00208C4201089D4201082B4B13B538
:106BD0001A7804464AB12A4B01211B78DB0900933D
:106BE00000230CF0E1FF02B010BD0028FBD0031F12
:106BF000DBB2A02B12D8234B0146186809F086FAA5
:106C000020B1204604F034F804F0B6F8204604F031
:106C100027F802B0BDE8104004F0AEB800F1200340
:106C2000DBB2072B07D800F007040120A040C0B258
:106C300004F04CF8EDE700F15B03DBB2022B06D861
:106C4000243880B202B0BDE8104009F009BA00F162
:106C50005803DBB21A2B07D80B4A32F8130002B0E4
:106C6000BDE8104009F018BA3334E4B2122CBAD897
:106C7000012102B0BDE8104003F07AB9283B0020A2
:106C80003E3B0020D00F0020F4420108244B13B5F6
:106C90001A7804464AB1234B1B78DB090093002382
:106CA00019460CF081FF02B010BD0028FBD0031F75
:106CB000DBB2A02B06D803F0DBFF02B0BDE810402A
:106CC00004F05AB800F12003DBB2072B07D800F01C
:106CD00007040120A040C0B204F000F8EDE700F185
:106CE0005B03DBB2022B05D8104602B0BDE81040B2
:106CF00009F0B6B900F15803DBB21A2B05D81046DB
:106D000002B0BDE8104009F0C7B93334E4B2122C28
:106D1000C9D8114602B0BDE8104003F029B900BF40
:106D2000283B00203E3B00202DE9F3410446C0B142
:106D3000114E3378C3B10127DFF84080204603F0BD
:106D4000A8F8054698F80030E030DB0900930121EF
:106D50000023327880B207FA05F50CF025FFAC432A
:106D6000ECD102B0BDE8F08103F0B0FF02B0BDE8A5
:106D7000F04104F001B800BF283B00203E3B00205A
:106D80002DE9F3410446C0B1114E3378C3B1012758
:106D9000DFF84080204603F07CF898F80030054684
:106DA000DB0900930023E0301946327880B207FAFD
:106DB00005F50CF0F9FEAC43ECD102B0BDE8F08172
:106DC00003F08CFF02B0BDE8F04103F0D5BF00BF77
:106DD000283B00203E3B00202DE9F3410446C0B192
:106DE000114E3378C3B10127DFF84080204603F00D
:106DF00050F8054698F80030E030DB090093012197
:106E00000023327880B207FA05F50CF0CDFEAC43D2
:106E1000ECD102B0BDE8F08103F06EFF02B0BDE836
:106E2000F04103F0A9BF00BF283B00203E3B0020FB
:106E30002DE9F3410446C0B1114E3378C3B10127A7
:106E4000DFF84080204603F024F898F8003005462B
:106E5000DB0900930023E0301946327880B207FA4C
:106E600005F50CF0A1FEAC43ECD102B0BDE8F08119
:106E700003F04AFF02B0BDE8F04103F07DBF00BF60
:106E8000283B00203E3B00202DE9F04104460D4602
:106E900001F0E4FA00284AD12378013B202B54D892
:106EA000DFE803F011164E686E7A7D7D7D82C4881E
:106EB0008C929DA8ABAEB953535353535353535372
:106EC00053535353C900002363700C23A37025E070
:106ED0006378013B032B38D8DFE803F0020C0F2C5A
:106EE00009F028FA030EA370030CE370030A237160
:106EF000607113E008F0F3F9F4E72646A77804F18F
:106F00001C08052F0AD8F8B204F06AFB030AF370D4
:106F100030710236B04507F10107F2D1504B2946D6
:106F20001B782046002B40F0978009F019FD0120C6
:106F3000BDE8F0810023A370E37023716371EDE776
:106F40006378022B04D0052B10D0FF232370E5E7D4
:106F5000E378A07840EA0320237940EA034063798C
:106F600040EA036000BA08F0C1F9D7E7A07808F05A
:106F7000E7F9D3E7E278A178607808F0E4FCB5E7B8
:106F800062792379A17843EA02235BBAE2786078D8
:106F90009BB208F0EEFCC1E708F000FDBEE7294611
:106FA000204608F048FAB9E7002008F07BF908F01D
:106FB000A8F9B3E708F052FD6070AFE708F050FDA4
:106FC000030A6370A070A9E76078A378E17840EACB
:106FD000032040BA221D80B208F045FD9EE760788C
:106FE000A378E17840EA032040BA221D80B208F07D
:106FF00056FD93E708F068FD90E708F098FCDBE7A2
:107000006078A378E17840EA032040BA221D80B27C
:1070100008F0ECFC82E76078A378E17840EA03208E
:1070200040BA221D80B208F0F8FC77E701230D4A30
:107030006370137072E762780B4B4AB1A1781A78CB
:1070400019B142F080021A7068E761F3C712FAE7DB
:107050001B78C3F3C01339E70CF064FF67E700BF88
:10706000283B0020651100203E3B002010B54378EE
:10707000044613B1FF23237011E08378013B032BF7
:10708000F8D8DFE803F0021A28410378072B07D06D
:10709000082BEFD12B4BDB78C3F34203C37010BD39
:1070A000C1780729FBD8BDE81040264BDA7861F398
:1070B0004302DA70186803F02CBF0378072B05D061
:1070C000082BD7D101F039FBE070E8E7C078BDE8C4
:1070D000104001F001BC0378072B0AD0082BC9D15E
:1070E00042790179C07801F02AFBA071000AE071B1
:1070F000D5E7C2798379017943EA0223BDE81040DC
:107100004279C07801F031BB0378072B0DD0082BF2
:10711000B0D12379C078617940EA032040BAA21D3A
:1071200080B2BDE8104001F035BB2379C0786179A9
:1071300040EA032040BAA21D80B2BDE8104001F031
:1071400044BB00BF283B002008B509F0F3F8014B11
:10715000186008BDC8120020164B10B51C788CB9F9
:10716000154B1B78052B08D0022B06D009F0E2F84E
:10717000124B1860124B1C7010BD4FF080431B69FE
:107180001B0603D4BDE81040FFF7DEBF0B4B1868A9
:107190000028F7D009F012F941F657339842EBD99D
:1071A000FFF7D2FFBDE810400122054B1A70FFF730
:1071B000DBBA00BF283B0020A43E0020C8120020FC
:1071C000CC1200202DE9F0411B4C064625781DB15C
:1071D00001242046BDE8F081FFF7B4FA0138012808
:1071E00005D80320FFF756F92846FFF7B1FA94F8BF
:1071F0000080B8F1000FEBD1104D2B78052BE7D1B3
:10720000B5F84C309B0702D50D4F3C7824B9FF2EC2
:1072100094BF00240124DCE7FFF794FA0328D7D8B1
:1072200087F80080FFF790FF28460AF00FFE2846F7
:1072300001F0B2F9CDE700BF283B0020A43E0020BA
:10724000CC120020704700001A4B70B59C6C0F26C2
:1072500044F4C0649C649B6C012301F003048B40E4
:1072600021F0030101F1804101F5A0518D68A400D6
:10727000C0F38320A04006FA04F425EA040528435D
:107280008860D8430C4912F0010F8C6814BF1C436E
:1072900004408C6012F0020FCA6814BF1A43024007
:1072A000CA60054A536111680B4313605368034079
:1072B000536070BD000C0140001800400F281FD81B
:1072C000DFE800F0080C0F121518181818181B1B0F
:1072D0001B1B1B1B062108460AF0F1BF06210720D5
:1072E000FAE706210820F7E706210920F4E706213E
:1072F0000A20F1E706211020EEE706212120EBE726
:1073000070470120704708B5FFF7FBFF50B14FF001
:10731000804001220721FFF797FFBDE808400720C2
:10732000FFF7CCBF08BD00002DE9F047302305462C
:1073300083F31188FFF7E7FF4FF000090127904E14
:10734000DFF8408256F8043B95B1012D4FD14345FB
:107350004DD123F00F0A03F00F0307FA03F421467F
:107360000522504624040BF018F9CAF8184001E031
:10737000581CEED109F10109B9F10F0FE2D1062431
:107380000127814EDFF8049256F8040B002D3AD005
:10739000012D40F0E880484540F0E58000F00F0105
:1073A000202207FA01F120F00F000BF0F6F800BFE1
:1073B00000BF00BF00BF00BF00BF00BF00BF00BFD5
:1073C00000BF00BF00BF00BF00BF00BF00BF00BFC5
:1073D00000BF56F8040C032200F00F08414620F0CD
:1073E0000F00FFF731FF4046FFF768FF0DE0591C23
:1073F000C0D003F00F01202207FA01F123F00F00A3
:107400000BF0CBF8B6E7421CC8D1013CBCD12246F8
:107410004FF400615E480BF0C0F800BF00BF00BF32
:1074200000BF00BF00BF00BF00BF00BF00BF00BF64
:1074300000BF00BF00BF00BF00BF00BF00BF0322EE
:107440000B215348FFF700FF0B20FFF737FF84F3B2
:10745000118872B64FF0E0220120136923F0010376
:1074600013614C4B4C4A5A610022A30003F1604364
:1074700003F56143D3F80011D5B2012D94BF00216B
:1074800001F0010109B1C3F880010132202AF1D1D4
:107490000134082CE8D1414C636843F00073636009
:1074A0003F4B1A6802F009021A601A6842F46C3203
:1074B00042F004021A6040F2B3321A62394B43F0D0
:1074C00001039847236943F00403236130BF364B1F
:1074D00043F0010398474FF0E022236923F00403AF
:1074E00023611369314C43F001031361E36943F0F5
:1074F0008003E361A36C43F40073A36409F05EFAB4
:1075000004F0A2F840F282324FF4006120480BF000
:1075100044F8E36C43F00803E364E36CA36C43F4C6
:107520008053A364A36CE36C43F01003E364E36C47
:10753000FFF788FE002383F3118862B6D4F89030F9
:1075400043F4C063C4F89030D4F8903023F4C0639F
:10755000C4F89030D4F89030A36C23F4C063A364D3
:10756000A36CBDE8F087431C3FF44FAF00F00F0160
:10757000402207FA01F120F00F000BF00EF844E76B
:107580004C43010803080040E44301080D08004093
:107590000008004000180040FFFF070000ED00E079
:1075A00000000140BC43010888430108000C014071
:1075B0000120704701207047C31F10B504460B2BF4
:1075C00018D8DFE803F01117171713171517171737
:1075D00017060420FFF7C2F82046FFF7E9FF10B1B5
:1075E0002046FFF7E7FF10BD0320F3E70220F1E795
:1075F0000520EFE70120EDE701238B40034202D095
:107600000846FFF7D9BF704708B50D4B5A69D20736
:1076100006D51A68002022F001021A60FFF7CCFF9D
:107620004022084BC3F88020BFF34F8FBFF36F8F0A
:107630000122034B5A61BDE8084009F0F5BE00BFC6
:107640000018004000E100E008B50D4B586910F04B
:10765000020006D01A68012122F002021A60FFF728
:10766000CBFF8022074BC3F88020BFF34F8FBFF3BF
:107670006F8F0222024B5A61BDE8084009F0D4BE68
:107680000018004000E100E008B50E4B586910F00A
:10769000040006D01A68022122F004021A60FFF7E3
:1076A000ABFF4FF48072084BC3F88020BFF34F8FBD
:1076B000BFF36F8F0422034B5A61BDE8084009F005
:1076C000B3BE00BF0018004000E100E008B50E4B5B
:1076D000586910F0080006D01A68032122F0080249
:1076E0001A60FFF789FF4FF40072084BC3F880203F
:1076F000BFF34F8FBFF36F8F0822034B5A61BDE872
:10770000084009F091BE00BF0018004000E100E011
:1077100008B50E4B586910F0100006D01A68042105
:1077200022F010021A60FFF767FF4FF48062084BE7
:10773000C3F88020BFF34F8FBFF36F8F1022034B2E
:107740005A61BDE8084009F06FBE00BF0018004054
:1077500000E100E038B5254B5C69A20604F47875B9
:1077600007D51A68052122F0200228461A60FFF783
:1077700043FF600608D51D4A06211368284623F0FA
:1077800040031360FFF738FF210608D5174A072189
:107790001368284623F080031360FFF72DFFE205EE
:1077A00008D5124A08211368284623F48073136011
:1077B000FFF722FFA30508D50C4A092113682846C4
:1077C00023F400731360FFF717FF4FF48032084B68
:1077D000C3F88020BFF34F8FBFF36F8F4FF47872E1
:1077E000024B5A61BDE8384009F01EBE0018004047
:1077F00000E100E038B52A4B5C69620504F47C4581
:1078000007D51A680A2122F4806228461A60FFF719
:10781000F3FE230508D5224A0B211368284623F4DA
:1078200000631360FFF7E8FEE00408D51C4A0C2152
:107830001368284623F480531360FFF7DDFEA1048C
:1078400008D5174A0D211368284623F40053136006
:10785000FFF7D2FE620408D5114A0E2113682846AC
:1078600023F480431360FFF7C7FE230408D50C4AB6
:107870000F211368284623F400431360FFF7BCFE72
:107880000222084BC3F88420BFF34F8FBFF36F8FE2
:107890004FF47C42024B5A61BDE8384009F0C4BD48
:1078A0000018004000E100E008B50E4B586910F4E4
:1078B000802006D01A68122122F480221A60FFF775
:1078C0009BFE0822084BC3F88420BFF34F8FBFF301
:1078D0006F8F4FF48022034B5A61BDE8084009F0D6
:1078E000A3BD00BF0018004000E100E080B483B0F9
:1078F00000AF034B7B6000BF0C37BD4680BC7047B8
:10790000003F000810B5074C23784BB901F080FA0E
:1079100002F0DDFA08F076FB02F0DAFA01232370B8
:10792000012010BDCF12002010B5044C23781BB1EC
:1079300001F058FA00232370012010BDCF1200205F
:1079400038B5154C00252378032B22D8DFE803F047
:10795000020B131B0A2311488370C57008F076FBD5
:107960000123237038BDF6230C48C370857008F0DE
:107970006DFB0223F5E7F62308488370C57008F015
:1079800065FB0323EDE70A2304488570C37008F004
:107990005DFB2570E6E700BFCD120020E412002059
:1079A000054B1B7833B1054B1B780BB9FFF7C8BFEC
:1079B0000CF0A6B9704700BFD2120020283B00206F
:1079C0000120704708B5044B1B780BB9FFF79AFFED
:1079D00001F058FA08BD00BFCF12002008B5064BD1
:1079E0001B780BB1FFF7A0FF0023044A1370044A71
:1079F0001360FFF7E5FF08BDCF120020DC12002066
:107A0000E01200200120704708B5FFF7FBFF08BD1A
:107A1000014B1878704700BFD0120020014B18703E
:107A2000704700BFD0120020014B1870704700BF94
:107A3000D0120020014B1878704700BFD1120020EF
:107A4000084B10B50446187058B9FEF77BFE0228A3
:107A500007D80320FEF71EFD2046BDE81040FEF7C4
:107A600077BE10BDD1120020FFF7EABF024B187895
:107A700080F00100FFF7E4BFD11200200122014B8A
:107A80001A707047D1120020084B1A78084B1B78E7
:107A90004BB982F00102A0F5A443203B1F2B8CBF01
:107AA0001046012070470022F5E700BFD1120020E8
:107AB000D012002000231946054A93721360054A2C
:107AC0000333212B917242F80C1BF9D1704700BF90
:107AD000C40F0020C80C002008B503F025FEFFF7F6
:107AE000E9FF0022014B1A6008BD00BFD812002038
:107AF0000120704708B5FFF705FFFEF7DFFD01F035
:107B00009BF948B1012220214FF080400AF045FD49
:107B10004FF0804320229A6108BD000000230D4AE7
:107B200010B513700C4A4FF0804413700B4A136069
:107B300007F04CF901280AD007F040F94FF4001380
:107B4000A36101F05DFABDE8104003F078BA20238C
:107B5000F6E700BFCE120020D3120020D41200207E
:107B600008B503F03DFA05F095FC03F0C8F9084BA1
:107B7000188060F07F001870188803F0C3F901F0D6
:107B8000CDF918B1BDE80840FFF7C8BF08BD00BF78
:107B90003E3B002037B504460D4601F0EBF90028C6
:107BA00000F0CE80002D00F0CB8047F613639C429E
:107BB0003AD8B4F5FC4F07D247F603439C4200F095
:107BC000BC80284603B030BDA4F5FC44132CF8D883
:107BD00001A353F824F000BF3F7C00086B7C000831
:107BE0008F7C0008B37C0008D97C0008FF7C00086B
:107BF000C37B0008C37B0008C37B0008C37B00086D
:107C0000C37B0008C37B0008C37B0008C37B00085C
:107C1000C37B0008C37B0008C37B0008257D0008E8
:107C20002D7D0008357D000847F643639C42C8D18E
:107C30000122444B1A700022434B1A60C1E7002313
:107C400001200DF107018DF80730FEF7E1FB9DF8EB
:107C50000730042B02D013F0FD0FB2D101221146E0
:107C60003A4B1878FEF72EFCABE7002301200DF10C
:107C700007018DF80730FEF7CBFB9DF80730042B8A
:107C800002D013F0FD0F9CD101220221E8E700236E
:107C900001200DF107018DF80730FEF7B9FB9DF8C3
:107CA0000730042B02D013F0FD0F8AD101220321EB
:107CB000D6E7002301200DF107018DF80730FEF70C
:107CC000A7FB9DF80730042B03D013F0FD0F7FF4C2
:107CD00078AF01220421C3E7002301200DF1070141
:107CE0008DF80730FEF794FB9DF80730042B03D086
:107CF00013F0FD0F7FF465AF01220521B0E70023EB
:107D000001200DF107018DF80730FEF781FB9DF88A
:107D10000730DA1E012A02D9002B7FF452AF01226C
:107D200006219DE70020FFF78BFE4AE70122084B62
:107D30001A7046E7FFF79AFE43E7FFF711FF40E7A7
:107D400005463EE7D3120020D4120020283B002035
:107D5000D112002008B5064B1B780BB9FFF7D2FDF6
:107D60004FF0804320229A61BDE8084008F0ACBA89
:107D7000CF1200202DE977470D46B44A8978044692
:107D80001368A9B1032B00D80133B14E1360FEF77D
:107D900079FB33899C4207D195F80280B8F1000F36
:107DA0000AD008F0C7FA3060AA4B002698462FE0A8
:107DB000002BEAD0013BE8E7B37A0BB93360F3E775
:107DC00041462046FFF7E6FE86F80A80C6F80080A6
:107DD0000028E9D1002003B0BDE870870AFB06F651
:107DE00008EB060A9AF80A3013B948F806301FE083
:107DF00049462046FFF7CEFE8AF80A9048F80690DA
:107E00000028E7D014E001360B2E03F10C030FD04D
:107E10001A899442F7D195F802904FF00C0AB9F103
:107E2000000FDBD008F086FA0AFB06F648F80600D9
:107E300029462046FFF728FE0028CBD029462046B9
:107E400001F0D6F90028C5D047F607639C422DD82B
:107E5000B4F5FC4F1BD247F620039C4200F01A8178
:107E600047F603439C42B5D02946204600F054FD16
:107E70000028AFD029462046FFF7A4F90028A9D052
:107E80002946204603B0BDE87047FEF763BEA4F55F
:107E9000FC44013CAB78062C33D8DFE814F05000EA
:107EA0006B008600A100BC00E3002F00A4F5FC439A
:107EB000403B9AB2032AD7D8032BD5D801A252F857
:107EC00023F000BFD57E0008E37E0008EF7E0008A7
:107ED000D57D0008AB78002B3FF47CAFFEF758FE51
:107EE00078E7AA785C4B02B101221A7072E7AB788E
:107EF000002B3FF46FAFFEF737FC6BE7574A137068
:107F000068E7002B3FF466AF554C2378012B3FF414
:107F100061AF002301200DF107018DF80730FEF756
:107F200077FA9DF80730042B03D013F0FD0F7FF490
:107F300051AF002201212078FEF7C4FA4AE7002B56
:107F40003FF448AF464C2378022B3FF443AF002365
:107F500001200DF107018DF80730FEF759FA9DF861
:107F60000730042B03D013F0FD0F7FF433AF002252
:107F70000221E0E7002B3FF42DAF394C2378032B8F
:107F80003FF428AF002301200DF107018DF80730E1
:107F9000FEF73EFA9DF80730042B03D013F0FD0FD7
:107FA0007FF418AF00220321C5E7002B3FF412AF86
:107FB0002B4C2378042B3FF40DAF002301200DF14F
:107FC00007018DF80730FEF723FA9DF80730042BE0
:107FD00003D013F0FD0F7FF4FDAE00220421AAE7C9
:107FE000002B3FF4F7AE1E4C2378052B3FF4F2AE86
:107FF000002301200DF107018DF80730FEF708FA84
:108000009DF80730042B03D013F0FD0F7FF4E2AE90
:10801000002205218FE7002B3FF4DCAE104C2378C3
:10802000062B3FF4D7AE002301200DF107018DF898
:108030000730FEF7EDF99DF80730DA1E012A02D964
:10804000002B7FF4C7AE0022062174E7D81200206F
:10805000C40F0020C80C0020D2120020CE12002035
:10806000283B0020002B3FF4B5AE124C2378002BA8
:108070003FF4B0AE002501200DF107018DF8075047
:10808000FEF7C6F99DF80730012B3FF6A3AE2A464E
:10809000294650E7AB78002B3FF4E6AE06F096FE9B
:1080A0004FF0804318B14FF400129A61DCE62022B1
:1080B000FBE700BF283B0020014B1878704700BF4A
:1080C000DC120020012070472DE9784105460C465E
:1080D0004E4EDFF83C8121462846FFF7F3FF50B1B2
:1080E000062C08D8DFE804F004094E7E7E8B8B0056
:1080F0000022464B1A60BDE8788132684ABBA5F180
:108100002D03032B0AD8DFE803F002151A1F002203
:10811000FF2311462D20FEF711F801224FF4FA71CA
:108120002846FEF74FF82846FDF7E6FF08F002F96B
:108130003060E0E70022FF2311462E20EBE700220B
:10814000FF2311462F20E6E70023FF2219463020A7
:10815000E1E7104608F032F947F22F53984203D96D
:1081600005242C4B1C70B6E798F819300BB103248A
:10817000F7E7294B1B78002B3DD02846BDE8784116
:10818000FDF7BABF3068F8B9A5F12D03032BB2D8BB
:10819000DFE803F0020B10150022FF2311462D200B
:1081A000FDF7CCFF0122C821BAE70022FF231146C8
:1081B0002E20F5E70022FF2311462F20F0E70023B1
:1081C000FF2219463020EBE708F0F8F847F22F536A
:1081D000984201D90624C4E798F81930002BC8D07A
:1081E0000424BEE7FF224FF4FA612846FDF7EAFFB8
:1081F0002846FDF781FF0022064B1A707BE700221C
:10820000044B1A70FEF7B0FAB7E700BFE012002087
:10821000640C0020DC120020283B0020014B197860
:10822000FFF752BFDC1200200120704770B50646F0
:108230000D462D200021FDF7AFFF10B90024204688
:1082400070BD00212E20FDF7A7FF0028F6D00021E9
:108250002F20FDF7A1FF0028F0D000213020FDF7EE
:108260009BFF0028EAD029463046FFF7DDFF044691
:108270000028E3D00022044B29461D70034B3046F2
:108280001A60FFF721FFDAE7DC120020E01200207D
:1082900070B50C461546FEF78BF8064680B17CB1EA
:1082A000134B5B7E13BB013C052C09D8DFE804F0BF
:1082B000030C120808182DB102212D20FFF7B6FF7C
:1082C000304670BD0121F8E715B102212E20F5E7F7
:1082D0000121FBE715B102212F20EFE70121FBE788
:1082E00015B102213020E9E70121FBE71E46E7E74F
:1082F000640C002008B5094B1B786BB9FEF722FA15
:1083000050B9074B1A783AB1064A527E22B95978C9
:10831000BDE80840FEF7D6B808BD00BFDC1200205B
:10832000283B0020640C0020704700002DE97F4F9F
:10833000DFF8148105460E46FFF7F6FFFFF7DAFF78
:1083400098F80040002C36D0404D2B6813B907F048
:10835000F1FF2860286808F031F841F2873398422D
:1083600007D998F80030013388F8003007F0E2FFB1
:10837000286098F80030013B032B17D8DFE803F0A2
:10838000020C101400229620114605F041FF002433
:10839000204604B0BDE8708F002296211046F4E715
:1083A000002196220846F0E79622F6E7002488F896
:1083B00000402C60ECE7264B1B788BB931462846F1
:1083C000FFF796FB0028E2D03146284601F082FBF9
:1083D00004460028DBD031462846FDF70DFFD7E7DD
:1083E0002246214620460DF1040805F011FFC24641
:1083F0004FF00A09DFF85CB00A2259465046FCF7F4
:10840000C5F8154BE2B2DB7FB3FBF9F1914215D908
:10841000312B98F800000AD900239622194601341E
:1084200005F06AF80A2C08F10108E5D1C6E71D2B12
:108430004FF00003F1D81A469621F0E7002398F890
:1084400000001A461946EAE7D3120020D412002091
:10845000CE12002080400108640C002070B5054653
:108460000E46FEF70FF8FEF76DF910B10320FEF788
:1084700011F82B780A2B0ED10124084B31461C70C1
:10848000074B28461B781BB908F06AFA204670BDD6
:108490000BF048FDFAE70020F9E700BFEA120020E0
:1084A000283B0020094B0A4A9A610A4B0A4A1A6083
:1084B000BFF34F8F09490A4BCA6802F4E0621343C5
:1084C000CB60BFF34F8F00BFFDE700BF000001404E
:1084D000EB9C374AFC6F0020EFBEADDE00ED00E004
:1084E0000400FA0570B51B4CFEF7E4F9206858B19A
:1084F000A37A4BB907F062FF6368984204D3012165
:108500002089A172FFF746FB00250126124C206846
:1085100058B1A37A4BB907F051FF6368984204D36E
:1085200001212089A672FFF735FB0335212D04F1C7
:108530000C04ECD1FFF7DAF9084B1A783AB10022B3
:108540001A700AF081FF0028FBD1FFF709FB00F049
:108550009BFC70BDC40F0020C80C0020EA12002054
:10856000012810B5044611D002280AD1FEF7EAF816
:108570000138012805D80320FDF78CFF0020FEF705
:10858000E7F82046BDE8104007F078BE014B1870B0
:10859000F7E700BF28110020014808F050BE00BFD7
:1085A000A08601000E4BF0B51B6893B11E2202FBA2
:1085B00000300C4A0123164630F8115032F8027B85
:1085C000DCB2AF4206D104F0070336F8133020F8CE
:1085D0001130F0BD0133092BF0D10023F7E700BFC4
:1085E000EC120020E04601082DE9F74304460D4651
:1085F00006F080FC00274FF01E092D4EDFF8B480F6
:108600007080E0B2854250D900232B4A0FE01CF85D
:1086100001EBBEF1FF0F01D070451BD001310F29D6
:10862000F5D10133DBB2062B02F10F023BD09446A9
:108630000021ECE7012A07D1012B05D173888DF8C1
:1086400000708DF8017016E08DF801308DF8001083
:10865000738810E0D8F800202AB309FB032333F80D
:108660001120110AD3B2120AE4D1002BECD18DF8FB
:1086700000308DF801308DF80230009804F020FAB7
:10868000C0F307238DF80400C0F307408DF80530D0
:108690008DF806009DF8063020469DF804209DF8D0
:1086A000051004F029FF0134ABE703B0BDE8F08307
:1086B0004C0D0020EC120020500D002070B40D462F
:1086C0001143014304D170BCB4220A48FBF7D4BF64
:1086D00000241E260F2306FB04F10648013B13F07D
:1086E000FF03057042700844F8D10134062CF1D123
:1086F00070BC7047F012002010B5064A0B46147883
:10870000012C05D158780978FFF74CFF204610BDA1
:108710000020FCE74C0D0020024B1878431E584205
:10872000584170474C0D0020B4235843C1EB011150
:108730001144223000EB41007047042070470328A9
:1087400038B510D805290ED80E2A0CD8FFF7ECFF43
:10875000054603F0EBFD0446681C03F0E7FD44EA20
:10876000002080B238BD0020FCE7032870B51C460D
:108770000FD805290DD80E2A0BD8FFF7D5FF0546CF
:10878000E1B203F03BFE210A681CBDE8704003F033
:1087900035BE70BD2DE9F843002405460F46164648
:1087A000A14600F12208BC4208EB040001D1BDE85B
:1087B000F8832B19B3F5347F04DA03F0B7FD305595
:1087C0000134F0E706F80490FAE72DE9F041054698
:1087D0000E461746002400F12208B44208EB0400BC
:1087E00001D1BDE8F0812B19B3F5347F02DA395D90
:1087F00003F004FE0134F0E7032806D8B422504306
:1088000000F12201014803F0DFBD7047F0120020A3
:10881000032838B50CD8084900230C78012C07D15F
:108820004D78A84206D10B70FFF7E6FF204638BD11
:108830000020FCE71846FAE74C0D0020032806D874
:10884000B422504300F12201014803F005BE7047F5
:10885000F0120020074B084A10B51A600023074C9D
:108860002370607006F046FB60806078BDE81040C1
:10887000FFF7E4BFEC120020F01200204C0D0020A6
:10888000032808B50CD8074A5070FFF7D7FF06F049
:10889000C7FA2D2802D02D2006F0BFFA012000E0F3
:1088A000002008BD4C0D0020032810B510D8094A3F
:1088B000117869B9012450701470FFF7BFFF06F0FA
:1088C000AFFA2D2802D02D2006F0A7FA204600E0AE
:1088D000002010BD4C0D0020032810B5044609D817
:1088E000FFF7ACFF2046FFF793FF2046BDE810409E
:1088F000FFF7C6BF10BD000008B5054802F018FB21
:10890000BDE808404FF434722221024803F05CBDF8
:10891000FC430108A44A010808B50A460949034670
:10892000087801280CD1A3F5A443203B1F2B06D9BE
:10893000907820B150781178FFF734FE002008BD00
:108940000120FCE74C0D002070B504460078FF289C
:1089500001D106F065FA0D4900220D4611F8016BB0
:10896000D3B2864203D00132102AF7D113462278BF
:10897000FF2A12BFFF22013303F00F03E85C18BF88
:108980002270BDE8704006F048BA00BF09470108F0
:1089900038B50B780546FF2B0C4602D106F040FA9D
:1089A0002070284638BD38B540F2F62440F206352E
:1089B00020460021013403F0E4FCAC42F8D138BD7C
:1089C00010B506F02DFA00230246054911F8014BB7
:1089D000D8B2944203D00133102BF7D1184610BD02
:1089E0000947010810B50446FFF7EAFF2146BDE834
:1089F000104000F2F62003F0C4BC08B5FFF7E0FF1A
:108A000000F2F62003F092FC082828BF002008BDE1
:108A100070B506F005FA0723124A12F8011B8142CD
:108A20001DD0013B13F0FF03F7D10724FFF7E5FF4B
:108A30000130B0FBF4F304FB13040B4B13F8145098
:108A400003EB44035E7806F055FA314602462846A9
:108A500006F029FAE0B2BDE87040FFF7C3BF062474
:108A6000E4E700BF19470108FB46010838B5FFF7E6
:108A70006BFFFFF7C2FF074B13F8104003EB4003F7
:108A80005D7806F037FA294602462046BDE83840B0
:108A900006F009BAFB4601082DE9F0431C4B85B0EE
:108AA0001B7823B3002201AC1146104605F0B0FB41
:108AB0000025A0460A26DFF85C90174F0A22494697
:108AC0004046FBF763FDFB7FEAB2B3FBF6F1914250
:108AD00000D8BAB9312B20780DD900239622194637
:108AE000013504F009FD0A2D04F10104E6D101204D
:108AF00005B0BDE8F0831D2B4FF00003EED81A46F9
:108B00009621EDE7002320781A461946E8E700BFD2
:108B1000A4130020F0460108640C002038B52A4B4D
:108B20000446DB78294A13F001031ED0284B1B783A
:108B3000A3B10023274920460B60012111701A467A
:108B40001946FDF7FBFAFF224FF496712046FDF718
:108B500039FB2046BDE83840FDF7CEBA1D490B6011
:108B6000012111701A46FF21EBE71B4DE97F0F2908
:108B7000DFD812780AB31A46FF21FDF7DFFA012287
:108B80004FF4FA712046FDF71DFBEB7F002BE0D17F
:108B9000104D2B6813B907F0CDFB2860286800281A
:108BA000D7D007F00BFC4EF660239842D1D90023B2
:108BB00001202B60FEF732FFCBE713461146FDF78D
:108BC000BDFAFF22DCE700BF283B0020760E002024
:108BD000A5130020A8130020640C002070B5294EB6
:108BE00004463578042D2CD8DFE805F0033D1F300E
:108BF000380007F00FFA244BC0F34006187801F054
:108C000048F9022818BF214B314618BF1D7820466D
:108C100018BFC5F300152A460023FDF78FFAFF227F
:108C200032212046FDF7CEFA0BE0FF231A46194603
:108C3000FDF784FA0322C8212046FDF7C3FA012379
:108C400033702046BDE87040FDF756BAFF231A4640
:108C50001946FDF773FA0122C821E2E700233370B9
:108C6000FFF7BCFFEDE700233370FFF7B7FF084BBA
:108C70009B78002BE5D14FF080434FF400129A61AE
:108C8000DFE700BFAC130020C21300203E3B0020F2
:108C90002F3B0020FF2810B504461CD10E4BD3F803
:108CA000F83023F07F43B3F5A04F0DD100225023BD
:108CB0001146FDF743FA20460121FDF757FA2046F9
:108CC000BDE81040FDF718BAB3F5A00F03D100239B
:108CD00050221946EDE710BD780E002008B5054B6F
:108CE00000211870FB20FDF757FABDE80840FB2073
:108CF000FFF774BFAC13002038B5324B05461B7824
:108D00004B2B02D80024204638BD037CFA2B0BD015
:108D1000FB2B1ED02C4B1B78002BF3D1FFF7FCFC58
:108D200080F00104E4B2EEE7274B1C78002CE9D177
:108D3000836933F07F43E5D0437C33B1837E027E89
:108D4000417E3E2004F0D8FBDDE723462246214643
:108D5000F7E71E4B1B78012BD4D1FFF7DDFC04464F
:108D60000028CFD16B7CB3B13820AB7E2A7E697EE0
:108D700004F0C2FB3A20AB7E2A7E697E04F0BCFB85
:108D8000AB7E2A7E697E3B2004F0B6FBAB7E2A7E5A
:108D9000697E3C20D6E7034602460146382004F0AF
:108DA000ABFB2346224621463A2004F0A5FB23468E
:108DB000224621463B2004F09FFB234622462146C3
:108DC000E7E700BFAD130020B1130020AC13002073
:108DD000034B187810F0030018BF0120704700BF44
:108DE000583B00204FF4802208B5084B4FF4007127
:108DF0009A614FF08040012209F0CFFB4FF0804391
:108E00004FF0007201209A6108BD00BF000C0040C5
:108E1000042208B5074B4FF400719A614FF080406F
:108E2000012209F0BAFB4FF080434FF40072012099
:108E30009A6108BD000C004010B5104C012220467C
:108E4000042109F0AAFB04230122A3614FF400715D
:108E50004FF0804009F0A1FB4FF080444FF40073C5
:108E60002046A36120224FF4004109F096FB2369BC
:108E7000034AC3F3C0330120137010BD000C00403F
:108E8000A51300200120704708B54FF080431B69EF
:108E90001A4AC3F3C0331370FDF754FC184B60B982
:108EA000DA78D20705D4174A9178174A12780A431C
:108EB00012D14FF48021154A91611A68144B134066
:108EC000B3F1807F0BD1134B1B78042B02D101220D
:108ED000114B1A70012008BD04210C4AECE7002B4D
:108EE000F8D10C4A1278042AF4D00B4A11780029E0
:108EF000F0D01370FEF7C2FDECE700BFA513002011
:108F0000283B00202F3B0020AC130020000C004029
:108F1000FF000001A43E0020B813002007B5FDF7B4
:108F20001FFA04238DF8043050238DF80530962362
:108F30008DF80630019803F0C3FD0D4AC0F30721F8
:108F4000C0F30743107051709370C9B2DBB2C2B264
:108F5000FF20FDF7F3F80322FA21FF20FDF732F995
:108F6000FF20FDF7C9F8012003B05DF804FB00BF46
:108F70002C3B002008B547F60343984205D111B1B8
:108F8000FEF7EEFD0021084608BD0121FBE70000C9
:108F9000024B40F2F220196803F04CBA383B002033
:108FA00038B500240020FFF799FE114A114B124DED
:108FB0001C70138823F4706323F00D0343F0010346
:108FC0001380FF2393700D4B1C70FFF7ECFC2246BF
:108FD00021462878FDF776FA29782246B1FA81F001
:108FE0004009FDF76FFABDE83840FFF7D1BF00BF79
:108FF000383B0020AF130020283B0020B81300208E
:1090000038B5284C01220421204609F0C6FA042371
:10901000A36105F04BFF244BC0F307221870C0F387
:1090200007405A70987020224FF400414FF0804062
:1090300009F0B3FA4FF080431B691C4AC3F3C033F5
:1090400040F2F220137003F08FF9194C206008B938
:10905000FFF7A6FF6078174C00F00F00FFF7FAFB50
:10906000FF22C821FB20FDF7ADF8FB20FDF744F8F7
:1090700005F040FF104B114D187005F02FFF2070C8
:1090800005F032FF28704FF4FA6008F0D8F80C4B66
:109090001B784B2B04D800222978207805F000FF9C
:1090A000012038BD000C00402F3B0020A5130020FC
:1090B000383B00203D3B00203C3B0020353B00205E
:1090C000AD13002037B505F0ABFE054605F0EEFE0A
:1090D000012DC0F307238DF80400434C8DF80530B3
:1090E000C0F307403BD1D8B90A232370237801335A
:1090F000DBB20B2B237041D10023237005F0D6FE89
:10910000034613F47F0FC0F3074003D16422FF210D
:1091100005F0C9FE2378354AD05C05F07EFE34E0C8
:109120009DF8043023B99DF8053043B10323DCE7F3
:10913000782B10D005D8282B09D0502B09D0092323
:10914000D3E7A02B09D0C82BF9D10823CDE70423FE
:10915000CBE70523C9E70623C7E70723C5E7082DA3
:1091600008D00E2D04D0022D06D00028BCD0BDE7BB
:109170000023BAE70123B8E72570B7E70A2BBDD172
:109180000022FF21104605F08EFE05F08FFE2378A9
:10919000C0F30742092B24D8DFE803F01D23230581
:1091A0000C0F1215181BFF21002003B0BDE8304042
:1091B00005F079BEFF212820F7E7FF215020F4E7D2
:1091C000FF217820F1E7FF21A020EEE7FF21C82052
:1091D000EBE70021E8E7FF2003B0BDE8304005F0F1
:1091E00007BFC820F8E700BFAE130020740F0020AF
:1091F000F8B5BC4F06463B780D463BB18B782BB19A
:109200000022114610463A7005F002F8B64B5C7E1B
:1092100034B9B64B1B781BB1331FA02B40F25F81D2
:1092200047F62A039E4200F2FD8047F620039E4245
:109230005CD8C12E00F07A8100F28880522E0BD8C3
:109240004E2E6FD8162E00F08B8176D8042E00F0AB
:109250007881072E00F08C81012440E1A6F5FC46C0
:109260001F2EF9D801A353F826F000BFB7950008C8
:10927000FB9500083D960008599200085992000895
:10928000A79600087F960008659700085992000885
:10929000FD9400085992000859920008599200085C
:1092A00059920008599200085992000859920008F2
:1092B00059920008599200085992000859920008E2
:1092C00059920008599200085992000859920008D2
:1092D000599200085992000899940008B794000820
:1092E000599200087797000809950008A6F5F046FE
:1092F000213E092EB0D801A353F826F09998000812
:109300005992000853950008599200085992000894
:1093100059920008E197000829980008A7970008CB
:10932000C1970008724B503E1B78022E00F2348128
:10933000DFE816F026012C0138011A2E8CD16C4B77
:109340001B785F0788D55220AC7816E045F20223DF
:109350009E4200F089823ED8E72E00F0EC8112D8C0
:10936000E32E00F0D181E42E7FF476AF604B1B78C2
:1093700018077FF571AF6520AC78002C00F01881DC
:1093800000F088FCAAE0B6F5A44F7FF465AFAB7897
:10939000002B00F0A38000212920FCF7FDFE554C96
:1093A0000322FA212A20FCF70DFF2A20FCF7A4FE55
:1093B000207800F06EFD022840F09080207800F0C8
:1093C00068FD002840F04882022000F0D3FC002015
:1093D00001F0B9F882E045F223239E4200F0EC82CE
:1093E00047F213039E4200F07F8145F221239E4203
:1093F0007FF432AFAB78002B7FF42EAFFFF78CF900
:1094000000283FF429AF3C4B1A7832B1002229469C
:1094100045F221201A70FFF76FF90120364B1870C2
:1094200004465CE047F61F639E4210D8B6F5FC4F39
:10943000BFF414AFB6F5F84F7FF40EAFAC78002C44
:109440003FF40AAF02F088F8FFF72CF847E0A6F5E2
:10945000FC464A3EB3B20B2B3FF6FEAE0B2E3FF658
:10946000FBAE01A353F826F0DF980008239900080B
:10947000479900085992000859920008599200082B
:109480005992000859920008599200086B990008F7
:109490008997000897970008AC78E5202CB1FDF774
:1094A00095FB3520FDF792FB18E0FDF7EFFB35202B
:1094B000FDF7ECFB13E00E49CB7813F0F000AFD0D2
:1094C000AC7864B15A1C02F00F02062A94BF62F312
:1094D00003036FF30303CB70FFF75AFD002420460C
:1094E000F8BD00BFB1130020640C0020283B002011
:1094F000383B0020C2130020AF130020AC78002CB2
:10950000EDD0FFF7DFFDE9E7AC7854B1E320FDF7DC
:109510005DFB2C20FDF75AFB4FF4FA6007F08FFE3D
:10952000DCE72C20FDF7B2FBE320C1E7AC78E020BC
:109530001CB1FDF74BFB5220B4E7FDF7A7FB52200F
:10954000B6E7B24B1B7859077FF586AE5020AC7852
:1095500013E7AB78002B3FF47FAEFFF759FABDE776
:10956000AA4B1B785A077FF577AE5120AC7804E7F9
:10957000A64B1B785B077FF56FAE4F20AC78FCE6FF
:109580005E077FF569AE0420AC78F6E65C077FF5F0
:1095900063AE1620AC78F0E658077FF55DAE072085
:1095A000AC78EAE659077FF557AE1A20AC78E4E6C6
:1095B00000F086FB93E7FFF7AFF8044600288DD153
:1095C000AB78002B3FF448AE914B1B78012B7FF416
:1095D00043AEFEF771FD00287FF43EAE50232D20F0
:1095E0001A461946FCF7AAFD022296212D20FCF707
:1095F000E9FD2D20FCF780FD71E7FFF78DF80446AB
:1096000000287FF46BAFAB78002B3FF425AE804B86
:109610001D78022D7FF420AEFEF74EFD00287FF46A
:109620001BAE50232E201A461946FCF787FD2A460A
:1096300096212E20FCF7C6FD2E20DBE7FFF76CF805
:10964000044600287FF44AAFAB78002B3FF404AE09
:109650006F4B1B78032B7FF4FFADFEF72DFD002829
:109660007FF4FAAD50232F201A461946FCF766FD09
:10967000022296212F20FCF7A5FD2F20BAE7FFF745
:109680004BF800287FF42AAFAB78002B3FF4E4AD11
:109690005F4B1B78002B7FF4DFADFEF70DFD041E42
:1096A00018BF01241BE7FFF737F8044600287FF4B2
:1096B00015AFAB78002B3FF4CFAD554B1B78062B85
:1096C0007FF4CAADFEF7F8FC00287FF4C5AD502347
:1096D00030201A461946FCF731FD0222962130202F
:1096E000FCF770FD302085E7AC78002C3FF4B4AD7A
:1096F000002350211A46FF20FCF720FD0121FF2006
:10970000FCF734FDFF2075E7424B187800F0C1FBF1
:1097100002287FF4A1AD404B1B78DA067FF59CADA3
:10972000FEF7FAFF00287FF497ADE320AC78B4B1E0
:1097300000F0B0FAD3E6374B187800F0AAFB022805
:109740007FF48AAD344B1B78DB067FF585ADFEF7E1
:10975000E3FF00287FF480ADE720AC78E7E700F076
:10976000AFFA79E52A4B1B7803B1AB782B4A03F0AB
:1097700001031370B2E6AB78002B3FF4AFAE284A7A
:10978000137883F00103F4E7AB78002B3FF4A6AE27
:1097900001233B70A2E6AB78002B3FF49FAE622022
:1097A0000AF0E4FA9AE6AC78002C3FF455AD05F0E7
:1097B00027FCFF287FF450AD0220FFF78FFA8EE6DA
:1097C000AB78002B3FF448AD05F01AFC33283FF688
:1097D00043AD0220FFF782FA332005F009FC7DE655
:1097E000AC78002C3FF438AD4FF0804320229A61D2
:1097F00005F080FB77280B4D02D99623AB70DBE791
:1098000005F078FB1E30A87069E600BF383B0020E9
:10981000283B0020C21300203E3B0020A413002060
:10982000B01300202F3B0020AC78002C3FF414AD87
:109830004FF0804320229A6105F05CFB1E28684DA2
:1098400006D800221146104604F0E2FC0023D5E7BA
:1098500005F050FB1E38D6E7207800F01AFB0228EE
:109860007FF43CAE0020B0E5AB78002B3FF436AE81
:1098700000212A20FCF790FC5A4C0322FA212920CF
:10988000FCF7A0FC2920FCF737FC207800F001FB56
:1098900002283FF423AE91E5AB78002B3FF41CAED9
:1098A000514C0020FFF71AFA607800F00F00FEF725
:1098B000C5FF607800F00F00FEF7AAFF00224B4BB7
:1098C000A01C1A70FFF7D2F805F0F0FA444BC0F371
:1098D00007221870C0F307405A709870FCE5AB7807
:1098E000002B3FF4FBAD404C607800F00F00FEF71A
:1098F000A5FF607800F00F00FEF78AFF0020A11C92
:10990000FFF746F8637860F303036370FFF740FBEB
:10991000607800F00F00FEF7B3FF0020FFF7DEF9DC
:10992000DCE5AB78002B3FF4D9AD2F4C607800F02C
:109930000F00FEF783FF607800F00F00FEF768FF6E
:109940000120A11CDCE7AB78002B3FF4C7AD264C0F
:10995000607800F00F00FEF771FF607800F00F00F4
:10996000FEF756FF0220A11CCAE7AB78002B3FF49C
:10997000B5AD05F055FA2D287FF4B0AD1A4E7578C7
:1099800015F00F057FF4AAADFEF7C6FE0446707809
:1099900000F00F0044B9FEF787FF2046224621461B
:1099A000FEF78CFE032008E7FEF732FF2846FFF79C
:1099B00095F90E4B1D7091E5AB78002B7FF44CAC04
:1099C000FEF7AAFE00283FF447AC084B1A78002A9D
