:04000005080041B9F5
:020000040800F2
:103F000000312E330000000000000000000000001F
:103F100079E42D3445504F4D414B455220503735B3
:103F200000000000000000000000485300000000F6
:103F30000000000000000000000000000000000081
:103F40000000000000000000000000000000000071
:103F50000000000000000000000000000000000061
:103F60000000000000000000000000000000000051
:103F70000000000000000000000000000000000041
:103F80000000000000000000000000000000000031
:103F90000000000000000000000000000000000021
:103FA0000000000000000000000000000000000011
:103FB0000000000000000000000000000000000001
:103FC00000000000000000000000000000000000F1
:103FD00000000000000000000000000000000000E1
:103FE00000000000000000000000000000000000D1
:103FF00000000000000000000000000000000000C1
:1040000000040020B9410008BB410008BB41000882
:10401000BB410008BB410008BB410008C4150100BA
:1040200027774943BB410008BB410008B10E010896
:10403000BB410008BB410008BB410008EB20010860
:10404000BB410008BB410008BB410008BB41000860
:10405000BB410008BB4100081577000855770008F0
:1040600095770008D97700081D780008BB41000843
:10407000BB410008BB410008B5270108BB4100084F
:1040800061780008BB410008BB410008BB41000843
:10409000BB410008BB410008BB410008BB41000810
:1040A000BB410008BB410008A1230108B52301085A
:1040B000BB410008BB410008BB410008BB410008F0
:1040C0000921010801790008BB410008B579000801
:1040D000BB410008BB410008BB410008BB410008D0
:1040E00072B6264880F30888254880F30988254859
:1040F00025490860022080F31488BFF36F8F0CF00D
:10410000F1FB0CF0CDF94FF0553020491B4A91429C
:104110003CBF41F8040BFAE71D49194A91423CBFE4
:1041200041F8040BFAE71B491B4A1C4B9A423EBF5D
:1041300051F8040B42F8040BF8E700201849194A1B
:1041400091423CBF41F8040BFAE70CF0CFFB0CF0B6
:10415000CAFB154C154DAC4203DA54F8041B8847D2
:10416000F9E707F0E1F9124C124DAC4203DA54F8CA
:10417000041B8847F9E70CF0B7BB000000040020DF
:10418000000C00200040000808ED00E000000020C6
:10419000000400202C4F0108000C00209811002082
:1041A0009811002018400020E0400008E04000087E
:1041B000E0400008E040000892E700F000F8FEE769
:1041C0002DE9F04FC1F80CD0C3689D46BDE8F08FD3
:1041D000002383F311882846A04700200CF09CFDA3
:1041E000FEE70CF0CDFC00DFFEE7000053B94AB952
:1041F000002908BF00281CBF4FF0FF314FF0FF30EF
:1042000000F076B9ADF1080C6DE904CE00F006F8C7
:10421000DDF804E0DDE9022304B070472DE9F04742
:10422000089E0D4604468846002B4DD18A4294468E
:1042300068D9B2FA82F252B101FA02F3C2F1200156
:1042400020FA01F10CFA02FC41EA030894404FEA1B
:104250001C41B8FBF1F71FFA8CFE01FB178807FB26
:104260000EF0230C43EA084398420AD91CEB0303DF
:1042700007F1FF3580F01E81984240F21B81023F1A
:1042800063441B1AB3FBF1F001FB103300FB0EFE7D
:10429000A4B244EA0344A6450AD91CEB040400F185
:1042A000FF3380F00981A64540F20681644402385C
:1042B0000021A4EB0E0440EA07401EB10023D440C5
:1042C000C6E90043BDE8F0878B4208D9002E00F014
:1042D000EE800021C6E900050846BDE8F087B3FA84
:1042E00083F100294AD1AB4202D3824200F2FC8022
:1042F000841A65EB030301209846002EE2D0C6E93C
:104300000048DFE702B9FFDEB2FA82F2002A40F08D
:104310009180A1EB0C0001214FEA1C471FFA8CFE93
:10432000B0FBF7F307FB1300250C45EA00450EFB35
:1043300003F0A84208D91CEB050503F1FF3802D2AF
:10434000A84200F2CE8043462D1AB5FBF7F007FBDA
:1043500010550EFB00FEA4B244EA0544A64508D958
:104360001CEB040400F1FF3502D2A64500F2B68032
:104370002846A4EB0E0440EA03409EE7C1F1200763
:104380008B4022FA07FC4CEA030C25FA07FA4FEAA5
:104390001C49BAFBF9F820FA07F309FB18AA8D406B
:1043A0001FFA8CFE1D4300FA01F308FB0EF02C0CE3
:1043B00044EA0A44A04202FA01F20BD91CEB0404BD
:1043C00008F1FF3A80F08880A04240F28580A8F191
:1043D00002086444241AB4FBF9F009FB104400FB02
:1043E0000EFEADB245EA0444A64508D91CEB040410
:1043F00000F1FF356CD2A6456AD90238644440EA20
:104400000840A0FB0295A4EB0E04AC42C846AE46A1
:1044100056D353D0002E69D0B3EB080264EB0E04E0
:1044200022FA01F304FA07F71F43CC40C6E90074EF
:10443000002147E70CFA02FCC2F1200125FA01F342
:104440004FEA1C4720FA01F195400D43B3FBF7F109
:1044500007FB11331FFA8CFE280C40EA034001FBD6
:104460000EF3834204FA02F408D91CEB000001F1B8
:10447000FF382FD283422DD902396044C01AB0FBD5
:10448000F7F307FB1300ADB245EA004503FB0EF05E
:10449000A84208D91CEB050503F1FF3816D2A84243
:1044A00014D9023B6544281A43EA014138E73146F2
:1044B000304607E72F46E4E61846F9E64B45A9D211
:1044C000B9EB020865EB0C0E0138A3E74346EAE7B7
:1044D000284694E74146D1E7D0467BE7644402385A
:1044E00047E7023B65442FE7084606E73146E9E621
:1044F000704700BF062008B500F0E0FA01200DF07B
:104500003DFC00BF024B0146186800F06DB900BFCA
:10451000000C0020024B0146186800F0FFB800BFF5
:10452000000C0020032A10B516D940EA010C1CF03B
:10453000030F04460B4622D119462046D1F800E06D
:10454000D0F800C00433F44504F1040417D1043A50
:10455000032A20461946EFD8541EA2B100F1FF3CB1
:10456000013901E0C3180CD01CF801EF11F8012F3C
:10457000A4EB0C039645F5D0AEEB020010BD541E23
:10458000ECE7184610BD104610BD00BF844641EA56
:10459000000313F0030349D1403A23D30B680360AF
:1045A0004B6843608B688360CB68C3600B690361B1
:1045B0004B6943618B698361CB69C3610B6A036299
:1045C0004B6A43628B6A8362CB6AC3620B6B036381
:1045D0004B6B43638B6B8363CB6BC3634030403166
:1045E000403ADBD230320BD30B6803604B68436038
:1045F0008B688360CB68C36010301031103AF3D2FF
:104600000C3205D351F8043B40F8043B043AF9D28C
:10461000043208D0D2071CBF11F8013B00F8013B5F
:1046200001D30B8803806046704700BF082A13D36C
:104630008B07B1D010F00303AED0C3F10403D21A3C
:10464000DB071CBF11F8013B00F8013BA4D331F894
:10465000023B20F8023B9FE7043AD9D3013A11F814
:10466000013B00F8013BF9D20B7803704B784370A3
:104670008B78837060467047830730B548D0541EEE
:10468000002A3FD00346CAB201E0013C3AD303F806
:10469000012B9D07F9D1032C2DD9CDB245EA052573
:1046A0000F2C45EA054536D9A4F1100222F00F0C73
:1046B00003F1200EE6444FEA121C03F1100242E916
:1046C000045542E9025510327245F8D10CF101024D
:1046D00014F00C0F03EB021204F00F0C13D0ACF12A
:1046E000040323F003030433134442F8045B9342AE
:1046F000FBD10CF003042CB1CAB21C4403F8012B0B
:104700009C42FBD130BD64461346002CF4D1F9E73E
:1047100003461446BFE71A46A446E0E7002952D0F4
:1047200038B551F8043C0C1F002BB8BFE4180546FF
:1047300000F0F0FA2B4A1368002B45D0A3420CD9A5
:1047400021686018834228D0636028461460BDE861
:10475000384000F0E1BAA3420FD81A465B68002B3C
:10476000F9D11168501884421DD034D3636054606D
:104770002846BDE8384000F0CFBA11685018A04272
:1047800015D028D8216860188342EFD118685B687B
:104790000144C4E900135460EAE718685B68014407
:1047A000C4E90013D1E7236819441160E0E72068E9
:1047B0000144501883421160DAD1D3E90003014467
:1047C000C2E90013D4E77047284663601460BDE86F
:1047D000384000F0A1BA0C2328462B60BDE83840D1
:1047E00000F09ABA98110020F8B5CD1C25F0030509
:1047F00008350C2D38BF0C25002D064623DBA942B9
:1048000021D8264F00F086FA3A6822B3144603E016
:1048100063682246FBB11C4623685B1BF8D40B2B54
:1048200015D8636894420CBF3B605360304600F07B
:1048300073FA04F10B00231D20F00700C21A01D007
:104840001B1AA350F8BD0C2300203360F8BD236071
:104850001C442560EAE77968D1B1294630460DF05D
:1048600071FA431C01460CD0C41C24F00304A0427E
:1048700005D03046611A0DF065FA013001D025608F
:10488000D4E70C233046336000F046FA0020F8BD30
:1048900030460DF057FA7860DFE700BF981100202E
:1048A00038B5124B04461D68AA6B1AB10023C2E941
:1048B000044338BD1820FFF725FE0246A86378B1EF
:1048C00000210B2301209381C2E90401084B09490F
:1048D000094DC2E9011300231560C2E9044338BD44
:1048E0004221064B064800F0CDF900BF000C002025
:1048F000ECDE050034126DE60E33CDAB5C4E0108E4
:10490000744E010838B5194B1C68A26B8AB1136943
:104910001749546903FB01F1164800FB0411A3FB7E
:104920000030013341EB0001C2E9043121F00040C5
:1049300038BD1820FFF7E6FD0246A06388B10124C8
:1049400000250B230A480C49C2E9044511600146C1
:104950000A4D0B4C93810B4BC2E90154C2E904315F
:1049600038BD4E21084B094800F08CF9000C00209E
:104970002DF451582D7F954C0E33CDAB34126DE68E
:10498000ECDE05002E7F954C5C4E0108744E01084C
:1049900038B5446C0CB1002038BD80210546FFF7C6
:1049A00023FF0246686430B1031F7C3243F8044F92
:1049B0009342FBD1EFE74FF0FF3038BD1F29F8B528
:1049C000054608D8466C0C4617464EB156F82400EA
:1049D00046F82470F8BD16234FF0FF302B60F8BD69
:1049E0008021FFF701FF0646686440B10021031FE4
:1049F00000F17C0543F8041F9D42FBD1E6E74FF030
:104A0000FF30F8BD1F2938B5054620D8426C0C464A
:104A10006AB152F8213053B1012B16D0591C10D075
:104A20000025204642F824509847284638BD28469D
:104A300000F0F8F8224601462846BDE8384000F06C
:104A4000DDB8162301202B6038BD002038BD1623A9
:104A50004FF0FF302B6038BD1F292BD8426C38B582
:104A60000C46054682B152F8243002EB84024BB169
:104A7000591C1AD0012B16D00025204615609847E6
:104A8000284638BD012038BD8021FFF7ADFE024623
:104A9000686460B10020131F02F17C0143F8040F29
:104AA0009942FBD1DFE7032038BD022038BD4FF02B
:104AB000FF3038BD4FF0FF30704700BF38B5144BA2
:104AC0001F281D681FD86A6C044662B152F8203056
:104AD0004BB1012B15D0591C0FD0002542F82050A6
:104AE0009847284638BD284600F09CF822460146E3
:104AF0002846BDE8384000F081B8162301202B601D
:104B000038BD002038BD16234FF0FF302B6038BD74
:104B1000000C0020124B1F2870B51E6808D80D46E7
:104B2000716C044649B151F8240041F8245070BD1D
:104B300016234FF0FF30336070BD80213046FFF701
:104B400053FE0146706440B10022031F00F17C0C4B
:104B500043F8042F6345FBD1E5E74FF0FF3070BD0C
:104B6000000C002038B50B4B1D686C6C0CB100209C
:104B700038BD80212846FFF737FE686438B1031F2F
:104B800000F17C0243F8044F9342FBD1EFE74FF072
:104B9000FF3038BD000C002038B5174B1F281D68AA
:104BA00027D86A6C044682B152F8243002EB8402A2
:104BB0004BB1591C1BD0012B17D000252046156086
:104BC0009847284638BD012038BD80212846FFF788
:104BD0000BFE0246686460B10020131F02F17C01E5
:104BE00043F8040F8B42FBD1DEE7032038BD0220DF
:104BF00038BD4FF0FF3038BD000C002070B50026E6
:104C0000074D0446084611462E600DF0BFF8431CC0
:104C100000D070BD2B68002BFBD0236070BD00BF9F
:104C2000A01100200DF0BAB820F0030110F003002D
:104C3000C0F1000051F8043B00F1040C4FEACC0C29
:104C40006FF000021CBF22FA0CF213434FF0010C6C
:104C50004CEA0C2C4CEA0C4CA3EB0C0222EA0302AB
:104C600012EACC1204BF51F8043B0430F4D0C2F174
:104C7000000102EA0102B2FA82F2C2F11F0200EB65
:104C8000D2007047144600B51A460A4B0D461B6801
:104C900085B0DE6803464CB10749019130460749AB
:104CA0000294009500F022F8FFF724FC04490C461A
:104CB000F3E700BF000C0020A84E0108B84E010821
:104CC000B44E010808B513460022FFF7DBFF00BF12
:104CD0000CB400B583B004AB53F8042B019300F07F
:104CE00057F803B05DF804EB02B070470EB400B59E
:104CF000074A82B003AB0146106853F8042B0193B6
:104D000000F046F802B05DF804EB03B0704700BF56
:104D1000000C0020704700BF704700BF9368013B44
:104D2000002B936005DAD2F818C0634507DB0A2927
:104D300005D01368581C106008461970704700F0C1
:104D400069BB00BF9BB1F8B5134406460F46541E1D
:104D50005D1E01E0AC4208D03A46304614F8011F0F
:104D6000FFF7DCFF431CF5D1F8BD0020F8BD0020A3
:104D7000704700BF936810B5144613B918465360C6
:104D800010BD00F031FE0023C4E9013310BD00BFA7
:104D90002DE9F04F0E4692461C4607469FB018B1CB
:104DA0008369002B00F0A880954B9E4200F0AA80FA
:104DB000944B9E4200F0B580934B9E4208BFFE6824
:104DC000B389180740F1A3803369002B00F09F805E
:104DD000002320220B9330239AF80010059401251C
:104DE0008A4C8DF831208DF8323000297DD0D146A3
:104DF0000B4604E019F8013F002B00F09480252BAE
:104E0000F8D1B9EB0A0B40F0918099F80030002BF3
:104E10006BD000234FF0FF3209F10109CDE90723E0
:104E2000069309938DF85B301C9304E0001B05FA90
:104E300000F018430690CA460522204619F8011BC7
:104E400001F01CF8069B0028F0D1D90644BF2022AF
:104E50008DF85B201A0748BF2B229AF8001048BF34
:104E60008DF85B202A2972D1059A11680432002935
:104E70000592C0F2A08009919AF801100AF1010A86
:104E80002E2976D0DFF888910322484600F0F6FFFD
:104E900048B14022069BA0EB090002FA00F0034350
:104EA0000AF1010A06931AF8011B062259488DF8E7
:104EB000301000F0E3FF002800F08380564B002BF9
:104EC0006CD005A9009132463846544B06A9AFF381
:104ED00000800390039B013307D00B9B039A9AF841
:104EE000001013440B93002981D1B3895B0615D4BC
:104EF0000B981FB0BDE8F08F00F056FD404B9E426E
:104F00007FF456AF7E68B38918073FF55DAF314631
:104F1000384600F0E1FA00283FF45AAF4FF0FF3076
:104F2000E7E7BE684CE7B9EB0A0BDED0D046CAF122
:104F3000010A03E0934538D918F8011F3246384674
:104F4000FFF7ECFE01300AEB0802F3D1CDE7A1F147
:104F50003002092A94D8099B1AF8011F03EB830336
:104F600002EB4303A1F13002092AF5D92E29099356
:104F700088D19AF801102A292DD1059B0AF1020047
:104F80001A680433002A0593B8BF4FF0FF339AF82C
:104F9000021007928246B8BF079373E7059B073359
:104FA00023F007030833059397E70B9A99F800302D
:104FB0005A440B922BE7494243F0020309910693AE
:104FC0005AE705A9009132463846144B06A900F06D
:104FD000CBF803907EE70023A1F13002092A0AF101
:104FE000010A07933FF64EAF1AF8011F03EB830344
:104FF00002EB4303A1F13002092AF5D9079341E7F7
:10500000203D0108003D0108E03C0108E84E010890
:10501000F04E0108F44E010800000000454D000864
:105020008C4600B586461346034A714610685DF803
:1050300004EB6246FFF7ACBE000C00202DE9F04700
:1050400091461E460A698B680C469A42B8BF1A46BA
:10505000C9F8002091F843300546DDF8208013B1EF
:105060000132C9F80020226891065DD5D9F80030D8
:105070000233C9F80030226812F0060F11461ED123
:10508000E168CB1A002BD8BF114618DD002704F1C8
:10509000190A06E0D9F80030E268A2EB030CBC451F
:1050A0000CDD0123524631462846C047013007F146
:1050B0000107EFD14FF0FF30BDE8F087216894F889
:1050C0004330003B18BF01238A060AD53021E2187D
:1050D00082F8431094F845105A1C2244023382F897
:1050E00043103146284604F14302C0470130E1D065
:1050F000236803F00603042B1DD0A36822699342A2
:1051000025DD00279B1A1F4404F11A09002401E041
:10511000BC421CDA01234A4631462846C0470130CA
:1051200004F10104F4D1C5E712F0060F12D0003BE0
:1051300018BF0123D5E7D9F80030E1682269C91A00
:10514000A36821EAE1779342DCDC0029DCDC002063
:10515000BDE8F087E168D9F80030CB1A002BD8BF42
:10516000114693DCABE700BF2DE9F04317460A7EFA
:1051700085B00C46064698460C9D01F1430C002A6A
:1051800033D0A2F15803D9B2202967D8202B65D893
:10519000DFE813F0DD006400640064006400640074
:1051A00064006400640064006400A3006E00640096
:1051B0006400640064006E006400640064006400C5
:1051C00021007F00BF0064006400AE0064007F0027
:1051D00064006400E40023681A0640F102812B6831
:1051E0006269191D29601B681A600023E14623616A
:1051F0003B4621463046CDF8008003AAFFF71EFF4C
:10520000013020D04A46394630462369C047013034
:1052100019D02368E0689B07039919D5431A002B1E
:1052200016DD002504F1190904E0E0680399431A2A
:10523000AB420DDD01234A4639463046C0470130B6
:1052400005F10105F1D14FF0FF3005B0BDE8F08365
:105250008842B8BF084605B0BDE8F083012384F852
:10526000422004F142092361002384F84330BFE760
:105270002368190602D45A0600F1BF8029680A681B
:10528000043129601146002A6ADB0A25DFF87CE137
:1052900010E02368180640F19A802B68191D2960D8
:1052A00019686F2A0CBF08250A25DFF860E1002382
:1052B00084F843306268002AA2607DDB236823F013
:1052C00004032360002959D1002A77D1E146082D33
:1052D00063D0ACEB090323618AE701222B6804F158
:1052E0004209196804332B6084F842102261BBE73D
:1052F0002B6800211A1D2A60D3F800906268484686
:1053000000F0BCFD00287FD0A0EB090060602061A8
:10531000AAE7236843F0200323607822DFF8F0E057
:1053200084F845202A68111D2960190642D45D06BB
:1053300040D51188D80744BF43F0200323600029DB
:1053400043D12368102523F020032360AFE75823BF
:10535000DFF8B8E084F845302368E3E72368DCE74A
:105360002D2284F8432062684942002AA26002DBB1
:1053700023F0040323600A25DFF890E0E146B1FB47
:10538000F5F30A4605FB131019461EF80030AA4231
:1053900009F8013DF3D2082D9BD12368D90798D590
:1053A000626823699A4294DC302309F1FF3989F855
:1053B00000308EE71168BDE70029DFD19EF800308C
:1053C00004F1420984F8423081E710256FE713F0B9
:1053D000400F2B6803F1040129600CBF196819887C
:1053E0005FE713F0400F2B68626903F10401296045
:1053F0001B6814BF1A801A60F7E62A68B2F9001019
:1054000004322A600A463EE7606880E7FC4E0108E5
:10541000104F0108F8B506460D46144608B18369D9
:1054200043B3254B9C422AD0244B9C4229D0244B89
:105430009C4208BFF468A269A389A2601A0722D51A
:10544000236903B322686169D31AEDB299422F46EA
:1054500029DD0133A1680139A160511C216015705B
:1054600062699A4216D0A389DB0701D50A2D11D0B3
:105470003846F8BD00F098FA0F4B9C42D4D17468BE
:10548000D9E7B468D7E72146304600F025F838B9A7
:105490002369D7E72146304600F024F90028E7D0F9
:1054A0004FF0FF37E4E72146304600F01BF90028B3
:1054B000F6D101232268CDE7203D0108003D010817
:1054C000E03C010803460A46024908681946FFF70E
:1054D000A1BF00BF000C00203C4B70B51D68064604
:1054E0000C460DB1AB69E3B1394B9C421FD0394B2F
:1054F0009C424DD0384B9C4208BFEC68B4F90C304C
:1055000018079AB219D5216911B312F001002FD0F2
:1055100000256069A5604042A06100292ED00020CE
:1055200070BD284600F040FA294B9C42DFD16C68E0
:10553000B4F90C3018079AB2E5D4D1063ED552071B
:1055400028D4216943F00803A3819AB20029DCD151
:1055500002F42070B0F5007FD7D02146304600F02D
:10556000FFFBB4F90C3021699AB212F00100CFD1DF
:10557000950758BF6069A0600029D0D1120658BFB6
:105580000846CDD543F040034FF0FF30A38170BDF6
:10559000AC68B3E7616B51B104F14402914204D0AD
:1055A0003046FFF7BBF8B4F90C30002262630022EA
:1055B000216923F02403C4E90012C3E7092243F060
:1055C000400332604FF0FF30A38170BD000C00201B
:1055D000203D0108003D0108E03C0108F8B58B8939
:1055E0000C46190707463BD46268002A55DDE66A77
:1055F000002E50D000223D683A6013F4805250D102
:1056000001233846216AB047421C5CD0A389E66A70
:105610005B0705D56368C01A636B0BB1236CC01AB6
:105620000246216A00233846B047411C3BD13B6803
:10563000002B38D01D2B01D0162B4BD10023226913
:10564000C4E90023616B3D6029B304F1440399422E
:1056500002D03846FFF762F8002318466363F8BDAE
:105660002669C6B19A0718BF0023256808BF636979
:105670002660AD1BA3600CE02B463246D4F828C050
:105680003846216AE047B0F1000CA5EB0C056644F2
:1056900012DD002DF0DC0020F8BD226C002AA6DC13
:1056A000F9E7606DB4E70022236962602360A38993
:1056B000DB04C7D56065C5E7A3894FF0FF3043F031
:1056C0004003A381F8BD3B68002B9FD01D2B06D063
:1056D000162B04D0A38943F04003A381F8BD00201A
:1056E0003D60F8BD38B50B69BBB10C46054608B145
:1056F0008369B3B10D4B9C4211D00D4B9C4213D02A
:105700000C4B9C4208BFEC68B4F90C302BB121461D
:105710002846BDE83840FFF761BF002038BD6C68FF
:10572000F2E700F041F9E5E7AC68EDE7203D01085C
:10573000003D0108E03C010838B540B30369044668
:10574000E3B1174B1D680DB1AB69CBB1154B9C4252
:105750000FD0154B9C4221D0144B9C4208BFEC68E3
:10576000B4F90C3053B121462846BDE83840FFF764
:1057700035BF6C68B4F90C30002BF4D1002038BD73
:10578000284600F011F9074B9C42E2D1F1E7084BA3
:1057900008491868BDE8384000F0BEBAAC68DFE7D9
:1057A000000C0020203D0108003D0108E03C0108FC
:1057B000DC3C0108E556000800207047014900F074
:1057C000ABBA00BFE556000800207047682270B5EC
:1057D0004D1E02FB05F50E4605F17401FFF704F8B6
:1057E000044640B100210C30C4E9016005F16802B3
:1057F0002160FEF741FF204670BD00BF274B2DE919
:10580000F0411E680746B36953B34FF004084836A9
:10581000D6E90134013B04D51EE05A1C04F16804AA
:105820001AD0B4F90C50013B002DF6D11C4B0822C4
:105830002946C4E90055C4E90253C4E90455656624
:10584000A56104F15C00FEF717FFC4E90D55C4E93A
:1058500012552046BDE8F08135682DB12E46D7E7B8
:10586000304600F01FF8D0E74FF4D6713846FEF707
:10587000BBFF044668B1056029460546C0F80480B0
:105880000C304FF4D072A060FEF7F6FE34602E4666
:10589000BEE70C2330603B60DBE700BFDC3C010867
:1058A0000100FFFF0023334A2DE9F0471268C0E9E9
:1058B00012339042036508BF01232F4908BF83615B
:1058C00081620546FFF79AFF034628466B60FFF7A3
:1058D00095FFA86028460024FFF790FF04236E6818
:1058E000DFF898A0DFF89890DFF89880264FE860FE
:1058F0000822F3602146C6E90044C6E90444746600
:10590000B460B46106F15C00FEF7B6FE1F4BC6E959
:10591000086AC6E90A983763AE680822F360214630
:10592000C6E90044C6E904447466B460B46106F193
:105930005C00FEF7A1FE164BC6E9086AC6E90A98A4
:105940003763EE682146F3600822C6E90044C6E9E1
:1059500004447466B460B46106F15C00FEF78CFE2A
:105960000123C6E9086AC6E90B87C6F82890AB612F
:10597000BDE8F087DC3C0108BD5700085560000811
:105980007D600008BD600008DD60000809000100BE
:1059900012000200024B0349186800F0BDB900BFB5
:1059A000DC3C0108E5560008836903B97AE77047D3
:1059B000704700BF704700BF704700BF704700BF0F
:1059C000024B0349186800F087B900BF000C0020A3
:1059D000B9570008024B0349186800F07DB900BFB1
:1059E000000C0020C95700089368002B00F0B78016
:1059F0002DE9F04FB1F90C300C46190780461746D7
:105A000083B098B225D523691BB310F002033D681B
:105A10002DD04FF0000B5E46DFF8B8A2002E00F04C
:105A20008B80564533465A4628BF53464046216A26
:105A3000D4F828C0E047002840F38780BB6883443F
:105A40001B1A361ABB60002BE8D1002003B0BDE85A
:105A5000F08F21464046FFF73FFD002840F0368199
:105A6000B4F90C303D6898B210F00203D1D110F0B7
:105A7000010976D14E46002E5AD08205D4F808B0DE
:105A800040F1B580B3455A4600F2CD8010F4906FD6
:105A900000F0CB8023682169A3EB010B636903EB62
:105AA000430A0AEBDA7A0BF101034FEA6A0A33443C
:105AB0005345524684BF9A465246430540F1EA8018
:105AC00011464046FEF790FE002800F0F9805A4645
:105AD00021690190FEF75AFDA289019B22F4906290
:105AE00042F08002A28103EB0B0023613246AAEB55
:105AF0000B03B346C4F814A0A3602060B24600268E
:105B00004946019200F002FAA3682168019AA3EBCA
:105B10000B030A44A3602260B868D144A0EB0A00DA
:105B2000B860002891D0B4F90C0080B2002EA4D146
:105B3000D5E9009608359EE7D5E900B608356DE74A
:105B400021464046FFF7CEFD80B3B4F90C304FF04C
:105B5000FF3043F04003A38103B0BDE8F08F002085
:105B600070471E46AA46994618461D4656B3002859
:105B700032D04A4620682169B24228BF3246884264
:105B8000636904D9A16803EB010B5A4574DC9342A5
:105B900065DC2A464046216AD4F828C0E047B0F1C7
:105BA000000BD2DDB9EB0B09CAD00120BB685D4404
:105BB000A3EB0B03A6EB0B06BB60002B3FF445AF3A
:105BC000002ED4D10AF1080353F8046C9A4653F816
:105BD000085C0833002EF7D032460A21284600F030
:105BE0004DF9002869D00130A0EB0509C1E7206814
:105BF000236998421BD86369B34218D86FF0004CF0
:105C0000B44528BFB4469CFBF3FC4A4603FB0CF3A7
:105C10004046216AD4F828C0E047B0F1000A94DD7C
:105C2000A6EB0A0678E7B3463246206866E7B34536
:105C3000DA4628BFB2464946524600F067F9A368E3
:105C40002268A3EB0A035244A3602260002BE7D131
:105C500021464046FFF746FD0028E1D075E729467A
:105C60009346019200F052F9A368019A9B1AA3602F
:105C700023681A44226095E729465A4600F046F9FF
:105C8000236821465B4440462360FFF72BFD002834
:105C900088D05AE7404600F0B5F9034600287FF463
:105CA00022AF40462169FEF739FD0C22B4F90C30D1
:105CB000C8F8002023F0800349E7721C914659E799
:105CC0000C22B4F90C30C8F8002040E74FF0FF3048
:105CD000BCE600BF00FCFF7F2DE9F04100268846AE
:105CE00000F14807D7E90154013D0ED4A389013DD5
:105CF000012B06D9B4F90E30013302D02046C0473B
:105D000006436B1C04F16804F0D13F68002FE9D111
:105D10003046BDE8F08100BF2DE9F8434FF000099F
:105D20000746884600F14806D6E90154013D10D4E3
:105D3000A389013D012B08D9B4F90E30013304D0F9
:105D400021463846C04749EA00096B1C04F1680443
:105D5000EED13668002EE7D14846BDE8F88300BF93
:105D6000F0B58B890C46990797B007D5012204F14D
:105D70004703C4E90432236017B0F0BDB4F90E1034
:105D8000054600292DDB6A460BF0E9FF002827DBDA
:105D9000019E4FF4806706F47046A6F50056B6FAE9
:105DA00086F6394628467609FEF71EFD30B3A389EC
:105DB0001A4A43F08003AA62C4E90407A381206061
:105DC000002ED9D02846B4F90E100BF0D4FF0028CD
:105DD000D2D0A38923F0030343F00103A381CBE7CF
:105DE000A38913F0800F14BF40274FF48067284623
:105DF00039460026FEF7F8FC0028D8D1B4F90C305B
:105E00009A05B9D4012123F0030304F1470243F0BA
:105E10000203C4E90421A3812260ADE7BD57000855
:105E200070B50C46B1F90E10164600291D4696B005
:105E300013DB6A460BF093FF00280EDB01994FF449
:105E4000806301F47041A1F50051B1FA81F10020A5
:105E500049092960336016B070BD0022B4F90C30D6
:105E60002A601B0604D540230020336016B070BDA5
:105E70004FF480630020336016B070BD5FFA81FC80
:105E8000810710D00346511E2AB90AE09A07184626
:105E90000AD0013905D3184613F8012B6245F5D114
:105EA000704700207047114603290CD80029F8D00C
:105EB0000346014401E08B42F3D0184613F8012B4E
:105EC0006245F8D1ECE7024610B54CEA0C2444EAEE
:105ED00004441046036804326340A3F1013E2EEAF5
:105EE000030313F0803F04D1043903291046F0D88E
:105EF00051B10346014401E08B4205D0184613F826
:105F0000012B6245F8D110BD002010BD88420DD98B
:105F10008B1883420AD900EB020CBAB1624613F81F
:105F200001CD994202F801CDF9D170470F2A0ED860
:105F3000034602F1FF3C4AB10CF1010C013B8C44D9
:105F400011F8012B614503F8012FF9D1704740EAA0
:105F500001039B074FD1A2F1100370B501F1200C92
:105F600023F00F0501F1100E00F11004AC441B09E1
:105F70005EF8105C0EF1100E44F8105C5EF81C5CCC
:105F8000103444F81C5C5EF8185C44F8185C5EF849
:105F9000145CE64544F8145CEAD1013312F00C0FAE
:105FA00001EB031102F00F0400EB031327D08E4620
:105FB000043C24F003064FEA940C1E441C1F5EF8B8
:105FC000045B44F8045FB442F9D10CF1010402F01F
:105FD000030203EB840301EB840102F1FF3C4AB1AD
:105FE0000CF1010C013B8C4411F8012B614503F8C5
:105FF000012FF9D170BD034602F1FF3C9CE7224618
:10600000EBE700BFF8B51446F9B1CAB106460D4634
:1060100000F068F8A04202D32F463846F8BD21466A
:106020003046FEF7E1FB07460028F6D02246294617
:10603000FEF7ACFA30462946FEF770FB3846F8BD4D
:106040002746FEF76BFB3846F8BD1146BDE8F84021
:10605000FEF7CABB10B50C46B1F90E100BF067FE87
:10606000002803DB636D0344636510BDA38923F43B
:106070008053A38110BD00BF002070472DE9F0417F
:106080000C46B1F90C101F46CB05054616460BD43D
:1060900021F48051A1813B4632462846B4F90E10C6
:1060A000BDE8F0410BF04ABEB4F90E100223002205
:1060B0000BF042FEB4F90C10EAE700BF10B50C4635
:1060C000B1F90E100BF038FEA389421C0EBF23F469
:1060D000805343F480536065A38110BDB1F90E1065
:1060E0000BF02EBE51F8040C0028A0F10400BCBF38
:1060F0000B58C018704700BF0F4A0023114610B557
:10610000147C844211D11C225343CA18906858B1A0
:10611000CB58FF281FBF58434000013050604FF05C
:10612000010004BF0133536010BD01330D2B02F198
:106130001C02E5D10020F7E7A00E0020F0B50A4EC2
:1061400000253446377C874207D11C2000FB0540E0
:106150000176427683760120F0BD01350D2D06F1E2
:106160001C06EFD10020F7E7A00E0020094A30B549
:1061700000231446157C854205D11C22012002FB18
:106180000343996030BD01330D2B02F11C02F1D1A4
:106190000020F7E7A00E0020094A30B5002314467E
:1061A000157C854205D11C22012002FB0343596066
:1061B00030BD01330D2B02F11C02F1D10020F7E7B5
:1061C000A00E002070B50B4C00232546267C86428D
:1061D00009D11C204343E818E95000238260C360C2
:1061E0004374012070BD01330D2B04F11C04EDD16B
:1061F0000020F7E7A00E002070B500252E462B4C9E
:106200006368002B4FD0E06808BB637CB3FA83F36C
:106210005B09637409F01AFED4E900239342E0603D
:106220002BD266606674E66063690BB1207C984788
:10623000207CFF2824D100221146104607F00CFCD8
:1062400007355B2D04F11C04DAD1012070BD09F083
:1062500041FE23689842D8D26368002BE4D02046E0
:1062600002F076FE0028EBD0637C207CB3B1FF28DF
:106270000CD1A27E617E207EE0E79B1A6360EBE793
:106280005028DDD800231A46194604E05028D7D8F4
:10629000A37E627E217E06F065FDD1E7FF28CAD08D
:1062A0005028CDD8EFE76374E360C9E7A00E002063
:1062B00007B503788DF8003043788DF80130837886
:1062C0008DF8023003798DF80330C37868468DF875
:1062D00004300DF03DFB03B05DF804FB08B5074B3F
:1062E0005A78032A07D8586809F0F4FDC72894BFE4
:1062F0000020012008BD0020FCE700BFA40C002006
:106300007047000010B5144C202220464FF4804105
:106310000BF0B5FE204620224FF400410BF0AFFEFB
:10632000002280214FF080400BF0A9FEFFF7E8FF2C
:1063300000BF00BF00BF00BF00BF00BF00BF00BF65
:1063400000BF00BF00BF00BF00BF00BF00BF00BF55
:1063500000BF00BF10BD00BF0008004008B501F03D
:10636000A5FB08BD08B5054C20780CF0E9FD2078A8
:10637000FFF7F4FF05200AF0D4FCF5E7283C0020E5
:1063800010B5084C236803F07142074B1343236098
:1063900009F05CFD054B18602068BDE8104004F072
:1063A000D2BC00BF283C00200001010EA811002033
:1063B00010B5064C0122204602210BF060FE02239C
:1063C000A361BDE8104001F013BC00BF0004004011
:1063D00001207047124B10B51C789CB9114B1B78EB
:1063E000042B0FD104F09CFB04F0B0FB04F062FB23
:1063F00004F0DCFB204609F0C9FB2046BDE8104054
:1064000009F0E0BB0DF0A8FA48B10CF08FFD0028B0
:10641000FBD1BDE810404CF250300AF082BC10BDF8
:10642000283C0020C43F0020002370B50D460446E0
:10643000284E0B70002838D009F008FD264B30603C
:106440001A69560402D51A69110435D41A6952041E
:1064500002D41B691E0431D41F4A1169C1F3803371
:10646000490405D5136913F4004F14BF0023022318
:106470001A4A1278511E042922D9062A22D0002A4B
:106480000CBF03200020164A14B91178994202D19A
:106490001C1A18BF0124022B137015D0032B15D022
:1064A000012B15D102232B7004E0306809F012FD96
:1064B0003228C1D8204670BD0323D9E70123D7E78E
:1064C0000120E0E70220DEE70323ECE70123EAE70F
:1064D0000023E8E7B811002000080040283C002015
:1064E000AE110020084B9A78012A07D0022A09D061
:1064F000064B1868B0FA80F04009704758780128B8
:10650000F6D170470120FCE7A40C002020130020E6
:1065100008B5054B9B78013B012B02D9FFF7E2FF41
:1065200008BD0120FCE700BFA40C002008B509F05D
:106530008DFC014B986008BDA40C002010B5094CDF
:1065400023782070637009F081FC6060FFF7EEFF34
:1065500000F070FEBDE810400022034B53201A707B
:106560000DF076B9A40C0020B4110020F8B50C464B
:106570001546074660B300293FD0884201D0FFF797
:1065800029FF584E3378013B012B04D80320FFF735
:10659000D5FF0023B370544E3378A34200D11DB110
:1065A0000022524B9A619A83347024B1631E042BEB
:1065B000747098BFB470306804F0C5FB3378062B54
:1065C00000F28980DFE803F0852A46505A646E00A5
:1065D0000029D6D00222464B464E9A613378012BD1
:1065E000CDD030460BF02AFD30460BF0F5F842488E
:1065F000424B836009F098FAC1E74FF400323C4BFC
:106600003C489A610378042BB9D03D4B3A4E19703F
:106610003C4BB36009F0AEFE3046EBE7312075B17C
:106620000DF016F952200DF013F901200DF01CF9B0
:106630004EF2794143F22D400DF06CF951200DF0EE
:1066400007F9FFF773FF2A462146384601F0B6FEE8
:106650000120F8BD3220002DF1D00DF0F9F85220C4
:106660000DF0F6F80220E1E73320002DE7D00DF021
:10667000EFF852200DF0ECF80320D7E73420002D7E
:10668000DDD00DF0E5F852200DF0E2F80420CDE762
:106690003520002DD3D00DF0DBF852200DF0D8F8C6
:1066A0000520C3E73020002DC9D00DF0D1F8062118
:1066B00015480DF0FFF8202114480DF013F94EF2A3
:1066C000794143F22D400DF025F952200DF0C0F82C
:1066D000B4E71120B3E711200DF0BAF8FFF750FE30
:1066E000AFE700BFA40C0020283C0020640C002071
:1066F00000040040C43F002078110020B16200086F
:10670000782C002039040108403D0108463D01086D
:10671000002313B50DF107018DF80730FFF784FE54
:10672000044690B19DF80730013B032B0DD8DFE8FC
:1067300003F002060F1200221146094B02E000226C
:10674000074B99781878FFF711FF204602B010BD6B
:1067500000220621F1E7024B00225978F2E700BF40
:10676000283C002013B5124C20460CF071FB01238D
:10677000A37704F0E5FA0F4C206008B9FFF700FE9C
:10678000E37843F00103E37009F060FB0A4BFF225A
:10679000186000234FF4A87100930848084B0AF0D2
:1067A0008DFAFFF7AFFD0120FFF7B2FF02B010BD79
:1067B000640C0020283C0020A8110020C0110020FB
:1067C0006563000848B1074A1378013B012B07D8DD
:1067D00093782BB90320FFF7B1BE0122024B1A7048
:1067E000704700BFA40C0020B4110020014B1878A2
:1067F000704700BFA40C0020014B9870704700BF89
:10680000A40C0020014B9878704700BFA40C002016
:10681000014BD870704700BFA40C00200122014B2F
:106820001A707047B4110020F8B51C4C1C4EE37868
:10683000B268C3F342031AB9FFF778FE0020F8BD2F
:10684000184A52F8235023782BB9174B1B78042B86
:1068500001D1FFF76BFE154F3B7893B100233B70DE
:106860004FF080431B69E278DB0963F30002237871
:10687000E27073B101F0E6FF0028DFD101F048F9C2
:10688000DDE7002DDAD0B06809F024FBA842E5D29C
:10689000D4E7054B1B78042BECD1CDE7283C002036
:1068A000A40C0020EC3D0108C43F0020B4110020DE
:1068B00010B50B4B5A78012A03D0022A08D00020C9
:1068C00005E09C78012C03D101F084F9204610BD2D
:1068D000586809F0FFFAC728F1D9FFF703FEF6E779
:1068E000A40C002010B5074BD87810F0FD0404D19B
:1068F0000220FFF723FE204610BD0320FFF71EFEF7
:106900000120F9E7A40C002038B50A4D0024EB78EB
:10691000033B012B08D80320FFF710FE2046AC7084
:1069200001F006F9012038BD0220FFF707FE2046DE
:10693000F9E700BFA40C002038B50A4D0024EB781D
:10694000033B012B08D80320FFF7F8FD2046AC706D
:1069500001F00EF9012038BD0220FFF7EFFD2046BF
:10696000F9E700BFA40C002070B5A04CA04D206832
:10697000B0B109F0AFFAB0F5FA6F11D30026552087
:1069800026600CF065FF57200CF062FF70200CF0C1
:106990005FFF29783246B1FA81F04009FFF7E6FD42
:1069A0002B7823B1934B93F82020934B1A702368D4
:1069B000DBB9924E306809F08DFA40F6B733984251
:1069C00013D92B788BB10CF0B1FA70B9894CA37F35
:1069D0005BB109F03BFA306053200CF039FF94F8BA
:1069E000213013B970200CF033FF4FF080431B6946
:1069F000EA78DB09824C63F300020020EA70FFF7BB
:106A000087FE2378032B1ED8DFE803F002284FA966
:106A1000E36833B1984720B10120FFF78FFD0023D1
:106A2000A370236933B1984720B10120FFF786FD99
:106A30000223A370636933B1984720B10120FFF7A7
:106A40007DFD0123A3700CF0FDFD6E4B1B78002B28
:106A500000F0CB80BDE8704003F0C2B8A369002B02
:106A6000F1D098470028EED002F0A0F9664B1870DC
:106A700007F0BAFD2A78654B1A7000225D4B9A77B1
:106A80002A68634B134063B9624C2378012B08D00A
:106A90000222614B20469A610BF0D0FA20460AF0A0
:106AA0009BFE0220FFF74AFDCDE7E369002BCAD029
:106AB00098470028C7D00022584B1A704FF08043E7
:106AC0004FF400129A614FF000729A612A68504B9D
:106AD0001340B3F1807F10D0A37853B3013B012B57
:106AE0000BD86378022B08D0FFF774FC11200CF050
:106AF000AFFE0CF01BFA0028FBD100F0F3FF0023DF
:106B0000E370424B2A781B789A4208D12A68404B9E
:106B10001340B3F1807F02D0A07800F09BFCA378F3
:106B2000012B19D0022B14D0002B8CD1FFF7DAFEE9
:106B300089E7304B5B7E002BDFD111200CF088FE03
:106B40000CF0F4F90028FBD147F230500AF0E9F8D4
:106B5000D3E7FFF7D9FE76E7FFF7EEFE73E7236A88
:106B6000002B3FF470AF984700283FF46CAF012230
:106B7000204B9A77244B1B7843B14FF0804320225F
:106B80009A614FF400729A6107F014FD0120FFF73B
:106B9000BFFD30B92A780AB3697802460846FFF784
:106BA000E5FC00241D4B1C701D4BD3F8902042F4D3
:106BB0000072C3F89020D3F8902022F40072C3F83A
:106BC000902000F083FFFFF7B1FC00F033FB20467C
:106BD000FFF7B4FC53200CF03BFE34E70D4B1B7861
:106BE000012BDED111466878D9E770BDA8110020CD
:106BF000283C0020640C0020782C0020B0110020DC
:106C0000A40C0020AD110020A4110020AC11002024
:106C1000FF000001C43F002000040040B411002028
:106C2000000C01400120704708B5FFF7FBFF08BDCD
:106C300037B504460D46FFF779FC29462046FFF795
:106C4000F3FF60B1074B1A784AB1074B20461B7817
:106C5000D9090091C3F30013A9780CF017FD03B014
:106C600030BD00BF283C0020343C002000B50B4B59
:106C70008FB0322193F82130094A01A804F07BFF3C
:106C800001A808F0A9FA0CF04DF908F0A5FA05489A
:106C900008F0A2FA0FB05DF804FB00BF640C0020FE
:106CA000663D0108773D01082B4B13B51A78044661
:106CB0004AB12A4B01211B78DB09009300230CF019
:106CC000E5FC02B010BD0028FBD0031FDBB2A02BF7
:106CD00012D8234B0146186808F0AEFF20B12046B9
:106CE00003F0E0FE03F062FF204603F0D3FE02B0A3
:106CF000BDE8104003F05ABF00F12003DBB2072BC0
:106D000007D800F007040120A040C0B203F0F8FE4D
:106D1000EDE700F15B03DBB2022B06D8243880B22A
:106D200002B0BDE8104008F031BF00F15803DBB2FB
:106D30001A2B07D80B4A32F8130002B0BDE81040F6
:106D400008F040BF3334E4B2122CBAD8012102B0AB
:106D5000BDE8104003F02AB8283C0020343C002055
:106D600024100020B63D0108244B13B51A780446C0
:106D70004AB1234B1B78DB090093002319460CF022
:106D800085FC02B010BD0028FBD0031FDBB2A02B96
:106D900006D803F087FE02B0BDE8104003F006BF3E
:106DA00000F12003DBB2072B07D800F00704012015
:106DB000A040C0B203F0ACFEEDE700F15B03DBB234
:106DC000022B05D8104602B0BDE8104008F0DEBE28
:106DD00000F15803DBB21A2B05D8104602B0BDE80B
:106DE000104008F0EFBE3334E4B2122CC9D811467B
:106DF00002B0BDE8104002F0D9BF00BF283C00201F
:106E0000343C00202DE9F3410446C0B1114E3378E3
:106E1000C3B10127DFF84080204602F058FF054645
:106E200098F80030E030DB0900930121002332782C
:106E300080B207FA05F50CF029FCAC43ECD102B0A6
:106E4000BDE8F08103F05CFE02B0BDE8F04103F064
:106E5000ADBE00BF283C0020343C00202DE9F341AA
:106E60000446C0B1114E3378C3B10127DFF840802A
:106E7000204602F02CFF98F800300546DB0900930D
:106E80000023E0301946327880B207FA05F50CF09D
:106E9000FDFBAC43ECD102B0BDE8F08103F038FE5D
:106EA00002B0BDE8F04103F081BE00BF283C0020E5
:106EB000343C00202DE9F3410446C0B1114E337833
:106EC000C3B10127DFF84080204602F000FF0546ED
:106ED00098F80030E030DB0900930121002332787C
:106EE00080B207FA05F50CF0D1FBAC43ECD102B04F
:106EF000BDE8F08103F01AFE02B0BDE8F04103F0F6
:106F000055BE00BF283C0020343C00202DE9F34151
:106F10000446C0B1114E3378C3B10127DFF8408079
:106F2000204602F0D4FE98F800300546DB090093B5
:106F30000023E0301946327880B207FA05F50CF0EC
:106F4000A5FBAC43ECD102B0BDE8F08103F0F6FD47
:106F500002B0BDE8F04103F029BE00BF283C00208C
:106F6000343C00202DE9F04104460D4601F00CFBB5
:106F700038BB2378013B142B58D8DFE813F01500F9
:106F8000250052006C0072007E00810081008100AB
:106F90008600E0008C0090009600A100AC00AF00DD
:106FA000B200BD00C800D100002363700C23A370A1
:106FB000674B29461B782046002B40F0C58009F01E
:106FC00041FA0120BDE8F0816378013B032B2DD805
:106FD000DFE803F0020C0F2108F038FF030EA37066
:106FE000030CE370030A23716071E1E707F0B7FD5A
:106FF000F4E72646A77804F11C08052FD8D8F8B284
:1070000004F02AFA030AF37030710236B04507F132
:107010000107F2D1CCE70023A370E3702371637101
:10702000C6E76378022B04D0052B10D0FF23237012
:10703000BEE7E378A07840EA0320237940EA0340E2
:10704000637940EA036000BA07F090FDB0E7A078EA
:1070500007F0B6FDACE7E278A178607808F0ACF90B
:10706000C0E762792379A17843EA02235BBAE27828
:1070700060789BB208F0B6F99AE708F003FA97E750
:107080002946204607F017FE92E7002007F04AFD48
:1070900007F077FD8CE708F07EFA607088E708F06B
:1070A0007CFA030A6370A07082E76078A378E178C5
:1070B00040EA032040BA221D80B208F071FA77E757
:1070C0006078A378E17840EA032040BA221D80B2BC
:1070D00008F080FA6CE708F090FA69E708F060F9C8
:1070E000DBE76078A378E17840EA032040BA221D0C
:1070F00080B208F011FA5BE76078A378E17840EAA3
:10710000032040BA221D80B208F01DFA50E7E27851
:10711000A178003A18BF0122607808F078F961E799
:1071200062792379A17843EA0223E2785BBA003AD4
:1071300018BF012260789BB208F088F938E7012374
:10714000044A6370137033E70CF05EFC39E700BF4C
:10715000283C0020AD11002010B54378044613B13F
:10716000FF23237011E08378013B032BF8D8DFE87D
:1071700003F0021A28410378072B07D0082BEFD120
:107180002B4BDB78C3F34203C37010BDC1780729D2
:10719000FBD8BDE81040264BDA7861F34302DA7081
:1071A000186803F0D0BD0378072B05D0082BD7D182
:1071B00001F059FBE070E8E7C078BDE8104001F04D
:1071C00021BC0378072B0AD0082BC9D14279017959
:1071D000C07801F04AFBA071000AE071D5E7C279DE
:1071E0008379017943EA0223BDE810404279C078EF
:1071F00001F051BB0378072B0DD0082BB0D12379B8
:10720000C078617940EA032040BAA21D80B2BDE88F
:10721000104001F055BB2379C078617940EA032022
:1072200040BAA21D80B2BDE8104001F064BB00BFAF
:10723000283C002008B508F009FE014B186008BD85
:1072400010130020164B10B51C788CB9154B1B7809
:10725000052B08D0022B06D008F0F8FD124B186061
:10726000124B1C7010BD4FF080431B691B0603D4EA
:10727000BDE81040FFF7DEBF0B4B18680028F7D0C1
:1072800008F028FE41F657339842EBD9FFF7D2FFBA
:10729000BDE810400122054B1A70FFF7BFBA00BFCE
:1072A000283C0020C43F00201013002014130020AD
:1072B0002DE9F0411B4C064625781DB101242046DE
:1072C000BDE8F081FFF792FA0138012805D80320C4
:1072D000FFF734F92846FFF78FFA94F80080B8F1E9
:1072E000000FEBD1104D2B78052BE7D1B5F84C30C2
:1072F0009B0702D50D4F3C7824B9FF2E94BF002484
:107300000124DCE7FFF772FA0328D7D887F800805A
:10731000FFF790FF28460AF00BFB284601F0D2F950
:10732000CDE700BF283C0020C43F002014130020FC
:10733000704700001A4B70B59C6C0F2644F4C06473
:107340009C649B6C012301F003048B4021F003013A
:1073500001F1804101F5A0518D68A400C0F38320A4
:10736000A04006FA04F425EA040528438860D843BF
:107370000C4912F0010F8C6814BF1C4304408C6050
:1073800012F0020FCA6814BF1A430240CA60054ACD
:10739000536111680B43136053680340536070BD21
:1073A000000C0140001800400F281FD8DFE800F053
:1073B000080C0F121518181818181B1B1B1B1B1B69
:1073C000062108460AF0EDBC06210720FAE706214F
:1073D0000820F7E706210920F4E706210A20F1E753
:1073E00006211020EEE706212120EBE7704701205F
:1073F0007047000008B5FFF7FAFF28B30122072104
:107400004FF08040FFF796FF0720FFF7CDFFFFF713
:10741000F9F938B90D4803220721FFF78BFF072040
:10742000FFF7C2FF03220E210948FFF783FF0E205A
:10743000FFF7BAFF064803220F21FFF77BFFBDE8E5
:1074400008400F20FFF7B0BF08BD00BF0004004098
:10745000000800402DE9F0473023054683F31188EA
:10746000FFF7C8FF4FF000090127874EDFF81C82A5
:1074700056F8043B95B1012D4FD143454DD123F032
:107480000F0A03F00F0307FA03F4214605225046C2
:1074900024040AF0F4FDCAF8184001E0581CEED1AB
:1074A00009F10109B9F10F0FE2D106240127784E45
:1074B000DFF8E09156F8040B002D3AD0012D40F092
:1074C000D580484540F0D28000F00F01202207FA15
:1074D00001F120F00F000AF0D2FD00BF00BF00BF95
:1074E00000BF00BF00BF00BF00BF00BF00BF00BFA4
:1074F00000BF00BF00BF00BF00BF00BF00BF56F805
:10750000040C032200F00F08414620F00F00FFF7A3
:1075100011FF4046FFF748FF0DE0591CC0D003F0B3
:107520000F01202207FA01F123F00F000AF0A7FD56
:10753000B6E7421CC8D1013CBCD122464FF40061E1
:1075400055480AF09CFD00BF00BF00BF00BF00BF50
:1075500000BF00BF00BF00BF00BF00BF00BF00BF33
:1075600000BF00BF00BF00BF00BF03220B214A487D
:10757000FFF7E0FE0B20FFF717FF84F3118872B6C8
:107580004FF0E0220120136923F001031361434B04
:10759000434A5A610022A30003F1604303F56143AB
:1075A000D3F80011D5B2012D94BF002101F00101E3
:1075B00009B1C3F880010132202AF1D10134082C2D
:1075C000E8D1384C636843F000736360364B1A6847
:1075D00002F009021A601A6842F46C3242F00402A6
:1075E0001A6040F2B3321A62304B43F001039847FD
:1075F000236943F00403236130BF2D4B43F00103A3
:1076000098474FF0E022236923F0040323611369B4
:10761000284C43F001031361E36943F08003E36105
:10762000A36C43F40073A36408F03AFF02F05EF920
:1076300040F282324FF4006117480AF020FDE36CFB
:1076400043F00803E364E36CA36C43F48053A36446
:10765000A36CE36C43F01003E364E36CFFF768FE94
:10766000002383F3118862B6BDE8F087431C3FF422
:1076700062AF00F00F01402207FA01F120F00F0085
:107680000AF0FDFC57E700BF0C3E0108020800406D
:10769000A43E01080D08004000080040001800400A
:1076A000FFFF070000ED00E0000001407C3E010804
:1076B000483E0108000C014001207047012070473E
:1076C000C31F10B504460B2B1AD8DFE803F01119BD
:1076D000191913191715151919060420FFF798F829
:1076E0002046FFF7E9FF10B12046FFF7E7FF10BD86
:1076F0000320F3E70220F1E70720EFE70520EDE79D
:107700000120EBE701238B40034202D00846FFF73C
:10771000D7BF704708B50D4B5A69D20706D51A680E
:10772000002022F001021A60FFF7CAFF4022084B36
:10773000C3F88020BFF34F8FBFF36F8F0122034B3D
:107740005A61BDE8084009F0E1BB00BF00180040E5
:1077500000E100E008B50D4B586910F0020006D0BA
:107760001A68012122F002021A60FFF7CBFF802283
:10777000074BC3F88020BFF34F8FBFF36F8F0222F8
:10778000024B5A61BDE8084009F0C0BB0018004038
:1077900000E100E008B50E4B586910F0040006D077
:1077A0001A68022122F004021A60FFF7ABFF4FF4BF
:1077B0008072084BC3F88020BFF34F8FBFF36F8FE9
:1077C0000422034B5A61BDE8084009F09FBB00BF8B
:1077D0000018004000E100E008B50E4B586910F0B9
:1077E000080006D01A68032122F008021A60FFF789
:1077F00089FF4FF40072084BC3F88020BFF34F8F0E
:10780000BFF36F8F0822034B5A61BDE8084009F0AF
:107810007DBB00BF0018004000E100E008B50E4B42
:10782000586910F0100006D01A68042122F01002E6
:107830001A60FFF767FF4FF48062084BC3F880209F
:10784000BFF34F8FBFF36F8F1022034B5A61BDE818
:10785000084009F05BBB00BF0018004000E100E0F9
:1078600038B5254B5C69A20604F4787507D51A680B
:10787000052122F0200228461A60FFF743FF600628
:1078800008D51D4A06211368284623F040031360DB
:10789000FFF738FF210608D5174A07211368284645
:1078A00023F080031360FFF72DFFE20508D5124A8D
:1078B00008211368284623F480731360FFF722FF22
:1078C000A30508D50C4A09211368284623F4007340
:1078D0001360FFF717FF4FF48032084BC3F8802086
:1078E000BFF34F8FBFF36F8F4FF47872024B5A6123
:1078F000BDE8384009F00ABB0018004000E100E094
:1079000038B52A4B5C69620504F47C4507D51A68D2
:107910000A2122F4806228461A60FFF7F3FE23054D
:1079200008D5224A0B211368284623F4006313600C
:10793000FFF7E8FEE00408D51C4A0C21136828462E
:1079400023F480531360FFF7DDFEA10408D5174A26
:107950000D211368284623F400531360FFF7D2FE6D
:10796000620408D5114A0E211368284623F4804387
:107970001360FFF7C7FE230408D50C4A0F211368D4
:10798000284623F400431360FFF7BCFE0222084B95
:10799000C3F88420BFF34F8FBFF36F8F4FF47C4247
:1079A000024B5A61BDE8384009F0B0BA00180040F7
:1079B00000E100E008B50E4B586910F4802006D0B5
:1079C0001A68122122F480221A60FFF79BFE082217
:1079D000084BC3F88420BFF34F8FBFF36F8F4FF472
:1079E0008022034B5A61BDE8084009F08FBA00BFFE
:1079F0000018004000E100E080B483B000AF034B0A
:107A00007B6000BF0C37BD4680BC7047003F00085C
:107A100010B5074C23784BB901F0F4F902F075F971
:107A200008F088F802F072F901232370012010BDDC
:107A30001713002010B5044C23781BB101F0DAF9BC
:107A400000232370012010BD1713002038B5154CFA
:107A500000252378032B22D8DFE803F0020B131B49
:107A60000A2311484370857008F088F801232370B9
:107A700038BDF6230C488370457008F07FF8022368
:107A8000F5E7F62308484370857008F077F803237C
:107A9000EDE70A2304484570837008F06FF82570FD
:107AA000E6E700BF151300202C130020054B1B78C0
:107AB00033B1054B1B780BB9FFF7C8BF0BF092BE73
:107AC000704700BF1A130020283C002008B5044B63
:107AD0001B780BB9FFF79CFF01F04EFB08BD00BF00
:107AE0001713002008B5064B1B780BB1FFF7A2FF58
:107AF0000023044A1370044A136001F03BFB08BDE5
:107B000017130020241300202813002001207047A1
:107B100008B5FFF7FBFF08BD014B1878704700BFA1
:107B200018130020014B1870704700BF1813002075
:107B3000014B1870704700BF18130020014B1878D4
:107B4000704700BF19130020084B10B50446187089
:107B500058B9FEF74BFE022807D80320FEF7EEFCCB
:107B60002046BDE81040FEF747BE10BD19130020A7
:107B7000FFF7EABF024B187880F00100FFF7E4BF7F
:107B800019130020084B1A78084B1B784BB982F068
:107B90000102A0F5A443203B1F2B8CBF10460120FF
:107BA00070470022F5E700BF1913002018130020CA
:107BB00000231946054A93721360054A0333212BAB
:107BC000917242F80C1BF9D1704700BF18100020C9
:107BD000C80C002008B501F0F9FEFFF7E9FF00220C
:107BE000014B1A6008BD00BF201300200120704720
:107BF00010B5FFF70DFFFEF7B5FD01F00BF990B1E1
:107C0000012220214FF080400AF039FA4FF08044E1
:107C100020230122A3614FF4007120460AF02FFABD
:107C20004FF40073A36110BD0023104A10B5137008
:107C30000F4A4FF0804413700E4A136006F0ECFCBC
:107C400001280DD006F0E0FC4FF40013A3614FF0C3
:107C50000073A36101F036F9BDE8104003F015B9D7
:107C60002023A3614FF40073F3E700BF1613002035
:107C70001B1300201C13002008B503F0CBF805F0FF
:107C80003FF803F056F8084B188060F07F0018703A
:107C9000188803F051F801F09BF818B1BDE80840CE
:107CA000FFF7C2BF08BD00BF343C002037B5044613
:107CB0000D4601F0F3F9002800F0CE80002D00F011
:107CC000CB8047F613639C423AD8B4F5FC4F07D2F9
:107CD00047F603439C4200F0BC80284603B030BD09
:107CE000A4F5FC44132CF8D801A353F824F000BFEA
:107CF000577D0008837D0008A77D0008CB7D000824
:107D0000F17D0008177E0008DB7C0008DB7C0008A2
:107D1000DB7C0008DB7C0008DB7C0008DB7C0008E7
:107D2000DB7C0008DB7C0008DB7C0008DB7C0008D7
:107D3000DB7C00083D7E0008457E00084D7E000883
:107D400047F643639C42C8D10122444B1A7000227B
:107D5000434B1A60C1E7002301200DF107018DF8A4
:107D60000730FEF761FB9DF80730042B02D013F0BB
:107D7000FD0FB2D1012211463A4B1878FEF7F6FBFF
:107D8000ABE7002301200DF107018DF80730FEF766
:107D90004BFB9DF80730042B02D013F0FD0F9CD154
:107DA00001220221E8E7002301200DF107018DF8EF
:107DB0000730FEF739FB9DF80730042B02D013F093
:107DC000FD0F8AD101220321D6E7002301200DF106
:107DD00007018DF80730FEF727FB9DF80730042BCD
:107DE00003D013F0FD0F7FF478AF01220421C3E725
:107DF000002301200DF107018DF80730FEF714FB79
:107E00009DF80730042B03D013F0FD0F7FF465AF0E
:107E100001220521B0E7002301200DF107018DF8B3
:107E20000730FEF701FB9DF80730DA1E012A02D960
:107E3000002B7FF452AF012206219DE70020FFF7BF
:107E400083FE4AE70122084B1A7046E7FFF792FECD
:107E500043E7FFF711FF40E705463EE71B1300200D
:107E60001C130020283C00201913002008B5084BE3
:107E70001B780BB9FFF7CCFD4FF0804320229A61AD
:107E80004FF400729A61BDE8084007F0ABBF00BF35
:107E9000171300202DE977470D46B44A8978044628
:107EA0001368A9B1032B00D80133B14E1360FEF75C
:107EB0003DFB33899C4207D195F80280B8F1000F51
:107EC0000AD007F0C3FF3060AA4B002698462FE087
:107ED000002BEAD0013BE8E7B37A0BB93360F3E754
:107EE00041462046FFF7E2FE86F80A80C6F8008089
:107EF0000028E9D1002003B0BDE870870AFB06F630
:107F000008EB060A9AF80A3013B948F806301FE061
:107F100049462046FFF7CAFE8AF80A9048F80690BC
:107F20000028E7D014E001360B2E03F10C030FD02C
:107F30001A899442F7D195F802904FF00C0AB9F1E2
:107F4000000FDBD007F082FF0AFB06F648F80600B8
:107F500029462046FFF716FE0028CBD029462046AA
:107F600001F098F90028C5D047F607639C422DD848
:107F7000B4F5FC4F1BD247F620039C4200F01A8157
:107F800047F603439C42B5D02946204600F05AFDEF
:107F90000028AFD029462046FFF78AF90028A9D04B
:107FA0002946204603B0BDE87047FEF741BEA4F560
:107FB000FC44013CAB78062C33D8DFE814F05000C9
:107FC0006B008600A100BC00E3002F00A4F5FC4379
:107FD000403B9AB2032AD7D8032BD5D801A252F836
:107FE00023F000BFF57F0008038000080F80000821
:107FF000F57E0008AB78002B3FF47CAFFEF736FE31
:1080000078E7AA785C4B02B101221A7072E7AB786C
:10801000002B3FF46FAFFEF701FC6BE7574A13707C
:1080200068E7002B3FF466AF554C2378012B3FF4F3
:1080300061AF002301200DF107018DF80730FEF735
:10804000F3F99DF80730042B03D013F0FD0F7FF4F4
:1080500051AF002201212078FEF788FA4AE7002B71
:108060003FF448AF464C2378022B3FF443AF002344
:1080700001200DF107018DF80730FEF7D5F99DF8C5
:108080000730042B03D013F0FD0F7FF433AF002231
:108090000221E0E7002B3FF42DAF394C2378032B6E
:1080A0003FF428AF002301200DF107018DF80730C0
:1080B000FEF7BAF99DF80730042B03D013F0FD0F3B
:1080C0007FF418AF00220321C5E7002B3FF412AF65
:1080D0002B4C2378042B3FF40DAF002301200DF12E
:1080E00007018DF80730FEF79FF99DF80730042B44
:1080F00003D013F0FD0F7FF4FDAE00220421AAE7A8
:10810000002B3FF4F7AE1E4C2378052B3FF4F2AE64
:10811000002301200DF107018DF80730FEF784F9E7
:108120009DF80730042B03D013F0FD0F7FF4E2AE6F
:10813000002205218FE7002B3FF4DCAE104C2378A2
:10814000062B3FF4D7AE002301200DF107018DF877
:108150000730FEF769F99DF80730DA1E012A02D9C7
:10816000002B7FF4C7AE0022062174E72013002005
:1081700018100020C80C00201A130020161300202D
:10818000283C0020002B3FF4B5AE154C2378002B83
:108190003FF4B0AE002501200DF107018DF8075026
:1081A000FEF742F99DF80730012B3FF6A3AE2A46B1
:1081B000294650E7AB78002B3FF4E6AE06F02CFAE8
:1081C0004FF0804330B14FF400129A614FF00072CB
:1081D0009A61D9E620229A614FF40072F8E700BF55
:1081E000283C0020014B1878704700BF2413002062
:1081F000012070472DE9784105460C464E4EDFF8C8
:108200003C8121462846FFF7F3FF50B1062C08D8E1
:10821000DFE804F004094E7E7E8B8B000022464B83
:108220001A60BDE8788132684ABBA5F12703032BA9
:108230000AD8DFE803F01F1A15020022FF231146B7
:108240002A20FDF77BFF01224FF4FA712846FDF743
:10825000B9FF2846FDF750FF07F0F8FD3060E0E772
:108260000022FF2311462920EBE70022FF231146BD
:108270002820E6E70023FF2219462720E1E71046E1
:1082800007F028FE47F22F53984203D905242C4BC0
:108290001C70B6E798F819300BB10324F7E7294BA7
:1082A0001B78002B3DD02846BDE87841FDF724BF60
:1082B0003068F8B9A5F12703032BB2D8DFE803F043
:1082C00015100B020022FF2311462A20FDF736FF6E
:1082D0000122C821BAE70022FF2311462920F5E731
:1082E0000022FF2311462820F0E70023FF22194631
:1082F0002720EBE707F0EEFD47F22F53984201D914
:108300000624C4E798F81930002BC8D00424BEE72F
:10831000FF224FF4FA612846FDF754FF2846FDF787
:10832000EBFE0022064B1A707BE70022044B1A700A
:10833000FEF774FAB7E700BF28130020640C002092
:1083400024130020283C0020014B1978FFF752BF6E
:10835000241300200120704770B506460D462A20E0
:108360000021FDF719FF10B90024204670BD00213F
:108370002920FDF711FF0028F6D000212820FDF765
:108380000BFF0028F0D000212720FDF705FF002873
:10839000EAD029463046FFF7DDFF04460028E3D047
:1083A0000022044B29461D70034B30461A60FFF72C
:1083B00021FFDAE7241300202813002070B50C46B3
:1083C0001546FEF705F8064680B17CB1134B5B7E7F
:1083D00013BB013C052C09D8DFE804F0030C12089C
:1083E00008182DB102212A20FFF7B6FF304670BDD4
:1083F0000121F8E715B102212920F5E70121FBE76A
:1084000015B102212820EFE70121FBE715B1022178
:108410002720E9E70121FBE71E46E7E7640C00207F
:1084200008B5094B1B786BB9FEF7E0F950B9074B5B
:108430001A783AB1064A527E22B95978BDE8084006
:10844000FEF794B808BD00BF24130020283C00208C
:10845000640C0020704700002DE97F4FDFF8148185
:1084600005460E46FFF7F6FFFFF7DAFF98F80040E3
:10847000002C36D0404D2B6813B907F0E7FC28607C
:10848000286807F027FD41F28733984207D998F80A
:108490000030013388F8003007F0D8FC286098F8E5
:1084A0000030013B032B17D8DFE803F0020C101457
:1084B0000022B420114605F0CFFA0024204604B073
:1084C000BDE8708F0022B4211046F4E70021B422E9
:1084D0000846F0E7B422F6E7002488F800402C6054
:1084E000ECE7264B1B788BB931462846FFF77EFB1D
:1084F0000028E2D03146284600F0D4FD044600288A
:10850000DBD031462846FDF777FED7E722462146E5
:1085100020460DF1040805F09FFAC2464FF00A0903
:10852000DFF85CB00A2259465046FCF72FF8154B8D
:10853000E2B2DB7FB3FBF9F1914215D9312B98F808
:1085400000000AD90023B4221946013404F00AFCC1
:108550000A2C08F10108E5D1C6E71D2B4FF00003F6
:10856000F1D81A46B421F0E7002398F800001A4623
:108570001946EAE71B1300201C13002016130020E5
:10858000643B0108640C002070B505460E46FDF7FB
:10859000CDFFFEF72BF910B10320FDF7CFFF2B78AD
:1085A0000A2B0ED10124084B31461C70074B28467C
:1085B0001B781BB907F046FF204670BD0BF024FA6C
:1085C000FAE70020F9E700BF31130020283C002023
:1085D000094B0A4A9A610A4B0A4A1A60BFF34F8F45
:1085E00009490A4BCA6802F4E0621343CB60BFF347
:1085F0004F8F00BFFDE700BF00000140EB9C374AF2
:10860000FC6F0020EFBEADDE00ED00E00400FA05D7
:1086100070B51B4CFEF7A8F9206858B1A37A4BB986
:1086200007F058FC6368984204D301212089A172A5
:10863000FFF73CFB00250126124C206858B1A37AB5
:108640004BB907F047FC6368984204D301212089A5
:10865000A672FFF72BFB0335212D04F10C04ECD19E
:10866000FFF7CAF9084B1A783AB100221A700AF0DB
:108670005DFC0028FBD1FFF7FFFA00F0DFFC70BDC6
:1086800018100020C80C002031130020012810B55C
:10869000044611D002280AD1FEF7A8F801380128B3
:1086A00005D80320FDF74AFF0020FEF7A5F8204675
:1086B000BDE8104007F070BB014B1870F7E700BF32
:1086C00074110020014808F02CBB00BFA0860100F7
:1086D0000E4BF0B51B6893B11E2202FB00300C4A12
:1086E0000123164630F8115032F8027BDCB2AF425B
:1086F00006D104F0070336F8133020F81130F0BD2E
:108700000133092BF0D10023F7E700BF3413002019
:10871000A04101082DE9F74304460D4606F010F884
:1087200000274FF01E092D4EDFF8B4807080E0B2B4
:10873000854250D900232B4A0FE01CF801EBBEF113
:10874000FF0F01D070451BD001310F29F5D1013346
:10875000DBB2062B02F10F023BD094460021ECE77E
:10876000012A07D1012B05D173888DF800708DF88F
:10877000017016E08DF801308DF80010738810E05C
:10878000D8F800202AB309FB032333F81120110A7B
:10879000D3B2120AE4D1002BECD18DF800308DF861
:1087A00001308DF80230009803F0C0FDC0F30723BC
:1087B0008DF80400C0F307408DF805308DF80600F1
:1087C0009DF8063020469DF805209DF8041004F021
:1087D000C9FA0134ABE703B0BDE8F0834C0D0020CB
:1087E00034130020500D002070B40D461143014396
:1087F00004D170BCB4220A48FBF73EBF00241E26F9
:108800000F2306FB04F10648013B13F0FF0305703C
:1088100042700844F8D10134062CF1D170BC704785
:108820003813002010B5064A0B461478012C05D1E8
:1088300058780978FFF74CFF204610BD0020FCE770
:108840004C0D0020024B1878431E58425841704787
:108850004C0D0020B4235843C1EB011111442230C8
:1088600000EB4100704704207047032838B510D84A
:1088700005290ED80E2A0CD8FFF7ECFF054603F0A9
:1088800087F90446681C03F083F944EA002080B2AB
:1088900038BD0020FCE7032870B51C460FD8052919
:1088A0000DD80E2A0BD8FFF7D5FF0546E1B203F02D
:1088B000D7F9210A681CBDE8704003F0D1B970BD3A
:1088C0002DE9F843002405460F461646A14600F15F
:1088D0002208BC4208EB040001D1BDE8F8832B1943
:1088E000B3F5347F04DA03F053F930550134F0E77F
:1088F00006F80490FAE72DE9F04105460E461746C2
:10890000002400F12208B44208EB040001D1BDE8C4
:10891000F0812B19B3F5347F02DA395D03F0A0F949
:108920000134F0E7032806D8B422504300F12201B5
:10893000014803F07BB9704738130020032838B58D
:108940000CD8084900230C78012C07D14D78A84297
:1089500006D10B70FFF7E6FF204638BD0020FCE78C
:108960001846FAE74C0D0020032806D8B4225043DD
:1089700000F12201014803F0A1B97047381300202B
:10898000074B084A10B51A600023074C237060702B
:1089900005F0D6FE60806078BDE81040FFF7E4BFC8
:1089A00034130020381300204C0D0020032808B594
:1089B0000CD8074A5070FFF7D7FF05F057FE2D2857
:1089C00002D02D2005F04FFE012000E0002008BD60
:1089D0004C0D0020032810B510D8094A117869B948
:1089E000012450701470FFF7BFFF05F03FFE2D28E3
:1089F00002D02D2005F037FE204600E0002010BDFB
:108A00004C0D0020032810B5044609D8FFF7ACFF31
:108A10002046FFF793FF2046BDE81040FFF7C6BF92
:108A200010BD000008B5054802F09CF9BDE80840FB
:108A30004FF434722221024803F0F8B8BC3E01081A
:108A40007A45010808B50A4609490346087801280D
:108A50000CD1A3F5A443203B1F2B06D9907820B15D
:108A600050781178FFF734FE002008BD0120FCE7A4
:108A70004C0D002070B504460078FF2801D105F0A8
:108A8000F5FD104900220D4611F8016BD3B2864264
:108A900003D00132122AF7D113462278FF2A01BFF0
:108AA00012220133DBB2B3FBF2F112BFFF2202FB51
:108AB0001133DBB2E85C18BF2270BDE8704005F0EE
:108AC000D2BD00BFC941010838B50B780546FF2B60
:108AD0000C4602D105F0CAFD2070284638BD10B5FD
:108AE00040F2F62420460021013403F07CF8B4F56E
:108AF000427FF7D110BD000010B505F0B7FD00238F
:108B00000246054911F8014BD8B2944203D0013313
:108B1000122BF7D1184610BDC941010810B5044603
:108B2000FFF7EAFF2146BDE8104000F2F62003F00F
:108B30005AB808B5FFF7E0FF00F2F62003F028F876
:108B4000082828BF002008BD70B505F08FFD072359
:108B5000124A12F8011B81421DD0013B13F0FF03A2
:108B6000F7D10724FFF7E5FF0130B0FBF4F304FB76
:108B700013040B4B13F8145003EB44035E7805F019
:108B8000DFFD31460246284605F0B3FDE0B2BDE800
:108B90007040FFF7C3BF0624E4E700BFDB410108D4
:108BA000BB41010838B5FFF765FFFFF7C2FF074B70
:108BB00013F8104003EB40035D7805F0C1FD294632
:108BC00002462046BDE8384005F093BDBB41010890
:108BD0002DE9F0431C4B85B01B7823B3002201AC78
:108BE0001146104604F038FF0025A0460A26DFF89B
:108BF0005C90174F0A2249464046FBF7C7FCFB7FB3
:108C0000EAB2B3FBF6F1914200D8BAB9312B207821
:108C10000DD90023B4221946013504F0A3F80A2D1A
:108C200004F10104E6D1012005B0BDE8F0831D2B5D
:108C30004FF00003EED81A46B421EDE70023207868
:108C40001A461946E8E700BFEC130020B0410108BE
:108C5000640C002038B5194D04462B78042B1BD822
:108C6000DFE803F003270E1F270000231A461946EA
:108C7000FDF764FAFF2232212046FDF7A3FA0BE04C
:108C8000FF231A461946FDF759FA0322C821204648
:108C9000FDF798FA01232B702046BDE83840FDF718
:108CA0002BBAFF231A461946FDF748FA0122C821BC
:108CB000E2E700232B70FFF7CDFFEDE7F51300206F
:108CC00038B5254B0446DB78244A13F0010314D051
:108CD0000023234920460B60012111701A461946D2
:108CE000FDF72CFAFF224FF496712046FDF76AFA41
:108CF0002046BDE83840FDF7FFB91A4DE97F0F293E
:108D0000E6D812780AB31A46FF21FDF717FA0122B6
:108D10004FF4FA712046FDF755FAEB7F002BE7D1AF
:108D20000F4D2B6813B907F091F8286028680028C8
:108D3000DED007F0CFF842F210739842D8D9002362
:108D400001202B60FEF7EEFED2E713461146FDF739
:108D5000F5F9FF22DCE700BF283C00209D0E002033
:108D6000F0130020640C0020FF2810B504461AD12F
:108D70000D4BD3F8683123F07F43402B0CD10022F8
:108D80001146FDF7DBF920460121FDF7EFF92046FA
:108D9000BDE81040FDF7B0B9B3F5800F03D1002353
:108DA00040221946EDE710BDA00E0020034B1878B5
:108DB00010F0030018BF0120704700BF503C002096
:108DC000024B40F2F220196802F066BF303C0020EE
:108DD00008B54023FF201A461946FDF7AFF90322D4
:108DE000FA21FF20FDF7EEF9FF20FDF785F90120BC
:108DF00008BD00004FF48022014B01209A617047AA
:108E0000000C00400422024B01209A61704700BF11
:108E1000000C004010B5134C01222046042109F03B
:108E20002EF90423A3614FF0804420224FF4004127
:108E30004FF0804009F023F923690B4AC3F3C03394
:108E4000204613704FF40071012209F018F9074B06
:108E500001201B789B0714BF4FF400734FF0007381
:108E6000A36110BD000C0040ED130020503C002019
:108E700008B5054B00211870FB20FDF78DF9BDE802
:108E80000840FB20FFF7E6BEF51300200020FFF7A7
:108E9000EFBF0000094A08B5138803F0800363F0B0
:108EA000F8031380FFF78CFF0022054B1A70FFF7C1
:108EB000EDFFBDE80840FFF712BE00BF303C0020C8
:108EC000FD13002010B51F4C01222046042109F09B
:108ED000D6F804232022A3614FF400414FF08040D4
:108EE00009F0CDF84FF080431B69174AC3F3C03334
:108EF00040F2F220137002F069FE144C206008B9B1
:108F0000FFF7C8FF2078C0F3C300FFF739FDFF2249
:108F1000C8214C20FDF756F94C20FDF7EDF8FF2253
:108F2000C821FB20FDF74EF9FB20FDF7E5F8FF22F5
:108F3000C8212020FDF746F92020FDF7DDF80120AB
:108F400010BD00BF000C0040ED130020303C00209D
:108F5000364B70B51B78064613B10024204670BD11
:108F6000057C4C2D05D0FB2D21D0202D57D101247F
:108F7000F4E72F4B1B78002BEFD1FFF763FC04467F
:108F80000028EAD12B4BDB78DB07E6D42A4BDB7FCA
:108F90000F2BE2D8737C33B103460246FF212846EB
:108FA00003F0E0FEDAE7034602460146F7E7204B0E
:108FB0001B78012BD1D1FFF745FC04460028CCD10A
:108FC000737CB3B13A20B37E727E317E03F0CAFE69
:108FD0004F20B37E727E317E03F0C4FEB37E727E7C
:108FE000317E502003F0BEFEB37E727E317E4E2075
:108FF000D6E70346024601463A2003F0B3FE234675
:10900000224621464F2003F0ADFE2346224621464C
:10901000502003F0A7FE234622462146E7E7FFF74C
:1090200011FC80F00100C4B298E700BFFE130020DD
:10903000F5130020283C0020640C00204FF08043F2
:109040001B69124A10B5C3F3C0331370FDF7CEFB92
:1090500060B90F4C206806F03DFFB0F57A7F05D966
:1090600006F0F4FE206053200AF0F2FBFDF7BEFB91
:1090700048B9084BDB7813F0010F14BF4FF480227E
:109080000422054B9A61012010BD00BFED130020A2
:10909000F8130020283C0020000C0040A83818BF1E
:1090A000012070472C4B37B51B7804460D46C3B1E1
:1090B00004238DF8043050238DF80530B4238DF847
:1090C0000630019803F032F9244BC0F30721C0F3B6
:1090D0000742187059709A70C9B2D2B2C0B204F087
:1090E000BBFCFFF7AFFB48B906F02CFD810705D5A7
:1090F000FF232C201A46194603F034FEFFF7A2FB8B
:1091000078B9174B187800F0E2FD022809D0154B0A
:109110001B78DA0605D5FF2348201A46194603F0C6
:1091200021FE114B1B7863B1104BDB78DB0708D5B0
:109130000F4B1B7863B10023FF221946382003F040
:1091400011FE29462046FFF743FD012003B030BD44
:109150001A46FF21F2E700BFFE1300202C3C00203E
:1091600006140020343C0020F4130020283C00208A
:10917000ED1300200120704710B505F04DFA0128CD
:109180004FF0804409D005F03FFA4FF40013A3617B
:109190004FF000730120A36110BD2023A3614FF4A1
:1091A0000073F7E713B505F061FA0128374C0CD1CD
:1091B00005F0A2FAC0F3072310F0FF008DF8053088
:1091C00013D1DBB2C3B10323237023780133DBB2A5
:1091D0000B2B237020D10023237005F0FDF9237899
:1091E0002B4AD05C05F03FFA22E0782810D005D851
:1091F000282809D0502809D00923E5E7A02809D05C
:10920000C828F9D10823DFE70423DDE70523DBE7DE
:109210000623D9E70723D7E70A2BDED105F06CFA3E
:10922000FF21C0F30742002005F063FA05F0ECF9D6
:1092300005F062FA2378C0F30742092B24D8DFE84F
:1092400003F01D2323050C0F1215181BFF2100200E
:1092500002B0BDE8104005F04CBAFF212820F7E726
:10926000FF215020F4E7FF217820F1E7FF21A02023
:10927000EEE7FF21C820EBE70021E8E7FF2002B07E
:10928000BDE8104005F0DABAC820F8E7FC1300206A
:109290000C10002073B5B84D04462B780E463BB138
:1092A0008B782BB10022114610462A7004F0D4FBB3
:1092B00047F61A639C421BD8B4F5FC4F1AD247F606
:1092C0002A039C4200F2938047F620039C424FD829
:1092D00045F202239C4200F0078265D8E72C00F09B
:1092E0006A81B4F5A44F00F0D581E32C00F04C81E5
:1092F000012491E0A4F5FC441A2CF9D801A353F8F9
:1093000024F000BF2B9400086F940008AF9400086D
:10931000F1920008F192000815950008EF940008FA
:10932000E5950008F19200081F940008F1920008EA
:10933000F1920008F1920008F1920008F192000801
:10934000F1920008F1920008F1920008F1920008F1
:10935000F19200084B9700088F970008B397000818
:10936000D79700080596000813960008099400088E
:10937000A4F5F044213C092CBAD801A353F824F0F9
:1093800019970008F1920008F7950008F19200087B
:10939000F1920008F19200085D96000871960008AD
:1093A000239600083D96000845F223239C4200F0D6
:1093B000428247F213039C4200F0CD8045F2212304
:1093C0009C4295D1B378002B92D1FFF73BFA00284D
:1093D0008ED06A4B1A7832B10022314645F22120F4
:1093E0001A70FFF71FFA0120644B187080E7B4F57C
:1093F000F84F7FF47DAFB478002C3FF479AF01F0E3
:10940000E5FFFFF7E5F807E0B4785D4B1CB10122FA
:109410001A70002400E01C70204602B070BDB378C2
:10942000002BF6D0FFF7BEFEF3E7FFF70BFA04467A
:109430000028EED1B378002B3FF45AAF514B1B7884
:10944000012B7FF455AFFEF7CDFE00287FF450AF1F
:1094500040232A201A461946FCF770FE0222962164
:109460002A20FCF7AFFE2A20FCF746FED4E7FFF7E0
:10947000E9F904460028CCD1B378002B3FF438AF8B
:10948000404B1D78022D7FF433AFFEF7ABFE002872
:109490007FF42EAF402329201A461946FCF74EFED2
:1094A0002A4696212920FCF78DFE2920DCE7FFF7CC
:1094B000C9F904460028ACD1B378002B3FF418AFAB
:1094C000304B1B78032B7FF413AFFEF78BFE002885
:1094D0007FF40EAF402328201A461946FCF72EFED3
:1094E000022296212820FCF76DFE2820BCE7FFF71A
:1094F000A9F900288DD1B378002B3FF4F9AE214BA8
:109500001B78002B7FF4F4AEFEF76CFE041E18BF30
:10951000012481E7FFF796F9044600287FF479AF2C
:10952000B378002B3FF4E4AE164B1B78062B7FF488
:10953000DFAEFEF757FE00287FF4DAAE4023272087
:109540001A461946FCF7FAFD022296212720FCF75D
:1095500039FE272088E7B478002C3FF4C9AE0023F9
:1095600040211A46FF20FCF7E9FD0121FF20FCF70E
:10957000FDFDFF2078E700BFFE130020FD13002053
:10958000F4130020283C0020B54B187800F09FFB16
:1095900002287FF4ADAEB34B1B78DA067FF5A8AE98
:1095A000FFF750F900287FF4A3AEE320B478B4B1FC
:1095B00000F08EFA30E7AA4B187800F088FB0228FA
:1095C0007FF496AEA74B1B78DB067FF591AEFFF7D5
:1095D00039F900287FF48CAEE720B478E7E700F093
:1095E0008DFA85E6A04B1B7803B1B3789F4A03F050
:1095F000010313700DE7B378002B3FF479AEFFF74A
:10960000A3FA06E7B378002B3FF403AF01232B70D6
:10961000FFE6B378002B3FF4FCAE62200AF018F9A5
:10962000F7E6B378002B3FF463AE05F00FF9FF289F
:109630007FF45EAE0220FFF71BFC59E6B378002BE7
:109640003FF456AE05F002F933283FF651AE022042
:10965000FFF70EFC332005F0F1F8DAE6B378002BC3
:109660003FF446AE05F06CF88F287FF641AEE1E797
:10967000B478002C3FF43CAE05F062F824283FF6A5
:1096800037AE0220FFF7F4FB00221146104604F02B
:10969000E3F9C1E6B378002B3FF4BBAE00212E20E6
:1096A000FCF77AFD6E4C0322FA212D20FCF78AFD8F
:1096B0002D20FCF721FD207800F009FB02287FF423
:1096C000A8AE207800F003FB30B9022000F070FA59
:1096D000002000F044FE9CE6207800F0F8FA022812
:1096E0007FF497AE0020F1E7B378002B3FF491AE02
:1096F00000212D20FCF750FD594C0322FA212E2089
:10970000FCF760FD2E20FCF7F7FC207800F0DFFA74
:1097100002283FF47EAED4E7B3789BB1544C0020CE
:10972000FFF7A6FB2078C0F3C300FFF71DF92078F0
:10973000C0F3C300FFF702F900224E4B601C1A7001
:10974000FFF730FAFFF73CFB63E6B378002B3FF4FA
:1097500060AE474C2078C0F3C300FFF705F92078CE
:10976000C0F3C300FFF7EAF80020611CFFF7ACF973
:10977000237860F3C6032370FFF722FB2078C0F341
:10978000C300FFF713F90020FFF772FB41E6B3783F
:10979000002B3FF43EAE364C2078C0F3C300FFF7F9
:1097A000E3F82078C0F3C300FFF7C8F80120611C7C
:1097B000DCE7B378002B3FF42CAE2D4C2078C0F3BF
:1097C000C300FFF7D1F82078C0F3C300FFF7B6F865
:1097D0000220611CCAE7B378002B3FF41AAE04F0F4
:1097E00045FF2D287FF415AEFFF72CF8204D0446D9
:1097F000A8B904F081FFB422C0F30721C0B204F07D
:1098000075FF2878C0F3C300FFF7E4F8204622462E
:109810002146FEF7E9FF0320FFF72AFBFCE5287845
:10982000C0F3C300FFF78AF80020FFF721FB0020F8
:10983000104B1870EDE5B378002B7FF459ADFFF7AE
:1098400001F800283FF454AD0A4B1A78002A3FF47F
:10985000CAAD0022314645F223201A70C1E500BF8F
:1098600006140020343C0020283C0020EC1300208B
:10987000303C0020FD1300200520704704280DD83F
:1098800005290BD80E2A09D85A23C1EB011103FB75
:109890000011034B0A4433F812007047012070474F
:1098A000F641010805207047042808D839B9054B4E
:1098B00082F0010202EB400033F8100070470120F3
:1098C000704700BFE241010808B5302383F31188D7
:1098D000012100F00F039940202220F00F0008F032
:1098E000CEFB002383F3118808BD000038B50F2498
:1098F0000B4D55F8040B421C01D0FFF7E5FF013C6E
:1099000014F0FF04F5D10624064D55F8040B431C52
:1099100001D0FFF7D9FF013C14F0FF04F5D138BDA9
:109920004C480108884801082DE9F843DFF8948085
:10993000174658F8213005465A1C0E4640D03022B2
:1099400082F31188012223F00F0903F00F0302FABA
:1099500003F421464846240408F091FBC9F8184056
:10996000002484F3118801F082FD6FEA070C164889
:10997000AA1E0A3550F8041B32F8023FB1F1FF3F2E
:109980001AD021F00F0EDEF810E001F00F012EFAD0
:1099900001F1C90710D401243B4313809542E9D15A
:1099A00058F82600431C01D0FFF78EFF21463046B1
:1099B000BDE8F84301F06EBD0CEA03031380EDE748
:1099C000BDE8F8834C4801088848010810B50C240C
