:04000005080041B9F5
:020000040800F2
:103F000000312E3000000000000000000000000022
:103F100079E42D3445504F4D414B455220503735B3
:103F200000000000000000000000485300000000F6
:103F30000000000000000000000000000000000081
:103F40000000000000000000000000000000000071
:103F50000000000000000000000000000000000061
:103F60000000000000000000000000000000000051
:103F70000000000000000000000000000000000041
:103F80000000000000000000000000000000000031
:103F90000000000000000000000000000000000021
:103FA0000000000000000000000000000000000011
:103FB0000000000000000000000000000000000001
:103FC00000000000000000000000000000000000F1
:103FD00000000000000000000000000000000000E1
:103FE00000000000000000000000000000000000D1
:103FF00000000000000000000000000000000000C1
:1040000000040020B9410008BB410008BB41000882
:10401000BB410008BB410008BB4100086813010018
:1040200065892C64BB410008BB410008610C010894
:10403000BB410008BB410008BB410008A51E0108A8
:10404000BB410008BB410008BB410008BB41000860
:10405000BB410008BB4100082975000869750008CC
:10406000A9750008ED75000831760008BB4100080D
:10407000BB410008BB41000875250108BB41000891
:1040800075760008BB410008BB410008BB41000831
:10409000BB410008BB410008BB410008BB41000810
:1040A000BB410008BB4100086121010875210108DE
:1040B000BB410008BB410008BB410008BB410008F0
:1040C000C51E010815770008BB410008C977000824
:1040D000BB410008BB410008BB410008BB410008D0
:1040E00072B6264880F30888254880F30988254859
:1040F00025490860022080F31488BFF36F8F0CF00D
:10410000DBFA0CF0B5F84FF0553020491B4A9142CC
:104110003CBF41F8040BFAE71D49194A91423CBFE4
:1041200041F8040BFAE71B491B4A1C4B9A423EBF5D
:1041300051F8040B42F8040BF8E700201849194A1B
:1041400091423CBF41F8040BFAE70CF0B9FA0CF0CD
:10415000B4FA154C154DAC4203DA54F8041B8847E9
:10416000F9E707F0FDF8124C124DAC4203DA54F8AF
:10417000041B8847F9E70CF0A1BA000000040020F6
:10418000000C00200040000808ED00E000000020C6
:1041900000040020D04C0108000C002098110020E1
:1041A0009811002014400020E0400008E040000882
:1041B000E0400008E040000892E700F000F8FEE769
:1041C0002DE9F04FC1F80CD0C3689D46BDE8F08FD3
:1041D000002383F311882846A04700200CF074FCCC
:1041E000FEE70CF0A7FB00DFFEE7000053B94AB979
:1041F000002908BF00281CBF4FF0FF314FF0FF30EF
:1042000000F074B9ADF1080C6DE904CE00F006F8C9
:10421000DDF804E0DDE9022304B070472DE9F04742
:104220008C460446089E002B40F086808A42154644
:1042300048D9B2FA82F24AB1C2F1200701FA02F378
:1042400020FA07F7954047EA030C94404FEA154ED1
:10425000BCFBFEF71FFA85F80EFB17C307FB08F936
:10426000210C41EA0343994509D9EB1807F1FF31C5
:1042700080F0E180994540F2DE80023F2B44A3EBC1
:104280000903B3FBFEF00EFB103300FB08F1A4B2F0
:1042900044EA0344A14209D92C1900F1FF3380F00C
:1042A000C880A14240F2C58002382C4440EA074051
:1042B0000027641A1EB10023D440C6E900433946E2
:1042C000BDE8F087002A54D0B2FA82F2002A40F00A
:1042D000B4800127491B4FEA15481FFA85F9B1FB45
:1042E000F8FE08FB1E1109FB0EF04FEA144C4CEAD5
:1042F0000143984207D9EB180EF1FF3102D29842E0
:1043000000F2EB808E461B1AB3FBF8F008FB10336B
:1043100009FB00F9A4B244EA0344A14507D92C19CA
:1043200000F1FF3302D2A14500F2DB801846A4EB76
:10433000090440EA0E40BDE78B4208D9002E75D033
:104340000027C6E9000138463946BDE8F087B3FAD0
:1043500083F77FB98B4202D3824200F2BC80841A79
:1043600061EB030301209C46002EA8D0C6E9004C57
:10437000A5E7FFDEC7F12005BB4022FA05FC4CEAA9
:10438000030C21FA05F44FEA1C4EB4FBFEF91FFAA8
:104390008CF80EFB194420FA05F3B94009FB08FA22
:1043A00019430B0C43EA0444A24502FA07F200FA4F
:1043B00007F30BD91CEB040409F1FF3080F089806E
:1043C000A24540F28680A9F102096444A4EB0A04E4
:1043D000B4FBFEF00EFB104400FB08FA89B241EA80
:1043E0000444A24508D91CEB040400F1FF316CD24F
:1043F000A2456AD90238644440EA0940A0FB028918
:10440000A4EB0A044C454146CE4655D352D0002E6B
:104410006AD05A1A64EB0E0404FA05F522FA07F37F
:10442000FC401D43C6E90054002748E737463046A4
:1044300045E718463AE70F4621E79540C2F12003C9
:1044400021FA03F04FEA1548B0FBF8F71FFA85F997
:1044500008FB170E24FA03FC914007FB09FA4CEA0B
:104460000101080C40EA0E40824504FA02F407D923
:10447000281807F1FF332AD2824528D9023F284461
:10448000A0EB0A00B0FBF8FC08FB1C000CFB09F3D6
:1044900089B241EA00418B4208D969180CF1FF301A
:1044A00011D28B420FD9ACF1020C2944C91A4CEA43
:1044B000074714E74345AAD2B8EB020169EB0C02A7
:1044C00001389646A3E78446F0E7084694E71F467E
:1044D000D6E781467AE7384646E7AEF1020E2B442E
:1044E00011E702382C4422E73746E8E6704700BF60
:1044F00008B5062000F0C2FA01200DF01BFB00BF3A
:10450000024B0146186800F055B900BF000C0020AE
:10451000024B0146186800F0F9B800BF000C0020FB
:10452000032A70B412D940EA0105AD0704460B46D0
:1045300020D11946204653F8045B54F8046BAE4270
:1045400018D1043A032A20461946F2D8541E72B1F3
:1045500003780A789A4208BF241806D00CE010F8B5
:10456000013F11F8012F934206D1A042F7D100205C
:1045700070BC7047541EEBE7981A70BC704700BFC0
:10458000844641EA000313F0030349D1403A23D3A0
:104590000B6803604B6843608B688360CB68C360C3
:1045A0000B6903614B6943618B698361CB69C361AB
:1045B0000B6A03624B6A43628B6A8362CB6AC36293
:1045C0000B6B03634B6B43638B6B8363CB6BC3637B
:1045D00040304031403ADBD230320BD30B680360BD
:1045E0004B6843608B688360CB68C36010301031C8
:1045F000103AF3D20C3205D351F8043B40F8043B97
:10460000043AF9D2043208D0D2071CBF11F8013B9A
:1046100000F8013B01D30B8803806046704700BF60
:10462000082A13D38B07B1D010F00303AED0C3F127
:104630000403D21ADB071CBF11F8013B00F8013B51
:10464000A4D331F8023B20F8023B9FE7043AD9D3C8
:10465000013A11F8013B00F8013BF9D20B780370E5
:104660004B7843708B78837060467047F0B4860750
:1046700046D0541E002A3CD0CAB2034602E014F1D0
:10468000FF3436D303F8012B9D07F8D1032C29D929
:10469000CDB245EA05250F2C45EA054533D9A4F1ED
:1046A0001006360903F1200707EB061703F1100285
:1046B00042E9045542E902551032BA42F8D1721C5F
:1046C00014F00C0F03EB021204F00F0613D0331F8B
:1046D00023F003030433134442F8045B9342FBD1F9
:1046E00006F003042CB1C9B21C4403F8011B9C4220
:1046F000FBD1F0BC704734461346002CF3D1F8E7E9
:1047000014460346C2E71A462646E0E700293AD097
:1047100038B551F8043C0C1F002BB8BFE41805460F
:1047200000F05AFA224B1A682AB1A2420DD9216828
:104730006018824221D0626028461C60BDE8384083
:1047400000F04CBAA34203D81A465368002BF9D1A3
:1047500011685018A04217D022D8216860188342EF
:1047600003BFD3E900030918C4E900136360546070
:104770002846BDE8384000F031BAD2E900020144D1
:10478000C4E90012D8E770472068014450188342FA
:104790001160EDD1D3E900030144C2E90013E7E75A
:1047A0000C2328462B60BDE8384000F017BA00BF44
:1047B00098110020F8B5CD1C25F0030508350C2D07
:1047C00038BF0C25002D064633DBA94231D82A4FCD
:1047D00000F002FA3A6852B113685B1B04D43FE060
:1047E00023685B1B29D522465468002CF8D17968D0
:1047F00000293BD0294630460DF080F9431C28D0D3
:10480000C41C24F00304A04205D0211A30460DF048
:1048100075F901301DD02560304600F0DFF904F154
:104820000B0020F00700231DC21A01D01B1AA35051
:10483000F8BD0C2200203260F8BD0B2B05D8A24237
:10484000636811D05360E7E7144623601C44256079
:10485000E2E70C233046336000F0C0F90020F8BDD9
:104860000B2BF1D8144653683B60D5E730460DF06A
:1048700045F97860BEE700BF9811002038B5124BAB
:1048800005461C68A06B18B10023C0E9045338BD6D
:104890001820FFF735FEA06378B101220023C0E99C
:1048A00004230A4B0B24836000230949094A8481AD
:1048B000C0E90012C0E9045338BD0246064B42214C
:1048C000064800F041F900BF000C0020ECDE0500B6
:1048D0000E33CDAB34126DE6004C0108184C0108C4
:1048E00038B51A4B1C68A26B92B114691849536908
:1048F00001FB04F1174800FB0313A4FB0045611CF6
:104900001D4445F1000323F00040C2E9041338BD03
:104910001820FFF7F5FD0246A06388B101240025A9
:104920000B21C0E904450C4B0948136003460B4DAD
:104930000B4C91810B49C2E90154C2E9041338BD03
:10494000094B4E21094800F0FFF800BF000C002081
:104950002DF451582D7F954C0E33CDAB34126DE6AE
:10496000ECDE05002E7F954C004C0108184C010828
:1049700010B580210446FFF71DFF606440B100229E
:10498000031F7C3043F8042F8342FBD1002010BD6D
:104990004FF0FF3010BD00BF436C0BB100207047DB
:1049A000E6E700BF1F2970B5054608D8436C1646D8
:1049B0000C464BB153F8240043F8246070BD162216
:1049C0004FF0FF302A6070BDFFF7D2FF08B96B6C63
:1049D000F0E74FF0FF3070BD1F2938B5054620D8ED
:1049E000426C0C466AB152F8213053B1012B16D0FB
:1049F000591C10D00025204642F8245098472846DC
:104A000038BD284600F070F8224601462846BDE829
:104A1000384000F055B8162301202B6038BD002027
:104A200038BD16234FF0FF302B6038BD1F2921D829
:104A300038B5436C05460C4683B153F8242003EB8C
:104A400084034AB1511C10D0012A0CD00025204605
:104A50001D609047284638BD012038BDFFF788FF0C
:104A600028B96B6CE9E7032038BD022038BD4FF050
:104A7000FF3038BD4FF0FF30704700BF024B01469A
:104A80001868FFF7A9BF00BF000C0020024B0A46C0
:104A900001461868FFF786BF000C0020034B18681A
:104AA000436C0BB10020704762E700BF000C002090
:104AB000024B01461868FFF7B9BF00BF000C002089
:104AC00070B50D460023074C064611462846236064
:104AD0000DF038F8431C00D070BD2368002BFBD0CC
:104AE000336070BD104000200DF034B820F0030199
:104AF00010F00300C0F1000051F8043B00F1040C79
:104B00004FEACC0C6FF000021CBF22FA0CF21343E8
:104B10004FF0010C4CEA0C2C4CEA0C4CA3EB0C02B1
:104B200022EA030212EACC1204BF51F8043B04301B
:104B3000F4D0C2F1000102EA0102B2FA82F2C2F13B
:104B40001F0200EBD200704700B50A4C05462068F2
:104B500085B01C46C06852B1074BCDE901320091C7
:104B60002B462246054900F023F8FFF7C1FC044B11
:104B70001A46F2E7000C00204C4C01085C4C01087E
:104B8000584C010808B513460022FFF7DDFF00BFAF
:104B90000CB410B582B004AC54F8042B2346019435
:104BA00000F060F802B0BDE8104002B0704700BFEE
:104BB0000EB430B582B005AC54F8042B054D014657
:104BC00023462868019400F04DF802B0BDE830405B
:104BD00003B07047000C0020704700BF704700BF53
:104BE0009368013B002B93600FDA10B49469A342E1
:104BF00008DB0A2906D01368581C10601970084693
:104C000010BC704710BC00F07BBB1368581C1060D0
:104C100019700846704700BF9BB1F8B513440F46A2
:104C200006465D1E541E01E0AC4208D03A4614F818
:104C3000011F3046FFF7D4FF431CF5D1F8BD00201B
:104C4000F8BD0020704700BF936810B5144613B933
:104C50005360184610BD00F013FE0023C4E9013371
:104C600010BD00BF2DE9F04F9FB08B4690461C460B
:104C7000039018B18369002B00F0B980A34B9B45CA
:104C800000F0BB80A24B9B4500F0C980A14B9B4527
:104C900004BF039BD3F80CB0BBF80C30180740F1ED
:104CA000B480DBF81030002B00F0AF8030230021FF
:104CB00020228DF8323098F8003005940B918DF851
:104CC0003120954E0127002B00F08980252B00F024
:104CD0001781454603E0252B00F0A58025466B781B
:104CE0006C1C002BF7D1B4EB080A78D0424653462F
:104CF00059460398FFF790FF013070D00B9B6A78FC
:104D000053440B93002A6AD000234FF0FF32013442
:104D10000693CDE908338DF85B301C93079206E0CB
:104D20002C46069B801B07FA00F018430690254688
:104D3000052215F8011B304600F0E6FFAA460028C0
:104D4000EED1069BD90644BF20228DF85B201A07BE
:104D500048BF2B22217848BF8DF85B202A2967D1D4
:104D6000059A1168043200290592C0F29E800991CB
:104D70006178A51C2E2974D0684C0322204600F0CF
:104D8000C3FF002800F087804022069B001B02FA28
:104D900000F00343069305F101082B78062219461B
:104DA0005F488DF8303000F0AFFF002800F08380BE
:104DB0005C4B002B72D005AB00935A465A4B06A9A8
:104DC0000398AFF300808146B9F1FF3F07D00B9BFA
:104DD0004B440B9398F80030002B7FF477AFBBF86F
:104DE0000C305B0618D40B981FB0BDE8F08F00F0B4
:104DF00027FD464B9B457FF445AF039BD3F804B09A
:104E0000BBF80C3018073FF54CAF5946039800F03B
:104E1000D7FA00283FF44AAF4FF0FF30E4E7039B96
:104E2000D3F808B038E7B4EB080A3FF46DAF5DE79C
:104E3000A1F13002092A88BFA2469BD8099B01E054
:104E40002C460135297803EB830302EB4303A1F1E0
:104E50003002092AAA46F3D92E2904F10205099342
:104E60008AD19AF801102A292FD1059B0AF1020054
:104E70001A680433002A079205939AF802100AF17F
:104E8000030538DB254C82460322204600F03CFF18
:104E900000287FF479AFA84655467EE7059B073387
:104EA00023F007030833059391E7494243F00203D7
:104EB000099106935CE705AB00935A461A4B06A985
:104EC000039800F0D3F881467EE70023A1F1300279
:104ED000092A079301D915E05546697803EB830346
:104EE00002EB4303A1F13002092A05F1010AF3D9CB
:104EF0000235079340E74FF0FF33824607933BE7C5
:104F0000444601E7AA46013536E700BFDC3A01080E
:104F1000BC3A01089C3A01088C4C0108944C0108E9
:104F2000984C010800000000194C000810B4044C13
:104F300013460A460146206810BCFFF793BE00BF27
:104F4000000C00202DE9F0470C460969A568914640
:104F50008D42B8BF0D46156094F8431006461F46B3
:104F6000DDF8208011B16A1CC9F800202368990679
:104F70005CD5D9F800200232C9F80020236813F06C
:104F8000060F19461DD1E1688A1A002AD8BF1946B2
:104F900017DD002504F1190A05E0E368D9F80020BF
:104FA0009B1AAB420CDD0123524639463046C047BE
:104FB000013005F10105F0D14FF0FF30BDE8F08779
:104FC000216894F84330003318BF01238A060AD5BC
:104FD0003021E21882F8431094F845105A1C2244FC
:104FE00082F84310023304F1430239463046C04789
:104FF0000130E1D02368A26803F00603042B216985
:105000001DD08A4226DD4FF00009521A9144002536
:105010001A3401E04D451DDA012322463946304657
:10502000C047013005F10105F4D1C5E713F0060FC3
:1050300013D094F84330003318BF0123D3E7D9F8D5
:105040000000E3688A42A3EB000323EAE379DCDC97
:10505000002BDCDC0020BDE8F087E168D9F80020F7
:105060008A1A002AD8BF194693DCAAE72DE9F04333
:105070000C46097E85B06E2906461746984604F10F
:10508000430C0C986DD039D9732900F0F48044D9C1
:10509000752900F00281782940F00F817823226879
:1050A000DFF854E284F845300168150651F8043BF6
:1050B000016040F1A180D10744BF42F0200222608C
:1050C000002B00F093801022002184F843106068C8
:1050D0000028A060C0F2C680216821F00401216090
:1050E000002B40F0A280002840F0BE806546082AD0
:1050F00000F0AB80ACEB0503236141E0632900F0D5
:10510000E3801AD8002938D0582940F0D68084F896
:1051100045102268DFF8E4E1C6E76F2900F0BD80A2
:10512000702940F0CA8078232268DFF8CCE142F091
:105130002002226084F84530B6E7642902D069294C
:1051400040F0BB8022680368110603F1040557D5BF
:10515000196805600B46002959DB0A22DFF89CE13B
:10516000B5E7036822681D1D6169056015061B68A7
:1051700002D4500600F1BB8019600023654623610C
:10518000CDF800803B4603AA21463046FFF7DAFE01
:10519000013020D02A46236939463046C0470130C5
:1051A00019D0226803989207E36819D51A1A002AC1
:1051B00016DD002504F1190904E0E36803981A1AC2
:1051C000AA420DDD01234A4639463046C047013028
:1051D00005F10105F1D14FF0FF3005B0BDE8F083D6
:1051E0009842B8BF184605B0BDE8F0832168102288
:1051F00021F02001216067E7500648BF9BB25AE7C3
:105200005106A5D5B3F9003005601946A3E72D2056
:1052100061685B42002984F84300A16002DB22F050
:10522000040222600A22DFF8D4E0654600E00B4663
:10523000B3FBF2F102FB11301EF80000934205F8B7
:10524000010DF4D2082A7FF455AF2368DB077FF500
:1052500051AF626823699A423FF74CAF3023013D5A
:105260002B7047E7002BE0D19EF8003004F1420597
:1052700084F842303BE703686268191D01601D68CD
:105280000021284600F040FD002832D0401B60601D
:105290002061002384F8433072E72268036812F02B
:1052A000800F03F104051AD01B6805606F290CBF3D
:1052B00008220A22DFF844E006E7012384F84210BE
:1052C000236104F14205E4E70122036804F1420589
:1052D000191D1B68016084F842302261D9E712F081
:1052E000400F0DBF1B6805601B880560DEE7198055
:1052F00043E76068CCE700BFB44C0108A04C01084C
:10530000F8B50D461446064608B1836943B3254BEC
:105310009C422AD0244B9C4229D0244B9C4208BF5B
:10532000F468A269A389A2601A0722D5236903B38E
:1053300022686169D31AEDB299422F4629DD013303
:10534000A168501C0139A1602060157062699A4201
:1053500016D0A389DB0701D50A2D11D03846F8BD38
:1053600000F06EFA0F4B9C42D4D17468D9E7B46850
:10537000D7E72146304600F023F838B92369D7E74C
:105380002146304600F032F90028E7D04FF0FF37D1
:10539000E4E72146304600F029F90028F6D1012340
:1053A0002268CDE7DC3A0108BC3A01089C3A0108C2
:1053B000024B0A4601461868FFF7A2BF000C002006
:1053C0003B4B70B51D6806460C460DB1AB69DBB1B1
:1053D000384B9C421ED0384B9C424AD0374B9C42A3
:1053E00008BFEC68B4F90C2093B2190718D52069EE
:1053F00008B313F001022CD000226369A2605B4263
:10540000A36160B3002070BD284600F019FA294B53
:105410009C42E0D16C68B4F90C2093B21907E6D431
:10542000DD063CD5580726D4206942F00803A38145
:105430009BB20028DDD103F42072B2F5007FD8D0F2
:105440003046214600F016FCA389206913F00102C2
:10545000D2D1990758BF6269A2600028D2D1B4F9AD
:105460000C301A06CFD543F04003A3814FF0FF3034
:1054700070BDAC68B6E7616B51B104F14403994269
:1054800004D03046FFF742F9B4F90C2000236363DF
:105490000023206922F02402C4E90003C5E70923A0
:1054A00042F0400233604FF0FF30A28170BD00BF78
:1054B000000C0020DC3A0108BC3A01089C3A0108C3
:1054C0002DE9F0418F890C463A07804641D44B685C
:1054D000002B59DDE66A002E53D0002317F48052CA
:1054E000D8F80050216AC8F8003051D10123404655
:1054F000B047431C5FD0A789E66A216A7F0705D5BC
:105500006268636B801A0BB1236CC01A02460023D9
:105510004046B047461C45D1D8F80030B4F90C20BD
:10552000002B55D01D2B01D0162B5AD100222369F8
:10553000C4E90032616BC8F8005011B304F14403B0
:10554000994202D04046FFF7E1F800206063BDE8D1
:10555000F0810E69AEB10D680E60B90714BF00236B
:105560006369AD1BA3600AE02B463246A76A216A35
:105570004046B8470028A5EB000506440ADD002D8B
:10558000F2DC0020BDE8F0810B6C002BA2DCF8E718
:10559000606DB3E7A3894FF0FF3043F04003A38170
:1055A000BDE8F081002322696360A3892260DA04E8
:1055B000C0D56065BEE7D8F80030002B9BD01D2B0E
:1055C0000CD0162B0AD0A38943F04003A381D9E75E
:1055D0002169C4E90013D304ACD5EAE7C8F8005048
:1055E000CFE742F04002A281CCE700BF0B6923B3B2
:1055F00010B5044682B008B18369BBB1104B994223
:1056000012D0104B994216D00F4B994208BFE16857
:10561000B1F90C302BB1204602B0BDE81040FFF7C5
:105620004FBF002002B010BD6168F1E7019100F0AA
:1056300007F90199E2E7A168EAE70020704700BF97
:10564000DC3A0108BC3A01089C3A010820B1054B3C
:1056500001461868FFF7CABF034B0449186800F0F9
:10566000B3BA00BF000C0020983A0108ED550008BD
:1056700000207047014900F0A7BA00BFED550008AF
:105680000020704770B568254A1E05FB02F50E46DE
:1056900005F17401FFF78EF8044640B100210C308B
:1056A000666005F168022160A060FEF7DFFF20461A
:1056B00070BD00BF1E4B70B51D680646AB6943B395
:1056C0004835D5E90134013B05D51EE0013B5A1CA4
:1056D00004F1680419D0B4F90C20002AF6D1002591
:1056E000144B6566C4E90055A560C4E90455A5617D
:1056F0002946E360082204F15C00FEF7B7FFC4E925
:105700000D55C4E91255204670BD2C682CB12546B4
:10571000D7E7284600F010F8D2E704213046FFF71B
:10572000B1FF044628600028F1D10C233360EAE77A
:10573000983A01080100FFFF2DE9F84F0023334A92
:10574000C0E9123312680365904208BF0123304953
:1057500008BF836181620546FFF7ACFF6860284699
:10576000FFF7A8FFA86028460024FFF7A3FF042343
:105770006E68E8602146F3607466C6E90044B46070
:10578000C6E90444B46106F15C000822FEF76EFF2E
:10579000DFF888B0AF68DFF888A0DFF88890DFF81E
:1057A00088801C4BC6E9086BC6E90AA9C6F8308098
:1057B0002146FB6008227C66C7E90044BC60C7E95B
:1057C0000444BC6107F15C00FEF750FFEE68124B29
:1057D000C7E9087BC7E90AA9C7F830802146F3600A
:1057E0007466C6E90044B460C6E90444B46106F1D5
:1057F0005C000822FEF73AFF0123C6E9086BC6E900
:105800000AA9C6F83080AB61BDE8F88F983A010864
:10581000755600080900010012000200AD5E000884
:10582000D55E0008155F0008355F0008024B03498C
:10583000186800F0C9B900BF983A0108ED55000892
:10584000836903B978E77047704700BF704700BFAE
:10585000704700BF704700BF024B0349186800F053
:105860008FB900BF000C002071560008024B03499D
:10587000186800F085B900BF000C002081560008B0
:105880009368002B00F0FC802DE9F04FB1F90C304B
:105890000C469BB2190783B0824690462BD52269ED
:1058A0004AB313F00202D8F8006033D000273D4617
:1058B000D4F828B0216ADFF8C492C5B14D452B4613
:1058C0003A4628BF4B465046D847002840F3CE8082
:1058D000D8F8083007441B1A2D1AC8F80830002BD6
:1058E00000F0B380D4F828B0216A002DE6D1D6E9C3
:1058F00000750836E1E721465046FFF761FD0028B4
:1059000040F03781B4F90C30D8F800609BB213F046
:105910000202CBD113F0010940F0B4804D46A768D4
:105920002068002D55D09A0540F1C080AF42BB469B
:1059300000F2EE8013F4906F2FD0D4E9041707EB38
:105940004707A0EB010B07EBD777681C7F10584483
:10595000B8423A4684BF07463A465B0540F1F080BC
:1059600011465046FEF726FF002800F0FC805A46FC
:1059700021690190FEF704FEA289019B22F4906246
:1059800042F08002A281A7EB0B0203EB0B006761E0
:10599000AB462F4623612060A2605A46494600F07C
:1059A000F9F92368A2685B44AB460025D71BA760C2
:1059B0002360D8F80870D944A7EB0B07C8F8087023
:1059C000002F42D0B4F90C30A7689BB22068002D9C
:1059D000A9D1D6E900950836A3E70BF1080353F8DF
:1059E000047C9B4653F8086C0833002FF7D03A46E6
:1059F0000A21304600F088F9002854D00130A0EB8D
:105A000006094B4620682169BB4228BF3B468842B5
:105A1000626903D9A5681544AB421ADC9A4200F3C7
:105A200081801346A56A3246216A5046A847051E62
:105A30001CDDB9EB05096ED00120D8F808302E44E2
:105A40005B1B7F1BC8F8083013BB002003B0BDE808
:105A5000F08F31462A4600F09DF9236821462B44F9
:105A600023605046FFF7C2FD0028E2D0B4F90C30A5
:105A70004FF0FF3043F04003A38103B0BDE8F08F47
:105A80000020704733469146104617464E469B46C7
:105A9000002FA2D00028B4D13A460A21304600F0A7
:105AA00033F90028AAD17B1C9946ABE723698342CE
:105AB00017D36269AA4214D82F4BA76A9D4294BF9C
:105AC0002B466FF0004393FBF2F3216A02FB03F3D2
:105AD00050464A46B847B0F1000BC7DDA5EB0B05B1
:105AE00067E7AF4228BF2F4649463A4600F052F9D1
:105AF000A3682268DB1B3A44BB46A3602260002BEC
:105B0000ECD121465046FFF771FD0028E6D0ADE705
:105B10002F46AB4641E721465046FFF767FD002878
:105B20008BD0A3E71A4631461D46019300F032F9A7
:105B3000A1682268019BC91A1344A160236078E719
:105B4000504600F08DF9034600287FF41CAF216910
:105B50005046FEF7DBFD0C22B4F90C30CAF80020E9
:105B600023F0800384E70C22B4F90C30CAF800203B
:105B70007EE74FF0FF3069E7FEFFFF7F00FCFF7F0D
:105B80002DE9F04110F148071AD088460026D7E9E0
:105B90000154013D0ED4A389013D012B06D9B4F96E
:105BA0000E30013302D02046C04706436B1C04F17F
:105BB0006804F0D13F68002FE9D13046BDE8F0819C
:105BC0003E463046BDE8F0812DE9F84310F1480625
:105BD0001ED0884607464FF00009D6E90154013D22
:105BE00010D4A389013D012B08D9B4F90E3001333B
:105BF00004D021463846C04749EA00096B1C04F12D
:105C00006804EED13668002EE7D14846BDE8F88337
:105C1000B1464846BDE8F88370B50C46B1F90E10A0
:105C200096B0002916461D4613DB6A460BF073FF3B
:105C300000280EDB019A4FF4806302F47042A2F553
:105C40000052B2FA82F2002052092A60336016B084
:105C500070BD0022A3892A601B0604D540230020C2
:105C6000336016B070BD4FF480630020336016B00F
:105C700070BD00BF8A890B46920706D5012103F14A
:105C8000470259611A601A61704770B582B001AB62
:105C90006A460C460646FFF7BFFF009905463046A8
:105CA000FEF788FDB4F90C3070B1164A0099B26263
:105CB000019A43F08003A3812060C4E904018AB9FA
:105CC0002B43A38102B070BD9A05FBD4012123F0C0
:105CD000030304F1470243F00203A38161612260E0
:105CE0002261EFE73046B4F90E100BF020FF10B937
:105CF000B4F90C30E4E7A38923F0030343F0010374
:105D00001BB2DDE775560008830770B4CDB23DD0F5
:105D1000541E0AB30378AB421FD0431C05E014F1B4
:105D2000FF3419D30278AA4217D013F0030F184694
:105D300003F10103F3D1032C11D84CB30378AB4228
:105D40000BD00444431C02E00278AA4205D09C42D6
:105D5000184603F10103F7D1002070BC70470246DA
:105D60000E02B6B22E4346EA06461368104673404A
:105D7000A3F1013121EA030313F0803F02F1040291
:105D8000DCD1043C032C1046EFD8D6E71446D2E70A
:105D90002046E2E78842F0B40DD98B1883420AD935
:105DA000841832B1224613F8014D994202F8014D90
:105DB000F9D1F0BC70470F2A0ED80346541E002AB2
:105DC000F7D001340C44013B11F8012BA14203F838
:105DD000012FF9D1F0BC704740EA01039B073AD18B
:105DE000A2F110073F0901F1200606EB071601F1A9
:105DF000100300F1100453F8105C103344F8105CE9
:105E000053F81C5C103444F81C5C53F8185C44F8DC
:105E1000185C53F8145CB34244F8145CEBD17B1C5F
:105E20001B0112F00C0F194402F00F05034415D0AA
:105E30000E46043DAD0803EB850C1C1F56F8047B91
:105E400044F8047F6445F9D10135AD002B44294461
:105E500002F00302B2E7541E0346B2E72A46ADE75A
:105E600009B3F8B51446CAB106460D4600F066F807
:105E7000A04202D32F463846F8BD21463046FEF7F1
:105E800099FC07460028F6D022462946FEF778FB03
:105E900030462946FEF73AFC3846F8BD2746FEF75D
:105EA00035FC3846F8BD1146FEF784BC10B50C46EB
:105EB000B1F90E100BF017FE002803DB636D0344ED
:105EC000636510BDA38923F48053A38110BD00BF77
:105ED000002070472DE9F041B1F90C409846E305E8
:105EE0000D461746B1F90E10064609D424F4805425
:105EF000AC8143463A463046BDE8F0410BF0FABD6E
:105F0000022300220BF0F4FDB5F90C40B5F90E1098
:105F1000ECE700BF10B50C46B1F90E100BF0E8FD30
:105F2000A389421C0EBF23F4805343F48053606561
:105F3000A38110BDB1F90E100BF0DEBD51F8043C89
:105F4000181F002BBCBF0B58C01870470E4A002307
:105F5000114610B5147C84420FD11C225343CA1839
:105F6000906848B1CB58FF2818BF43434FF0010059
:105F700018BF5B000133536010BD01330D2B02F1DC
:105F80001C02E7D10020F7E7A00E0020F0B50A4D73
:105F900000242E462F7C874207D11C2000FB04647E
:105FA000012021766276A376F0BD01340D2C05F137
:105FB0001C05EFD10020F7E7A00E0020094A30B5FC
:105FC00000231446157C854205D11C22012002FBCA
:105FD0000343996030BD01330D2B02F11C02F1D156
:105FE0000020F7E7A00E0020094A30B50023144630
:105FF000157C854205D11C22012002FB0343596018
:1060000030BD01330D2B02F11C02F1D10020F7E766
:10601000A00E002070B50B4C00232546267C86423E
:1060200009D11C204343E818E95000238260C36073
:106030004374012070BD01330D2B04F11C04EDD11C
:106040000020F7E7A00E002070B500252E462B4C4F
:106050006368002B4FD0E06808BB637CB3FA83F31E
:106060005B09637409F0C8FDD4E900239342E06042
:106070002BD266606674E66063690BB1207C98473A
:10608000207CFF2824D100221146104607F0ECFBAB
:1060900001350D2D04F11C04DAD1012070BD09F089
:1060A000F1FD23689842D8D26368002BE4D02046E3
:1060B00002F06AFE0028EBD0637C207CB3B1FF289D
:1060C0000CD1A27E617E207EE0E79B1A6360EBE745
:1060D0005028DDD800231A46194604E05028D7D8A6
:1060E000A37E627E217E06F037FDD1E7FF28CAD06D
:1060F0005028CDD8EFE76374E360C9E7A00E002015
:1061000007B503788DF8003043788DF80130837837
:106110008DF8023003798DF80330C37868468DF826
:1061200004300DF0EFFA03B05DF804FB08B5074B3F
:106130005A78032A07D8586809F0A4FDC72894BFE5
:106140000020012008BD0020FCE700BFA40C0020B7
:106150007047000010B5144C202220464FF48041B7
:106160000BF069FE204620224FF400410BF063FE45
:10617000002280214FF080400BF05DFEFFF7E8FF2A
:1061800000BF00BF00BF00BF00BF00BF00BF00BF17
:1061900000BF00BF00BF00BF00BF00BF00BF00BF07
:1061A00000BF00BF10BD00BF0008004008B501F0EF
:1061B00079FB08BD08B5054C20780CF09FFD2078D0
:1061C000FFF7F4FF05200AF084FCF5E7203C0020EF
:1061D00010B5084C236803F07142074B134323604A
:1061E00009F00AFD054B18602068BDE8104004F076
:1061F000CEBC00BF203C00200001010EA4110020F5
:1062000010B5064C0122204602210BF014FE022399
:10621000A361BDE8104001F0DFBB00BF00040040F7
:1062200001207047124B10B51C789CB9114B1B789C
:10623000042B0FD104F098FB04F0ACFB04F05EFBE0
:1062400004F0D8FB204609F07BFB2046BDE8104057
:1062500009F092BB0DF05AFA48B10CF045FD002848
:10626000FBD1BDE810404CF250300AF032BC10BDFA
:10627000203C0020BC3F0020002370B50D460B7071
:1062800004462A4E00283AD009F0B6FC284B30606C
:106290001A6912F4804F1A4602D01B691E0435D4C5
:1062A0001369590402D413691B0431D4204A1369B9
:1062B000C3F380332BB1136913F4004F14BF0023D1
:1062C00002231C4A1278511E042923D9062A23D0FE
:1062D000002A0CBF03200020174A14B911789942F4
:1062E0001CD1181A18BF0120022B137018D0032BD1
:1062F00018D0012B18D102232B70044604E030681B
:1063000009F0C0FC3228BFD8204670BD0323D8E76F
:106310000123D6E70120DFE70220DDE72046E3E79F
:106320000323E9E70123E7E70023E5E7B4110020B1
:1063300000080040203C0020AA110020084B9A7859
:10634000012A07D0022A09D0064B1868B0FA80F05B
:106350004009704758780128F6D170470120FCE7C2
:10636000A40C00201813002008B5054B9B78013BB6
:10637000012B02D9FFF7E2FF08BD0120FCE700BFB7
:10638000A40C002008B509F037FC014B986008BD4B
:10639000A40C002010B5094C23782070637009F01C
:1063A0002BFC6060FFF7EEFF00F050FEBDE81040F0
:1063B0000022034B53201A700DF020B9A40C0020CA
:1063C000B01100202DE9F0410C4615460746002883
:1063D00041D0B1FA81F35B099BB15A4E5A4A3378E6
:1063E000002C3CD00221012B91610AD030460BF0E9
:1063F00001FD30460BF0CAF85448554B836009F054
:1064000075FAA74201D0FFF70DFF524E3378013BDA
:10641000012B04D80320FFF7BDFF0023B3704E4EBD
:106420003378A34200D11DB100224C4B9A619A836C
:10643000347024B1631E042B747098BFB47030683C
:1064400004F0A5FB3378062B76D8DFE803F0731948
:1064500036404A545E000B1C18BF0123BCE74FF4C2
:106460000031042B9161CCD03D4BDFF8E0801C70F3
:106470003C4B3046C8F8083009F066FE4046BEE79F
:10648000312075B10DF0BAF852200DF0B7F80120A7
:106490000DF0C0F84EF2794143F22D400DF014F9A1
:1064A00051200DF0ABF8FFF76DFF2A462146384624
:1064B00001F0ACFE0120BDE8F0813220002DF0D0CB
:1064C0000DF09CF852200DF099F80220E0E73320FF
:1064D000002DE6D00DF092F852200DF08FF8032039
:1064E000D6E73420002DDCD00DF088F852200DF0D6
:1064F00085F80420CCE73520002DD2D00DF07EF8B1
:1065000052200DF07BF80520C2E73020002DC8D0C6
:106510000DF074F814480DF0A3F814480DF0BAF813
:106520004EF2794143F22D400DF0CEF852200DF09D
:1065300065F8B5E71120B4E711200DF05FF8FFF71B
:1065400047FEB0E7BC3F0020000400407811002067
:1065500001610008A40C0020203C0020640C0020F5
:10656000702C00200D0201088B3B01088E3B0108B6
:10657000002313B50DF107018DF80730FFF77CFEFE
:10658000044690B19DF80730013B032B0DD8DFE89E
:1065900003F002060F1200221146094B02E000220E
:1065A000074B99781878FFF70DFF204602B010BD11
:1065B00000220621F1E7024B00225978F2E700BFE2
:1065C000203C002013B5124C20460CF01FFB012389
:1065D000A37704F0D9FA0F4C206008B9FFF7F8FD53
:1065E000E37843F00103E37009F006FB0A4BFF2256
:1065F000186000234FF4A87100930848084B0AF074
:1066000035FAFFF7A7FD0120FFF7B2FF02B010BD7A
:10661000640C0020203C0020A4110020B8110020B0
:10662000B561000848B1074A1378013B012B07D830
:1066300093782BB90320FFF7ADBE0122024B1A70ED
:10664000704700BFA40C0020B0110020014B187847
:10665000704700BFA40C0020014B9870704700BF2A
:10666000A40C0020014B9878704700BFA40C0020B8
:10667000014BD870704700BFA40C00200122014BD1
:106680001A707047B0110020F8B51C4C1C4DE27810
:10669000A968C2F3420219B9FFF774FE0020F8BDE1
:1066A000184B53F8227023782BB9174B1B78042B07
:1066B00001D1FFF767FE154E327892B10023337097
:1066C0004FF080431B69E278DB0963F30002237813
:1066D000E27073B101F0D4FF0028DFD101F00CF9B2
:1066E000DDE7002FDAD0A86809F0CCFAB842E5D28D
:1066F000D4E7054B1B78042BECD1CDE7203C0020E0
:10670000A40C0020383B0108BC3F0020B011002041
:106710000C4B10B55A781946012A03D0022A08D02A
:10672000002005E09C78012C03D101F047F92046B8
:1067300010BD486809F0A6FAC728F1D9FFF7FEFD99
:10674000F6E700BFA40C002008B5074BDB780BB1BF
:10675000022B04D10220FFF71DFE002008BD0320FC
:10676000FFF718FE0120F9E7A40C002038B50A4D08
:106770000024EB78033B012B08D80320FFF70AFE27
:106780002046AC7001F0C8F8012038BD0220FFF7A8
:1067900001FE2046F9E700BFA40C002010B50A4C0A
:1067A000E378032B0AD3042B08D80320FFF7F2FD6C
:1067B0000020A07001F0D0F8012010BD0220FFF7EA
:1067C000E9FD0020F9E700BFA40C002070B59A4C49
:1067D0009A4D2068B8B109F055FAB0F5FA6F12D3A6
:1067E0000026552026600CF009FF57200CF006FF0C
:1067F00070200CF003FF287832460146B0FA80F092
:106800004009FFF7DFFD2B7823B18D4B93F8202053
:106810008C4B1A702368DBB98B4E306809F032FA62
:1068200040F6B733984213D92B788BB10CF05CFA51
:1068300070B9834CA37F5BB109F0DEF9306053205F
:106840000CF0DCFE94F8213013B970200CF0D6FE69
:106850004FF080431B69EA78DB097C4C63F300024C
:106860000020EA70FFF784FE2378032B1ED8DFE8B0
:1068700003F002284FA7E36833B1984720B1012005
:10688000FFF788FD0023A370236933B1984720B137
:106890000120FFF77FFD0223A370636933B198479E
:1068A00020B10120FFF776FD0123A3700CF0A0FDBD
:1068B000674B1B78002B00F0BD80BDE8704003F0F3
:1068C00095B8A369002BF1D098470028EED002F0CC
:1068D00089F9604B187007F06FFD2A785E4B1A70CB
:1068E0000022574B9A772A685C4B134063B95C4C83
:1068F0002378012B08D002225A4B20469A610BF0D4
:1069000079FA20460AF042FE0220FFF743FDCDE768
:10691000E369002BCAD098470028C7D00022524B09
:106920001A704FF080434FF400129A614FF00072DA
:106930009A612A68494B1340B3F1807F0FD0A37846
:1069400043B3022B0BD86378022B08D0FFF76AFC05
:1069500011200CF053FE0CF0C7F90028FBD100F019
:10696000B5FF0023E3703C4B2A781B789A4208D18C
:106970002A683A4B1340B3F1807F02D0A07800F030
:1069800073FCA378012B18D0A3B1022B8ED1FFF793
:10699000EDFE8BE72A4B5B7E002BE0D111200CF043
:1069A0002DFE0CF0A1F90028FBD147F230500AF07F
:1069B00090F8D4E7FFF7C8FE78E7FFF7EFFE75E73A
:1069C000236A002B3FF472AF984700283FF46EAF64
:1069D00001221B4B9A771F4B1B7843B14FF080432A
:1069E00020229A614FF400729A6107F0CBFC0120DB
:1069F000FFF7BEFD024628B92B789BB1697808469F
:106A0000FFF7E0FC0024184B1C7000F053FFFFF769
:106A1000B9FC00F01BFB2046FFF7BCFC53200CF038
:106A2000EDFD43E70E4A1278012AEBD11A461946CA
:106A30006878E5E770BD00BFA4110020203C00206D
:106A4000640C0020702C0020AC110020A40C00204D
:106A5000A9110020A0110020A8110020FF000001B2
:106A6000BC3F002000040040B0110020012070470E
:106A700008B5FFF7FBFF08BD37B504460D46FFF725
:106A800081FC29462046FFF7F3FF60B1074B1A78D7
:106A90004AB1074B20461B78D9090091C3F3001374
:106AA000A9780CF0C9FC03B030BD00BF203C002029
:106AB0002C3C002000B50B4B8FB093F821300A4AD4
:106AC000322101A804F03BFF01A808F065FA0CF0A0
:106AD00007F908F061FA054808F05EFA0FB05DF8B2
:106AE00004FB00BF640C0020583B0108693B01080F
:106AF0002B4B13B51A7804464AB12A4B01211B7857
:106B0000DB09009300230CF097FC02B010BD0028B5
:106B1000FBD0031FDBB2A02B12D8234B0146186811
:106B200008F064FF20B1204603F0E0FE03F062FFAE
:106B3000204603F0D3FE02B0BDE8104003F05ABF78
:106B400000F12003DBB2072B07D800F00704012077
:106B5000A040C0B203F0F8FEEDE700F15B03DBB24A
:106B6000022B06D8114AD05C02B0BDE8104008F0F4
:106B7000E7BE00F15803DBB21A2B07D80C4A32F8F3
:106B8000130002B0BDE8104008F0F6BE3334E4B2A2
:106B9000122CBAD8012102B0BDE8104003F00CB8A5
:106BA000203C00202C3C002024100020FC3A01084E
:106BB000003B0108244B13B51A7804464AB1234B15
:106BC0001B78DB090093002319460CF035FC02B05A
:106BD00010BD0028FBD0031FDBB2A02B06D803F0AA
:106BE00085FE02B0BDE8104003F004BF00F12003B1
:106BF000DBB2072B07D800F007040120A040C0B289
:106C000003F0AAFEEDE700F15B03DBB2022B05D82F
:106C1000104602B0BDE8104008F092BE00F15803E3
:106C2000DBB21A2B05D8104602B0BDE8104008F0C0
:106C3000A3BE3334E4B2122CC9D8114602B0BDE869
:106C4000104002F0B9BF00BF203C00202C3C0020C7
:106C50002DE9F3410546C0B1114E3278C2B101278A
:106C6000DFF84080284602F038FF044698F80030EC
:106C7000E030DB09009332780023012180B207FA6B
:106C800004F40CF0D9FBA543ECD102B0BDE8F081CF
:106C900003F05AFE02B0BDE8F04103F0ABBE00BF06
:106CA000203C00202C3C00202DE9F3410546C0B1DA
:106CB000114E3278C2B10127DFF84080284602F039
:106CC0000CFF98F800300446DB0900930023E03005
:106CD0003278194680B207FA04F40CF0ADFBA543F4
:106CE000ECD102B0BDE8F08103F036FE02B0BDE8A1
:106CF000F04103F07FBE00BF203C00202C3C002070
:106D00002DE9F3410546C0B1114E3278C2B10127D9
:106D1000DFF84080284602F0E0FE044698F8003094
:106D2000E030DB09009332780023012180B207FABA
:106D300004F40CF081FBA543ECD102B0BDE8F08176
:106D400003F018FE02B0BDE8F04103F053BE00BFEF
:106D5000203C00202C3C00202DE9F3410546C0B129
:106D6000114E3278C2B10127DFF84080284602F088
:106D7000B4FE98F800300446DB0900930023E030AD
:106D80003278194680B207FA04F40CF055FBA5439B
:106D9000ECD102B0BDE8F08103F0F4FD02B0BDE833
:106DA000F04103F027BE00BF203C00202C3C002017
:106DB0002DE9F04104460E4601F028FBE8B923789E
:106DC000013B142B4ED8DFE803F00B1B48626872BE
:106DD0007575757ACA80848A939C9FA2ABB4BD00F6
:106DE000002363700C23A370614B31461B7820464F
:106DF000002B40F0B98009F00FFA0120BDE8F081C6
:106E00006378013B032B2DD8DFE803F0020C0F2140
:106E100008F0F2FE030EA370030CE370030A237163
:106E20006071E1E707F089FDF4E72546A77804F1F2
:106E30001C08052FD8D8F8B204F02EFA030AEB701C
:106E400028710235454507F10107F2D1CCE700234F
:106E5000A370E37023716371C6E76378022B04D0DB
:106E6000052B10D0FF232370BEE7E378A07840EA1B
:106E70000320237940EA0340637940EA036000BAC3
:106E800007F05EFDB0E7A07807F084FDACE7E2789C
:106E9000A178607808F072F9C0E722796379A17867
:106EA00043EA02236078E27808F07EF99CE708F074
:106EB000CBF999E73146204607F0E7FD94E700203B
:106EC00007F01EFD07F047FD8EE708F047FA6070F7
:106ED0008AE708F045FA030A6370A07084E76078D7
:106EE000A378221DE17843EA002008F03CFA7BE712
:106EF0006078A378221DE17843EA002008F04DFA7B
:106F000072E708F05DFA6FE708F02CF9DFE76078C8
:106F1000A378221DE17843EA002008F0DFF963E757
:106F20006078A378221DE17843EA002008F0EDF9AB
:106F30005AE7E278A178003218BF0122607808F0A1
:106F400048F96BE7E27821796379003243EA01235B
:106F500018BF0122A178607808F05AF944E70123AC
:106F6000044A637013703FE70CF028FC45E700BF4C
:106F7000203C0020A911002010B54378044613B12D
:106F8000FF23237011E08378013B032BF8D8DFE85F
:106F900003F0021A28410378072B07D0082BEFD102
:106FA000294BDB78C3F34203C37010BDC1780729B6
:106FB000FBD8BDE81040244BDA7861F34302DA7065
:106FC000186803F0E4BD0378072B05D0082BD7D150
:106FD00001F067FBE070E8E7C078BDE8104001F021
:106FE00031BC0378072B0AD0082BC9D1427901792B
:106FF000C07801F058FBA071000AE071D5E7C279B2
:107000008379017943EA0223BDE810404279C078D0
:1070100001F05FBB0378072B0BD0082BB0D123798D
:10702000C078A21D617943EA0020BDE8104001F05C
:1070300065BB2379C078A21D617943EA0020BDE8D1
:10704000104001F076BB00BF203C002008B508F0DE
:10705000D3FD014B186008BD08130020164B10B576
:107060001C788CB9154B1B78052B08D0022B06D049
:1070700008F0C2FD124B1860124B1C7010BD4FF08F
:1070800080431B691B0603D4BDE81040FFF7DEBF39
:107090000B4B18680028F7D008F0F4FD41F6573381
:1070A0009842EBD9FFF7D2FFBDE810400122054B13
:1070B0001A70FFF7E3BA00BF203C0020BC3F00205D
:1070C000081300200C1300202DE9F0411A4C8046D3
:1070D00025781DB101242046BDE8F081FFF7B6FAFE
:1070E0000138012805D80320FFF754F92846FFF797
:1070F000B3FA2778002FEDD1104D2B78052BE9D16D
:10710000B5F84C309B0702D50D4E34782CB9B8F148
:10711000FF0F94BF00240124DDE7FFF797FA03284F
:10712000D8D83770FFF792FF28460AF0DBFA2846D6
:1071300000F094FBCFE700BF203C0020BC3F0020C4
:107140000C130020704700001A4B70B59C6C0F2682
:1071500044F4C0649C649B6C012301F003048B40E5
:1071600021F0030101F1804101F5A0518D68A400D7
:10717000C0F38320A04006FA04F425EA040528435E
:107180008860D8430C4912F0010F8C6814BF1C436F
:1071900004408C6012F0020FCA6814BF1A43024008
:1071A000CA60054A536111680B431360536803407A
:1071B000536070BD000C0140001800400F281FD81C
:1071C000DFE800F0080C0F121518181818181B1B10
:1071D0001B1B1B1B062108460AF0BFBC062107200B
:1071E000FAE706210820F7E706210920F4E706213F
:1071F0000A20F1E706211020EEE706212120EBE727
:10720000704701207047000008B5FFF7FAFF28B368
:10721000012207214FF08040FFF796FF0720FFF77C
:10722000CDFFFFF71FFA38B90D4803220721FFF7FA
:107230008BFF0720FFF7C2FF03220E210948FFF74B
:1072400083FF0E20FFF7BAFF064803220F21FFF746
:107250007BFFBDE808400F20FFF7B0BF08BD00BFAF
:1072600000040040000800402DE9F04730230546A7
:1072700083F31188FFF7C8FF00264FF00108854F00
:10728000DFF83C9257F8040B95B1012D4DD14845DC
:107290004BD120F00F0A00F00F0008FA00F421464D
:1072A0000522504624040AF0C6FDCAF8184001E041
:1072B000441CEED101360F2EE4D106240127764E70
:1072C000DFF8009256F8040B002D3AD0012D40F063
:1072D000D380484540F0D08000F00F01202207FA0B
:1072E00001F120F00F000AF0A6FD00BF00BF00BFB3
:1072F00000BF00BF00BF00BF00BF00BF00BF00BF96
:1073000000BF00BF00BF00BF00BF00BF00BF56F8F6
:10731000040C032200F00F08414620F00F00FFF795
:1073200013FF4046FFF74AFF0DE0411CC2D000F0BA
:107330000F01202208FA01F120F00F000AF07BFD76
:10734000B8E7421CC8D1013CBCD122464FF40061D1
:1073500052480AF070FD00BF00BF00BF00BF00BF71
:1073600000BF00BF00BF00BF00BF00BF00BF00BF25
:1073700000BF00BF00BF00BF00BF03220B21474872
:10738000FFF7E2FE0B20FFF719FF84F3118872B6B6
:107390000120434A136823F001031360414B424A22
:1073A0005A610022A30003F1604303F56143D3F85F
:1073B0000011D5B2012D94BF002101F0010109B1E6
:1073C000C3F880010132202AF1D10134082CE8D120
:1073D000364C636843F000736360354B1A6802F003
:1073E00009021A601A6842F46C3242F004021A6010
:1073F00040F2B3321A622F4B43F0010398472369DE
:1074000043F00403236130BF2B4B43F00103984743
:107410002369234A23F0040323611368274C43F0B4
:1074200001031360E36943F08003E361A36C43F459
:107430000073A36408F01CFF02F05CF940F2823292
:107440004FF4006115480AF0F6FCE36C43F00803C2
:10745000E364E36CA36C43F48053A364A36CE36C18
:1074600043F01003E364E36CFFF76CFE002383F347
:10747000118862B6BDE8F087431C3FF464AF00F0AA
:107480000F01402207FA01F120F00F000AF0D3FCAF
:1074900059E700BFBC3B0108543C0108000800400C
:1074A00010E000E000180040FFFF070000ED00E0E2
:1074B000000001402C3C0108F83B0108000C014091
:1074C000020800400D08004001207047012070476D
:1074D000831E10B504460D2B1BD8DFE803F0071AF6
:1074E0001A1A1A121A1A1A141A1816160420FFF762
:1074F000BFF82046FFF7E8FF10B12046FFF7E6FF90
:1075000010BD0320F3E70220F1E70720EFE7052095
:10751000EDE70120EBE701238B40034202D0084650
:10752000FFF7D6BF7047000008B50D4B5A69D20768
:1075300006D51A68002022F001021A60FFF7C8FF82
:107540004022084BC3F88020BFF34F8FBFF36F8FEB
:107550000122034B5A61BDE8084009F0AFBB00BFF0
:107560000018004000E100E008B50D4B586910F02C
:10757000020006D01A68012122F002021A60FFF709
:10758000CAFF8022074BC3F88020BFF34F8FBFF3A1
:107590006F8F0222024B5A61BDE8084009F08EBB92
:1075A0000018004000E100E008B50E4B586910F0EB
:1075B000040006D01A68022122F004021A60FFF7C4
:1075C000AAFF4FF48072084BC3F88020BFF34F8F9F
:1075D000BFF36F8F0422034B5A61BDE8084009F0E6
:1075E0006DBB00BF0018004000E100E008B50E4B85
:1075F000586910F0080006D01A68032122F008022A
:107600001A60FFF788FF4FF40072084BC3F8802020
:10761000BFF34F8FBFF36F8F0822034B5A61BDE852
:10762000084009F04BBB00BF0018004000E100E03B
:1076300008B50E4B586910F0100006D01A680421E6
:1076400022F010021A60FFF766FF4FF48062084BC9
:10765000C3F88020BFF34F8FBFF36F8F1022034B0F
:107660005A61BDE8084009F029BB00BF001800407E
:1076700000E100E038B5254B5C69A20604F478759A
:1076800007D51A68052122F020021A602846FFF764
:1076900042FF600608D51D4A06211368284623F0DC
:1076A00040031360FFF737FF210608D5174A07216B
:1076B0001368284623F080031360FFF72CFFE205D0
:1076C00008D5124A08211368284623F480731360F2
:1076D000FFF721FFA30508D50C4A092113682846A6
:1076E00023F400731360FFF716FF4FF48032084B4A
:1076F000C3F88020BFF34F8FBFF36F8F4FF47872C2
:10770000024B5A61BDE8384009F0D8BA0018004071
:1077100000E100E038B52A4B5C69620504F47C4561
:1077200007D51A680A2122F480621A602846FFF7FA
:10773000F2FE230508D5224A0B211368284623F4BC
:1077400000631360FFF7E7FEE00408D51C4A0C2134
:107750001368284623F480531360FFF7DCFEA1046E
:1077600008D5174A0D211368284623F400531360E7
:10777000FFF7D1FE620408D5114A0E21136828468E
:1077800023F480431360FFF7C6FE230408D50C4A98
:107790000F211368284623F400431360FFF7BBFE54
:1077A0000222084BC3F88420BFF34F8FBFF36F8FC3
:1077B0004FF47C42024B5A61BDE8384009F07EBA72
:1077C0000018004000E100E008B50E4B586910F4C5
:1077D000802006D01A68122122F480221A60FFF756
:1077E0009AFE0822084BC3F88420BFF34F8FBFF3E3
:1077F0006F8F4FF48022034B5A61BDE8084009F0B7
:107800005DBA00BF0018004000E100E080B483B022
:1078100000AF034B7B6000BF0C37BD4680BC704798
:10782000003F0008012810B5044611D002280AD1F3
:10783000FEF70CFF0138012805D80320FEF7AAFD4A
:107840000020FEF709FF2046BDE8104008F07AB995
:10785000014B1870F7E700BF74110020014809F0D0
:1078600038B900BFA086010010B5074C23784BB98A
:1078700001F0E4F902F04FF908F03EF802F04CF99B
:1078800001232370012010BD0E13002010B5044CFD
:1078900023781BB101F0CAF900232370012010BD29
:1078A0000E130020024B1B780BB10BF071BE70471A
:1078B0001113002008B5044B1B780BB9FFF7D4FF58
:1078C00001F072FB08BD00BF0E13002008B5064B87
:1078D0001B780BB1FFF7DAFF0023044A1370044A48
:1078E000136001F05FFB08BD0E1300201C13002085
:1078F000201300200120704708B5FFF7FBFF08BDEB
:10790000014B1878704700BF0F130020014B18700F
:10791000704700BF0F130020014B1870704700BF65
:107920000F130020014B1878704700BF1013002080
:10793000084B10B50446187058B9FEF787FE0228A8
:1079400007D80320FEF726FD2046BDE81040FEF7CD
:1079500083BE10BD10130020FFF7EABF024B18785A
:1079600080F00100FFF7E4BF10130020084B1A78E5
:10797000084B1B784BB982F00102A0F5A443203BD1
:107980001F2B8CBF1046012070470022F5E700BF77
:10799000101300200F13002000231946054A93728C
:1079A0001360054A01330B2B917242F80C1BF9D17D
:1079B000704700BF18100020C80C002008B501F067
:1079C0000BFFFFF7E9FF0022014B1A6008BD00BF63
:1079D000181300200120704710B5FFF745FFFEF790
:1079E000F1FD01F033F990B1012220214FF08040E8
:1079F0000AF021FA4FF0804420230122A3614FF4C2
:107A0000007120460AF017FA4FF40073A36110BD0D
:107A10000023104A10B513700F4A4FF080441370C2
:107A20000E4A136006F0E0FC01280DD006F0D4FCED
:107A30004FF40013A3614FF00073A36101F05EF9EE
:107A4000BDE8104003F045B92023A3614FF4007353
:107A5000A361F3E70D13002012130020141300207C
:107A600008B503F0FBF805F045F803F086F8084B7D
:107A7000188060F07F001870188803F081F801F01A
:107A8000C3F818B1BDE80840FFF7C2BF08BD00BF8A
:107A90002C3C002037B504460D4601F01BFA0028A7
:107AA00000F0D280002D00F0CF8047F604639C42A6
:107AB00000F092802DD847F601639C4260D00AD82E
:107AC00047F603439C4200F0BC80B4F5FC4F41D024
:107AD000284603B030BD47F602639C4266D047F6A5
:107AE00003639C42F4D100230DF1070101208DF8BE
:107AF0000730FEF7C1FB9DF80730042B02D013F0CE
:107B0000FD0FE5D1514B012204211878FEF75AFCF4
:107B1000DEE747F612639C4200F08C800BD847F6F4
:107B200005639C426FD047F611639C42D0D1002080
:107B3000FFF7FEFECCE747F613639C427ED047F684
:107B400043639C42C4D10122414B1A700022414B35
:107B50001A60BDE700230DF1070101208DF8073001
:107B6000FEF78AFB9DF80730042B02D013F0FD0FBF
:107B7000AED10122354B11461878FEF723FCA7E75A
:107B800000230DF1070101208DF80730FEF774FB8B
:107B90009DF80730042B02D013F0FD0F98D12B4B2A
:107BA000012202211878FEF70DFC91E700230DF168
:107BB000070101208DF80730FEF75EFB9DF80730C6
:107BC000042B02D013F0FD0F82D1204B01220321A0
:107BD0001878FEF7F7FB7BE700230DF10701012082
:107BE0008DF80730FEF748FB9DF80730042B03D0D3
:107BF00013F0FD0F7FF46CAF144B012205211878B0
:107C0000FEF7E0FB64E700230DF1070101208DF88A
:107C10000730FEF731FB9DF80730DA1E012A02D942
:107C2000002B7FF455AF094B012206211878FEF78F
:107C3000C9FB4DE70122084B1A7049E7FFF78EFE9A
:107C400046E7FFF70DFF43E7054641E7203C0020EC
:107C500012130020141300201013002008B5084B45
:107C60001B780BB9FFF700FE4FF0804320229A618A
:107C70004FF400729A61BDE8084007F089BF00BF69
:107C80000E1300202DE977470D46C04A8978044637
:107C90001368B1B1032B00D80133BD4E1360FEF75A
:107CA00071FB33899C4207D195F80280B8F1000F2F
:107CB0000BD007F0A1FF3060B64B4FF0000899469B
:107CC0002FE0002BE9D0013BE7E7B37A0BB9336033
:107CD000F2E741462046FFF7DDFE86F80A80C6F847
:107CE00000800028E8D10020A3E006FB08F609EB9D
:107CF000060898F80A3013B949F8063020E05146D2
:107D00002046FFF7C7FE88F80AA049F806A0002819
:107D1000E9D015E008F10108B8F10B0F03F10C03ED
:107D20000ED01A899442F5D195F802A00C26BAF12A
:107D3000000FDAD007F060FF06FB08F649F80600EE
:107D400029462046FFF712FE0028CCD029462046BF
:107D500001F0B8F90028C6D047F604639C4200F051
:107D6000D7803FD8B4F5FC4F77D019D847F6200319
:107D70009C4200F0338147F603439C42B3D029462E
:107D8000204600F07FFD0028ADD029462046FFF7B1
:107D90009BF90028A7D029462046FEF76DFE48E053
:107DA00047F602639C42AB7800F0948074D9002BB4
:107DB00099D0794C2278042A95D000230DF107013F
:107DC00001208DF80730FEF757FA9DF80730042B95
:107DD00002D013F0FD0F86D1002204212078FEF797
:107DE000F1FA80E747F640639C421BD00FD847F674
:107DF00006639C4200F0D680C0F0A98047F6076376
:107E00009C42BCD1AA78654B00201A7011E047F65D
:107E100042639C4219D00FD347F643639C423FF420
:107E200062AFACE7AB78002B3FF45DAFFEF742FEEC
:107E3000002003B0BDE87087A878594B18B1012223
:107E400000201A70F5E71870F3E7AB78002B3FF4C9
:107E50004AAFFEF713FC0020EBE7AB78002B3FF4B2
:107E600042AF4D4C2278012A3FF43DAF00230DF183
:107E7000070101208DF80730FEF7FEF99DF8073065
:107E8000042B03D013F0FD0F7FF42DAF002201214E
:107E90002078FEF797FA26E7002B3FF424AF3E4CFC
:107EA0002278022A3FF41FAF00230DF107010120C1
:107EB0008DF80730FEF7E0F99DF80730042B03D06A
:107EC00013F0FD0F7FF40FAF002202212078FEF7A0
:107ED00079FA08E7002B3FF406AF2F4C2278032AEB
:107EE0003FF401AF00230DF1070101208DF80730A9
:107EF000FEF7C2F99DF80730042B03D013F0FD0FF5
:107F00007FF4F1AE002203212078FEF75BFAEAE667
:107F1000AB78002B3FF4E7AE1F4C2278052A3FF4E4
:107F2000E2AE00230DF1070101208DF80730FEF7C6
:107F3000A3F99DF80730042B03D013F0FD0F7FF455
:107F4000D2AE002205212078FEF73CFACBE6AB78D2
:107F5000002B3FF4C8AE104C2278062A3FF4C3AE83
:107F600000230DF1070101208DF80730FEF784F999
:107F70009DF80730DA1E012A02D9002B7FF4B3AE38
:107F8000002206212078FEF71DFAACE61813002027
:107F900018100020C80C0020203C00200D130020E9
:107FA00011130020AB78002B3FF49DAE164C2278C5
:107FB000002A3FF498AE00230DF1070101208DF84F
:107FC0000730FEF759F99DF80730012B3FF68BAECD
:107FD000002220781146FEF7F5F984E6AB78002BF5
:107FE0003FF4CDAE06F000FA4FF0804330B14FF4CD
:107FF00000129A614FF000729A61C0E620229A61E5
:108000004FF400729A61BAE6203C0020014B1878C8
:10801000704700BF1C130020012070472DE97841F4
:1080200005460C46584EDFF86C8121462846FFF77E
:10803000F3FF50B1062C08D8DFE804F00409599387
:1080400093A0A0000022504B1A60BDE878813268EE
:1080500092BBA5F12703032B0AD8DFE803F0251D07
:1080600015020022FF2311462A20FDF78FFF01226F
:108070004FF4FA712846FDF7CDFF2846FDF766FF5D
:1080800007F0BAFD3060E0E70022FF231146292007
:10809000FDF77CFF0122EBE70022FF231146282099
:1080A000FDF774FF0122E3E70023FF221946272092
:1080B000FDF76CFF0122DBE7104607F0E3FD47F216
:1080C0002F53984203D90524304B1C70ADE798F824
:1080D00019301BB103242D4B1C70A6E72C4B1B78C9
:1080E000002B47D02846BDE87841FDF72FBF306808
:1080F00028BBA5F12703032BA7D8DFE803F019124B
:108100000B020022FF2311462A20FDF73FFF012228
:10811000C821AFE70022FF2311462920FDF736FFD3
:10812000F5E70022FF2311462820FDF72FFFEEE799
:108130000023FF2219462720FDF728FFE7E707F075
:10814000A1FD47F22F53984203D906240F4B1C7010
:108150006BE798F81930002BC0D004240B4B1C702F
:1081600063E7FF224FF4FA612846FDF753FF2846E4
:10817000FDF7ECFE0022054B1A7066E70022034B68
:108180001A70FEF77BFAADE7201300201C130020C5
:10819000203C0020640C0020014B1978FFF73EBF03
:1081A0001C1300200120704770B506460D462A209A
:1081B0000021FDF719FF10B90024204670BD0021F1
:1081C0002920FDF711FF0028F6D000212820FDF717
:1081D0000BFF0028F0D000212720FDF705FF002825
:1081E000EAD029463046FFF7DDFF04460028E3D0F9
:1081F0000022044B29461D70034B30461A60FFF7DE
:108200000DFFDAE71C1300202013002070B50C4688
:108210001546FEF705F8064680B17CB11C4B5B7E27
:10822000A3BB013C052C09D8DFE804F0030F1A08B2
:1082300008252DB102212A20FFF7B6FF304670BD78
:1082400001212A20FFF7B0FFF8E725B102212920FC
:10825000FFF7AAFFF2E701212920FFF7A5FFEDE7CD
:1082600025B102212820FFF79FFFE7E70121282001
:10827000FFF79AFFE2E725B102212720FFF794FFDD
:10828000DCE701212720FFF78FFFD7E71E46D5E760
:10829000640C002008B5094B1B786BB9FEF7D6F9C2
:1082A00050B9074B1A783AB1064A527E22B959782A
:1082B000BDE80840FEF786B808BD00BF1C130020CB
:1082C000203C0020640C0020704700002DE97F4F07
:1082D000494E05468846FFF7F7FFFFF7DBFF347886
:1082E000002C3DD0454D2B6813B907F085FC286064
:1082F000286807F0C7FC41F28733984205D93378E4
:108300000133337007F078FC28603378013B032B8E
:1083100022D8DFE803F0020C131A0022B420114621
:1083200005F0A2FA0024204604B0BDE8708F0022B8
:10833000B421104605F098FA0024F4E70021B42295
:10834000084605F091FA0024EDE7B42211461046E4
:1083500005F08AFA0024E6E7002434702C60E2E796
:10836000274B1B788BB941462846FFF733FB002883
:1083700040D04146284600F0B1FD0446002839D0DF
:1083800041462846FDF760FECDE7224621462046BD
:1083900005F06AFADFF86CA0DFF86C9001AE4FF0E0
:1083A0000A0B51465A463046FCF7EAF899F81F3056
:1083B000E2B2B3FBFBFB9345A05D15D9312B08D985
:1083C0000023B422194604F0C7FB01340A2CE6D17D
:1083D000C9E71D2B4FF0000387BFB42219461A4688
:1083E000B42104F0B9FBF0E700231A46194604F063
:1083F000B3FBEAE7002496E71213002014130020D1
:108400000D1300207C390108640C002070B505466E
:108410000E46FDF7B7FFFEF719F910B10320FDF77F
:10842000B9FF2B780A2B0FD10124084B31461C7061
:10843000074B28461B781BB907F0EEFE204670BD9F
:108440000BF0BCF92046FAE70020F8E724130020DF
:10845000203C0020094B0A4A9A610A4B0A4A1A60DA
:10846000BFF34F8F09490A4BCA6802F4E062134315
:10847000CB60BFF34F8F00BFFDE700BF000001409E
:10848000EB9C374AFC6F0020EFBEADDE00ED00E054
:108490000400FA0570B51B4CFEF798F9206858B136
:1084A000A37A4BB907F0EEFB6368984204D301212D
:1084B0002089A172FFF7EEFA00250126124C2068F0
:1084C00058B1A37A4BB907F0DDFB6368984204D337
:1084D000A67201212089FFF7DDFA01350B2D04F189
:1084E0000C04ECD1FFF792F9084B1A783AB100224C
:1084F0001A700AF0F9FB0028FBD1FFF7B1FA00F07F
:10850000B9FC70BD18100020C80C002024130020F6
:108510000D4BF0B51B688BB11E22490002FB001009
:108520000A4901220E461D5A31F8027BD4B2AF42ED
:1085300005D104F0070236F812201A52F0BD0132BC
:10854000092AF1D10022F8E728130020503F010842
:108550002DE9F04385B004460E4605F0D7FF4FF0F5
:108560001E084FF000092D4D2D4F6880E0B2864265
:1085700050D92C4900230EE01CF801EBBEF1FF0F8F
:1085800001D086451CD001320F2AF5D10133062BCC
:1085900001F10F013CD08C460022EDE7012B08D100
:1085A000012A06D16B88ADF804908DF80630019849
:1085B00019E06B88ADF800108DF80230009812E0D9
:1085C000396829B308FB031333F8121033F812305B
:1085D00049BADAB21B0AE1D1002AEAD1ADF8082083
:1085E0008DF80A20029803F08FFDC0F307238DF861
:1085F0000C00C0F307408DF80D308DF80E009DF88B
:108600000E309DF80D209DF80C10204604F0A4FAC1
:108610000134ABE705B0BDE8F08300BF4C0D00208E
:1086200028130020500D002041EA0203184310B423
:1086300005D10146B422094810BCFCF717B8002444
:108640000F230648013B13F0FF03017042702044E2
:10865000F8D11E34B42CF3D110BC70472C13002079
:1086600010B5064A0B461478012C05D158780978C4
:10867000FFF74EFF204610BD0020FCE74C0D002008
:10868000024B1878431E5842584170474C0D002049
:10869000B4235843C1EB01110A44223000EB4200DD
:1086A000704704207047032838B510D805290ED824
:1086B0000E2A0CD8FFF7ECFF054603F04DF90446EF
:1086C000681C03F049F944EA002080B238BD00205C
:1086D000FCE7032870B51C460FD805290DD80E2AD3
:1086E0000BD8FFF7D5FF0546E1B203F09DF9210A4B
:1086F000681CBDE8704003F097B970BD2DE9F843E0
:10870000002405460F461646A14600F12208BC4249
:1087100008EB040001D1BDE8F8832B19B3F5347FD1
:1087200004DA03F019F930550134F0E706F8049043
:10873000FAE72DE9F04105460E469046002400F187
:108740002207B44207EB040001D1BDE8F0812B19E8
:10875000B3F5347F03DA18F8041003F065F9013437
:10876000EFE70000032806D8B42202FB00F102481C
:10877000223103F03FB970472C130020032838B58D
:108780000CD8084A00231478012C07D15578A84248
:1087900006D11370FFF7E6FF204638BD0020FCE746
:1087A0001846FAE74C0D0020032806D8B42202FB35
:1087B00000F10248223103F065B970472C13002004
:1087C000074B084A10B51A600023074C23706070ED
:1087D00005F09CFE60806078BDE81040FFF7E4BFC4
:1087E000281300202C1300204C0D0020032808B56E
:1087F0000CD8074A5070FFF7D7FF05F01DFE2D2853
:1088000002D02D2005F015FE012000E0002008BD5B
:108810004C0D0020032810B510D8094B197869B900
:10882000012458701C70FFF7BFFF05F005FE2D28CE
:1088300002D02D2005F0FDFD204600E0002010BDF7
:108840004C0D0020032810B5044609D8FFF7ACFFF3
:108850002046FFF793FF2046BDE81040FFF7C6BF54
:1088600010BD000008B5054802F0A0F9BDE80840B9
:108870004FF434722221024803F0BCB86C3C01086A
:108880002043010808B50B4B0A461B78012B0CD17D
:10889000A0F5A44020381F2809D9887820B1507845
:1088A0000978FFF735FE002008BD0120FCE71846D7
:1088B000FAE700BF4C0D002070B504460078FF2891
:1088C00001D105F0B9FD0F4900220D4611F8016BE9
:1088D000D3B2864203D00132122AF7D1134622784E
:1088E000FF2A03BF12210133B3FBF1F2FF2206BFBF
:1088F00001FB1233DBB22270E85CBDE8704005F08A
:1089000098BD00BF6E3F010838B50B780546FF2BB8
:108910000C4602D105F090FD2070284638BD10B5F8
:1089200040F2F62420460021013403F040F8B4F56B
:10893000427FF7D110BD000010B505F07DFD00238A
:10894000054911F8014BDAB2844203D00133122BEE
:10895000F7D11A46104610BD6E3F010810B5044607
:10896000FFF7EAFF2146BDE8104000F2F62003F0D1
:108970001EB808B5FFF7E0FF00F2F62002F0ECFFAA
:10898000072888BF002008BD70B505F055FD0723F6
:10899000124A12F8011B81421DD0013B13F0FF0364
:1089A000F7D10725FFF7E5FF0130B0FBF5F405FB34
:1089B00014040B4B13F8145003EB44035E7805F0DA
:1089C000A5FD31460246284605F079FDE0B2BDE836
:1089D0007040FFF7C3BF0625E4E700BF803F0108F2
:1089E000603F010838B5FFF767FFFFF7C2FF074B8D
:1089F00013F8104003EB40035D7805F087FD29462E
:108A000002462046BDE8384005F059BD603F0108E8
:108A10002DE9FF411A4B1B780BB30022114610467B
:108A200004F022FF0024DFF86080164F01AE0A2513
:108A300041462A463046FBF7A3FDFB7FE2B2B3FB7B
:108A4000F5F5954200D8AAB9312B305D0BD900233A
:108A5000B4221946013404F07FF80A2CE7D1012032
:108A600004B0BDE8F0811D2B4FF00003F0D81A468A
:108A7000B421EFE70023305D1A461946EAE700BF4C
:108A8000E0130020640C00208639010838B5194D28
:108A900004462B78042B1BD8DFE803F003270E1FB6
:108AA000270000231A461946FDF770FAFF223221EB
:108AB0002046FDF7AFFA0BE0FF231A461946FDF7F3
:108AC00065FA0322C8212046FDF7A4FA01232B7082
:108AD0002046BDE83840FDF739BAFF231A4619464B
:108AE000FDF754FA0122C821E2E700232B70FFF7BB
:108AF000CDFFEDE7E913002038B5254B0546DB78BF
:108B0000244913F0010314D00023234A284613609C
:108B100001220A701A461946FDF738FAFF224FF46F
:108B200096712846FDF776FA2846BDE83840FDF7ED
:108B30000DBA1A4AD47F0F2C1446E5D80A780AB326
:108B40001A46FF21FDF722FA01224FF4FA71284656
:108B5000FDF760FAE37F002BE6D10F4C236813B9D1
:108B600007F04AF8206020680028DDD007F08AF876
:108B700042F210739842D7D9002301202360FEF7F8
:108B8000C5FED1E713461146FDF700FAFF22DCE7E8
:108B9000203C00209D0E0020E4130020640C0020E7
:108BA000FF2810B504461AD10D4BD3F8683123F0D5
:108BB0007F43402B0CD100221146FDF7E7F92046F8
:108BC0000121FDF7FBF92046BDE81040FDF7BEB9D5
:108BD000B3F5800F03D1002340221946EDE710BD05
:108BE000A00E0020034B187810F0030018BF0120DE
:108BF000704700BF483C0020024B40F2F220196849
:108C000002F02EBF283C002008B54023FF201A4662
:108C10001946FDF7BBF90322FA21FF20FDF7FAF907
:108C2000FF20FDF793F9012008BD00004FF48022DA
:108C3000014B01209A617047000C00400422024B56
:108C400001209A61704700BF000C004010B5134C22
:108C500001222046042109F0EEF80423A3614FF01D
:108C6000804420224FF400414FF0804009F0E3F8A7
:108C700023690B4AC3F3C0331370204601224FF41B
:108C8000007109F0D8F8074B01201B789B0714BF2F
:108C90004FF400734FF00073A36110BD000C00404F
:108CA000E1130020483C002008B5054B0021187056
:108CB000FB20FDF799F9BDE80840FB20FFF7E6BE71
:108CC000E91300200020FFF7EFBF0000094A08B5B4
:108CD000138803F0800363F0F8031380FFF78CFF21
:108CE0000022054B1A70FFF7EDFFBDE80840FFF7C3
:108CF00016BE00BF283C0020F113002010B51F4C09
:108D000001222046042109F096F804232022A361C1
:108D10004FF400414FF0804009F08DF84FF0804350
:108D20001B69174AC3F3C03340F2F220137002F0FC
:108D300031FE144C206008B9FFF7C8FF2078C0F35B
:108D4000C300FFF73DFDFF22C8214C20FDF762F96B
:108D50004C20FDF7FBF8FF22C821FB20FDF75AF954
:108D6000FB20FDF7F3F8FF22C8212020FDF752F980
:108D70002020FDF7EBF8012010BD00BF000C0040E3
:108D8000E1130020283C0020364B70B51B780646C6
:108D900013B10024204670BD057C4C2D05D0FB2D61
:108DA00021D0202D57D10124F4E72F4B1B78002B25
:108DB000EFD1FFF765FC04460028EAD12B4BDB78A6
:108DC000DB07E6D42A4BDB7F0F2BE2D8737C33B171
:108DD00003460246FF21284603F0BEFEDAE70346BB
:108DE00002460146F7E7204B1B78012BD1D1FFF754
:108DF00047FC04460028CCD1737CB3B1B37E727EAD
:108E0000317E3A2003F0A8FEB37E727E317E4F2081
:108E100003F0A2FEB37E727E317E502003F09CFEF2
:108E2000B37E727E317E4E20D6E70346024601466F
:108E30003A2003F091FE2346224621464F2003F0BC
:108E40008BFE234622462146502003F085FE234612
:108E500022462146E7E7FFF713FC80F00100C4B289
:108E600098E700BFF2130020E9130020203C002007
:108E7000640C00204FF080431B69124A10B5C3F305
:108E8000C0331370FDF7E2FB60B90F4C206806F0A9
:108E9000F9FEB0F57A7F05D906F0AEFE20605320CA
:108EA0000AF0ACFBFDF7D2FB48B9084BDB7813F0B6
:108EB000010F14BF4FF480220422054B9A61012058
:108EC00010BD00BFE1130020EC130020203C002067
:108ED000000C0040A83818BF012070472A4B37B556
:108EE0001B7804460D46A3B145F20403ADF80430E7
:108EF000B4238DF80630019803F006F9234BC0F334
:108F00000721C0F307421870C0B259709A7004F07C
:108F1000ABFCFFF7B5FB48B906F0F6FC810705D5B9
:108F2000FF232C201A46194603F016FEFFF7A8FB74
:108F300078B9174B187800F0D0FD022809D0154BEE
:108F40001B78DA0605D5FF2348201A46194603F098
:108F500003FE114B1B7863B1104BDB78DB0708D5A0
:108F60000F4B1B7863B10023FF221946382003F012
:108F7000F3FD29462046FFF74BFD012003B030BD2D
:108F80001A46FF21F2E700BFF2130020243C002024
:108F9000FA1300202C3C0020E8130020203C002085
:108FA000E11300200120704710B505F01DFA0128DB
:108FB0004FF0804409D005F00FFA4FF40013A3617D
:108FC0004FF00073A361012010BD2023A3614FF473
:108FD0000073F7E713B505F02FFA0128374C0CD1D1
:108FE00005F070FAC0F3072310F0FF008DF805308C
:108FF00013D1DBB2C3B10323237023780133DBB277
:109000000B2B237020D10023237005F0CDF923789A
:109010002B4AD05C05F00DFA22E0782810D005D854
:10902000282809D0502809D00923E5E7A02809D02D
:10903000C828F9D10823DFE70423DDE70523DBE7B0
:109040000623D9E70723D7E70A2BDED105F03AFA42
:10905000FF21C0F30742002005F031FA05F0BCF90A
:1090600005F030FA2378C0F30742092B24D8DFE853
:1090700003F01D2323050C0F1215181BFF210020E0
:1090800002B0BDE8104005F01ABAFF212820F7E72A
:10909000FF215020F4E7FF217820F1E7FF21A020F5
:1090A000EEE7FF21C820EBE70021E8E7FF2002B050
:1090B000BDE8104005F0B0BAC820F8E7F013002072
:1090C0000C10002073B5C74D04462B780E463BB1FB
:1090D0008B782BB10022114610462A7004F0C4FB95
:1090E000B4F5F84F00F0BF8166D847F213039C42F5
:1090F00000F0688132D8B4F5A44F00F0F58107D8AC
:10910000E32C00F07981E72C00F08D810124FBE055
:1091100045F221239C4200F07E8245F223239C42AB
:1091200000F08E8245F202239C42EFD1B378002BEF
:1091300000F0E68000212D20FCF756FFAA4C032208
:10914000FA212E20FCF766FF2E20FCF7FFFE207888
:1091500000F0C3FC022800F0D380DCE147F62703CF
:109160009C4200F0A5810ED847F621039C4200F0F6
:10917000E58147F623039C42C8D1B378002BC5D0C4
:10918000FFF702FCBCE047F629039C4200F0838114
:10919000C0F0988147F62A039C42B7D1B378002BE0
:1091A000B4D005F041FA3328B0D80220FFF77CFD97
:1091B000332005F031FAA3E047F609639C4200F042
:1091C000A6805AD847F602639C4200F0C88025D892
:1091D000B4F5FC4F00F0A18047F601639C4295D1A5
:1091E000FFF74EFA0446002840F08A80B378002B3F
:1091F0008CD07E4B1D78022D88D1FEF707FF00280A
:1092000084D1402329201A461946FCF7BFFE2A467E
:1092100096212920FCF7FEFE29209DE047F60663F3
:109220009C4200F0BC8047F607639C4200F012812C
:1092300047F605639C427FF469AFFFF721FA0446C5
:1092400000285DD1B378002B3FF460AF674B1B78EB
:10925000062B7FF45BAFFEF7D9FE00287FF456AFF4
:10926000402327201A461946FCF790FE0222962139
:109270002720FCF7CFFE27206EE047F617639C42BD
:1092800000F099812BD847F615639C4200F06F815E
:1092900000F27F8147F614639C427FF437AFB378C6
:1092A00073B3534C2078C0F3C300FFF77DFA2078E6
:1092B000C0F3C300FFF762FA0020611CFFF724FB34
:1092C000237860F3C6032370FFF796FC2078C0F381
:1092D000C300FFF78BFA0020FFF7E6FC10E047F62B
:1092E00019639C4200F0CF80C0F0C68047F61A6335
:1092F0009C427FF40BAFB4783E4B1CB101221A7034
:10930000002401E000221A70204602B070BDB3783C
:10931000002BF5D0FFF75EFEF2E7FFF7B1F9044648
:109320000028EDD1B378002B3FF4F0AE2F4B1B7823
:10933000012B7FF4EBAEFEF769FE00287FF4E6AE6A
:1093400040232A201A461946FCF720FE02229621C5
:109350002A20FCF75FFE2A20FCF7F8FDD4E7FFF790
:109360008FF904460028CBD1B378002B3FF4CEAE62
:109370001E4B1B78032B7FF4C9AEFEF747FE002877
:109380007FF4C4AE402328201A461946FCF7FEFDA0
:10939000022296212820FCF73DFE2820DCE7FFF77B
:1093A0006FF90028ACD1B378002B3FF4AFAE0F4B70
:1093B0001B78002B7FF4AAAEFEF728FE041C18BF12
:1093C0000124A1E7B478002C3FF4A0AE0023402193
:1093D0001A46FF20FCF7DAFD0121FF20FCF7EEFD25
:1093E000FF20B9E7F2130020FA130020203C0020F0
:1093F000283C0020E81300209B4B187800F06DFB00
:1094000002287FF483AE994B1B78DA067FF57EAE97
:10941000FFF736F900287FF479AEE320B478B4B1D1
:1094200000F05CFA70E7904B187800F056FB0228C9
:109430007FF46CAE8D4B1B78DB067FF567AEFFF7D4
:109440001FF900287FF462AEB478E720E7E700F068
:109450005BFA5BE6864B1B7803B1B378854A03F071
:10946000010313704CE7B478002C3FF44FAE01F0C9
:10947000CFFEFEF7EFFF47E7B378002B3FF440AF96
:1094800001232B703CE7B378002B3FF439AF622007
:109490000AF0B4F834E7B378002B3FF437AE05F0A8
:1094A000C3F8FF287FF432AE0220FFF7FDFB2DE664
:1094B000B378002B3FF42AAE05F028F88F287FF60A
:1094C00025AEF1E7B478002C3FF420AE05F01EF88D
:1094D00024283FF61BAE0220FFF7E6FB00221146D0
:1094E000104604F0C1F90FE7B378002B3FF408AF42
:1094F00000212E20FCF778FD5B4C0322FA212D2061
:10950000FCF788FD2D20FCF721FD207800F0E5FA1E
:1095100002287FF4F5AE207800F0DFFA30B902209F
:1095200000F04CFA002000F024FEE9E6207800F07C
:10953000D4FA02287FF4E4AE0020F1E7B3789BB1BF
:109540004D4C0020FFF7B0FB2078C0F3C300FFF7BD
:109550002BF92078C0F3C300FFF710F90022474B26
:10956000601C1A70FFF73EFAFFF746FBC8E6B378B7
:10957000002B3FF4C5AE404C2078C0F3C300FFF78A
:1095800013F92078C0F3C300FFF7F8F8611C01203D
:1095900094E6B378002B3FF4B3AE374C2078C0F399
:1095A000C300FFF701F92078C0F3C300FFF7E6F826
:1095B000611C022082E6B378002B3FF4A1AE04F0D8
:1095C0003BFF2D287FF49CAEFFF75AF82A4D044646
:1095D000A8B904F077FFB422C0F30721C0B204F0A9
:1095E0006BFF2878C0F3C300FFF714F9204622462A
:1095F0002146FFF719F80320FFF756FB84E6287889
:109600000024C0F3C300FFF7B9F80020FFF74CFBBC
:109610001A4B1C7078E6B378002B7FF477ADFFF718
:109620002FF800283FF472AD144B1A7832B10022A3
:10963000314645F221201A70FFF712F80124E7E7BE
:10964000B378002B7FF462ADFFF71AF800283FF4DF
:109650005DAD0A4B1A78002AF0D0002231461A700C
:1096600045F22320E8E700BFFA1300202C3C00203D
:10967000203C0020E0130020283C0020F1130020B3
:109680000520704704280DD805290BD80E2A09D8C3
:109690005A23C1EB011103FB0010034B104433F8B4
:1096A00010007047012070479C3F0108052070475B
:1096B000042808D839B9054B82F0010202EB4002B8
:1096C00033F8120070470120704700BF883F01083F
:1096D00008B5302383F31188012100F00F0399406E
:1096E000202220F00F0008F0A6FB002383F311884E
:1096F00008BD000038B50F240B4D55F8040B421C73
:1097000001D0FFF7E5FF013C14F0FF04F5D106247A
:10971000064D55F8040B431C01D0FFF7D9FF013C5F
:1097200014F0FF04F5D138BDF04501082C460108BE
:109730002DE9F843264D0E4655F8211080464B1C66
:10974000174642D0302383F31188012221F00F09FC
:1097500001F00F0102FA01F421464846240408F002
:109760006AFBC9F81840002484F3118801F09FFDBA
:109770006FEA070C1748A8F1020208F10A0850F82E
:10978000041B32F8023FB1F1FF3F1AD021F00F0E57
:10979000DEF810E001F00F012EFA01F1C90710D434
:1097A00001243B4313809045E9D155F82600431C22
:1097B00001D0FFF78DFF21463046BDE8F84301F0A8
:1097C00089BD0CEA03031380EDE7BDE8F88300BF11
:1097D000F04501082C46010810B50C24FFF78AFF5C
:1097E000224600210748FAF741FF22460021064899
:1097F000FAF73CFF062001F071FDBDE8104001F0D2
:1098000042BD00BF3A3C00202E3C002030B5002471
:10981000012585B00194029403942A46E1B201A87F
:109820000134FFF785FF6D000F2CADB2F5D10C228E
:1098300001A90C48FAF774FE002814BF0124002483
:1098400004D00C2201A90748FAF79AFE2346062203
:109850000549044801F044FD044601F019FD204685
:1098600005B030BD2E3C00203A3C0020A0F58073AE
:10987000B3F5F85F10B526D210F4805F00F40074E1
:1098800000F4807300F4806100F400620DD0002BBE
:109890000CBF002010200CB140F0200009B140F0B6
:1098A00040000AB140F0800010BD181C18BF012014
:1098B0000CB140F0020009B140F00400002AF3D0DE
:1098C00040F00800F0E70020EEE710B50C46FFF787
:1098D000CDFF2346BDE8104018470000A0F1E0038B
:1098E000072B10B5044600D940B920460449FFF7BC
:1098F000ECFFE0B2BDE81040FDF7FAB80149F6E729
:10990000516C0008016D000810B50446C0B2FDF7A7
:1099100051F9A4F1E003072B00D92CB903492046E3
:10992000BDE81040FFF7D1BF0149F8E7A96C000876
:10993000596D000801207047704708B5FFF7FCFF1C
:1099400008BD000013B502AB03E903000F4B1B7801
:10995000B3B99DF80230009873B16AB100F0BCFC55
:1099600004460146009800F077FC2046009902B0BA
:10997000BDE8104001F03ABB00F08EFC0446F4E76D
:10998000009800F0A9FC0099F1E700BFF91300204E
:10999000034610B400885C880A4640EA044099886F
:1099A00010BCFFF7CFBF0120704710B5044600215F
:1099B000FFF7EEFF2146FFF7C0FF10BD10B50124F1
:1099C0008440E4B2204601F0D4F82046BDE81040BF
