:04000005080041B9F5
:020000040800F2
:103F00000031000000000000000000000000000080
:103F100047E52D3454573138363700000000000093
:103F200000000000000000000000485300000000F6
:103F30000000000000000000000000000000000081
:103F40000000000000000000000000000000000071
:103F50000000000000000000000000000000000061
:103F60000000000000000000000000000000000051
:103F70000000000000000000000000000000000041
:103F80000000000000000000000000000000000031
:103F90000000000000000000000000000000000021
:103FA0000000000000000000000000000000000011
:103FB0000000000000000000000000000000000001
:103FC00000000000000000000000000000000000F1
:103FD00000000000000000000000000000000000E1
:103FE00000000000000000000000000000000000D1
:103FF00000000000000000000000000000000000C1
:1040000000040020B9410008BB410008BB41000882
:10401000BB410008BB410008BB4100084C21010026
:104020009E16D9D0BB410008BB410008ED1701081E
:10403000BB410008BB410008BB410008272A01081A
:10404000BB410008BB410008BB410008BB41000860
:10405000BB410008BB410008A5760008E5760008D2
:104060002577000869770008AD770008BB41000894
:10407000BB410008BB410008F1300108BB4100080A
:10408000F1770008BB410008BB410008BB410008B4
:10409000BB410008BB410008BB410008BB41000810
:1040A000BB410008BB410008DD2C0108F12C0108D0
:1040B000BB410008BB410008BB410008BB410008F0
:1040C000452A010891780008BB410008457900089D
:1040D000BB410008BB410008BB410008BB410008D0
:1040E00072B6264880F30888254880F30988254859
:1040F00025490860022080F31488BFF36F8F0DF00C
:104100008FF80CF06BFE4FF0553020491B4A91425E
:104110003CBF41F8040BFAE71D49194A91423CBFE4
:1041200041F8040BFAE71B491B4A1C4B9A423EBF5D
:1041300051F8040B42F8040BF8E700201849194A1B
:1041400091423CBF41F8040BFAE70DF06DF80DF019
:1041500068F8154C154DAC4203DA54F8041B884737
:10416000F9E707F0EBFB124C124DAC4203DA54F8BE
:10417000041B8847F9E70DF055B800000004002043
:10418000000C00200040000808ED00E000000020C6
:1041900000040020685A0108000C0020E4110020EF
:1041A000E8110020F0400020E0400008E040000856
:1041B000E0400008E040000892E700F000F8FEE769
:1041C0002DE9F04FC1F80CD0C3689D46BDE8F08FD3
:1041D000002383F311882846A04700200DF03AFA07
:1041E000FEE70DF06BF900DFFEE7000053B94AB9B6
:1041F000002908BF00281CBF4FF0FF314FF0FF30EF
:1042000000F076B9ADF1080C6DE904CE00F006F8C7
:10421000DDF804E0DDE9022304B070472DE9F04742
:10422000089E0D4604468846002B4DD18A4294468E
:1042300068D9B2FA82F252B101FA02F3C2F1200156
:1042400020FA01F10CFA02FC41EA030894404FEA1B
:104250001C41B8FBF1F71FFA8CFE01FB178807FB26
:104260000EF0230C43EA084398420AD91CEB0303DF
:1042700007F1FF3580F01E81984240F21B81023F1A
:1042800063441B1AB3FBF1F001FB103300FB0EFE7D
:10429000A4B244EA0344A6450AD91CEB040400F185
:1042A000FF3380F00981A64540F20681644402385C
:1042B0000021A4EB0E0440EA07401EB10023D440C5
:1042C000C6E90043BDE8F0878B4208D9002E00F014
:1042D000EE800021C6E900050846BDE8F087B3FA84
:1042E00083F100294AD1AB4202D3824200F2FC8022
:1042F000841A65EB030301209846002EE2D0C6E93C
:104300000048DFE702B9FFDEB2FA82F2002A40F08D
:104310009180A1EB0C0001214FEA1C471FFA8CFE93
:10432000B0FBF7F307FB1300250C45EA00450EFB35
:1043300003F0A84208D91CEB050503F1FF3802D2AF
:10434000A84200F2CE8043462D1AB5FBF7F007FBDA
:1043500010550EFB00FEA4B244EA0544A64508D958
:104360001CEB040400F1FF3502D2A64500F2B68032
:104370002846A4EB0E0440EA03409EE7C1F1200763
:104380008B4022FA07FC4CEA030C25FA07FA4FEAA5
:104390001C49BAFBF9F820FA07F309FB18AA8D406B
:1043A0001FFA8CFE1D4300FA01F308FB0EF02C0CE3
:1043B00044EA0A44A04202FA01F20BD91CEB0404BD
:1043C00008F1FF3A80F08880A04240F28580A8F191
:1043D00002086444241AB4FBF9F009FB104400FB02
:1043E0000EFEADB245EA0444A64508D91CEB040410
:1043F00000F1FF356CD2A6456AD90238644440EA20
:104400000840A0FB0295A4EB0E04AC42C846AE46A1
:1044100056D353D0002E69D0B3EB080264EB0E04E0
:1044200022FA01F304FA07F71F43CC40C6E90074EF
:10443000002147E70CFA02FCC2F1200125FA01F342
:104440004FEA1C4720FA01F195400D43B3FBF7F109
:1044500007FB11331FFA8CFE280C40EA034001FBD6
:104460000EF3834204FA02F408D91CEB000001F1B8
:10447000FF382FD283422DD902396044C01AB0FBD5
:10448000F7F307FB1300ADB245EA004503FB0EF05E
:10449000A84208D91CEB050503F1FF3816D2A84243
:1044A00014D9023B6544281A43EA014138E73146F2
:1044B000304607E72F46E4E61846F9E64B45A9D211
:1044C000B9EB020865EB0C0E0138A3E74346EAE7B7
:1044D000284694E74146D1E7D0467BE7644402385A
:1044E00047E7023B65442FE7084606E73146E9E621
:1044F000704700BF062008B500F0E0FA01200EF07A
:10450000DBF800BF024B0146186800F06DB900BF30
:10451000000C0020024B0146186800F0FFB800BFF5
:10452000000C0020032A10B516D940EA010C1CF03B
:10453000030F04460B4622D119462046D1F800E06D
:10454000D0F800C00433F44504F1040417D1043A50
:10455000032A20461946EFD8541EA2B100F1FF3CB1
:10456000013901E0C3180CD01CF801EF11F8012F3C
:10457000A4EB0C039645F5D0AEEB020010BD541E23
:10458000ECE7184610BD104610BD00BF844641EA56
:10459000000313F0030349D1403A23D30B680360AF
:1045A0004B6843608B688360CB68C3600B690361B1
:1045B0004B6943618B698361CB69C3610B6A036299
:1045C0004B6A43628B6A8362CB6AC3620B6B036381
:1045D0004B6B43638B6B8363CB6BC3634030403166
:1045E000403ADBD230320BD30B6803604B68436038
:1045F0008B688360CB68C36010301031103AF3D2FF
:104600000C3205D351F8043B40F8043B043AF9D28C
:10461000043208D0D2071CBF11F8013B00F8013B5F
:1046200001D30B8803806046704700BF082A13D36C
:104630008B07B1D010F00303AED0C3F10403D21A3C
:10464000DB071CBF11F8013B00F8013BA4D331F894
:10465000023B20F8023B9FE7043AD9D3013A11F814
:10466000013B00F8013BF9D20B7803704B784370A3
:104670008B78837060467047830730B548D0541EEE
:10468000002A3FD00346CAB201E0013C3AD303F806
:10469000012B9D07F9D1032C2DD9CDB245EA052573
:1046A0000F2C45EA054536D9A4F1100222F00F0C73
:1046B00003F1200EE6444FEA121C03F1100242E916
:1046C000045542E9025510327245F8D10CF101024D
:1046D00014F00C0F03EB021204F00F0C13D0ACF12A
:1046E000040323F003030433134442F8045B9342AE
:1046F000FBD10CF003042CB1CAB21C4403F8012B0B
:104700009C42FBD130BD64461346002CF4D1F9E73E
:1047100003461446BFE71A46A446E0E7002952D0F4
:1047200038B551F8043C0C1F002BB8BFE4180546FF
:1047300000F0F0FA2B4A1368002B45D0A3420CD9A5
:1047400021686018834228D0636028461460BDE861
:10475000384000F0E1BAA3420FD81A465B68002B3C
:10476000F9D11168501884421DD034D3636054606D
:104770002846BDE8384000F0CFBA11685018A04272
:1047800015D028D8216860188342EFD118685B687B
:104790000144C4E900135460EAE718685B68014407
:1047A000C4E90013D1E7236819441160E0E72068E9
:1047B0000144501883421160DAD1D3E90003014467
:1047C000C2E90013D4E77047284663601460BDE86F
:1047D000384000F0A1BA0C2328462B60BDE83840D1
:1047E00000F09ABAE8110020F8B5CD1C25F00305B9
:1047F00008350C2D38BF0C25002D064623DBA942B9
:1048000021D8264F00F086FA3A6822B3144603E016
:1048100063682246FBB11C4623685B1BF8D40B2B54
:1048200015D8636894420CBF3B605360304600F07B
:1048300073FA04F10B00231D20F00700C21A01D007
:104840001B1AA350F8BD0C2300203360F8BD236071
:104850001C442560EAE77968D1B1294630460DF05D
:104860000FFF431C01460CD0C41C24F00304A042DB
:1048700005D03046611A0DF003FF013001D02560EC
:10488000D4E70C233046336000F046FA0020F8BD30
:1048900030460DF0F5FE7860DFE700BFE81100203C
:1048A00038B5124B04461D68AA6B1AB10023C2E941
:1048B000044338BD1820FFF725FE0246A86378B1EF
:1048C00000210B2301209381C2E90401084B09490F
:1048D000094DC2E9011300231560C2E9044338BD44
:1048E0004221064B064800F0CDF900BF000C002025
:1048F000ECDE050034126DE60E33CDAB985901089D
:10490000B059010838B5194B1C68A26B8AB11369FC
:104910001749546903FB01F1164800FB0411A3FB7E
:104920000030013341EB0001C2E9043121F00040C5
:1049300038BD1820FFF7E6FD0246A06388B10124C8
:1049400000250B230A480C49C2E9044511600146C1
:104950000A4D0B4C93810B4BC2E90154C2E904315F
:1049600038BD4E21084B094800F08CF9000C00209E
:104970002DF451582D7F954C0E33CDAB34126DE68E
:10498000ECDE05002E7F954C98590108B0590108BE
:1049900038B5446C0CB1002038BD80210546FFF7C6
:1049A00023FF0246686430B1031F7C3243F8044F92
:1049B0009342FBD1EFE74FF0FF3038BD1F29F8B528
:1049C000054608D8466C0C4617464EB156F82400EA
:1049D00046F82470F8BD16234FF0FF302B60F8BD69
:1049E0008021FFF701FF0646686440B10021031FE4
:1049F00000F17C0543F8041F9D42FBD1E6E74FF030
:104A0000FF30F8BD1F2938B5054620D8426C0C464A
:104A10006AB152F8213053B1012B16D0591C10D075
:104A20000025204642F824509847284638BD28469D
:104A300000F0F8F8224601462846BDE8384000F06C
:104A4000DDB8162301202B6038BD002038BD1623A9
:104A50004FF0FF302B6038BD1F292BD8426C38B582
:104A60000C46054682B152F8243002EB84024BB169
:104A7000591C1AD0012B16D00025204615609847E6
:104A8000284638BD012038BD8021FFF7ADFE024623
:104A9000686460B10020131F02F17C0143F8040F29
:104AA0009942FBD1DFE7032038BD022038BD4FF02B
:104AB000FF3038BD4FF0FF30704700BF38B5144BA2
:104AC0001F281D681FD86A6C044662B152F8203056
:104AD0004BB1012B15D0591C0FD0002542F82050A6
:104AE0009847284638BD284600F09CF822460146E3
:104AF0002846BDE8384000F081B8162301202B601D
:104B000038BD002038BD16234FF0FF302B6038BD74
:104B1000000C0020124B1F2870B51E6808D80D46E7
:104B2000716C044649B151F8240041F8245070BD1D
:104B300016234FF0FF30336070BD80213046FFF701
:104B400053FE0146706440B10022031F00F17C0C4B
:104B500043F8042F6345FBD1E5E74FF0FF3070BD0C
:104B6000000C002038B50B4B1D686C6C0CB100209C
:104B700038BD80212846FFF737FE686438B1031F2F
:104B800000F17C0243F8044F9342FBD1EFE74FF072
:104B9000FF3038BD000C002038B5174B1F281D68AA
:104BA00027D86A6C044682B152F8243002EB8402A2
:104BB0004BB1591C1BD0012B17D000252046156086
:104BC0009847284638BD012038BD80212846FFF788
:104BD0000BFE0246686460B10020131F02F17C01E5
:104BE00043F8040F8B42FBD1DEE7032038BD0220DF
:104BF00038BD4FF0FF3038BD000C002070B50026E6
:104C0000074D0446084611462E600DF05DFD431C1D
:104C100000D070BD2B68002BFBD0236070BD00BF9F
:104C2000F01100200DF058BD20F0030110F003003A
:104C3000C0F1000051F8043B00F1040C4FEACC0C29
:104C40006FF000021CBF22FA0CF213434FF0010C6C
:104C50004CEA0C2C4CEA0C4CA3EB0C0222EA0302AB
:104C600012EACC1204BF51F8043B0430F4D0C2F174
:104C7000000102EA0102B2FA82F2C2F11F0200EB65
:104C8000D2007047144600B51A460A4B0D461B6801
:104C900085B0DE6803464CB10749019130460749AB
:104CA0000294009500F022F8FFF724FC04490C461A
:104CB000F3E700BF000C0020E4590108F459010893
:104CC000F059010808B513460022FFF7DBFF00BFCB
:104CD0000CB400B583B004AB53F8042B019300F07F
:104CE00057F803B05DF804EB02B070470EB400B59E
:104CF000074A82B003AB0146106853F8042B0193B6
:104D000000F046F802B05DF804EB03B0704700BF56
:104D1000000C0020704700BF704700BF9368013B44
:104D2000002B936005DAD2F818C0634507DB0A2927
:104D300005D01368581C106008461970704700F0C1
:104D400069BB00BF9BB1F8B5134406460F46541E1D
:104D50005D1E01E0AC4208D03A46304614F8011F0F
:104D6000FFF7DCFF431CF5D1F8BD0020F8BD0020A3
:104D7000704700BF936810B5144613B918465360C6
:104D800010BD00F031FE0023C4E9013310BD00BFA7
:104D90002DE9F04F0E4692461C4607469FB018B1CB
:104DA0008369002B00F0A880954B9E4200F0AA80FA
:104DB000944B9E4200F0B580934B9E4208BFFE6824
:104DC000B389180740F1A3803369002B00F09F805E
:104DD000002320220B9330239AF80010059401251C
:104DE0008A4C8DF831208DF8323000297DD0D146A3
:104DF0000B4604E019F8013F002B00F09480252BAE
:104E0000F8D1B9EB0A0B40F0918099F80030002BF3
:104E10006BD000234FF0FF3209F10109CDE90723E0
:104E2000069309938DF85B301C9304E0001B05FA90
:104E300000F018430690CA460522204619F8011BC7
:104E400001F01CF8069B0028F0D1D90644BF2022AF
:104E50008DF85B201A0748BF2B229AF8001048BF34
:104E60008DF85B202A2972D1059A11680432002935
:104E70000592C0F2A08009919AF801100AF1010A86
:104E80002E2976D0DFF888910322484600F0F6FFFD
:104E900048B14022069BA0EB090002FA00F0034350
:104EA0000AF1010A06931AF8011B062259488DF8E7
:104EB000301000F0E3FF002800F08380564B002BF9
:104EC0006CD005A9009132463846544B06A9AFF381
:104ED00000800390039B013307D00B9B039A9AF841
:104EE000001013440B93002981D1B3895B0615D4BC
:104EF0000B981FB0BDE8F08F00F056FD404B9E426E
:104F00007FF456AF7E68B38918073FF55DAF314631
:104F1000384600F0E1FA00283FF45AAF4FF0FF3076
:104F2000E7E7BE684CE7B9EB0A0BDED0D046CAF122
:104F3000010A03E0934538D918F8011F3246384674
:104F4000FFF7ECFE01300AEB0802F3D1CDE7A1F147
:104F50003002092A94D8099B1AF8011F03EB830336
:104F600002EB4303A1F13002092AF5D92E29099356
:104F700088D19AF801102A292DD1059B0AF1020047
:104F80001A680433002A0593B8BF4FF0FF339AF82C
:104F9000021007928246B8BF079373E7059B073359
:104FA00023F007030833059397E70B9A99F800302D
:104FB0005A440B922BE7494243F0020309910693AE
:104FC0005AE705A9009132463846144B06A900F06D
:104FD000CBF803907EE70023A1F13002092A0AF101
:104FE000010A07933FF64EAF1AF8011F03EB830344
:104FF00002EB4303A1F13002092AF5D9079341E7F7
:105000005C4601083C4601081C460108245A010878
:105010002C5A0108305A010800000000454D0008D4
:105020008C4600B586461346034A714610685DF803
:1050300004EB6246FFF7ACBE000C00202DE9F04700
:1050400091461E460A698B680C469A42B8BF1A46BA
:10505000C9F8002091F843300546DDF8208013B1EF
:105060000132C9F80020226891065DD5D9F80030D8
:105070000233C9F80030226812F0060F11461ED123
:10508000E168CB1A002BD8BF114618DD002704F1C8
:10509000190A06E0D9F80030E268A2EB030CBC451F
:1050A0000CDD0123524631462846C047013007F146
:1050B0000107EFD14FF0FF30BDE8F087216894F889
:1050C0004330003B18BF01238A060AD53021E2187D
:1050D00082F8431094F845105A1C2244023382F897
:1050E00043103146284604F14302C0470130E1D065
:1050F000236803F00603042B1DD0A36822699342A2
:1051000025DD00279B1A1F4404F11A09002401E041
:10511000BC421CDA01234A4631462846C0470130CA
:1051200004F10104F4D1C5E712F0060F12D0003BE0
:1051300018BF0123D5E7D9F80030E1682269C91A00
:10514000A36821EAE1779342DCDC0029DCDC002063
:10515000BDE8F087E168D9F80030CB1A002BD8BF42
:10516000114693DCABE700BF2DE9F04317460A7EFA
:1051700085B00C46064698460C9D01F1430C002A6A
:1051800033D0A2F15803D9B2202967D8202B65D893
:10519000DFE813F0DD006400640064006400640074
:1051A00064006400640064006400A3006E00640096
:1051B0006400640064006E006400640064006400C5
:1051C00021007F00BF0064006400AE0064007F0027
:1051D00064006400E40023681A0640F102812B6831
:1051E0006269191D29601B681A600023E14623616A
:1051F0003B4621463046CDF8008003AAFFF71EFF4C
:10520000013020D04A46394630462369C047013034
:1052100019D02368E0689B07039919D5431A002B1E
:1052200016DD002504F1190904E0E0680399431A2A
:10523000AB420DDD01234A4639463046C0470130B6
:1052400005F10105F1D14FF0FF3005B0BDE8F08365
:105250008842B8BF084605B0BDE8F083012384F852
:10526000422004F142092361002384F84330BFE760
:105270002368190602D45A0600F1BF8029680A681B
:10528000043129601146002A6ADB0A25DFF87CE137
:1052900010E02368180640F19A802B68191D2960D8
:1052A00019686F2A0CBF08250A25DFF860E1002382
:1052B00084F843306268002AA2607DDB236823F013
:1052C00004032360002959D1002A77D1E146082D33
:1052D00063D0ACEB090323618AE701222B6804F158
:1052E0004209196804332B6084F842102261BBE73D
:1052F0002B6800211A1D2A60D3F800906268484686
:1053000000F0BCFD00287FD0A0EB090060602061A8
:10531000AAE7236843F0200323607822DFF8F0E057
:1053200084F845202A68111D2960190642D45D06BB
:1053300040D51188D80744BF43F0200323600029DB
:1053400043D12368102523F020032360AFE75823BF
:10535000DFF8B8E084F845302368E3E72368DCE74A
:105360002D2284F8432062684942002AA26002DBB1
:1053700023F0040323600A25DFF890E0E146B1FB47
:10538000F5F30A4605FB131019461EF80030AA4231
:1053900009F8013DF3D2082D9BD12368D90798D590
:1053A000626823699A4294DC302309F1FF3989F855
:1053B00000308EE71168BDE70029DFD19EF800308C
:1053C00004F1420984F8423081E710256FE713F0B9
:1053D000400F2B6803F1040129600CBF196819887C
:1053E0005FE713F0400F2B68626903F10401296045
:1053F0001B6814BF1A801A60F7E62A68B2F9001019
:1054000004322A600A463EE7606880E7385A01089D
:105410004C5A0108F8B506460D46144608B1836992
:1054200043B3254B9C422AD0244B9C4229D0244B89
:105430009C4208BFF468A269A389A2601A0722D51A
:10544000236903B322686169D31AEDB299422F46EA
:1054500029DD0133A1680139A160511C216015705B
:1054600062699A4216D0A389DB0701D50A2D11D0B3
:105470003846F8BD00F098FA0F4B9C42D4D17468BE
:10548000D9E7B468D7E72146304600F025F838B9A7
:105490002369D7E72146304600F024F90028E7D0F9
:1054A0004FF0FF37E4E72146304600F01BF90028B3
:1054B000F6D101232268CDE75C4601083C4601088D
:1054C0001C46010803460A46024908681946FFF7C8
:1054D000A1BF00BF000C00203C4B70B51D68064604
:1054E0000C460DB1AB69E3B1394B9C421FD0394B2F
:1054F0009C424DD0384B9C4208BFEC68B4F90C304C
:1055000018079AB219D5216911B312F001002FD0F2
:1055100000256069A5604042A06100292ED00020CE
:1055200070BD284600F040FA294B9C42DFD16C68E0
:10553000B4F90C3018079AB2E5D4D1063ED552071B
:1055400028D4216943F00803A3819AB20029DCD151
:1055500002F42070B0F5007FD7D02146304600F02D
:10556000FFFBB4F90C3021699AB212F00100CFD1DF
:10557000950758BF6069A0600029D0D1120658BFB6
:105580000846CDD543F040034FF0FF30A38170BDF6
:10559000AC68B3E7616B51B104F14402914204D0AD
:1055A0003046FFF7BBF8B4F90C30002262630022EA
:1055B000216923F02403C4E90012C3E7092243F060
:1055C000400332604FF0FF30A38170BD000C00201B
:1055D0005C4601083C4601081C460108F8B58B8969
:1055E0000C46190707463BD46268002A55DDE66A77
:1055F000002E50D000223D683A6013F4805250D102
:1056000001233846216AB047421C5CD0A389E66A70
:105610005B0705D56368C01A636B0BB1236CC01AB6
:105620000246216A00233846B047411C3BD13B6803
:10563000002B38D01D2B01D0162B4BD10023226913
:10564000C4E90023616B3D6029B304F1440399422E
:1056500002D03846FFF762F8002318466363F8BDAE
:105660002669C6B19A0718BF0023256808BF636979
:105670002660AD1BA3600CE02B463246D4F828C050
:105680003846216AE047B0F1000CA5EB0C056644F2
:1056900012DD002DF0DC0020F8BD226C002AA6DC13
:1056A000F9E7606DB4E70022236962602360A38993
:1056B000DB04C7D56065C5E7A3894FF0FF3043F031
:1056C0004003A381F8BD3B68002B9FD01D2B06D063
:1056D000162B04D0A38943F04003A381F8BD00201A
:1056E0003D60F8BD38B50B69BBB10C46054608B145
:1056F0008369B3B10D4B9C4211D00D4B9C4213D02A
:105700000C4B9C4208BFEC68B4F90C302BB121461D
:105710002846BDE83840FFF761BF002038BD6C68FF
:10572000F2E700F041F9E5E7AC68EDE75C46010817
:105730003C4601081C46010838B540B303690446DD
:10574000E3B1174B1D680DB1AB69CBB1154B9C4252
:105750000FD0154B9C4221D0144B9C4208BFEC68E3
:10576000B4F90C3053B121462846BDE83840FFF764
:1057700035BF6C68B4F90C30002BF4D1002038BD73
:10578000284600F011F9074B9C42E2D1F1E7084BA3
:1057900008491868BDE8384000F0BEBAAC68DFE7D9
:1057A000000C00205C4601083C4601081C4601082C
:1057B00018460108E556000800207047014900F02E
:1057C000ABBA00BFE556000800207047682270B5EC
:1057D0004D1E02FB05F50E4605F17401FFF704F8B6
:1057E000044640B100210C30C4E9016005F16802B3
:1057F0002160FEF741FF204670BD00BF274B2DE919
:10580000F0411E680746B36953B34FF004084836A9
:10581000D6E90134013B04D51EE05A1C04F16804AA
:105820001AD0B4F90C50013B002DF6D11C4B0822C4
:105830002946C4E90055C4E90253C4E90455656624
:10584000A56104F15C00FEF717FFC4E90D55C4E93A
:1058500012552046BDE8F08135682DB12E46D7E7B8
:10586000304600F01FF8D0E74FF4D6713846FEF707
:10587000BBFF044668B1056029460546C0F80480B0
:105880000C304FF4D072A060FEF7F6FE34602E4666
:10589000BEE70C2330603B60DBE700BF1846010821
:1058A0000100FFFF0023334A2DE9F0471268C0E9E9
:1058B00012339042036508BF01232F4908BF83615B
:1058C00081620546FFF79AFF034628466B60FFF7A3
:1058D00095FFA86028460024FFF790FF04236E6818
:1058E000DFF898A0DFF89890DFF89880264FE860FE
:1058F0000822F3602146C6E90044C6E90444746600
:10590000B460B46106F15C00FEF7B6FE1F4BC6E959
:10591000086AC6E90A983763AE680822F360214630
:10592000C6E90044C6E904447466B460B46106F193
:105930005C00FEF7A1FE164BC6E9086AC6E90A98A4
:105940003763EE682146F3600822C6E90044C6E9E1
:1059500004447466B460B46106F15C00FEF78CFE2A
:105960000123C6E9086AC6E90B87C6F82890AB612F
:10597000BDE8F08718460108BD57000855600008CB
:105980007D600008BD600008DD60000809000100BE
:1059900012000200024B0349186800F0BDB900BFB5
:1059A00018460108E5560008836903B97AE770478D
:1059B000704700BF704700BF704700BF704700BF0F
:1059C000024B0349186800F087B900BF000C0020A3
:1059D000B9570008024B0349186800F07DB900BFB1
:1059E000000C0020C95700089368002B00F0B78016
:1059F0002DE9F04FB1F90C300C46190780461746D7
:105A000083B098B225D523691BB310F002033D681B
:105A10002DD04FF0000B5E46DFF8B8A2002E00F04C
:105A20008B80564533465A4628BF53464046216A26
:105A3000D4F828C0E047002840F38780BB6883443F
:105A40001B1A361ABB60002BE8D1002003B0BDE85A
:105A5000F08F21464046FFF73FFD002840F0368199
:105A6000B4F90C303D6898B210F00203D1D110F0B7
:105A7000010976D14E46002E5AD08205D4F808B0DE
:105A800040F1B580B3455A4600F2CD8010F4906FD6
:105A900000F0CB8023682169A3EB010B636903EB62
:105AA000430A0AEBDA7A0BF101034FEA6A0A33443C
:105AB0005345524684BF9A465246430540F1EA8018
:105AC00011464046FEF790FE002800F0F9805A4645
:105AD00021690190FEF75AFDA289019B22F4906290
:105AE00042F08002A28103EB0B0023613246AAEB55
:105AF0000B03B346C4F814A0A3602060B24600268E
:105B00004946019200F002FAA3682168019AA3EBCA
:105B10000B030A44A3602260B868D144A0EB0A00DA
:105B2000B860002891D0B4F90C0080B2002EA4D146
:105B3000D5E9009608359EE7D5E900B608356DE74A
:105B400021464046FFF7CEFD80B3B4F90C304FF04C
:105B5000FF3043F04003A38103B0BDE8F08F002085
:105B600070471E46AA46994618461D4656B3002859
:105B700032D04A4620682169B24228BF3246884264
:105B8000636904D9A16803EB010B5A4574DC9342A5
:105B900065DC2A464046216AD4F828C0E047B0F1C7
:105BA000000BD2DDB9EB0B09CAD00120BB685D4404
:105BB000A3EB0B03A6EB0B06BB60002B3FF445AF3A
:105BC000002ED4D10AF1080353F8046C9A4653F816
:105BD000085C0833002EF7D032460A21284600F030
:105BE0004DF9002869D00130A0EB0509C1E7206814
:105BF000236998421BD86369B34218D86FF0004CF0
:105C0000B44528BFB4469CFBF3FC4A4603FB0CF3A7
:105C10004046216AD4F828C0E047B0F1000A94DD7C
:105C2000A6EB0A0678E7B3463246206866E7B34536
:105C3000DA4628BFB2464946524600F067F9A368E3
:105C40002268A3EB0A035244A3602260002BE7D131
:105C500021464046FFF746FD0028E1D075E729467A
:105C60009346019200F052F9A368019A9B1AA3602F
:105C700023681A44226095E729465A4600F046F9FF
:105C8000236821465B4440462360FFF72BFD002834
:105C900088D05AE7404600F0B5F9034600287FF463
:105CA00022AF40462169FEF739FD0C22B4F90C30D1
:105CB000C8F8002023F0800349E7721C914659E799
:105CC0000C22B4F90C30C8F8002040E74FF0FF3048
:105CD000BCE600BF00FCFF7F2DE9F04100268846AE
:105CE00000F14807D7E90154013D0ED4A389013DD5
:105CF000012B06D9B4F90E30013302D02046C0473B
:105D000006436B1C04F16804F0D13F68002FE9D111
:105D10003046BDE8F08100BF2DE9F8434FF000099F
:105D20000746884600F14806D6E90154013D10D4E3
:105D3000A389013D012B08D9B4F90E30013304D0F9
:105D400021463846C04749EA00096B1C04F1680443
:105D5000EED13668002EE7D14846BDE8F88300BF93
:105D6000F0B58B890C46990797B007D5012204F14D
:105D70004703C4E90432236017B0F0BDB4F90E1034
:105D8000054600292DDB6A460CF087FC002827DB3E
:105D9000019E4FF4806706F47046A6F50056B6FAE9
:105DA00086F6394628467609FEF71EFD30B3A389EC
:105DB0001A4A43F08003AA62C4E90407A381206061
:105DC000002ED9D02846B4F90E100CF072FC002831
:105DD000D2D0A38923F0030343F00103A381CBE7CF
:105DE000A38913F0800F14BF40274FF48067284623
:105DF00039460026FEF7F8FC0028D8D1B4F90C305B
:105E00009A05B9D4012123F0030304F1470243F0BA
:105E10000203C4E90421A3812260ADE7BD57000855
:105E200070B50C46B1F90E10164600291D4696B005
:105E300013DB6A460CF031FC00280EDB01994FF4AD
:105E4000806301F47041A1F50051B1FA81F10020A5
:105E500049092960336016B070BD0022B4F90C30D6
:105E60002A601B0604D540230020336016B070BDA5
:105E70004FF480630020336016B070BD5FFA81FC80
:105E8000810710D00346511E2AB90AE09A07184626
:105E90000AD0013905D3184613F8012B6245F5D114
:105EA000704700207047114603290CD80029F8D00C
:105EB0000346014401E08B42F3D0184613F8012B4E
:105EC0006245F8D1ECE7024610B54CEA0C2444EAEE
:105ED00004441046036804326340A3F1013E2EEAF5
:105EE000030313F0803F04D1043903291046F0D88E
:105EF00051B10346014401E08B4205D0184613F826
:105F0000012B6245F8D110BD002010BD88420DD98B
:105F10008B1883420AD900EB020CBAB1624613F81F
:105F200001CD994202F801CDF9D170470F2A0ED860
:105F3000034602F1FF3C4AB10CF1010C013B8C44D9
:105F400011F8012B614503F8012FF9D1704740EAA0
:105F500001039B074FD1A2F1100370B501F1200C92
:105F600023F00F0501F1100E00F11004AC441B09E1
:105F70005EF8105C0EF1100E44F8105C5EF81C5CCC
:105F8000103444F81C5C5EF8185C44F8185C5EF849
:105F9000145CE64544F8145CEAD1013312F00C0FAE
:105FA00001EB031102F00F0400EB031327D08E4620
:105FB000043C24F003064FEA940C1E441C1F5EF8B8
:105FC000045B44F8045FB442F9D10CF1010402F01F
:105FD000030203EB840301EB840102F1FF3C4AB1AD
:105FE0000CF1010C013B8C4411F8012B614503F8C5
:105FF000012FF9D170BD034602F1FF3C9CE7224618
:10600000EBE700BFF8B51446F9B1CAB106460D4634
:1060100000F068F8A04202D32F463846F8BD21466A
:106020003046FEF7E1FB07460028F6D02246294617
:10603000FEF7ACFA30462946FEF770FB3846F8BD4D
:106040002746FEF76BFB3846F8BD1146BDE8F84021
:10605000FEF7CABB10B50C46B1F90E100CF005FBEB
:10606000002803DB636D0344636510BDA38923F43B
:106070008053A38110BD00BF002070472DE9F0417F
:106080000C46B1F90C101F46CB05054616460BD43D
:1060900021F48051A1813B4632462846B4F90E10C6
:1060A000BDE8F0410CF0E8BAB4F90E10022300226A
:1060B0000CF0E0FAB4F90C10EAE700BF10B50C469A
:1060C000B1F90E100CF0D6FAA389421C0EBF23F4CE
:1060D000805343F480536065A38110BDB1F90E1065
:1060E0000CF0CCBA51F8040C0028A0F10400BCBF9D
:1060F0000B58C018704700BF0F4A0023114610B557
:10610000147C844211D11C225343CA18906858B1A0
:10611000CB58FF281FBF58434000013050604FF05C
:10612000010004BF0133536010BD01330F2B02F196
:106130001C02E5D10020F7E7B40E0020F0B50A4EAE
:1061400000253446377C874207D11C2000FB0540E0
:106150004176027683760120F0BD01350F2D06F1E0
:106160001C06EFD10020F7E7B40E0020094A30B535
:1061700000231446157C854205D11C22012002FB18
:106180000343996030BD01330F2B02F11C02F1D1A2
:106190000020F7E7B40E0020094A30B5002314466A
:1061A000157C854205D11C22012002FB0343596066
:1061B00030BD01330F2B02F11C02F1D10020F7E7B3
:1061C000B40E002070B50B4C00232546267C864279
:1061D00009D11C204343E818E95000238260C360C2
:1061E0004374012070BD01330F2B04F11C04EDD169
:1061F0000020F7E7B40E002070B500252E462B4C8A
:106200006368002B4FD0E06808BB637CB3FA83F36C
:106210005B0963740AF09EFAD4E900239342E060BC
:106220002BD266606674E66063690BB1207C984788
:10623000207CFF2824D100221146104608F052F895
:106240000735692D04F11C04DAD1012070BD0AF074
:10625000C5FA23689842D8D26368002BE4D0204660
:1062600002F064FF0028EBD0637C207CB3B1FF28F0
:106270000CD1A27E217E607EE0E79B1A6360EBE793
:106280005228DDD800231A46194604E05228D7D8F0
:10629000A37E227E617E07F0ABF9D1E7FF28CAD04A
:1062A0005228CDD8EFE76374E360C9E7B40E00204D
:1062B00007B543788DF8003083788DF80130C378C6
:1062C0008DF8023043798DF80330037968468DF8F4
:1062D00004300DF0DBFF03B05DF804FB08B5074B9D
:1062E0005A78032A07D858680AF078FAC72894BF62
:1062F0000020012008BD0020FCE700BFA40C002006
:106300007047002280214FF0804008B50CF055FB0B
:10631000FFF7F6FF00BF00BF00BF00BF00BF00BF18
:1063200000BF00BF00BF00BF00BF00BF00BF00BF75
:1063300000BF00BF00BF00BF08BD08B501F088FB6B
:1063400008BD000008B5054C20780DF097FA2078BC
:10635000FFF7F3FF05200BF082F9F5E7E83C00209A
:1063600010B5084C236803F07142074B13432360B8
:106370000AF0F0F9054B18602068BDE8104004F001
:1063800006BF00BFE83C00200001010EF81100200C
:1063900010B5064C0122204602210CF00EFB022310
:1063A000A361BDE8104001F0F7BB00BF000400404E
:1063B00001207047144B10B51C78BCB9134B1B78E7
:1063C000042B13D104F0D0FD04F0E4FD04F096FD9D
:1063D00004F010FE05F022FF05F03CFF20460AF015
:1063E0004FF82046BDE810400AF066B80DF052FFA5
:1063F00048B10DF039FA0028FBD1BDE810404CF24D
:1064000050300BF02CB910BDE83C00209C4000201F
:1064100038B500230C46084D0B7030B10AF09AF9DC
:10642000002328602370002038BD28680AF0D6F9C0
:106430003228F3D8F7E700BF08120020084B9A78FB
:10644000012A07D0022A09D0064B1868B0FA80F05A
:106450004009704758780128F6D170470120FCE7C1
:10646000A40C00207013002008B5054B9B78013B5D
:10647000012B02D9FFF7E2FF08BD0120FCE700BFB6
:10648000A40C002008B50AF065F9014B986008BD1E
:10649000A40C002010B50B4C2378207063700AF018
:1064A00059F96060FFF7EEFF00F0A0FE0022064BF6
:1064B0001A70237823B9BDE8104053200DF066BE52
:1064C00010BD00BFA40C002004120020F8B50C463B
:1064D0001546074660B300293FD0884201D0FFF738
:1064E00069FF584E3378013B012B04D80320FFF796
:1064F000D1FF0023B370544E3378A34200D11DB1B5
:106500000022524B9A619A83347024B1631E042B8B
:10651000747098BFB470306804F039FE3378062B7D
:1065200000F28980DFE803F0852A46505A646E0045
:106530000029D6D00222464B464E9A613378012B71
:10654000CDD030460CF018FA30460BF0E3FD42484F
:10655000424B836009F060FFC1E74FF400323C4BCF
:106560003C489A610378042BB9D03D4B3A4E1970E0
:106570003C4BB3600AF08CFB3046EBE7312075B141
:106580000DF004FE52200DF001FE01200DF00AFE78
:106590004EF2475143F22D400DF05AFE51200DF0BE
:1065A000F5FDFFF76FFF2A462146384601F0EAFE67
:1065B0000120F8BD3220002DF1D00DF0E7FD522072
:1065C0000DF0E4FD0220E1E73320002DE7D00DF0CF
:1065D000DDFD52200DF0DAFD0320D7E73420002D39
:1065E000DDD00DF0D3FD52200DF0D0FD0420CDE71D
:1065F0003520002DD3D00DF0C9FD52200DF0C6FD81
:106600000520C3E73020002DC9D00DF0BFFD0421C7
:1066100015480DF0EDFD0C2114480DF001FE4EF271
:10662000475143F22D400DF013FE52200DF0AEFD08
:10663000B4E71120B3E711200DF0A8FDFFF790FE9D
:10664000AFE700BFA40C0020E83C0020640C002051
:10665000000400409C400020C4110020B1620008EA
:10666000302D0020550D01087C46010882460108A6
:10667000002313B50DF107018DF80730FFF7C8FEB1
:106680000446C0B19DF80730013B032B13D8DFE867
:1066900003F00209151D002211460E4B1878FFF772
:1066A00015FF08E00B4B002299781878FFF70EFFD2
:1066B0009E200DF06BFD204602B010BD054B002260
:1066C00006211878FFF702FFFF20F2E7014B0022B6
:1066D0005978E3E7E83C002013B5124C20460DF052
:1066E00055F80123A37704F04FFD0F4C206008B943
:1066F000FFF736FEE37843F00103E3700AF02AF86F
:106700000A4BFF22186000234FF4A8710093084839
:10671000084B0AF071FFFFF7F4FD0120FFF7A8FF17
:1067200002B010BD640C0020E83C0020F8110020ED
:10673000101200204563000848B1074A1378013B56
:10674000012B07D893782BB90320FFF7A3BE0122B2
:10675000024B1A70704700BFA40C002004120020E6
:10676000014B1878704700BFA40C0020014B9870B3
:10677000704700BFA40C0020014B9878704700BF01
:10678000A40C0020014BD870704700BFA40C00205F
:106790000122014B1A70704704120020F8B51C4CFE
:1067A0001C4EE378B268C3F342031AB9FFF76AFEDE
:1067B0000020F8BD184A52F8235023782BB9174B04
:1067C0001B78042B01D1FFF75DFE154F3B7893B189
:1067D00000233B704FF080431B69E278DB0963F3D1
:1067E00000022378E27073B102F020F80028DFD1B4
:1067F00001F060F9DDE7002DDAD0B06809F0EEFFB6
:10680000A842E5D2D4E7054B1B78042BECD1CDE7A9
:10681000E83C0020A40C0020384701089C400020E0
:106820000412002010B50B4B5A78012A03D0022A1B
:1068300008D0002005E09C78012C03D101F09EF9DE
:10684000204610BD586809F0C9FFC728F1D9FFF7E5
:10685000F5FDF6E7A40C002010B5074BD87810F032
:10686000FD0404D10220FFF715FE204610BD0320D1
:10687000FFF710FE0120F9E7A40C002038B50A4DFF
:106880000024EB78033B012B08D80320FFF702FE1E
:106890002046AC7001F01EF9012038BD0220FFF740
:1068A000F9FD2046F9E700BFA40C002038B50A4DD9
:1068B0000024EB78033B012B08D80320FFF7EAFD07
:1068C0002046AC7001F026F9012038BD0220FFF708
:1068D000E1FD2046F9E700BFA40C002070B59C4CF8
:1068E0009C4D2068F0B109F079FFB0F5FA6F19D32B
:1068F0000026552026600DF049FC57200DF046FC7F
:1069000070200DF043FC944B1A78002A42D00122EB
:1069100006213046FFF7DAFD2B78062B3FD1FF200A
:106920000DF034FC2B7823B18C4B93F820208C4B4A
:106930001A702368DBB98B4E306809F04FFF40F6C0
:10694000B733984213D92B788BB10CF08DFF70B907
:10695000824CA37F5BB109F0FDFE306053200DF047
:1069600015FC94F8213013B970200DF00FFC4FF096
:1069700080431B69EA78DB097B4C63F3000200204B
:10698000EA70FFF775FE2378032B27D8DFE803F0C2
:106990000B3158AF2978B1FA81F04009BAE7002BE2
:1069A000C7D09E20BCE7E36833B1984720B10120EF
:1069B000FFF770FD0023A370236933B1984720B11E
:1069C0000120FFF767FD0223A370636933B1984785
:1069D00020B10120FFF75EFD0123A3700DF0D0FA76
:1069E000624B1B78002B00F0D680BDE8704003F0AE
:1069F000F1BAA369002BF1D098470028EED002F03D
:106A00003BFA5B4B187008F02DFA2A78594B1A7034
:106A10000022524B9A772A68574B134063B9574C60
:106A20002378012B08D00222554B20469A610BF0A7
:106A3000A3FF20460BF06EFB0220FFF72BFDCDE7F6
:106A4000E369002BCAD098470028C7D000224D4BDD
:106A50001A704FF080434FF080729A612A68464B5B
:106A60001340B3F1807F10D0A37853B3013B012BC7
:106A70000BD86378022B08D0FFF79CFC11200DF097
:106A800085FB0CF0F1FE0028FBD100F0FDFF002398
:106A9000E370384B2A781B789A4208D12A68364B23
:106AA0001340B3F1807F02D0A07800F091FCA3786E
:106AB000012B19D0022B14D0002B8FD1FFF7CCFE65
:106AC0008CE7264B5B7E002BDFD111200DF05EFBA7
:106AD0000CF0CAFE0028FBD147F230500AF0BFFD8F
:106AE000D3E7FFF7CBFE79E7FFF7E0FE76E7236A0F
:106AF000002B3FF473AF984700283FF46FAF01229B
:106B0000164B9A771A4B1B7833B14FF080434FF4F2
:106B100080729A6108F094F90120FFF7A9FD30B95D
:106B20002A788AB3697802460846FFF7CFFC00242A
:106B3000144B1C7000F09CFFFFF7A4FC00F056FB08
:106B40002046FFF7A7FC53200DF020FB46E700BFCF
:106B5000F8110020E83C002060140020640C0020A4
:106B6000302D002000120020A40C0020FD11002078
:106B7000F4110020FC110020FF0000019C400020C7
:106B80000004004004120020034B1B78012BCED1DF
:106B900011466878C9E770BD9C400020012070470D
:106BA00008B5FFF7FBFF08BD37B504460D46FFF7F4
:106BB00069FC29462046FFF7F3FF60B1074B1A78BE
:106BC0004AB1074B20461B78D9090091C3F3001343
:106BD000A9780DF0F9F903B030BD00BFE83C002002
:106BE000043D002000B50B4B8FB0322193F82130CB
:106BF000094A01A805F0C9F901A808F011FF0CF035
:106C00002FFE08F00DFF054808F00AFF0FB05DF8F1
:106C100004FB00BF640C002090460108A146010857
:106C20002B4B13B51A7804464AB12A4B01211B7825
:106C3000DB09009300230DF0C7F902B010BD002856
:106C4000FBD0031FDBB2A02B12D8234B01461868E0
:106C500009F06CFC20B1204604F048F904F0CAF9B0
:106C6000204604F03BF902B0BDE8104004F0C2B980
:106C700000F12003DBB2072B07D800F00704012046
:106C8000A040C0B204F060F9EDE700F15B03DBB2B5
:106C9000022B06D8243880B202B0BDE8104009F0BB
:106CA000EFBB00F15803DBB21A2B07D80B4A32F8BE
:106CB000130002B0BDE8104009F0FEBB3334E4B26B
:106CC000122CBAD8012102B0BDE8104003F080BAFE
:106CD000E83C0020043D0020681000200047010827
:106CE000244B13B51A7804464AB1234B1B78DB09B1
:106CF0000093002319460DF067F902B010BD00287B
:106D0000FBD0031FDBB2A02B06D804F0EFF802B0D3
:106D1000BDE8104004F06EB900F12003DBB2072B90
:106D200007D800F007040120A040C0B204F014F915
:106D3000EDE700F15B03DBB2022B05D8104602B091
:106D4000BDE8104009F09CBB00F15803DBB21A2BE0
:106D500005D8104602B0BDE8104009F0ADBB333491
:106D6000E4B2122CC9D8114602B0BDE8104003F0BD
:106D70002FBA00BFE83C0020043D00202DE9F3417C
:106D80000446C0B1114E3378C3B10127DFF840800B
:106D9000204603F096F9054698F80030E030DB090C
:106DA000009301210023327880B207FA05F50DF037
:106DB0000BF9AC43ECD102B0BDE8F08104F0C4F8AB
:106DC00002B0BDE8F04104F015B900BFE83C002076
:106DD000043D00202DE9F3410446C0B1114E337843
:106DE000C3B10127DFF84080204603F06AF998F824
:106DF00000300546DB0900930023E0301946327865
:106E000080B207FA05F50DF0DFF8AC43ECD102B023
:106E1000BDE8F08104F0A0F802B0BDE8F04104F054
:106E2000E9B800BFE83C0020043D00202DE9F34113
:106E30000446C0B1114E3378C3B10127DFF840805A
:106E4000204603F03EF9054698F80030E030DB09B3
:106E5000009301210023327880B207FA05F50DF086
:106E6000B3F8AC43ECD102B0BDE8F08104F082F895
:106E700002B0BDE8F04104F0BDB800BFE83C00201E
:106E8000043D00202DE9F3410446C0B1114E337892
:106E9000C3B10127DFF84080204603F012F998F8CB
:106EA00000300546DB0900930023E03019463278B4
:106EB00080B207FA05F50DF087F8AC43ECD102B0CB
:106EC000BDE8F08104F05EF802B0BDE8F04104F0E6
:106ED00091B800BFE83C0020043D00202DE9F041BE
:106EE00004460D4601F044FB00285AD12378013BAB
:106EF000202B64D8DFE813F0210026005E00780024
:106F00007E008A008D008D008D009200EC009800BC
:106F10009C00A200AD00B800BB00BE00C900D400B8
:106F2000DD006300630063006300630063006300CF
:106F30006300630063006300F100002363700C23AF
:106F4000A37025E06378013B032B38D8DFE803F01A
:106F5000020C0F2C09F0FEFB030EA370030CE37070
:106F6000030A2371607113E008F01DFAF4E7264666
:106F7000A77804F11C08062F0AD8F8B204F076FCB2
:106F8000030AF37030710236B04507F10107F2D100
:106F90005C4B29461B782046002B40F0AF8009F05F
:106FA000EFFE0120BDE8F0810023A370E3702371A0
:106FB0006371EDE76378022B04D0052B10D0FF231B
:106FC0002370E5E7E378A07840EA0320237940EADC
:106FD0000340637940EA036000BA08F0EBF9D7E7B1
:106FE000A07808F011FAD3E7E278A178607808F089
:106FF00047FEB5E762792379A17843EA02235BBAB9
:10700000E27860789BB208F051FEC1E708F0A5FE77
:10701000BEE72946204608F072FAB9E7002008F0DA
:10702000A5F908F0D2F9B3E708F02CFF6070AFE7DC
:1070300008F02AFF030A6370A070A9E76078A378BC
:10704000E17840EA032040BA221D80B208F01FFF19
:107050009EE76078A378E17840EA032040BA221DD9
:1070600080B208F02EFF93E708F03EFF90E708F0AB
:10707000FBFDDBE76078A378E17840EA032040BAC3
:10708000221D80B208F0B8FE82E76078A378E1782C
:1070900040EA032040BA221D80B208F0C9FE77E71B
:1070A000E278A178003A18BF0122607808F013FE58
:1070B00056E762792379A17843EA0223E2785BBA42
:1070C000003A18BF012260789BB208F026FE5FE705
:1070D00001230D4A637013705AE762780B4B4AB173
:1070E000A1781A7819B142F080021A7050E761F362
:1070F000C712FAE71B78C3F3C01321E70DF022F99A
:107100004FE700BFE83C0020FD110020043D0020B7
:1071100010B54378044613B1FF23237011E0837840
:10712000013B032BF8D8DFE803F0021A284103786B
:10713000072B07D0082BEFD12B4BDB78C3F342038F
:10714000C37010BDC1780729FBD8BDE81040264B9D
:10715000DA7861F34302DA70186804F018B803783B
:10716000072B05D0082BD7D101F071FBE070E8E7C1
:10717000C078BDE8104001F039BC0378072B0AD075
:10718000082BC9D142790179C07801F062FBA07166
:10719000000AE071D5E7C2798379017943EA0223D5
:1071A000BDE810404279C07801F069BB0378072B35
:1071B0000DD0082BB0D12379C078617940EA032043
:1071C00040BAA21D80B2BDE8104001F06DBB23792A
:1071D000C078617940EA032040BAA21D80B2BDE8C0
:1071E000104001F07CBB00BFE83C002008B509F06E
:1071F000B1FA014B186008BD60130020164B10B5A2
:107200001C788CB9154B1B78052B08D0022B06D0A7
:1072100009F0A0FA124B1860124B1C7010BD4FF011
:1072200080431B691B0603D4BDE81040FFF7DEBF97
:107230000B4B18680028F7D009F0D0FA41F6573305
:107240009842EBD9FFF7D2FFBDE810400122054B71
:107250001A70FFF79DBA00BFE83C00209C40002058
:1072600060130020641300202DE9F0411B4C0646FA
:1072700025781DB101242046BDE8F081FFF770FAA2
:107280000138012805D80320FFF704F92846FFF745
:107290006DFA94F80080B8F1000FEBD1104D2B7807
:1072A000052BE7D1B5F84C309B0702D50D4F3C7844
:1072B00024B9FF2E94BF00240124DCE7FFF750FA25
:1072C0000328D7D887F80080FFF790FF28460AF0F8
:1072D000CDFF284601F0EAF9CDE700BFE83C0020E9
:1072E0009C40002064130020704700001A4B70B5CA
:1072F0009C6C0F2644F4C0649C649B6C012301F0D9
:1073000003048B4021F0030101F1804101F5A051FC
:107310008D68A400C0F38320A04006FA04F425EA97
:10732000040528438860D8430C4912F0010F8C688B
:1073300014BF1C4304408C6012F0020FCA6814BFD3
:107340001A430240CA60054A536111680B43136037
:1073500053680340536070BD000C014000180040AA
:107360000F281FD8DFE800F0080C0F1215181818A6
:1073700018181B1B1B1B1B1B062108460BF0AFB963
:1073800006210720FAE706210820F7E70621092051
:10739000F4E706210A20F1E706211020EEE7062196
:1073A0002120EBE770470120704708B5FFF7FBFF8E
:1073B00060B1012207214FF08040FFF797FF0720BF
:1073C000FFF7CEFFBDE80840FFF7D6B908BD0000C3
:1073D0002DE9F0473023054683F31188FFF7E5FFD9
:1073E0004FF000090127904EDFF8408256F8043B29
:1073F00095B1012D4ED143454CD123F00F0A03F036
:107400000F0307FA03F421460522504624040BF02B
:10741000D4FACAF8184001E0581CEED109F101096C
:10742000B9F10F0FE2D107240127814E56F8040B62
:10743000002D3BD0012D40F0E980B0F1804F40F0AD
:10744000E58000F00F01202207FA01F120F00F0083
:107450000BF0B3FA00BF00BF00BF00BF00BF00BF0A
:1074600000BF00BF00BF00BF00BF00BF00BF00BF24
:1074700000BF00BF00BF00BF56F8040C022200F09E
:107480000F08414620F00F00FFF730FF4046FFF79E
:1074900067FF0DE0591CC1D003F00F01202207FA4D
:1074A00001F123F00F000BF088FAB7E7421CC8D1B6
:1074B000013CBBD122464FF400615C480BF07DFAE1
:1074C00000BF00BF00BF00BF00BF00BF00BF00BFC4
:1074D00000BF00BF00BF00BF00BF00BF00BF00BFB4
:1074E00000BF00BF03220B215048FFF7FFFE0B2017
:1074F000FFF736FF84F3118872B64FF0E0220120C7
:10750000136923F0010313614A4B4B4A5A6100226D
:10751000A30003F1604303F56143D3F80011D5B232
:10752000012D94BF002101F0010109B1C3F88001D0
:107530000132202AF1D10134082CE8D13F4C636894
:1075400043F0007363603E4B1A6802F009021A6050
:107550001A6842F46C3242F004021A6040F2B3320C
:107560001A62384B43F001039847236943F0040340
:10757000236130BF344B43F0010398474FF0E022C2
:10758000236923F0040323611369304C43F00103A2
:107590001361E36943F08003E361A36C43F4007378
:1075A000A36409F01BFC02F085FB40F282324FF429
:1075B00000611E480BF001FAE36C43F00803E3643A
:1075C000E36CA36C43F48053A364A36CE36C43F0BB
:1075D0001003E364E36CFFF787FE002383F3118855
:1075E00062B6D4F8903043F4C063C4F89030D4F855
:1075F000903023F4C063C4F89030D4F89030A36C7A
:1076000023F4C063A364A36CBDE8F087431C3FF47C
:107610004FAF00F00F01402207FA01F120F00F00F8
:107620000BF0CBF944E700BF5847010800080040C1
:10763000F047010800180040FFFF070000ED00E0E0
:1076400000000140C847010894470108000C0140B0
:1076500001207047012070470B2810B5044614D054
:1076600004D8A0B107280ED0012002E01228FBD1D7
:107670000420FFF787F82046FFF7EAFF10B1204605
:10768000FFF7E8FF10BD0320F3E70220F1E7052034
:10769000EFE701238B40034202D00846FFF7DCBF2F
:1076A0007047000008B50D4B5A69D20706D51A6815
:1076B000002022F001021A60FFF7CEFF4022084BA3
:1076C000C3F88020BFF34F8FBFF36F8F0122034BAE
:1076D0005A61BDE808400AF0B7B800BF0018004082
:1076E00000E100E008B50D4B586910F0020006D02B
:1076F0001A68012122F002021A60FFF7CAFF8022F5
:10770000074BC3F88020BFF34F8FBFF36F8F022268
:10771000024B5A61BDE808400AF096B800180040D4
:1077200000E100E008B50E4B586910F0040006D0E7
:107730001A68022122F004021A60FFF7AAFF4FF430
:107740008072084BC3F88020BFF34F8FBFF36F8F59
:107750000422034B5A61BDE808400AF075B800BF27
:107760000018004000E100E008B50E4B586910F029
:10777000080006D01A68032122F008021A60FFF7F9
:1077800088FF4FF40072084BC3F88020BFF34F8F7F
:10779000BFF36F8F0822034B5A61BDE808400AF01F
:1077A00053B800BF0018004000E100E008B50E4BE0
:1077B000586910F0100006D01A68042122F0100257
:1077C0001A60FFF766FF4FF48062084BC3F8802011
:1077D000BFF34F8FBFF36F8F1022034B5A61BDE889
:1077E00008400AF031B800BF0018004000E100E096
:1077F00038B5254B5C69A20604F4787507D51A687C
:10780000052122F0200228461A60FFF742FF600699
:1078100008D51D4A06211368284623F0400313604B
:10782000FFF737FF210608D5174A072113682846B6
:1078300023F080031360FFF72CFFE20508D5124AFE
:1078400008211368284623F480731360FFF721FF93
:10785000A30508D50C4A09211368284623F40073B0
:107860001360FFF716FF4FF48032084BC3F88020F7
:10787000BFF34F8FBFF36F8F4FF47872024B5A6193
:10788000BDE8384009F0E0BF0018004000E100E02A
:1078900038B52A4B5C69620504F47C4507D51A6843
:1078A0000A2122F4806228461A60FFF7F2FE2305BF
:1078B00008D5224A0B211368284623F4006313607D
:1078C000FFF7E7FEE00408D51C4A0C2113682846A0
:1078D00023F480531360FFF7DCFEA10408D5174A98
:1078E0000D211368284623F400531360FFF7D1FEDF
:1078F000620408D5114A0E211368284623F48043F8
:107900001360FFF7C6FE230408D50C4A0F21136845
:10791000284623F400431360FFF7BBFE0222084B06
:10792000C3F88420BFF34F8FBFF36F8F4FF47C42B7
:10793000024B5A61BDE8384009F086BF001800408C
:1079400000E100E008B50E4B586910F4802006D025
:107950001A68122122F480221A60FFF79AFE082288
:10796000084BC3F88420BFF34F8FBFF36F8F4FF4E2
:107970008022034B5A61BDE8084009F065BF00BF93
:107980000018004000E100E080B483B000AF034B7A
:107990007B6000BF0C37BD4680BC7047003F0008CD
:1079A0002022012101480BF008B800BF000400406C
:1079B00010B5074C23784BB901F0CEFA02F0ACFBBE
:1079C00008F030FD02F0B4FB01232370012010BD4C
:1079D0006713002010B5054C23782BB101F094FA01
:1079E000FFF7DEFF00232370012010BD6713002086
:1079F00038B5154C00252378032B22D8DFE803F097
:107A0000020B131B0A2311488370C57008F02EFD6A
:107A10000123237038BDF6230C48C370857008F02D
:107A200025FD0223F5E7F62308488370C57008F0AA
:107A30001DFD0323EDE70A2304488570C37008F099
:107A400015FD2570E6E700BF651300207C130020BC
:107A5000054B1B7833B1054B1B780BB9FFF7C8BF3B
:107A60000CF05EBB704700BF6A130020E83C0020AA
:107A700008B5044B1B780BB9FFF79AFF02F0B5F875
:107A800008BD00BF6713002008B5064B1B780BB17B
:107A9000FFF7A0FF0023044A1370044A136002F0AA
:107AA00099F808BD67130020741300207813002094
:107AB0000120704708B5FFF7FBFF08BD014B1878A0
:107AC000704700BF68130020014B1870704700BF5B
:107AD00068130020014B1870704700BF6813002026
:107AE000014B1878704700BF69130020084B10B590
:107AF0000446187058B9FEF733FE022807D8032051
:107B0000FEF7C8FC2046BDE81040FEF72FBE10BDB2
:107B100069130020FFF7EABF024B187880F00100DC
:107B2000FFF7E4BF69130020084B1A78084B1B7855
:107B30004BB982F00102A0F5A443203B1F2B8CBF60
:107B40001046012070470022F5E700BF69130020AE
:107B5000681300200120704700231946054A9372DC
:107B60001360054A0333212B917242F80C1BF9D1A3
:107B7000704700BF5C100020C80C002008B502F060
:107B80001DF9FFF7E9FF0022014B1A6008BD00BF95
:107B9000701300200120704708B5FFF709FFFEF7BA
:107BA0009BFD01F0DBF958B101224FF480714FF0D9
:107BB00080400AF002FF4FF080434FF480729A61D8
:107BC00008BD000000230D4A10B513700C4A4FF099
:107BD000804413700B4A136007F05CF901280AD047
:107BE00007F050F94FF08073A36101F0FDF9BDE893
:107BF000104003F06EBB4FF48073F5E7661300206E
:107C00006B1300206C13002008B503F027FB05F070
:107C1000BDFC03F0B2FA054B188001F03FF918B132
:107C2000BDE80840FFF7CEBF08BD00BF043D0020FF
:107C300037B504460D46FFF78DFF002800F0CE80D3
:107C4000002D00F0CB8047F613639C423AD8B4F580
:107C5000FC4F07D247F603439C4200F0BC80284605
:107C600003B030BDA4F5FC44132CF8D801A353F89D
:107C700024F000BFDB7C0008077D00082B7D000896
:107C80004F7D0008757D00089B7D00085F7C000823
:107C90005F7C00085F7C00085F7C00085F7C000858
:107CA0005F7C00085F7C00085F7C00085F7C000848
:107CB0005F7C00085F7C0008C17D0008C97D00086A
:107CC000D17D000847F643639C42C8D10122444B52
:107CD0001A700022434B1A60C1E7002301200DF106
:107CE00007018DF80730FEF793FB9DF80730042B52
:107CF00002D013F0FD0FB2D1012211463A4B187891
:107D0000FEF7E4FBABE7002301200DF107018DF83E
:107D10000730FEF77DFB9DF80730042B02D013F0EF
:107D2000FD0F9CD101220221E8E7002301200DF183
:107D300007018DF80730FEF76BFB9DF80730042B29
:107D400002D013F0FD0F8AD101220321D6E70023D0
:107D500001200DF107018DF80730FEF759FB9DF862
:107D60000730042B03D013F0FD0F7FF478AF01220E
:107D70000421C3E7002301200DF107018DF807302E
:107D8000FEF746FB9DF80730042B03D013F0FD0FE0
:107D90007FF465AF01220521B0E7002301200DF13A
:107DA00007018DF80730FEF733FB9DF80730DA1E28
:107DB000012A02D9002B7FF452AF012206219DE750
:107DC0000020FFF793FE4AE70122084B1A7046E7AE
:107DD000FFF7A2FE43E7FFF717FF40E705463EE740
:107DE0006B1300206C130020E83C00206913002076
:107DF00008B5074B1B780BB9FFF7DAFD4FF080434E
:107E00004FF480729A61BDE8084008F06DBC00BF75
:107E1000671300202DE977470D46B44A8978044658
:107E20001368A9B1032B00D80133B14E1360FEF7DC
:107E300029FB33899C4207D195F80280B8F1000FE5
:107E40000AD008F087FC3060AA4B002698462FE045
:107E5000002BEAD0013BE8E7B37A0BB93360F3E7D4
:107E600041462046FFF7E4FE86F80A80C6F8008007
:107E70000028E9D1002003B0BDE870870AFB06F6B0
:107E800008EB060A9AF80A3013B948F806301FE0E2
:107E900049462046FFF7CCFE8AF80A9048F806903B
:107EA0000028E7D014E001360B2E03F10C030FD0AD
:107EB0001A899442F7D195F802904FF00C0AB9F163
:107EC000000FDBD008F046FC0AFB06F648F8060077
:107ED00029462046FFF728FE0028CBD02946204619
:107EE00001F040FA0028C5D047F607639C422DD820
:107EF000B4F5FC4F1BD247F620039C4200F01A81D8
:107F000047F603439C42B5D02946204600F08EFD3B
:107F10000028AFD029462046FFF7A6F90028A9D0AF
:107F20002946204603B0BDE87047FEF73DBEA4F5E4
:107F3000FC44013CAB78062C33D8DFE814F0500049
:107F40006B008600A100BC00E3002F00A4F5FC43F9
:107F5000403B9AB2032AD7D8032BD5D801A252F8B6
:107F600023F000BF757F0008837F00088F7F000823
:107F7000757E0008AB78002B3FF47CAFFEF732FE35
:107F800078E7AA785C4B02B101221A7072E7AB78ED
:107F9000002B3FF46FAFFEF7FBFB6BE7574A137004
:107FA00068E7002B3FF466AF554C2378012B3FF474
:107FB00061AF002301200DF107018DF80730FEF7B6
:107FC00027FA9DF80730042B03D013F0FD0F7FF440
:107FD00051AF002201212078FEF778FA4AE7002B02
:107FE0003FF448AF464C2378022B3FF443AF0023C5
:107FF00001200DF107018DF80730FEF709FA9DF811
:108000000730042B03D013F0FD0F7FF433AF0022B1
:108010000221E0E7002B3FF42DAF394C2378032BEE
:108020003FF428AF002301200DF107018DF8073040
:10803000FEF7EEF99DF80730042B03D013F0FD0F87
:108040007FF418AF00220321C5E7002B3FF412AFE5
:108050002B4C2378042B3FF40DAF002301200DF1AE
:1080600007018DF80730FEF7D3F99DF80730042B90
:1080700003D013F0FD0F7FF4FDAE00220421AAE728
:10808000002B3FF4F7AE1E4C2378052B3FF4F2AEE5
:10809000002301200DF107018DF80730FEF7B8F934
:1080A0009DF80730042B03D013F0FD0F7FF4E2AEF0
:1080B000002205218FE7002B3FF4DCAE104C237823
:1080C000062B3FF4D7AE002301200DF107018DF8F8
:1080D0000730FEF79DF99DF80730DA1E012A02D914
:1080E000002B7FF4C7AE0022062174E77013002036
:1080F0005C100020C80C00206A13002066130020CA
:10810000E83C0020002B3FF4B5AE124C2378002B46
:108110003FF4B0AE002501200DF107018DF80750A6
:10812000FEF776F99DF80730012B3FF6A3AE2A46FD
:10813000294650E7AB78002B3FF4E6AE06F0AAFEE6
:108140004FF0804318B14FF080729A61DCE64FF433
:108150008072FAE7E83C0020014B1870704700BFBE
:1081600074130020014B1878704700BF741300206F
:10817000014B1868704700BF781300202DE9784143
:1081800005460C465A4EDFF86C812146284600F021
:1081900097FE50B1062C08D8DFE804F004095F967A
:1081A00096A3A3000022524B1A60BDE87881326882
:1081B0007ABBA5F1C803042B0BD8DFE803F0031644
:1081C0001B2025000023FF211A46C820FDF7B6FF1B
:1081D00001224FF4FA712846FDF7F4FF2846FDF717
:1081E0008BFF08F0B7FA3060DFE70022FF2311466B
:1081F000C920EBE70023FF221946CA20E6E7FF2348
:10820000CB201A461946E1E7FF23CC201A4619462F
:10821000DCE7104608F0E2FA44F61F63984203D9FF
:108220000524354B1C70B0E7344B1B7883B9CC2D3B
:108230000ED1334B1B78042B41D103232E4C2846FF
:108240002370FF231A461946FDF778FF24789CE730
:1082500098F8192092B30324E3E73068F8B9A5F140
:10826000C803032BA1D8DFE803F0020B101500238D
:10827000FF211A46C820FDF761FF0122C821AAE7A5
:108280000022FF231146C920F5E70023FF221946EB
:10829000CA20F0E7FF23CB201A461946EBE708F087
:1082A0009DFA4EF65F23984201D90624B9E798F863
:1082B00019300BB10424B4E7104B1B786BB128467E
:1082C000BDE87841FDF718BFFF224FF4FA61284658
:1082D000FDF778FF2846FDF70FFF0022064B1A70C6
:1082E00063E70022044B1A70FEF752FAE7E700BF7B
:1082F00078130020640C002074130020E83C002058
:108300009C400020014B1978FFF738BF7413002000
:108310000120704770B506460D46C8200021FDF7C4
:108320003BFF10B90024204670BD0021C920FDF795
:1083300033FF0028F6D00021CA20FDF72DFF0028CA
:10834000F0D00021CB20FDF727FF0028EAD0002144
:10835000CC20FDF721FF0028E4D029463046FFF766
:10836000D7FF04460028DDD00022044B29461D70AB
:10837000034B30461A60FFF701FFD4E77413002067
:108380007813002070B50D461446FEF711F8064626
:1083900080B155B3174B5B7E2BBB013D052D09D832
:1083A000DFE805F0030C120808182CB10221C820E0
:1083B000FFF7B0FF304670BD0121F8E714B102218C
:1083C000C920F5E70121FBE714B10221CA20EFE73C
:1083D0000121FBE714B10221CB20E9E70121FBE7F2
:1083E0000221CC20E4E71E46E4E7002CF8D101216D
:1083F000F7E700BF640C002008B50C4B1B789BB955
:10840000FEF7AEF980B90A4B1A783AB1094A527EA2
:1084100052B95978BDE80840FEF758B8064B1B78AA
:10842000042B01D01146F5E708BD00BF74130020EE
:10843000E83C0020640C00209C40002070470000B5
:108440002DE97F4FDFF8148105460E46FFF7F6FF52
:10845000FFF7D2FF98F80040002C36D0404D2B6833
:1084600013B908F077F92860286808F0B7F941F2E5
:108470008733984207D998F80030013388F80030E4
:1084800008F068F9286098F80030013B032B17D8F2
:10849000DFE803F0020C101400229620114605F0CC
:1084A00021FF0024204604B0BDE8708F00229621F1
:1084B0001046F4E7002196220846F0E79622F6E7F8
:1084C000002488F800402C60ECE7264B1B788BB921
:1084D00031462846FFF75EFB0028E2D031462846A9
:1084E00001F010FB04460028DBD031462846FDF79A
:1084F00083FED7E72246214620460DF1040805F009
:10850000F1FEC2464FF00A09DFF85CB00A22594674
:108510005046FCF73BF8154BE2B2DB7FB3FBF9F1B9
:10852000914215D9312B98F800000AD900239622E0
:108530001946013405F05CF80A2C08F10108E5D170
:10854000C6E71D2B4FF00003F1D81A469621F0E73D
:10855000002398F800001A461946EAE76B1300203A
:108560006C13002066130020A0440108640C002056
:1085700070B505460E46FDF785FFFEF7F1F810B120
:108580000320FDF787FF2B780A2B0ED10124084B1F
:1085900031461C70074B28461B781BB908F0F0FBCE
:1085A000204670BD0BF0CEFEFAE70020F9E700BFD1
:1085B00082130020E83C0020094B0A4A9A610A4BCA
:1085C0000A4A1A60BFF34F8F09490A4BCA6802F47E
:1085D000E0621343CB60BFF34F8F00BFFDE700BFE6
:1085E00000000140EB9C374AFC6F0020EFBEADDE7F
:1085F00000ED00E00400FA0570B51B4CFEF76EF9C3
:10860000206858B1A37A4BB908F0E8F8636898423B
:1086100004D301212089A172FFF70AFB002501265E
:10862000124C206858B1A37A4BB908F0D7F86368A8
:10863000984204D301212089A672FFF7F9FA033585
:10864000212D04F10C04ECD1FFF79EF9084B1A78A8
:108650003AB100221A700BF007F90028FBD1FFF79E
:10866000D3FA00F0F1FD70BD5C100020C80C0020B2
:1086700082130020012810B5044611D002280AD127
:10868000FEF76EF80138012805D80320FDF702FF38
:108690000020FEF76BF82046BDE8104007F0FEBF53
:1086A000014B1870F7E700BFC0110020014808F027
:1086B000D6BF00BFA08601000E4BF0B51B6893B17A
:1086C0001E2202FB00300C4A0123164630F81150DE
:1086D00032F8027BDCB2AF4206D104F0070336F871
:1086E000133020F81130F0BD0133092BF0D10023F5
:1086F000F7E700BF84130020684B01082DE9F7431A
:1087000004460D4606F05AFC00274FF01E092D4E78
:10871000DFF8B4807080E0B2854250D900232B4A44
:108720000FE01CF801EBBEF1FF0F01D070451BD02C
:1087300001310F29F5D10133DBB2072B02F10F0212
:108740003BD094460021ECE7012A07D1012B05D14B
:1087500073888DF800708DF8017016E08DF8013087
:108760008DF80010738810E0D8F800202AB309FBB8
:10877000032333F81120110AD3B2120AE4D1002BDB
:10878000ECD18DF800308DF801308DF80230009872
:1087900004F012FAC0F307238DF80400C0F3074079
:1087A0008DF805308DF806009DF8063020469DF8BE
:1087B00004209DF8051004F01BFF0134ABE703B063
:1087C000BDE8F0834C0D002084130020500D0020E4
:1087D00070B40D461143014304D170BCD2220A4843
:1087E000FBF74ABF00241E260F2306FB04F10648B0
:1087F000013B13F0FF03057042700844F8D10134C7
:10880000072CF1D170BC70478813002010B5064AC0
:108810000B461478012C05D158780978FFF74CFFE6
:10882000204610BD0020FCE74C0D0020024B1878BC
:10883000431E5842584170474C0D0020D2235843E4
:10884000C1EB01111144223000EB410070470420BC
:108850007047032838B510D806290ED80E2A0CD830
:10886000FFF7ECFF054603F0DBFD0446681C03F050
:10887000D7FD44EA002080B238BD0020FCE7032881
:1088800070B51C460FD806290DD80E2A0BD8FFF755
:10889000D5FF0546E1B203F02BFE210A681CBDE8B6
:1088A000704003F025BE70BD2DE9F8430024054655
:1088B0000F461646A14600F12208BC4208EB040010
:1088C00001D1BDE8F8832B19B3F5527F04DA03F028
:1088D000A7FD30550134F0E706F80490FAE72DE9DA
:1088E000F04105460E461746002400F12208B44226
:1088F00008EB040001D1BDE8F0812B19B3F5527FDC
:1089000002DA395D03F0F4FD0134F0E7032806D8FC
:10891000D222504300F12201014803F0CFBD70473D
:1089200088130020032838B50CD8084900230C7898
:10893000012C07D14D78A84206D10B70FFF7E6FF56
:10894000204638BD0020FCE71846FAE74C0D002011
:10895000032806D8D222504300F12201014803F037
:10896000F5BD704788130020074B084A10B51A6000
:108970000023074C2370607006F020FB6080607855
:10898000BDE81040FFF7E4BF8413002088130020E7
:108990004C0D0020032808B50CD8074A5070FFF78B
:1089A000D7FF06F0A1FA2D2802D02D2006F099FA63
:1089B000012000E0002008BD4C0D0020032810B568
:1089C00010D8094A117869B9012450701470FFF762
:1089D000BFFF06F089FA2D2802D02D2006F081FA7B
:1089E000204600E0002010BD4C0D0020032810B5EB
:1089F000044609D8FFF7ACFF2046FFF793FF204657
:108A0000BDE81040FFF7C6BF10BD000008B505481F
:108A100002F0CCFBBDE808404FF45272222102481C
:108A200003F04CBD0C480108EA4F010808B50A469E
:108A300009490346087801280CD1A3F5A443203B3B
:108A40001F2B06D9907820B150781178FFF734FEAB
:108A5000002008BD0120FCE74C0D002070B5044645
:108A60000078FF2801D106F03FFA0D4900220D469B
:108A700011F8016BD3B2864203D00132102AF7D12C
:108A800013462278FF2A12BFFF22013303F00F039F
:108A9000E85C18BF2270BDE8704006F022BA00BF43
:108AA000914B010838B50B780546FF2B0C4602D1D7
:108AB00006F01AFA2070284638BD38B540F26E34F8
:108AC00040F27E3520460021013403F0D4FCAC4254
:108AD000F8D138BD10B506F007FA00230246054963
:108AE00011F8014BD8B2944203D00133102BF7D1C7
:108AF000184610BD914B010810B50446FFF7EAFF78
:108B00002146BDE8104000F26E3003F0B4BC08B559
:108B1000FFF7E0FF00F26E3003F082FC082828BF68
:108B2000002008BD70B506F0DFF90723124A12F8DD
:108B3000011B81421DD0013B13F0FF03F7D1072435
:108B4000FFF7E5FF0130B0FBF4F304FB13040B4B1C
:108B500013F8145003EB44035E7806F02FFA314605
:108B60000246284606F003FAE0B2BDE87040FFF77F
:108B7000C3BF0624E4E700BFA14B0108834B0108F3
:108B800038B5FFF76BFFFFF7C2FF074B13F8104034
:108B900003EB40035D7806F011FA294602462046B1
:108BA000BDE8384006F0E3B9834B01082DE9F043F6
:108BB0001C4B85B01B7823B3002201AC1146104634
:108BC00005F090FB0025A0460A26DFF85C90174FC1
:108BD0000A2249464046FBF7D9FCFB7FEAB2B3FBC9
:108BE000F6F1914200D8BAB9312B20780DD9002383
:108BF00096221946013504F0FBFC0A2D04F101040C
:108C0000E6D1012005B0BDE8F0831D2B4FF0000335
:108C1000EED81A469621EDE7002320781A46194629
:108C2000E8E700BF5A140020784B0108640C0020CC
:108C3000F8B5434F0446FB78424E13F00103424A15
:108C400038D0424933780D784149E5B100250D60AF
:108C5000012111704FF080424FF4001191611021F9
:108C6000652BC2F8181807D13420FDF745FA2A46BB
:108C700029463878FDF72AFC662333702046BDE884
:108C8000F840FDF739BA0D60012111704FF08042B4
:108C9000202191614FF48011652BC2F8181807D17B
:108CA0003420FDF729FA2A4629463878FDF70EFCCC
:108CB0006423E2E7274DE97F14292BD86521127838
:108CC00031700AB31A465121FDF738FA01224FF4E8
:108CD00096712046FDF776FAEB7F0A2BCED81C4D15
:108CE0002B6813B907F036FD286028680028C5D026
:108CF00007F074FD4EF660239842BFD9002301208F
:108D00002B60FEF7E1FEB9E713461146FDF716FAB0
:108D1000FF22DCE74FF080414FF400158D614FF4E6
:108D20008015C1F818586521317009490B6001237D
:108D30004FF496711370FF22FDF744FA9EE700BFCF
:108D4000E83C002058100020B20E0020033D002017
:108D50005C140020640C002038B52F4D04462B789D
:108D6000042B20D8DFE803F0032C0E24510000234D
:108D70001A461946FDF7E2F9FF2232212046FDF797
:108D800021FA10E04FF080434FF400729A61FF2304
:108D90001A461946FDF7D2F90322C8212046FDF7ED
:108DA00011FA01232B702046BDE83840FDF7A4B925
:108DB000FF231A461946FDF7C1F90122C821DDE754
:108DC00006F0FCF808BB154B187801F07AF9022878
:108DD00003D0134B1B78DA0617D4124B1A7882B9DA
:108DE000114A1278042A10D1DB78DB070DD40F4B1F
:108DF000DB7F142B82BF4FF080434FF000729A61EB
:108E000003E00A4A527E002AEED1002320462B704E
:108E1000FFF7A2FFC7E700BF611400207214002013
:108E2000043D0020E83C00209C400020640C002011
:108E3000FF2810B504461CD10E4BD3F8A03123F007
:108E40007F43B3F5804F0DD1002240231146FDF73B
:108E500075F920460121FDF789F92046BDE810404B
:108E6000FDF74AB9B3F5800F03D10023402219461C
:108E7000EDE710BDB40E0020034B187810F003008E
:108E800018BF0120704700BF243D0020024B40F274
:108E90006A30196803F048BBFC3C002008B5402349
:108EA000FF201A461946FDF749F90322FA21FF204F
:108EB000FDF788F9FF20FDF71FF9012008BD00002C
:108EC00038B5104B04461D78062D01D0012038BD61
:108ED0000229FBD1FFF74CF90028F7D0FFF748F93A
:108EE00007F07CFC44F61F639842EFD92846FFF751
:108EF00033F9FFF737F901462046FFF73FF9002025
:108F0000E5E700BFE83C002008B501224FF40071FE
:108F10004FF0804009F051FD4FF080424FF0007358
:108F20004FF4802193610B4B012099614FF4800134
:108F3000A3F5006399614FF4000199614FF000417E
:108F4000C3F818144FF4001191614FF48012C3F864
:108F5000182408BD000C00400120704708B52022ED
:108F60004FF400414FF0804009F027FD4FF080435F
:108F70001B69034AC3F3C0331370012008BD00BF4F
:108F8000033D002008B5054B00211870FB20FDF7BC
:108F900003F9BDE80840FB20FFF7DEBE61140020A6
:108FA0000020FFF7EFBF000010B500240A4A138825
:108FB00003F0C00363F0FC031380FFF767FF074B68
:108FC0001C70074B1C70FFF7EBFF064B1C70BDE8D5
:108FD0001040FFF772BD00BFFC3C00206B14002066
:108FE000691400206014002037B501224FF400718D
:108FF0004FF0804009F0E1FC4FF080454FF40073E2
:10900000444C012220460421AB6109F0D6FC4FF408
:109010008023A4F50064C4F81838012220464021BA
:1090200009F0CBFC4FF480032046A361012280218C
:1090300009F0C3FC4FF40003A36104F580642046EB
:1090400001224FF4004109F0B8FC4FF00043012227
:10905000A3612021284609F0B0FC4FF4001301223F
:1090600010212046AB6109F0A8FC4FF48013A361E6
:1090700007F070FB284B294C186040F26A3003F06F
:10908000EDF9206008B9FFF78FFF5A2520780024FA
:10909000C0F38300FFF768FC8DF800408DF80140B5
:1090A0008DF80250009803F087FD8DF80440FF24EE
:1090B0001B4BC0F3072218708DF805408DF8065041
:1090C000C0F30740987001985A7003F075FD154B76
:1090D000C0F307221870C0F307405A7098702246F8
:1090E000C821FA20FDF76EF82246C821FB20FDF7C3
:1090F00069F8FB20FDF700F805F03CFF0A4BC0F3D0
:1091000007221870C0F30740987001205A7003B00E
:1091100030BD00BF000C0040F03C0020FC3C0020B3
:10912000003D0020F73C0020F43C00203F4B10B5F0
:109130001C78002C78D1037CFA2B48D016D8CA2B87
:109140000CD8C72B0CD9427C394B8AB34FF4802101
:10915000384A916140229A61204610BDCB2B2AD01B
:10916000FFF764FB80F00104E4B2F5E7FB2BF7D1D5
:10917000314B427C1B78002A3ED0012BECD151238D
:1091800042201A46194604F033FA512304201A46A5
:10919000194604F02DFA512302201A46194604F00C
:1091A00027FA51231A461946032004F021FAD3E77F
:1091B0004FF48002CFE7427C1E4B2AB14FF480016E
:1091C0001B4A91610422C6E74FF48022C3E71B4B80
:1091D000DB7F142BC0D81A4B1B78652BBCD1417C8C
:1091E0004FF08042174B21B1202191614FF4801242
:1091F000B1E74FF40011F8E7012BADD12346224629
:109200002146422004F0F4F9234622462146042058
:1092100004F0EEF9234622462146022004F0E8F944
:10922000234622462146BFE7002495E76A14002022
:1092300000040040000C004061140020640C002079
:10924000581000200008004038B54FF080431B69DB
:10925000374AC3F3C0331370FDF782FA80B9354C37
:10926000206807F0BBFAB0F57A7F09D907F072FAE7
:10927000206053200AF08AFF2F4B18780AF086FFEF
:109280002E4C2F4B22681340B3F1807F3AD12D4BE7
:109290001B78042B02D101222B4B1A702B4D28680E
:1092A00070B107F09BFAB0F57A7F09D90023FA2054
:1092B0002B60FCF721FF4FF080434FF400729A615E
:1092C000FDF74EFAE0B92278214B3ABB4FF48021EA
:1092D000204A91614FF480029A611F4B187800F088
:1092E000F0FE022814BF80214FF40001184A1B4BE6
:1092F00015BF916191614FF000424FF400429A61B5
:10930000012038BD002BC9D10E4A1278042AC5D0DD
:109310000D4A11780029C1D01370BFE71049497E6A
:109320000029DAD0062A0ABF04224022094BD3E7DB
:10933000033D00206414002058100020E83C002069
:10934000FF0000019C4000206B140020F03C002036
:1093500000040040000C004072140020000800408F
:10936000640C0020F8B5A84E054633780C463BB196
:109370008B782BB1002211461046327004F0B2FFF8
:10938000A24A13782BB147F61B618D4201D000240D
:10939000EFE09F4F797E49B99E49097831B1291F85
:1093A000A029F4D9A5F1E0010729F0D947F62A014F
:1093B0008D4200F28D8047F620039D420FD8C22DCA
:1093C00000F0D9803ED87E2D31D87A2D24D8462D74
:1093D00000F0E480652D00F06A810124C9E0A5F564
:1093E000F045213D092DF8D801A353F825F000BF21
:1093F000AF990008DB930008C1970008DB930008D1
:10940000DB930008DB9300087F980008DD980008D4
:109410001D9800084B9800087C3DE020A478022DA0
:1094200000F22181DFE815F0280131013A01C12D58
:10943000D3D1A478E020002C00F0CA8000F042FDD7
:109440005220BBE045F202239D4200F093821ED8D9
:10945000E72D00F09581B5F5A44F00F06E82E32D65
:10946000BBD16D4B187800F02CFE0228B5D16B4BA8
:109470001B78D906B1D5FFF7D9F90028ADD1E32083
:10948000A478002C00F0908100F01CFD71E045F202
:1094900023239D4200F0178347F213039D4200F0FF
:1094A0005D8145F221239D4297D1A378002B94D171
:1094B000FFF7BCF9002890D0594B1A7832B100223E
:1094C000214645F221201A70FFF7A0F90124F7E2A6
:1094D000B5F5F84F00F08A81A5F5FC45A9B21C2925
:1094E0003FF67BAF1C2D3FF678AF01A151F825F078
:1094F000C9960008F19600080B970008DB93000856
:10950000DB9300084397000825970008AF970008F1
:10951000DB930008DB930008DB930008DB93000873
:10952000DB930008DB930008DB930008DB93000863
:10953000DB930008DB930008DB930008DB93000853
:10954000F5990008399A00085D9A0008819A000888
:1095500025960008FF9700080D98000865950008FB
:10956000D9950008A478002C3FF437AF83F00103AD
:1095700013702046F8BDA478E3204CB100F0A2FCA3
:109580002C2000F09FFC40F6B83008F068F8FEE6AA
:1095900000F0AEFC2C2000F0ABFCEAE71E4B187884
:1095A00000F08FFD02287FF418AFA478E02044B1CA
:1095B00000F088FCE12000F085FC202000F082FC17
:1095C000E5E600F095FCE12000F092FC2020E2E7C7
:1095D00000F08EFC5220DEE7A378002B3FF4D7AEDC
:1095E0000D4C207800F06DFD30B9022000F0DAFC5F
:1095F000002001F0D8F8CAE6207800F062FD0228C9
:109600007FF4C5AE0020F1E76A1400206814002042
:10961000640C0020E83C002072140020043D00206F
:1096200069140020A478002C3FF4D7AE05F0C6FCE6
:1096300000283FF4ACAEA14B1A781AB17A7E002A0A
:109640003FF4A5AEDB78DE073FF5A1AEFB7F142B20
:109650007FF69DAE9A4A9378013303F00703937027
:10966000FFF714FC85E71CB100F02CFC1B20A5E7DC
:1096700000F03EFC1B208EE71CB100F023FC06200E
:109680009CE700F035FC062085E71CB100F01AFCD1
:10969000192093E700F02CFC19207CE71CB100F0A6
:1096A00011FC09208AE700F023FC092073E7854BB1
:1096B0001B78DD067FF591AE834B187800F001FD35
:1096C00002384442444154E7804B1B78032B3FF45B
:1096D0005EAEA378002B3FF480AE784B1B78012B55
:1096E0007FF47BAEFEF73EFD041E18BF012440E769
:1096F000764B1B78032B3FF44AAEA378002B3FF444
:109700006CAE6E4B1B78022BEAE7704B1B78032B79
:109710003FF43DAEA378002B3FF45FAE674B1B7860
:10972000032BDDE7694B1B78032B3FF430AEA378A6
:10973000002B3FF452AE614B1B78002B7FF44DAEF3
:10974000D0E7624B1B78032B3FF421AEA378002BAC
:109750003FF443AE594B1B78062BC1E7A478002C8D
:109760003FF43BAE002340211A46FF20FCF7E6FC05
:109770000121FF20FCF7FAFCFF20FCF7BDFCF8E616
:10978000514B187800F09DFC02287FF426AE4D4B1B
:109790001B78DA067FF521AEFFF748F800287FF442
:1097A0001CAEE720A4786CE600F0A2FB15E6434B64
:1097B0001B7803B1A378464A03F001031370E6E572
:1097C000444B1B789B073FF4E2ADA378002B3FF49A
:1097D00004AEFFF7A7F905F0CDFB3F4BC0F307221E
:1097E0001870C0F307405A709870D0E5A478002C28
:1097F0003FF4F3AD02F00AF8FEF7DEFEB9E6A37817
:10980000002B3FF4C4AD01233370C0E5A378002BD7
:109810003FF4BDAD62200AF0B9FCB8E52B4B1B78D4
:10982000032B3FF4B4AD05F05FFB02283FF4AFAD6E
:10983000A478002C3FF4D1AD05F046FCFF287FF45E
:10984000CCAD0220FFF79EFB93E6204B1B78032B49
:109850003FF49DAD05F048FB02283FF498ADA37896
:10986000002B3FF4BAAD05F02FFC33283FF6B5AD21
:109870000220FFF787FB332005F01EFC87E5134B22
:109880001B78032B3FF483ADA478002C3FF4A5ADE7
:109890004FF080434FF400729A6105F08FFB7728F8
:1098A0000D4D05D90220FFF76DFB9623AB7060E6E6
:1098B00005F084FB1E30A8705BE600BFE83C00208A
:1098C000FC3C0020043D00207214002061140020A4
:1098D0005A140020243D0020F43C0020844B1B78C7
:1098E000032B3FF454ADA478002C3FF476AD4FF039
:1098F00080434FF400729A6105F060FB1E287D4E94
:1099000016D80220FFF73EFBB37873B10025502D27
:10991000EBB207D0352B05D0002328461A4619464E
:1099200003F066FE0135532DF1D10023B37020E61C
:1099300005F044FB1E38B0701BE66D4B1B78032B03
:109940003FF425ADA378002B3FF421AD0021372053
:10995000FCF722FC684C0322FA213620FCF732FC8B
:109960003620FCF7C9FB207800F0ABFB02287FF41F
:109970000EAD36E65E4B1B78032B3FF408ADA378A3
:10998000002B3FF404AD00213620FCF705FC5A4CB7
:109990000322FA213720FCF715FC3720FCF7ACFB3B
:1099A000207800F08EFB02283FF4F1AC19E6A37892
:1099B000EBB1524C0020FFF7E5FA2078C0F38300AA
:1099C000FEF7C6FF2078C0F38300FEF7ABFF00224E
