:020000040800F2
:1000000000040020B9010008BB010008BB01000882
:10001000BB010008BB010008BB010008BB010008D0
:10002000BB010008BB010008BB010008CDDE0008D1
:10003000BB010008BB010008BB01000809F1000872
:10004000BB010008BB010008BB010008BB010008A0
:10005000BB010008BB0100084D3F00088D3F0008B0
:10006000CD3F00081140000855400008BB010008C2
:10007000BB010008BB010008EDF70008BB01000848
:1000800099400008BB010008BB010008BB01000843
:10009000BB010008BB010008BB010008BB01000850
:1000A000BB010008BB010008C1F30008D5F300083C
:1000B000BB010008BB01000829F10008BB010008D2
:1000C000BB01000839410008BB010008ED410008F0
:1000D000BB010008BB010008BB010008BB01000810
:1000E00072B6264880F30888254880F30988254899
:1000F00025490860022080F31488BFF36F8F0DF04C
:1001000007FC0DF0DDF94FF0553020491B4A9142B4
:100110003CBF41F8040BFAE71D49194A91423CBF24
:1001200041F8040BFAE71B491B4A1C4B9A423EBF9D
:1001300051F8040B42F8040BF8E700201849194A5B
:1001400091423CBF41F8040BFAE70DF0E5FB0DF0DE
:10015000E0FB154C154DAC4203DA54F8041B8847FC
:10016000F9E706F0EFFF124C124DAC4203DA54F8F7
:10017000041B8847F9E70DF0CDBB00000004002008
:10018000000C00200000000808ED00E00000002046
:1001900000040020101D0108000C0020041800209D
:1001A0000818002024410020E0000008E0000008BA
:1001B000E0000008E000000892E700F000F8FEE729
:1001C0002DE9F04FC1F80CD0C3689D46BDE8F08F13
:1001D000002383F311882846A04700200DF0AAFDD4
:1001E000FEE70DF0DDFC00DFFEE7000081F00041DE
:1001F00002E000BF83F0004330B54FEA41044FEA0C
:10020000430594EA050F08BF90EA020F1FBF54EAA6
:10021000000C55EA020C7FEA645C7FEA655C00F042
:10022000E2804FEA5454D4EB5555B8BF6D420CDD13
:100230002C4480EA020281EA030382EA000083EA96
:10024000010180EA020281EA0303362D88BF30BD36
:1002500011F0004F4FEA01314FF4801C4CEA11318C
:1002600002D0404261EB410113F0004F4FEA0333EB
:100270004CEA133302D0524263EB430394EA050F76
:1002800000F0A780A4F10104D5F1200E0DDB02FAE5
:100290000EFC22FA05F2801841F1000103FA0EF279
:1002A000801843FA05F359410EE0A5F120050EF13F
:1002B000200E012A03FA0EFC28BF4CF0020C43FA70
:1002C00005F3C01851EBE37101F0004507D54FF07D
:1002D000000EDCF1000C7EEB00006EEB0101B1F5CD
:1002E000801F1BD3B1F5001F0CD349085FEA300013
:1002F0004FEA3C0C04F101044FEA445212F5800F1E
:1003000080F09A80BCF1004F08BF5FEA500C50F1BA
:10031000000041EB045141EA050130BD5FEA4C0C9D
:10032000404141EB0101013C28BFB1F5801FE9D2FA
:1003300091F0000F04BF01460020B1FA81F308BF1D
:100340002033A3F10B03B3F120020CDA0C3208DDE9
:1003500002F1140CC2F10C0201FA0CF021FA02F1C4
:100360000CE002F11402D8BFC2F1200C01FA02F134
:1003700020FA0CFCDCBF41EA0C019040E41AA2BF59
:1003800001EB0451294330BD6FEA04041F3C1CDA21
:100390000C340EDC04F11404C4F1200220FA04F041
:1003A00001FA02F340EA030021FA04F345EA0301EB
:1003B00030BDC4F10C04C4F1200220FA02F001FAAD
:1003C00004F340EA0300294630BD21FA04F029462F
:1003D00030BD94F0000F83F4801306BF81F48011C8
:1003E0000134013D4EE77FEA645C18BF7FEA655C3B
:1003F00029D094EA050F08BF90EA020F05D054EA0D
:10040000000C04BF1946104630BD91EA030F1EBF11
:100410000021002030BD5FEA545C05D14000494115
:1004200028BF41F0004130BD14F580043CBF01F508
:10043000801130BD01F0004545F0FE4141F47001EE
:100440004FF0000030BD7FEA645C1ABF19461046C9
:100450007FEA655C1CBF0B46024650EA013406BFCA
:1004600052EA033591EA030F41F4002130BD00BF89
:1004700090F0000F04BF0021704730B54FF4806446
:1004800004F132044FF000054FF0000150E700BFC7
:1004900090F0000F04BF0021704730B54FF4806426
:1004A00004F1320410F0004548BF40424FF0000113
:1004B0003EE700BF42004FEAE2014FEA31014FEA56
:1004C00002701FBF12F07F4393F07F4F81F06051A5
:1004D000704732F07F4208BF704793F07F4F04BFF0
:1004E00041F40021704730B54FF4607401F00045CD
:1004F00021F000411CE700BF50EA010208BF70472D
:1005000030B54FF000050AE050EA010208BF70471D
:1005100030B511F0004502D5404261EB41014FF486
:10052000806404F132045FEA915C3FF4D8AE4FF08E
:1005300003025FEADC0C18BF03325FEADC0C18BF71
:10054000033202EBDC02C2F1200300FA03FC20FAC2
:1005500002F001FA03FE40EA0E0021FA02F114440F
:10056000BDE600BF70B54FF0FF0C4CF4E06C1CEA28
:1005700011541DBF1CEA135594EA0C0F95EA0C0F99
:1005800000F0DEF82C4481EA030621EA4C5123EA0C
:100590004C5350EA013518BF52EA033541F480113B
:1005A00043F4801338D0A0FB02CE4FF00005E1FBEE
:1005B00002E506F00042E0FB03E54FF00006E1FB38
:1005C00003569CF0000F18BF4EF0010EA4F1FF047B
:1005D000B6F5007F64F5407404D25FEA4E0E6D41BB
:1005E00046EB060642EAC62141EA55514FEAC520CC
:1005F00040EA5E504FEACE2EB4F1FD0C88BFBCF548
:10060000E06F1ED8BEF1004F08BF5FEA500E50F1F8
:10061000000041EB045170BD06F0004646EA0101BE
:1006200040EA020081EA0301B4EB5C04C2BFD4EBF0
:100630000C0541EA045170BD41F480114FF0000EE9
:10064000013C00F3AB8014F1360FDEBF002001F057
:10065000004170BDC4F10004203C35DA0C341BDCD1
:1006600004F11404C4F1200500FA05F320FA04F0A3
:1006700001FA05F240EA020001F0004221F00041D7
:1006800010EBD37021FA04F642EB06015EEA430E4A
:1006900008BF20EAD37070BDC4F10C04C4F120057A
:1006A00000FA04F320FA05F001FA04F240EA02002D
:1006B00001F0004110EBD37041F100015EEA430EFE
:1006C00008BF20EAD37070BDC4F1200500FA05F21E
:1006D0004EEA020E20FA04F301FA05F243EA02039D
:1006E00021FA04F001F0004121FA04F220EA0200AC
:1006F00000EBD3705EEA430E08BF20EAD37070BDF2
:1007000094F0000F0FD101F00046400041EB0101D1
:1007100011F4801F08BF013CF7D041EA060195F0B3
:10072000000F18BF704703F00046520043EB03036D
:1007300013F4801F08BF013DF7D043EA060370475A
:1007400094EA0C0F0CEA135518BF95EA0C0F0CD065
:1007500050EA410618BF52EA4306D1D181EA0301AB
:1007600001F000414FF0000070BD50EA410606BFA5
:100770001046194652EA430619D094EA0C0F02D1EA
:1007800050EA013613D195EA0C0F05D152EA03362F
:100790001CBF104619460AD181EA030101F000414D
:1007A00041F0FE4141F470014FF0000070BD41F096
:1007B000FE4141F4780170BD70B54FF0FF0C4CF470
:1007C000E06C1CEA11541DBF1CEA135594EA0C0F8F
:1007D00095EA0C0F00F0A7F8A4EB050481EA030EDC
:1007E00052EA03354FEA013100F088804FEA0333C3
:1007F0004FF0805545EA131343EA12634FEA022291
:1008000045EA111545EA10654FEA00260EF0004151
:100810009D4208BF964244F1FD0404F5407402D2A3
:100820005B084FEA3202B61A65EB03055B084FEA34
:1008300032024FF480104FF4002CB6EB020E75EB31
:10084000030E22BFB61A754640EA0C005B084FEA59
:100850003202B6EB020E75EB030E22BFB61A7546D6
:1008600040EA5C005B084FEA3202B6EB020E75EB21
:10087000030E22BFB61A754640EA9C005B084FEA99
:100880003202B6EB020E75EB030E22BFB61A7546A6
:1008900040EADC0055EA060E18D04FEA051545EA95
:1008A00016754FEA06164FEAC30343EA52734FEA3E
:1008B000C2025FEA1C1CC0D111F4801F0BD141EAB7
:1008C00000014FF000004FF0004CB6E711F4801F1C
:1008D00004BF01430020B4F1FD0C88BFBCF5E06FFC
:1008E0003FF6AFAEB5EB030C04BFB6EB020C5FEA0C
:1008F000500C50F1000041EB045170BD0EF0004E61
:100900004EEA113114EB5C04C2BFD4EB0C0541EA92
:10091000045170BD41F480114FF0000E013C90E68F
:1009200045EA060E8DE60CEA135594EA0C0F08BF53
:1009300095EA0C0F3FF43BAF94EA0C0F0AD150EA52
:1009400001347FF434AF95EA0C0F7FF425AF1046E5
:1009500019462CE795EA0C0F06D152EA03353FF40D
:10096000FDAE1046194622E750EA410618BF52EA8A
:1009700043067FF4C5AE50EA41047FF40DAF52EA5E
:1009800043057FF4EBAE12E74A0011D212F50012D4
:1009900011D20DD56FF47873B3EB62520ED44FEAD7
:1009A000C12343F0004343EA505323FA02F0704757
:1009B0004FF00000704750EA013002D14FF0FF3095
:1009C00070474FF00000704780F0004002E000BF29
:1009D00081F0004142001FBF5FEA410392EA030F2A
:1009E0007FEA226C7FEA236C6AD04FEA1262D2EB74
:1009F0001363C1BFD218414048404140B8BF5B4279
:100A0000192B88BF704710F0004F40F4000020F011
:100A10007F4018BF404211F0004F41F4000121F027
:100A20007F4118BF494292EA030F3FD0A2F1010271
:100A300041FA03FC10EB0C00C3F1200301FA03F1AF
:100A400000F0004302D5494260EB4000B0F5000FD2
:100A500013D3B0F1807F06D340084FEA310102F191
:100A60000102FE2A51D2B1F1004F40EBC25008BF43
:100A700020F0010040EA03007047490040EB00000D
:100A8000013A28BFB0F5000FEDD2B0FA80FCACF10E
:100A9000080CB2EB0C0200FA0CF0AABF00EBC2503B
:100AA00052421843BCBFD0401843704792F0000F29
:100AB00081F4000106BF80F400000132013BB5E77C
:100AC0004FEA41037FEA226C18BF7FEA236C21D0F2
:100AD00092EA030F04D092F0000F08BF0846704757
:100AE00090EA010F1CBF0020704712F07F4F04D125
:100AF000400028BF40F00040704712F100723CBF38
:100B000000F50000704700F0004343F0FE4040F461
:100B1000000070477FEA226216BF08467FEA23631F
:100B20000146420206BF5FEA412390EA010F40F40A
:100B3000800070474FF0000304E000BF10F0004356
:100B400048BF40425FEA000C08BF704743F096433D
:100B500001464FF000001CE050EA010208BF704758
:100B60004FF000030AE000BF50EA010208BF7047DF
:100B700011F0004302D5404261EB41015FEA010CF4
:100B800002BF84460146002043F0B64308BFA3F1EC
:100B90008053A3F50003BCFA8CF2083AA3EBC253CE
:100BA00010DB01FA02FC634400FA02FCC2F12002ED
:100BB000BCF1004F20FA02F243EB020008BF20F024
:100BC0000100704702F1200201FA02FCC2F120028A
:100BD00050EA4C0021FA02F243EB020008BF20EA7F
:100BE000DC7070474FF0FF0C1CEAD0521EBF1CEAAD
:100BF000D15392EA0C0F93EA0C0F6FD01A4480EA9B
:100C0000010C400218BF5FEA41211ED04FF0006383
:100C100043EA501043EA5111A0FB01310CF00040AF
:100C2000B1F5000F3EBF490041EAD3715B0040EAD5
:100C3000010062F17F02FD2A1DD8B3F1004F40EBA5
:100C4000C25008BF20F00100704790F0000F0CF078
:100C5000004C08BF49024CEA502040EA51207F3A3C
:100C6000C2BFD2F1FF0340EAC250704740F4000017
:100C70004FF00003013A5DDC12F1190FDCBF00F008
:100C800000407047C2F10002410021FA02F1C2F1B6
:100C9000200200FA02FC5FEA310040F1000053EA52
:100CA0004C0308BF20EADC70704792F0000F00F0A0
:100CB000004C02BF400010F4000F013AF9D040EAA6
:100CC0000C0093F0000F01F0004C02BF490011F43A
:100CD000000F013BF9D041EA0C018FE70CEAD15338
:100CE00092EA0C0F18BF93EA0C0F0AD030F0004CB8
:100CF00018BF31F0004CD8D180EA010000F000406C
:100D0000704790F0000F17BF90F0004F084691F029
:100D1000000F91F0004F14D092EA0C0F01D1420263
:100D20000FD193EA0C0F03D14B0218BF084608D12C
:100D300080EA010000F0004040F0FE4040F4000076
:100D4000704740F0FE4040F4400070474FF0FF0C09
:100D50001CEAD0521EBF1CEAD15392EA0C0F93EA50
:100D60000C0F69D0A2EB030280EA010C49024FEAA2
:100D7000402037D04FF0805343EA111143EA10135B
:100D80000CF000408B4238BF5B0042F17D024FF413
:100D9000000C8B4224BF5B1A40EA0C00B3EB510FEE
:100DA00024BFA3EB510340EA5C00B3EB910F24BFD7
:100DB000A3EB910340EA9C00B3EBD10F24BFA3EB5C
:100DC000D10340EADC001B0118BF5FEA1C1CE0D124
:100DD000FD2A3FF650AF8B4240EBC25008BF20F0D7
:100DE000010070470CF0004C4CEA50207F32C2BF2B
:100DF000D2F1FF0340EAC250704740F400004FF0C8
:100E00000003013A37E792F0000F00F0004C02BFF8
:100E1000400010F4000F013AF9D040EA0C0093F0C2
:100E2000000F01F0004C02BF490011F4000F013B1C
:100E3000F9D041EA0C0195E70CEAD15392EA0C0F84
:100E400008D142027FF47DAF93EA0C0F7FF470AFBC
:100E5000084676E793EA0C0F04D14B023FF44CAFFF
:100E600008466EE730F0004C18BF31F0004CCAD194
:100E700030F000427FF45CAF31F000437FF43CAFD0
:100E80005FE700BF53B94AB9002908BF00281CBF5B
:100E90004FF0FF314FF0FF3000F06EB9ADF1080CAC
:100EA0006DE904CE00F006F8DDF804E0DDE9022388
:100EB00004B070472DE9F047089E0D4604468E4663
:100EC000002B40F083808A42174647D9B2FA82F35A
:100ED0004BB1C3F1200105FA03FE20FA01F19F4056
:100EE00041EA0E0E9C404FEA1748BEFBF8FC1FFA81
:100EF00087F908FB1CE20CFB09F0210C41EA0242D5
:100F000090420AD9BA180CF1FF3180F01881904252
:100F100040F21581ACF1020C3A44121AB2FBF8F01F
:100F200008FB102200FB09F1A4B244EA0244A142EA
:100F300009D93C1900F1FF3280F00381A14240F24F
:100F4000008102383C44641A002140EA0C401EB182
:100F50000022DC40C6E90042BDE8F08702B9FFDEAE
:100F6000B2FA82F3002B4FD18D1A01214FEA124EB3
:100F70001FFA82F8B5FBFEFC0EFB1C5508FB0CF0BB
:100F8000220C42EA0545A84207D97D190CF1FF322F
:100F900002D2A84200F2E98094462D1AB5FBFEF079
:100FA0000EFB105508FB00F8A4B244EA0544A04526
:100FB00007D93C1900F1FF3202D2A04500F2D980D6
:100FC0001046A4EB080440EA0C40C0E78B4208D965
:100FD000002E00F0B1800021C6E900050846BDE8FA
:100FE000F087B3FA83F100294BD1AB4202D382429E
:100FF00000F2B980841A65EB030301209E46002E9F
:10100000AAD0C6E9004EA7E79F40C3F12002D14015
:101010004FEA174EB1FBFEF01FFA87F80EFB1011D6
:1010200024FA02F29D4000FB08FC2A43150C45EA15
:101030000145AC4504FA03F409D97D1900F1FF31EB
:1010400080F08F80AC4540F28C8002383D44A5EBA7
:101050000C05B5FBFEF10EFB115C01FB08F995B226
:1010600045EA0C45A94507D97D1901F1FF3274D233
:10107000A94572D902393D44A5EB090541EA004171
:1010800078E7C1F120078B4022FA07FC4CEA030CF9
:1010900025FA07F44FEA1C4EB4FBFEF91FFA8CF850
:1010A0000EFB194420FA07F309FB08FA8D401D4393
:1010B0002B0C43EA0444A24502FA01F200FA01F3C0
:1010C00009D91CEB040409F1FF3048D2A24546D9E6
:1010D000A9F102096444A4EB0A04B4FBFEF00EFB80
:1010E000104400FB08FAADB245EA0444A24508D911
:1010F0001CEB040400F1FF352DD2A2452BD9023898
:10110000644440EA0940A0FB0289A4EB0A044C4570
:10111000C6464D4619D316D05EB1B3EB0E0264EB52
:10112000050404FA07F722FA01F31F43CC40C6E98D
:1011300000740021BDE8F087314630460CE78C464C
:10114000EBE61046FFE64345E6D2B8EB020E69EB4C
:101150000C050138E0E72846D3E711468CE78146C5
:10116000B9E7084673E7084649E7ACF1020C3D448D
:1011700013E702383C4424E7704700BF08B5062057
:1011800000F008FB01200DF007FE00BF024B0146F6
:10119000186800F09BB900BF000C0020024B01460C
:1011A000186800F03FB900BF000C0020830770B43E
:1011B000CDB23DD0541E0AB30378AB421FD0431CBE
:1011C00005E014F1FF3419D30278AA4217D013F0C6
:1011D000030F184603F10103F3D1032C11D84CB3CC
:1011E0000378AB420BD00444431C02E00278AA42CD
:1011F00005D09C42184603F10103F7D1002070BCD2
:10120000704702460E02B6B22E4346EA06461368FF
:1012100010467340A3F1013121EA030313F0803F2C
:1012200002F10402DCD1043C032C1046EFD8D6E7CF
:101230001446D2E72046E2E7032A70B412D940EA06
:101240000105AD0704460B4620D11946204653F848
:10125000045B54F8046BAE4218D1043A032A2046CA
:101260001946F2D8541E72B103780A789A4208BF20
:10127000241806D00CE010F8013F11F8012F93421A
:1012800006D1A042F7D1002070BC7047541EEBE796
:10129000981A70BC704700BF844641EA000313F0FF
:1012A000030349D1403A23D30B6803604B68436082
:1012B0008B688360CB68C3600B6903614B694361D2
:1012C0008B698361CB69C3610B6A03624B6A4362BA
:1012D0008B6A8362CB6AC3620B6B03634B6B4363A2
:1012E0008B6B8363CB6BC36340304031403ADBD2BE
:1012F00030320BD30B6803604B6843608B688360AC
:10130000CB68C36010301031103AF3D20C3205D3E1
:1013100051F8043B40F8043B043AF9D2043208D0B7
:10132000D2071CBF11F8013B00F8013B01D30B8829
:1013300003806046704700BF082A13D38B07B1D0E3
:1013400010F00303AED0C3F10403D21ADB071CBFB5
:1013500011F8013B00F8013BA4D331F8023B20F81F
:10136000023B9FE7043AD9D3013A11F8013B00F858
:10137000013BF9D20B7803704B7843708B78837004
:1013800060467047F0B4860746D0541E002A3CD011
:10139000CAB2034602E014F1FF3436D303F8012B3E
:1013A0009D07F8D1032C29D9CDB245EA05250F2C8C
:1013B00045EA054533D9A4F11006360903F12007A3
:1013C00007EB061703F1100242E9045542E9025502
:1013D0001032BA42F8D1721C14F00C0F03EB021257
:1013E00004F00F0613D0331F23F003030433134418
:1013F00042F8045B9342FBD106F003042CB1C9B25E
:101400001C4403F8011B9C42FBD1F0BC70473446DE
:101410001346002CF3D1F8E714460346C2E71A46F8
:101420002646E0E700293AD038B551F8043C0C1FB5
:10143000002BB8BFE418054600F05AFA224B1A6890
:101440002AB1A2420DD921686018824221D062607F
:1014500028461C60BDE8384000F04CBAA34203D8CF
:101460001A465368002BF9D111685018A04217D0C2
:1014700022D821686018834203BFD3E9000309180A
:10148000C4E90013636054602846BDE8384000F0AA
:1014900031BAD2E900020144C4E90012D8E770472A
:1014A00020680144501883421160EDD1D3E9000354
:1014B0000144C2E90013E7E70C2328462B60BDE88E
:1014C000384000F017BA00BF08180020F8B5CD1C4E
:1014D00025F0030508350C2D38BF0C25002D0646D8
:1014E00033DBA94231D82A4F00F002FA3A6852B1F0
:1014F00013685B1B04D43FE023685B1B29D522469D
:101500005468002CF8D1796800293BD02946304630
:101510000DF026FC431C28D0C41C24F00304A04278
:1015200005D0211A30460DF01BFC01301DD025607E
:10153000304600F0DFF904F10B0020F00700231D16
:10154000C21A01D01B1AA350F8BD0C220020326031
:10155000F8BD0B2B05D8A242636811D05360E7E7B2
:10156000144623601C442560E2E70C2330463360B8
:1015700000F0C0F90020F8BD0B2BF1D814465368D9
:101580003B60D5E730460DF0EBFB7860BEE700BF6F
:101590000818002038B5124B05461C68A06B18B11E
:1015A0000023C0E9045338BD1820FFF7EFFDA06306
:1015B00078B101220023C0E904230A4B0B24836085
:1015C00000230949094A8481C0E90012C0E9045393
:1015D00038BD0246064B4221064800F041F900BFE3
:1015E000000C0020ECDE05000E33CDAB34126DE6AE
:1015F000401C0108581C010838B51A4B1C68A26B26
:1016000092B114691849536901FB04F1174800FBB2
:101610000313A4FB0045611C1D4445F1000323F0A6
:101620000040C2E9041338BD1820FFF7AFFD0246A1
:10163000A06388B1012400250B21C0E904450C4BAF
:101640000948136003460B4D0B4C91810B49C2E9CD
:101650000154C2E9041338BD094B4E21094800F07A
:10166000FFF800BF000C00202DF451582D7F954C41
:101670000E33CDAB34126DE6ECDE05002E7F954CBB
:10168000401C0108581C010810B580210446FFF7D2
:101690001DFF606440B10022031F7C3043F8042F1B
:1016A0008342FBD1002010BD4FF0FF3010BD00BFC2
:1016B000436C0BB100207047E6E700BF1F2970B5EF
:1016C000054608D8436C16460C464BB153F8240027
:1016D00043F8246070BD16224FF0FF302A6070BDC1
:1016E000FFF7D2FF08B96B6CF0E74FF0FF3070BD29
:1016F0001F2938B5054620D8426C0C466AB152F80D
:10170000213053B1012B16D0591C10D00025204692
:1017100042F824509847284638BD284600F070F813
:10172000224601462846BDE8384000F055B8162349
:1017300001202B6038BD002038BD16234FF0FF304C
:101740002B6038BD1F2921D838B5436C05460C469F
:1017500083B153F8242003EB84034AB1511C10D009
:10176000012A0CD0002520461D609047284638BD30
:10177000012038BDFFF788FF28B96B6CE9E703202B
:1017800038BD022038BD4FF0FF3038BD4FF0FF307C
:10179000704700BF024B01461868FFF7A9BF00BFA2
:1017A000000C0020024B0A4601461868FFF786BF6E
:1017B000000C0020034B1868436C0BB100207047ED
:1017C00062E700BF000C0020024B01461868FFF7DB
:1017D000B9BF00BF000C002070B50D460023074CB8
:1017E00006461146284623600DF0DEFA431C00D061
:1017F00070BD2368002BFBD0336070BD20410020FA
:101800000DF0DABA20F0030110F00300C0F100007F
:1018100051F8043B00F1040C4FEACC0C6FF00002CD
:101820001CBF22FA0CF213434FF0010C4CEA0C2CB3
:101830004CEA0C4CA3EB0C0222EA030212EACC1293
:1018400004BF51F8043B0430F4D0C2F1000102EAB5
:101850000102B2FA82F2C2F11F0200EBD20070471D
:1018600000B50A4C0546206885B01C46C06852B1D8
:10187000074BCDE9013200912B462246054900F085
:1018800023F8FFF77BFC044B1A46F2E7000C00201C
:101890008C1C01089C1C0108981C010808B5134603
:1018A0000022FFF7DDFF00BF0CB410B582B004AC1E
:1018B00054F8042B2346019400F060F802B0BDE810
:1018C000104002B0704700BF0EB430B582B005AC16
:1018D00054F8042B054D014623462868019400F076
:1018E0004DF802B0BDE8304003B07047000C002056
:1018F000704700BF704700BF9368013B002B9360A7
:101900000FDA10B49469A34208DB0A2906D01368E1
:10191000581C10601970084610BC704710BC00F0CD
:101920007BBB1368581C106019700846704700BFD5
:101930009BB1F8B513440F4606465D1E541E01E0E8
:10194000AC4208D03A4614F8011F3046FFF7D4FFE6
:10195000431CF5D1F8BD0020F8BD0020704700BF42
:10196000936810B5144613B95360184610BD00F0C3
:1019700013FE0023C4E9013310BD00BF2DE9F04F71
:101980009FB08B4690461C46039018B18369002B8C
:1019900000F0B980A34B9B4500F0BB80A24B9B4558
:1019A00000F0C980A14B9B4504BF039BD3F80CB04A
:1019B000BBF80C30180740F1B480DBF81030002B76
:1019C00000F0AF803023002120228DF8323098F8CB
:1019D000003005940B918DF83120954E0127002B96
:1019E00000F08980252B00F01781454603E0252B68
:1019F00000F0A58025466B786C1C002BF7D1B4EB6A
:101A0000080A78D04246534659460398FFF790FF9C
:101A1000013070D00B9B6A7853440B93002A6AD034
:101A200000234FF0FF3201340693CDE908338DF8DF
:101A30005B301C93079206E02C46069B801B07FA3E
:101A400000F0184306902546052215F8011B304684
:101A5000FFF7ACFBAA460028EED1069BD90644BF8F
:101A600020228DF85B201A0748BF2B22217848BF1F
:101A70008DF85B202A2967D1059A11680432002964
:101A80000592C0F29E8009916178A51C2E2974D020
:101A9000684C03222046FFF789FB002800F087806E
:101AA0004022069B001B02FA00F00343069305F157
:101AB00001082B78062219465F488DF83030FFF771
:101AC00075FB002800F083805C4B002B72D005ABC7
:101AD00000935A465A4B06A90398AFF300808146FB
:101AE000B9F1FF3F07D00B9B4B440B9398F80030A4
:101AF000002B7FF477AFBBF80C305B0618D40B9843
:101B00001FB0BDE8F08F00F027FD464B9B457FF4EA
:101B100045AF039BD3F804B0BBF80C3018073FF572
:101B20004CAF5946039800F0D7FA00283FF44AAF6B
:101B30004FF0FF30E4E7039BD3F808B038E7B4EB8D
:101B4000080A3FF46DAF5DE7A1F13002092A88BFB2
:101B5000A2469BD8099B01E02C460135297803EB6E
:101B6000830302EB4303A1F13002092AAA46F3D909
:101B70002E2904F1020509938AD19AF801102A2925
:101B80002FD1059B0AF102001A680433002A07923C
:101B900005939AF802100AF1030538DB254C8246BA
:101BA00003222046FFF702FB00287FF479AFA84606
:101BB00055467EE7059B073323F00703083305935B
:101BC00091E7494243F00203099106935CE705ABB4
:101BD00000935A461A4B06A9039800F0D3F88146A1
:101BE0007EE70023A1F13002092A079301D915E00D
:101BF0005546697803EB830302EB4303A1F13002FE
:101C0000092A05F1010AF3D90235079340E74FF09D
:101C1000FF33824607933BE7444601E7AA46013576
:101C200036E700BF240D0108040D0108E40C01088B
:101C3000CC1C0108D41C0108D81C010800000000BD
:101C40003119000810B4044C13460A4601462068B6
:101C500010BCFFF793BE00BF000C00202DE9F04739
:101C60000C460969A56891468D42B8BF0D461560BE
:101C700094F8431006461F46DDF8208011B16A1C17
:101C8000C9F80020236899065CD5D9F800200232F3
:101C9000C9F80020236813F0060F19461DD1E1682A
:101CA0008A1A002AD8BF194617DD002504F1190A3F
:101CB00005E0E368D9F800209B1AAB420CDD012354
:101CC000524639463046C047013005F10105F0D192
:101CD0004FF0FF30BDE8F087216894F843300033BF
:101CE00018BF01238A060AD53021E21882F8431072
:101CF00094F845105A1C224482F84310023304F130
:101D0000430239463046C0470130E1D02368A2681B
:101D100003F00603042B21691DD08A4226DD4FF013
:101D20000009521A914400251A3401E04D451DDA8C
:101D30000123224639463046C047013005F10105EE
:101D4000F4D1C5E713F0060F13D094F843300033F5
:101D500018BF0123D3E7D9F80000E3688A42A3EB58
:101D6000000323EAE379DCDC002BDCDC0020BDE8A7
:101D7000F087E168D9F800208A1A002AD8BF1946EE
:101D800093DCAAE72DE9F0430C46097E85B06E2965
:101D900006461746984604F1430C0C986DD039D985
:101DA000732900F0F48044D9752900F00281782964
:101DB00040F00F8178232268DFF854E284F8453040
:101DC0000168150651F8043B016040F1A180D1077C
:101DD00044BF42F020022260002B00F093801022CA
:101DE000002184F8431060680028A060C0F2C6801B
:101DF000216821F004012160002B40F0A28000281E
:101E000040F0BE806546082A00F0AB80ACEB0503CD
:101E1000236141E0632900F0E3801AD8002938D01B
:101E2000582940F0D68084F845102268DFF8E4E1B4
:101E3000C6E76F2900F0BD80702940F0CA80782382
:101E40002268DFF8CCE142F02002226084F84530BD
:101E5000B6E7642902D0692940F0BB802268036894
:101E6000110603F1040557D5196805600B460029D2
:101E700059DB0A22DFF89CE1B5E7036822681D1DE3
:101E80006169056015061B6802D4500600F1BB802D
:101E90001960002365462361CDF800803B4603AA04
:101EA00021463046FFF7DAFE013020D02A4623696A
:101EB00039463046C047013019D02268039892074E
:101EC000E36819D51A1A002A16DD002504F119094C
:101ED00004E0E36803981A1AAA420DDD01234A467A
:101EE00039463046C047013005F10105F1D14FF0C8
:101EF000FF3005B0BDE8F0839842B8BF184605B082
:101F0000BDE8F0832168102221F02001216067E7FD
:101F1000500648BF9BB25AE75106A5D5B3F9003029
:101F200005601946A3E72D2061685B42002984F80B
:101F30004300A16002DB22F0040222600A22DFF8E3
:101F4000D4E0654600E00B46B3FBF2F102FB113032
:101F50001EF80000934205F8010DF4D2082A7FF420
:101F600055AF2368DB077FF551AF626823699A425A
:101F70003FF74CAF3023013D2B7047E7002BE0D1FA
:101F80009EF8003004F1420584F842303BE70368D4
:101F90006268191D01601D6800212846FFF706F9D7
:101FA000002832D0401B60602061002384F8433059
:101FB00072E72268036812F0800F03F104051AD05B
:101FC0001B6805606F290CBF08220A22DFF844E075
:101FD00006E7012384F84210236104F14205E4E797
:101FE0000122036804F14205191D1B68016084F891
:101FF00042302261D9E712F0400F0DBF1B68056027
:102000001B880560DEE7198043E76068CCE700BF06
:10201000F41C0108E01C0108F8B50D4614460646FC
:1020200008B1836943B3254B9C422AD0244B9C4280
:1020300029D0244B9C4208BFF468A269A389A260FE
:102040001A0722D5236903B322686169D31AEDB256
:1020500099422F4629DD0133A168501C0139A16046
:102060002060157062699A4216D0A389DB0701D5FA
:102070000A2D11D03846F8BD00F06EFA0F4B9C4285
:10208000D4D17468D9E7B468D7E72146304600F068
:1020900023F838B92369D7E72146304600F032F9F2
:1020A0000028E7D04FF0FF37E4E72146304600F044
:1020B00029F90028F6D101232268CDE7240D010873
:1020C000040D0108E40C0108024B0A460146186899
:1020D000FFF7A2BF000C00203B4B70B51D68064601
:1020E0000C460DB1AB69DBB1384B9C421ED0384B6E
:1020F0009C424AD0374B9C4208BFEC68B4F90C2094
:1021000093B2190718D5206908B313F001022CD037
:1021100000226369A2605B42A36160B3002070BDCE
:10212000284600F019FA294B9C42E0D16C68B4F9BA
:102130000C2093B21907E6D4DD063CD5580726D407
:10214000206942F00803A3819BB20028DDD103F48B
:102150002072B2F5007FD8D03046214600F016FC40
:10216000A389206913F00102D2D1990758BF62698F
:10217000A2600028D2D1B4F90C301A06CFD543F0B2
:102180004003A3814FF0FF3070BDAC68B6E7616BD0
:1021900051B104F14403994204D03046FFF742F9AB
:1021A000B4F90C20002363630023206922F0240289
:1021B000C4E90003C5E7092342F0400233604FF051
:1021C000FF30A28170BD00BF000C0020240D01086B
:1021D000040D0108E40C01082DE9F0418F890C463B
:1021E0003A07804641D44B68002B59DDE66A002E41
:1021F00053D0002317F48052D8F80050216AC8F851
:10220000003051D101234046B047431C5FD0A7891D
:10221000E66A216A7F0705D56268636B801A0BB195
:10222000236CC01A024600234046B047461C45D1E5
:10223000D8F80030B4F90C20002B55D01D2B01D05C
:10224000162B5AD100222369C4E90032616BC8F809
:10225000005011B304F14403994202D04046FFF705
:10226000E1F800206063BDE8F0810E69AEB10D6851
:102270000E60B90714BF00236369AD1BA3600AE0B9
:102280002B463246A76A216A4046B8470028A5EB8C
:10229000000506440ADD002DF2DC0020BDE8F081D7
:1022A0000B6C002BA2DCF8E7606DB3E7A3894FF05D
:1022B000FF3043F04003A381BDE8F0810023226991
:1022C0006360A3892260DA04C0D56065BEE7D8F8F0
:1022D0000030002B9BD01D2B0CD0162B0AD0A389CD
:1022E00043F04003A381D9E72169C4E90013D30473
:1022F000ACD5EAE7C8F80050CFE742F04002A2812F
:10230000CCE700BF0B6923B310B5044682B008B117
:102310008369BBB1104B994212D0104B994216D031
:102320000F4B994208BFE168B1F90C302BB1204640
:1023300002B0BDE81040FFF74FBF002002B010BD53
:102340006168F1E7019100F007F90199E2E7A168FE
:10235000EAE70020704700BF240D0108040D0108C2
:10236000E40C010820B1054B01461868FFF7CABF0D
:10237000034B0449186800F0B3BA00BF000C0020FA
:10238000E00C01080523000800207047014900F017
:10239000A7BA00BF052300080020704770B5682564
:1023A0004A1E05FB02F50E4605F17401FFF78EF893
:1023B000044640B100210C30666005F168022160DE
:1023C000A060FEF7DFFF204670BD00BF1E4B70B55A
:1023D0001D680646AB6943B34835D5E90134013B76
:1023E00005D51EE0013B5A1C04F1680419D0B4F96C
:1023F0000C20002AF6D10025144B6566C4E900556F
:10240000A560C4E90455A5612946E360082204F1EA
:102410005C00FEF7B7FFC4E90D55C4E9125520462C
:1024200070BD2C682CB12546D7E7284600F010F87F
:10243000D2E704213046FFF7B1FF044628600028A8
:10244000F1D10C233360EAE7E00C01080100FFFF43
:102450002DE9F84F0023334AC0E9123312680365AF
:10246000904208BF0123304908BF8361816205465D
:10247000FFF7ACFF68602846FFF7A8FFA860284672
:102480000024FFF7A3FF04236E68E8602146F36091
:102490007466C6E90044B460C6E90444B46106F158
:1024A0005C000822FEF76EFFDFF888B0AF68DFF847
:1024B00088A0DFF88890DFF888801C4BC6E9086B9D
:1024C000C6E90AA9C6F830802146FB6008227C666E
:1024D000C7E90044BC60C7E90444BC6107F15C0083
:1024E000FEF750FFEE68124BC7E9087BC7E90AA95F
:1024F000C7F830802146F3607466C6E90044B460D2
:10250000C6E90444B46106F15C000822FEF73AFF14
:102510000123C6E9086BC6E90AA9C6F83080AB6199
:10252000BDE8F88FE00C01088D23000809000100C8
:1025300012000200392B0008612B0008A12B0008B3
:10254000C12B0008024B0349186800F0C9B900BF4D
:10255000E00C010805230008836903B978E7704798
:10256000704700BF704700BF704700BF704700BF93
:10257000024B0349186800F08FB900BF000C00201F
:1025800089230008024B0349186800F085B900BF91
:10259000000C0020992300089368002B00F0FC80B9
:1025A0002DE9F04FB1F90C300C469BB2190783B0FE
:1025B000824690462BD522694AB313F00202D8F81E
:1025C000006033D000273D46D4F828B0216ADFF8F8
:1025D000C492C5B14D452B463A4628BF4B4650469E
:1025E000D847002840F3CE80D8F8083007441B1A9B
:1025F0002D1AC8F80830002B00F0B380D4F828B0AA
:10260000216A002DE6D1D6E900750836E1E72146BA
:102610005046FFF761FD002840F03781B4F90C30D7
:10262000D8F800609BB213F00202CBD113F001097D
:1026300040F0B4804D46A7682068002D55D09A051B
:1026400040F1C080AF42BB4600F2EE8013F4906FC1
:102650002FD0D4E9041707EB4707A0EB010B07EBDA
:10266000D777681C7F105844B8423A4684BF074663
:102670003A465B0540F1F08011465046FEF726FFD2
:10268000002800F0FC805A4621690190FEF704FE04
:10269000A289019B22F4906242F08002A281A7EB02
:1026A0000B0203EB0B006761AB462F4623612060F2
:1026B000A2605A46494600F0B3F92368A2685B4419
:1026C000AB460025D71BA7602360D8F80870D94413
:1026D000A7EB0B07C8F80870002F42D0B4F90C30F4
:1026E000A7689BB22068002DA9D1D6E900950836CD
:1026F000A3E70BF1080353F8047C9B4653F8086CDE
:102700000833002FF7D03A460A213046FEF74EFD37
:10271000002854D00130A0EB06094B4620682169FF
:10272000BB4228BF3B468842626903D9A56815446D
:10273000AB421ADC9A4200F381801346A56A324606
:10274000216A5046A847051E1CDDB9EB05096ED06D
:102750000120D8F808302E445B1B7F1BC8F80830D6
:1027600013BB002003B0BDE8F08F31462A4600F0CD
:1027700057F9236821462B4423605046FFF7C2FDDA
:102780000028E2D0B4F90C304FF0FF3043F04003A2
:10279000A38103B0BDE8F08F002070473346914617
:1027A000104617464E469B46002FA2D00028B4D1B3
:1027B0003A460A213046FEF7F9FC0028AAD17B1CD4
:1027C0009946ABE72369834217D36269AA4214D8BA
:1027D0002F4BA76A9D4294BF2B466FF0004393FB9B
:1027E000F2F3216A02FB03F350464A46B847B0F1C0
:1027F000000BC7DDA5EB0B0567E7AF4228BF2F46EF
:1028000049463A4600F00CF9A3682268DB1B3A44BB
:10281000BB46A3602260002BECD121465046FFF757
:1028200071FD0028E6D0ADE72F46AB4641E72146D3
:102830005046FFF767FD00288BD0A3E71A463146C4
:102840001D46019300F0ECF8A1682268019BC91AAB
:102850001344A160236078E7504600F047F903462F
:1028600000287FF41CAF21695046FEF7DBFD0C22E7
:10287000B4F90C30CAF8002023F0800384E70C225E
:10288000B4F90C30CAF800207EE74FF0FF3069E75A
:10289000FEFFFF7F00FCFF7F2DE9F04110F14807AC
:1028A0001AD088460026D7E90154013D0ED4A389E9
:1028B000013D012B06D9B4F90E30013302D0204678
:1028C000C04706436B1C04F16804F0D13F68002F39
:1028D000E9D13046BDE8F0813E463046BDE8F081A2
:1028E0002DE9F84310F148061ED0884607464FF000
:1028F0000009D6E90154013D10D4A389013D012B03
:1029000008D9B4F90E30013304D021463846C04707
:1029100049EA00096B1C04F16804EED13668002E08
:10292000E7D14846BDE8F883B1464846BDE8F8839C
:1029300070B50C46B1F90E1096B0002916461D462A
:1029400013DB6A460CF019FA00280EDB019A4FF4EB
:10295000806302F47042A2F50052B2FA82F20020C3
:1029600052092A60336016B070BD0022A3892A6024
:102970001B0604D540230020336016B070BD4FF411
:1029800080630020336016B070BD00BF8A890B469B
:10299000920706D5012103F1470259611A601A61B5
:1029A000704770B582B001AB6A460C460646FFF729
:1029B000BFFF009905463046FEF788FDB4F90C309C
:1029C00070B1164A0099B262019A43F08003A38164
:1029D0002060C4E904018AB92B43A38102B070BD11
:1029E0009A05FBD4012123F0030304F1470243F0CD
:1029F0000203A381616122602261EFE73046B4F9EE
:102A00000E100CF0C6F910B9B4F90C30E4E7A38944
:102A100023F0030343F001031BB2DDE78D2300081D
:102A20008842F0B40DD98B1883420AD9841832B188
:102A3000224613F8014D994202F8014DF9D1F0BC3C
:102A400070470F2A0ED80346541E002AF7D00134CF
:102A50000C44013B11F8012BA14203F8012FF9D1DD
:102A6000F0BC704740EA01039B073AD1A2F110077E
:102A70003F0901F1200606EB071601F1100300F1F2
:102A8000100453F8105C103344F8105C53F81C5CCD
:102A9000103444F81C5C53F8185C44F8185C53F884
:102AA000145CB34244F8145CEBD17B1C1B0112F0A4
:102AB0000C0F194402F00F05034415D00E46043DD7
:102AC000AD0803EB850C1C1F56F8047B44F8047F0B
:102AD0006445F9D10135AD002B44294402F00302CD
:102AE000B2E7541E0346B2E72A46ADE709B3F8B58C
:102AF0001446CAB106460D4600F066F8A04202D35D
:102B00002F463846F8BD21463046FEF7DFFC074623
:102B10000028F6D022462946FEF7BEFB304629465D
:102B2000FEF780FC3846F8BD2746FEF77BFC3846AA
:102B3000F8BD1146FEF7CABC10B50C46B1F90E102F
:102B40000CF003F9002803DB636D0344636510BDDB
:102B5000A38923F48053A38110BD00BF00207047D8
:102B60002DE9F041B1F90C409846E3050D461746B2
:102B7000B1F90E10064609D424F48054AC814346C2
:102B80003A463046BDE8F0410CF0E6B80223002298
:102B90000CF0E0F8B5F90C40B5F90E10ECE700BF09
:102BA00010B50C46B1F90E100CF0D4F8A389421CF4
:102BB0000EBF23F4805343F480536065A38110BD9E
:102BC000B1F90E100CF0CAB851F8043C181F002BD4
:102BD000BCBF0B58C01870470E4A0023114610B5F1
:102BE000147C84420FD11C225343CA18906848B108
:102BF000CB58FF2818BF43434FF0010018BF5B00BC
:102C00000133536010BD0133092B02F11C02E7D1DF
:102C10000020F7E7280F0020F0B50A4D00242E46CB
:102C20002F7C874207D11C2000FB046401206176C1
:102C30002276A376F0BD0134092C05F11C05EFD1F5
:102C40000020F7E7280F0020094A30B5002314467A
:102C5000157C854205D11C22012002FB03435960EB
:102C600030BD0133092B02F11C02F1D10020F7E73E
:102C7000280F002070B50B4C00232546267C864289
:102C800009D11C204343E818E95000238260C36047
:102C90004374012070BD0133092B04F11C04EDD1F4
:102CA0000020F7E7280F002070B500252E462B4C9A
:102CB0006368002B4FD0E06808BB637CB3FA83F3F2
:102CC0005B09637409F0DAFFD4E900239342E06002
:102CD0002BD266606674E66063690BB1207C98470E
:102CE000207CFF2824D100221146104607F014FD55
:102CF0000135092D04F11C04DAD1012070BD0AF060
:102D000003F823689842D8D26368002BE4D02046A9
:102D100002F076FA0028EBD0637C207CB3B1FF2868
:102D20000CD1A27E217E607EE0E79B1A6360EBE718
:102D30007328DDD800231A46194604E07328D7D833
:102D4000A37E227E617E06F051FED1E7FF28CAD025
:102D50007328CDD8EFE76374E360C9E7280F00203C
:102D600007B543788DF8003083788DF80130C3784B
:102D70008DF8023043798DF80330037968468DF879
:102D800004300DF01FFE03B05DF804FB08B5074BDF
:102D90005A78032A07D8586809F0B6FFC72894BFA5
:102DA0000020012008BD0020FCE700BFA40C00208B
:102DB0007047000008B520224FF480410F480CF006
:102DC0006CF900224FF400414FF080400CF065F99F
:102DD000FFF7EEFF00BF00BF00BF00BF00BF00BF96
:102DE00000BF00BF00BF00BF00BF00BF00BF00BFEB
:102DF00000BF00BF00BF00BF08BD00BF000800400B
:102E000008B501F051FA08BD08B5054C20780DF061
:102E1000B9F82078FFF7F4FF05200AF090FFF5E7F6
:102E2000883C002010B5084C236803F07142074B22
:102E30001343236009F022FF054B18602068BDE8AA
:102E4000104003F0C5BC00BF883C00200001010E0B
:102E50001418002010B5074C012220464FF40051F1
:102E60000CF01BF94FF40053A361BDE8104001F0D2
:102E700027BB00BF0008004001207047144B10B56D
:102E80001C78BCB9134B1B78042B13D103F092FBB5
:102E900003F0A6FB03F058FB03F0D2FB04F0BAFDED
:102EA00004F0D4FD204609F07DFD2046BDE8104029
:102EB00009F094BD0DF08AFD48B10DF059F80028D5
:102EC000FBD1BDE8104044F620600AF038BF10BDC9
:102ED000883C0020CC400020002370B50B700D46CC
:102EE00004460E4E80B109F0C9FE0D4B0D4A30600C
:102EF0001B691278C3F380336AB91C46002B14BFD8
:102F0000042301232B7004E0306809F0FDFE322811
:102F1000E9D8204670BD83F00104EFE724180020B3
:102F200000080040883C0020084B9A78012A07D00E
:102F3000022A09D0064B1868B0FA80F040097047A1
:102F400058780128F6D170470120FCE7A40C002036
:102F50008819002008B5054B9B78013B012B02D94D
:102F6000FFF7E2FF08BD0120FCE700BFA40C002032
:102F700008B509F083FE014B986008BDA40C002041
:102F800010B5094C23782070637009F077FE6060FB
:102F9000FFF7EEFF00F0ACFDBDE810400022034B50
:102FA00053201A700DF06EBCA40C002020180020D5
:102FB0002DE9F0410C4615460746002842D0B1FAEB
:102FC00081F35B09A3B15A4E5A4A3378002C3DD0A5
:102FD0004FF40051012B91610AD030460CF03CF8BF
:102FE00030460BF007FC5448544B836009F0AAFCB0
:102FF000A74201D0FFF742FF514E3378013B012B2E
:1030000004D80320FFF7BCFF0023B3704D4E337884
:10301000A34200D11DB100224B4B9A619A833470B8
:1030200024B1631E042B747098BFB470306803F031
:10303000CFFB3378062B74D8DFE803F07119353FE6
:1030400049535D000B1E18BF0123BBE74FF0005131
:10305000042B9161CCD03D4BDFF8DC801C703C4BE5
:103060003046C8F808300AF087F94046BEE73120FC
:103070006DB10DF007FC52200DF004FC01200DF0A5
:103080000DFC04214BF601300DF07EFC51200DF0BB
:10309000F9FBFFF76DFF2A462146384601F0DCFEBA
:1030A0000120BDE8F0813220002DF0D00DF0EAFBC8
:1030B00052200DF0E7FB0220E1E73320002DE6D09F
:1030C0000DF0E0FB52200DF0DDFB0320D7E73420AC
:1030D000002DDCD00DF0D6FB52200DF0D3FB0420E8
:1030E000CDE73520002DD2D00DF0CCFB52200DF0D5
:1030F000C9FB0520C3E73020002DC8D00DF0C2FB6E
:1031000014480DF00DFC14480DF024FC04214BF67E
:1031100001300DF039FC52200DF0B4FBB6E7112060
:10312000B5E711200DF0AEFBFFF77CFEB1E700BF65
:10313000CC40002000080040E4170020612D00086A
:10314000A40C0020883C0020640C0020E82A002009
:1031500039D40008440D0108520D0108002313B5AD
:103160000DF107018DF80730FFF7B6FE044690B168
:103170009DF80730013B032B0DD8DFE803F0020672
:103180000F1200221146094B02E00022074B9978EA
:103190001878FFF70DFF204602B010BD002206216F
:1031A000F1E7024B00225978F2E700BF883C00208B
:1031B00013B5124C20460CF06DFE0123A37703F0EB
:1031C00004FB0F4C206008B9FFF72CFEE37843F0B6
:1031D0000103E37009F052FD0A4BFF22186000233F
:1031E0004FF4A87100930848084B0AF075FDFFF7EB
:1031F000E1FD0120FFF7B2FF02B010BD640C00201A
:10320000883C00201418002028180020092E0008EF
:1032100048B1074A1378013B012B07D893782BB9A3
:103220000320FFF7ADBE0122024B1A70704700BFAA
:10323000A40C002020180020014B1878704700BF14
:10324000A40C0020014B9870704700BFA40C002014
:10325000014B9878704700BFA40C0020014BD87038
:10326000704700BFA40C00200122014B1A70704768
:10327000201800202DE9F0411C4C1D4EE278B16869
:10328000C2F3420229B9FFF773FE00252846BDE8C4
:10329000F081184B53F8228023782BB9164B1B78FA
:1032A000042B01D1FFF764FE144F3D787DB100235C
:1032B0003B704FF080431B69E278DB0B63F3000245
:1032C0002378E27063B101F01DF80546DEE7B8F13E
:1032D000000FDBD0B06809F017FD4045E7D2D5E715
:1032E000054B1B78042BEED1CDE700BF883C0020B6
:1032F000A40C0020240E0108CC400020201800203F
:1033000010B50C4B5A781946012A03D0022A08D06E
:10331000002005E09C78012C03D101F059F82046EB
:1033200010BD486809F0F0FCC728F1D9FFF7FCFD93
:10333000F6E700BFA40C002010B5074BD87810F0BA
:10334000FD0404D10220FFF71BFE204610BD032020
:10335000FFF716FE0120F9E7A40C002038B50A4D4E
:103360000024EB78033B012B08D80320FFF708FE6D
:103370002046AC7000F0D0FF012038BD0220FFF7DE
:10338000FFFD2046F9E700BFA40C002038B50A4D28
:103390000024EB78033B012B08D80320FFF7F0FD56
:1033A0002046AC7000F0D8FF012038BD0220FFF7A6
:1033B000E7FD2046F9E700BFA40C002070B59B4C48
:1033C0009B4D2068B0B109F09FFCB0F5FA6F11D3A6
:1033D0000026552026600DF055FA57200DF052FAC0
:1033E00070200DF04FFA29783246B1FA81F0400989
:1033F000FFF7DEFD2B7823B18E4B93F820208E4B08
:103400001A702368DBB98D4E306809F07DFC40F6F8
:10341000B733984213D92B788BB10CF0A9FD70B952
:10342000844CA37F5BB109F029FC306053200DF080
:1034300029FA94F8213013B970200DF023FA4FF0D7
:1034400080431B69EA78DB0B7D4C63F300020020AC
:10345000EA70FFF783FE2378032B1ED8DFE803F022
:10346000022858AEE36833B1984720B10120FFF736
:1034700087FD0023A370236933B1984720B1012051
:10348000FFF77EFD0223A370636933B1984720B133
:103490000120FFF775FD0123A3700DF0EDF8694BD6
:1034A0001B78002B00F0C080BDE8704002F092B89D
:1034B000A369002BF1D098470028EED001F016FE4A
:1034C000614C207010BB05F03DFA00F00100207047
:1034D00007F0FCFE2A785D4B1A700022554B9A7754
:1034E0002A685B4B13406BB95A4C2378012B09D0E7
:1034F0004FF40052584B20469A610BF0ADFD204628
:103500000BF078F90220FFF73BFDC6E70120DCE76E
:10351000E369002BC1D098470028BED000224F4B52
:103520001A704FF000424C4B9A612A68484B134086
:10353000B3F1807F10D0A37853B3013B012B0BD89C
:103540006378022B08D0FFF799FC11200DF09AF94F
:103550000CF00EFD0028FBD100F0BEFE0023E3704E
:103560003A4B2A781B789A4208D12A68384B134084
:10357000B3F1807F02D0A07800F0CCFBA378012BC0
:1035800019D0022B14D0002B87D1FFF7D5FE84E78A
:10359000284B5B7E002BDFD111200DF073F90CF06E
:1035A000E7FC0028FBD147F230500AF0C8FBD3E714
:1035B000FFF7D4FE71E7FFF7E9FE6EE7236A002B01
:1035C0003FF46BAF984700283FF467AF0122194BD7
:1035D0009A771D4B1B782BB14FF400421E4B9A611A
:1035E00007F05AFE0120FFF7B9FD30B92A78A2B1E1
:1035F000697802460846FFF7DBFC0024174B1C7075
:1036000000F05EFEFFF7B4FC00F072FA2046FFF710
:10361000B7FC53200DF036F93FE70E4B1B78012B1A
:10362000EBD111466878E6E770BD00BF14180020A2
:10363000883C0020640C0020E82A00201C18002090
:10364000A40C0020191800201018002018180020C1
:10365000FF000001CC40002000080040201800209E
:103660000120704708B5FFF7FBFF08BD37B50446DA
:103670000D46FFF77DFC29462046FFF7F3FF60B1BA
:10368000074B1A784AB1074B20461B78D90900919D
:10369000C3F30013A9780DF013F803B030BD00BFD9
:1036A000883C0020B83C002000B50B4B8FB0322185
:1036B00093F82130094A01A804F063F801A808F042
:1036C000A5FC0CF051FC08F0A1FC054808F09EFC9C
:1036D0000FB05DF804FB00BF640C0020660D01080C
:1036E000770D01082B4B13B51A7804464AB12A4BC3
:1036F00001211B78DB09009300230CF0E1FF02B0ED
:1037000010BD0028FBD0031FDBB2A02B12D8234B27
:103710000146186809F09CF920B1204602F00CFF20
:1037200002F08EFF204602F0FFFE02B0BDE810401E
:1037300002F086BF00F12003DBB2072B07D800F0B0
:1037400007040120A040C0B202F024FFEDE700F121
:103750005B03DBB2022B06D8243880B202B0BDE88E
:10376000104009F01FB900F15803DBB21A2B07D83B
:103770000B4A32F8130002B0BDE8104009F02EB930
:103780003334E4B2122CBAD8012102B0BDE81040A3
:1037900002F043B8883C0020B83C002024100020F0
:1037A000EE0D0108244B13B51A7804464AB1234B99
:1037B0001B78DB090093002319460CF081FF02B04F
:1037C00010BD0028FBD0031FDBB2A02B06D802F0EF
:1037D000B3FE02B0BDE8104002F032BF00F120039A
:1037E000DBB2072B07D800F007040120A040C0B2CD
:1037F00002F0D8FEEDE700F15B03DBB2022B05D847
:10380000104602B0BDE8104009F0CCB800F15803F2
:10381000DBB21A2B05D8104602B0BDE8104009F003
:10382000DDB83334E4B2122CC9D8114602B0BDE879
:10383000104001F0F2BF00BF883C0020B83C0020DF
:103840002DE9F3410446C0B1114E3378C3B10127CD
:10385000DFF84080204601F036FF054698F800303A
:10386000E030DB09009301210023327880B207FAAF
:1038700005F50CF025FFAC43ECD102B0BDE8F081BA
:1038800002F088FE02B0BDE8F04102F0D9BE00BFF0
:10389000883C0020B83C00202DE9F3410446C0B12B
:1038A000114E3378C3B10127DFF84080204601F084
:1038B0000AFF98F800300546DB0900930023E0304A
:1038C0001946327880B207FA05F50CF0F9FEAC43E0
:1038D000ECD102B0BDE8F08102F064FE02B0BDE8B8
:1038E000F04102F0ADBE00BF883C0020B83C002093
:1038F0002DE9F04104460E4601F0B2FBE8B9237809
:10390000013B142B50D8DFE803F00B1B4A646A74A8
:103910007777774FC67C80868F989B9EA7B0B9003B
:10392000002363700C23A3705F4B31461B78204645
:10393000002B40F0B58009F095FD0120BDE8F08135
:103940006378013B032B2FD8DFE803F0020C0F2331
:1039500009F094F9030EA370030CE370030A2371BA
:103960006071E1E707F0ACFFF4E72546A77804F1C2
:103970001B08052FD8D8F8B203F0AAFA030CEB7095
:10398000030A2B7168710335454507F10107F0D132
:10399000CAE70023A370E37023716371C4E76378FF
:1039A000022B04D0052B10D0FF232370BCE7E37853
:1039B000A07840EA0320237940EA0340637940EA93
:1039C000036000BA07F082FFAEE7A07807F0A7FF18
:1039D000AAE7E278A178607808F005FCBEE72279D2
:1039E0006379A17843EA02236078E27808F011FC59
:1039F0009AE708F05EFC97E73146204608F07BF82E
:103A000092E708F0E0FC60708EE708F0DEFC030A45
:103A10006370A07088E76078A378E178221D43EA9C
:103A2000002008F0D5FC7FE76078A378E178221DBC
:103A300043EA002008F0E1FC76E708F0F0FC73E7C9
:103A400008F0C6FBDFE76078A378E178221D43EA3F
:103A5000002008F078FC67E76078A378E178221D01
:103A600043EA002008F086FC5EE7E278A178003A9D
:103A700018BF0122607808F0E1FB6FE7E278217956
:103A80006379003A43EA012318BF0122A1786078E4
:103A900008F0F3FB48E70123044A6370137043E71F
:103AA0000CF0ECFF49E700BF883C0020191800200B
:103AB000437813B1FF23037070478378012BF9D14A
:103AC0000378072B07D0082BF4D1084BDB78C3F31E
:103AD0004203C3707047C1780729EDD8034BDA78E9
:103AE00061F34302DA70186802F072BE883C00206D
:103AF00008B509F0C3F8014B186008BD781900201B
:103B0000174B10B51C789CB9164B1B78052B08D0A9
:103B1000022B06D009F0B2F8134B1860134B1C703F
:103B200010BD4FF080431B691B0405D4FFF79CFBBD
:103B3000BDE81040FFF7DCBF0B4B18680028F7D03A
:103B400009F0E2F841F657339842E9D9FFF7D0FF80
:103B5000BDE810400122054B1A70FFF785BB00BF7E
:103B6000883C0020CC400020781900207C190020DF
:103B70002DE9F0411B4C064625781DB10124204655
:103B8000BDE8F081FFF758FB0138012805D8032074
:103B9000FFF7F6F92846FFF755FB94F80080B8F1D7
:103BA000000FEBD1104D2B78052BE7D1B5F84C3039
:103BB0009B0702D50D4F3C7824B9FF2E94BF0024FB
:103BC0000124DCE7FFF738FB0328D7D887F800800B
:103BD000FFF78EFF28460AF0B9FE284601F080FA6A
:103BE000CDE700BF883C0020CC4000207C1900209D
:103BF000704700001A4B70B59C6C0F2644F4C064EB
:103C00009C649B6C012301F003048B4021F00301B1
:103C100001F1804101F5A0518D68A400C0F383201B
:103C2000A04006FA04F425EA040528438860D84336
:103C30000C4912F0010F8C6814BF1C4304408C60C7
:103C400012F0020FCA6814BF1A430240CA60054A44
:103C5000536111680B43136053680340536070BD98
:103C6000000C0140001800400F281FD8DFE800F0CA
:103C7000080C0F121518181818181B1B1B1B1B1BE0
:103C8000062108460BF09BB806210720FAE706211B
:103C90000820F7E706210920F4E706210A20F1E7CA
:103CA00006211020EEE706212120EBE770470120D6
:103CB0007047000010B5FFF7FAFF40B301220F2153
:103CC0004FF08040FFF796FF0F20FFF7CDFFFFF783
:103CD000BFFA044688B9014603224FF08040FFF73F
:103CE00089FF2046FFF7C0FF4FF0804003220121EB
:103CF000FFF780FF0120FFF7B7FF054803220E21E1
:103D0000FFF778FFBDE810400E20FFF7ADBF10BDF4
:103D1000000800402DE9F8430546302383F311885D
:103D2000FFF7C8FF00264FF001086B4F57F8043B20
:103D3000002D40F0B780581C0DD023F00F0903F080
:103D40000F0308FA03F421460522484624040BF029
:103D5000A4F9C9F818400136152EE7D10624012729
:103D60005E4E56F8040B002D40F0A980421C27D06F
:103D700000F00F01202207FA01F120F00F000BF0F4
:103D80008CF900BF00BF00BF00BF00BF00BF00BF75
:103D900000BF00BF00BF00BF00BF00BF00BF00BF2B
:103DA00000BF00BF00BF56F8040C032200F00F084C
:103DB000414620F00F00FFF71DFF4046FFF754FF7C
:103DC000013CCED184F3118872B60120444A1368B5
:103DD00023F001031360434B434A5A610022A300BE
:103DE00003F1604303F56143D3F80011D5B2012D0F
:103DF00094BF002101F0010109B1C3F88001013233
:103E0000202AF1D10134082CE8D1384C636843F002
:103E100000736360364B1A6802F009021A601A6870
:103E200042F46C3242F004021A6040F2B3321A6279
:103E3000304B43F001039847236943F004032361A7
:103E400030BF2D4B43F0010398472369244A23F0E8
:103E5000040323611368294C43F001031360E369F1
:103E600043F08003E361A36C43F40073A36409F09F
:103E700027FB03F061F8A36C43F48043A364A36CB5
:103E8000A36C43F48053A364A36CE36C43F010036E
:103E9000E364E36CFFF7ACFE002383F3118862B6A2
:103EA000BDE8F883591C3FF456AF03F00F01202200
:103EB00008FA01F123F00F000BF0EFF84BE7431C79
:103EC0003FF47EAF00F00F01402207FA01F120F02D
:103ED0000F000BF0E2F873E7440E0108F40E01083E
:103EE00010E000E000180040FFFF070000ED00E0D8
:103EF00000000140CC0E0108980E0108000C0140A2
:103F000001207047012070470F2810B5044610D0DB
:103F1000122803D00E280ED1072000E00420FFF75E
:103F20009DF92046FFF7ECFF10B12046FFF7EAFFAE
:103F300010BD0320F3E70120F1E701238B4003428A
:103F400002D00846FFF7E0BF7047000008B50D4BF0
:103F50005A69D20706D51A68002022F001021A60B9
:103F6000FFF7D2FF4022084BC3F88020BFF34F8FEA
:103F7000BFF36F8F0122034B5A61BDE8084009F07F
:103F8000D3BF00BF0018004000E100E008B50D4BB2
:103F9000586910F0020006D01A68012122F00202CE
:103FA0001A60FFF7CAFF8022074BC3F88020BFF3D7
:103FB0004F8FBFF36F8F0222024B5A61BDE808405A
:103FC00009F0B2BF0018004000E100E008B50E4B58
:103FD000586910F0040006D01A68022122F0040289
:103FE0001A60FFF7AAFF4FF48072084BC3F88020D5
:103FF000BFF34F8FBFF36F8F0422034B5A61BDE8AD
:10400000084009F091BF00BF0018004000E100E047
:1040100008B50E4B586910F0080006D01A68032145
:1040200022F008021A60FFF788FF4FF40072084B75
:10403000C3F88020BFF34F8FBFF36F8F0822034B6D
:104040005A61BDE8084009F06FBF00BF001800408A
:1040500000E100E008B50E4B586910F0100006D0E2
:104060001A68042122F010021A60FFF766FF4FF46D
:104070008062084BC3F88020BFF34F8FBFF36F8F70
:104080001022034B5A61BDE8084009F04DBF00BF44
:104090000018004000E100E038B5254B5C69A2063D
:1040A00004F4787507D51A68052122F02002284605
:1040B0001A60FFF742FF600608D51D4A0621136803
:1040C000284623F040031360FFF737FF210608D589
:1040D000174A07211368284623F080031360FFF76F
:1040E0002CFFE20508D5124A08211368284623F45C
:1040F00080731360FFF721FFA30508D50C4A09213F
:104100001368284623F400731360FFF716FF4FF47B
:104110008032084BC3F88020BFF34F8FBFF36F8FFF
:104120004FF47872024B5A61BDE8384009F0FCBE8A
:104130000018004000E100E038B52A4B5C696205D8
:1041400004F47C4507D51A680A2122F480622846C7
:104150001A60FFF7F2FE230508D5224A0B211368E7
:10416000284623F400631360FFF7E7FEE00408D558
:104170001C4A0C211368284623F480531360FFF770
:10418000DCFEA10408D5174A0D211368284623F444
:1041900000531360FFF7D1FE620408D5114A0E21C7
:1041A0001368284623F480431360FFF7C6FE2304F8
:1041B00008D50C4A0F211368284623F400431360E6
:1041C000FFF7BBFE0222084BC3F88420BFF34F8FDA
:1041D000BFF36F8F4FF47C42024B5A61BDE8384009
:1041E00009F0A2BE0018004000E100E008B50E4B47
:1041F000586910F4802006D01A68122122F4802217
:104200001A60FFF79AFE0822084BC3F88420BFF318
:104210004F8FBFF36F8F4FF48022034B5A61BDE87D
:10422000084009F081BE00BF0018004000E100E036
:104230000120704710B50A4C202220464FF48061BF
:104240000AF02BFF204620224FF400610AF025FFE0
:104250002046BDE8104020224FF480510AF01DBFD7
:104260000008004010B5074C23784BB9FFF7E0FF7A
:1042700001F066FA08F06CFB01F082FA012323706A
:10428000012010BD7E1900200120704710B5054C9B
:1042900023782BB1FFF7F8FFFFF7CCFF0023237043
:1042A000012010BD7E190020024B1B780BB10CF0D1
:1042B000B3BA704781190020012070470120704770
:1042C00008B5044B1B780BB9FFF7CCFFFFF7F4FFE1
:1042D00008BD00BF7E19002008B5064B1B780BB146
:1042E000FFF7D4FF0023044A1370044A1360FFF75A
:1042F000E5FF08BD7E190020BC190020C019002070
:104300000120704708B5FFF7FBFF08BD014B187887
:10431000704700BF7F190020014B1870704700BF25
:104320007F190020014B1878704700BF80190020CA
:10433000084B10B50446187058B9FEF77DFF0228E7
:1043400007D80320FEF71CFE2046BDE81040FEF70C
:1043500079BF10BD80190020FFF7EABF024B187823
:1043600080F00100FFF7E4BF80190020084B1A78A5
:10437000084B1B784BB982F00102A0F5A443203B07
:104380001F2B8CBF1046012070470022F5E700BFAD
:10439000801900207F190020012070470023194652
:1043A000094A937213609375D36082F82230936147
:1043B00082F82E305362054A01330B2B917242F87A
:1043C0000C1BF9D1704700BF8C190020C80C0020CD
:1043D00008B502F021FEFFF7E1FF0022014B1A6051
:1043E00008BD00BF8819002001EB410201460148C9
:1043F000FCF752BF8C3C00202DE9F0411B4B1C4CBC
:104400001B78657813F001031A4E8AB01CD0002780
:10441000DFF8648018F8011B07EB470001AB01EBE4
:1044200041010322314418440137FCF735FF0C2FBA
:10443000F0D1207801AB00EB400029461844FFF78B
:10444000D3FF0AB0BDE8F081A278E07802EB420128
:104450003144904201F10301D9D9013201F8023C03
:1044600001F8033C01F8013CD2B2F2E7EC3C002039
:10447000371000208C3C0020E413010838B500F010
:1044800035FE044640B9002320461A461946013439
:1044900005F0ACFA682CF6D16825074C2846A378BD
:1044A00022786178013505F0A1FA742D04F1030436
:1044B000F4D1012038BD00BF8C3C002001207047A2
:1044C00010B5FFF7CFFEFEF773FE00F02DFE48B1EA
:1044D000054C01224FF4004120460AF0DEFD4FF466
:1044E0000043A36110BD00BF0008004000230E4A36
:1044F00010B513700D4A0E4C13700E4A136004F081
:1045000021FA68B900F0F2FD50B906F0EFFE4FF065
:104510000043A36100F00AFEBDE8104002F0F3B9C9
:104520004FF40043F5E700BF7D19002082190020F9
:10453000000800408419002008B502F0A5F905F034
:1045400023FA02F03BF90C4B188060F07F001870E2
:10455000188802F036F90022084B1A7004F060FC4B
:1045600004F0B8F904F044FC00F0FCFD18B1BDE81B
:104570000840FFF7BBBF08BDB83C0020E620002084
:1045800037B504460D46FFF707FF002800F0CE8040
:10459000002D00F0CB8047F613639C423AD8B4F567
:1045A000FC4F07D247F603439C4200F0BC802846EC
:1045B00003B030BDA4F5FC44132CF8D801A353F884
:1045C00024F000BF2B460008574600087B46000831
:1045D0009F460008C5460008EB460008AF450008A6
:1045E000AF450008AF450008AF450008AF450008DB
:1045F000AF450008AF450008AF450008AF450008CB
:10460000AF450008AF4500081147000819470008EA
:104610002147000847F643639C42C8D10122444B1E
:104620001A700022434B1A60C1E7002301200DF1EC
:1046300007018DF80730FEF74FFC9DF80730042B7B
:1046400002D013F0FD0FB2D1012211463A4B187877
:10465000FEF7AEFCABE7002301200DF107018DF85A
:104660000730FEF739FC9DF80730042B02D013F019
:10467000FD0F9CD101220221E8E7002301200DF16A
:1046800007018DF80730FEF727FC9DF80730042B53
:1046900002D013F0FD0F8AD101220321D6E70023B7
:1046A00001200DF107018DF80730FEF715FC9DF88C
:1046B0000730042B03D013F0FD0F7FF478AF0122F5
:1046C0000421C3E7002301200DF107018DF8073015
:1046D000FEF702FC9DF80730042B03D013F0FD0F0A
:1046E0007FF465AF01220521B0E7002301200DF121
:1046F00007018DF80730FEF7EFFB9DF80730DA1E53
:10470000012A02D9002B7FF452AF012206219DE736
:104710000020FFF70DFE4AE70122084B1A7046E71A
:10472000FFF71CFE43E7FFF707FF40E705463EE7BC
:104730008219002084190020883C00208019002064
:1047400070B5FEF73BFE002501261C4C206858B1D1
:10475000A37A4BB908F0D8FA6368984204D30121D0
:104760002089A672FFF70CFF0135042D04F10C041B
:10477000ECD100250126124C206858B1A37A4BB920
:1047800008F0C2FA6368984204D301212089A67216
:10479000FFF7F6FE01350B2D04F10C04ECD1094BAB
:1047A0001A783AB100221A700BF0E2FB0028FBD114
:1047B000FFF7C2FE00F0D4FC70BD00BF8C190020D2
:1047C000C80C0020C419002008B5064B1B780BB993
:1047D000FFF748FD4FF40042034B9A61BDE80840E3
:1047E00008F016BA7E190020000800402DE9F743B2
:1047F0000D46BF4A897804461368D1B1032B00D80F
:1048000001331360FEF7B4FBBA4B002798461A89B0
:10481000944226D195F802900C26B9F1000F0CD0E5
:1048200008F02CFA7E4348F80600B34B0027984660
:1048300035E0002BE5D0013BE3E77E4308EB0607BC
:10484000BB7A13B948F80630EFE749462046FFF730
:1048500097FE87F80A9048F806900028E5D10024D2
:1048600092E00137042F03F10C03D0D1DDE77E4342
:1048700008EB0607BB7A13B948F806301DE0494635
:104880002046FFF77DFE87F80A9048F8069000283A
:10489000E5D012E001370B2F03F10C030DD01A897C
:1048A0009442F7D195F802900C26B9F1000FDED0B2
:1048B00008F0E4F97E4348F8060029462046FFF751
:1048C00055FD0028CBD02946204600F051FC002899
:1048D000C5D047F610639C4235D8B4F5FC4F1AD2C8
:1048E00047F620039C4200F0278147F603439C4291
:1048F000B5D02946204600F01DFE0028AFD029463D
:104900002046FFF735F90028A9D020462946FEF7B2
:10491000ADFE044638E0A4F5FC44013CAB780F2C16
:1049200040D8DFE814F05D0078009300AE00C900C5
:10493000F1003C001E0136013C01420148014E01DC
:1049400054015A016001A4F5FC43403B9AB2032A8A
:10495000CFD8032BCDD801A252F823F06D4900081F
:104960007B490008914900085F480008AB78002B9C
:104970003FF475AFFEF798FE71E7AC785F4B14B16A
:1049800001221A706BE71C70204603B0BDE8F0836B
:10499000AB78002B3FF463AFFEF766FC5FE7584A45
:1049A00013705CE7002B3FF45AAF564C2278012A73
:1049B0003FF455AF002301200DF107018DF80730BA
:1049C000FEF78AFA9DF80730042B03D013F0FD0F91
:1049D0007FF445AF002201212078FEF7E9FA3EE797
:1049E000002B3FF43CAF474C2278022A3FF437AF0C
:1049F000002301200DF107018DF80730FEF76CFA56
:104A00009DF80730042B03D013F0FD0F7FF427AF80
:104A100000220221E0E7002B3FF421AF394C22783D
:104A2000032A3FF41CAF002301200DF107018DF88C
:104A30000730FEF751FA9DF80730042B03D013F02E
:104A4000FD0F7FF40CAF00220321C5E7002B3FF4DC
:104A500006AF2C4C2278042A3FF401AF002301203A
:104A60000DF107018DF80730FEF736FA9DF8073093
:104A7000042B03D013F0FD0F7FF4F1AE00220421CC
:104A8000AAE7002B3FF4EBAE1E4C2278052A3FF438
:104A9000E6AE002301200DF107018DF80730FEF787
:104AA0001BFA9DF80730042B03D013F0FD0F7FF4A1
:104AB000D6AE002205218FE7002B3FF4D0AE114C7B
:104AC0002278062A3FF4CBAE002301200DF1070126
:104AD0008DF80730FEF700FA9DF80730DA1E012A3C
:104AE00002D9002B7FF4BBAE0022062174E700BF81
:104AF000881900208C190020C80C00208119002082
:104B00007D190020883C0020002B3FF4A8AE394CD2
:104B10002378002B3FF4A3AE002501200DF10701FF
:104B20008DF80750FEF7D8F99DF80730012B3FF6B6
:104B300096AE2A4629464FE7AB78002B3FF48FAE5E
:104B400000F0D4FA80F00100C0B200F0D7FA00F013
:104B5000CDFA60B106F0B2FB4FF40042264B9A61E9
:104B60007DE60BB104F04EF903F0ECFEF1E703F043
:104B7000E9FE00287FF473AE00F0B8FA044600287E
:104B80007FF46DAE06F0B2FB4FF000421A4B9A6113
:104B9000FAE6002B3FF463AE04F010F95FE6002B59
:104BA0003FF45DAE04F016F959E6002B3FF457AE22
:104BB00004F042F853E6002B3FF451AE04F050F8F5
:104BC0004DE6002B3FF44BAE03F0E8FF47E6002B29
:104BD0003FF445AE03F0F4FF41E6002B3FF43FAE57
:104BE00004F002F83BE6002B3FF439AE04F010F875
:104BF00035E600BF883C00200008004001207047D7
:104C0000F8B505460C46694E694F21462846FFF720
:104C1000F5FF50B1062C08D8DFE804F0040873B49F
:104C2000B4C1C1000022614B1A60F8BD3368002B8B
:104C300043D12B2D0AD8252D0AD9A5F12703042B02
:104C400013D8DFE803F01A1F24292E005D2D2DD084
:104C50001A464FF4FA712846FEF70CF82846FDF77D
:104C6000BBFF08F00BF83060DFE70023FF22194696
:104C70002620FDF7D1FF0123EAE70023FF22194692
:104C80002720F6E70023FF2219462820F1E700231A
:104C9000FF2219462920ECE70023FF2219462A208B
:104CA000E7E70023FF2219462B20E2E71A461946C0
:104CB0002846FDF7B1FFFF23CAE7184608F024F89D
:104CC00047F22F53984203D905243A4B1C709CE7B6
:104CD000394B1B7883B95D2D0ED1384B1B78042BD3
:104CE0004BD10323334C28462370FF231A46194621
:104CF000FDF792FF247888E77A7E002A3CD00324CF
:104D0000E3E7306850BBA5F12603052B8DD8DFE81B
:104D100003F0030C11161B200023FF211A46262046
:104D2000FDF77AFF0122C82195E70023FF211A46EB
:104D30002720F5E70023FF211A462820F0E700236B
:104D4000FF211A462920EBE70023FF211A462A20DB
:104D5000E6E70023FF211A462B20E1E707F0D4FF06
:104D600047F22F53984201D90624AEE77B7E0BB160
:104D70000424AAE7104B1B786BB12846BDE8F84025
:104D8000FDF72ABFFF224FF4FA612846FDF772FFB4
:104D90002846FDF721FF0022064B1A7045E7002246
:104DA000044B1A70FEF760FAE7E700BFC019002055
:104DB000640C0020BC190020883C0020CC4000205E
:104DC000014B1978FFF71CBFBC1900200120704768
:104DD00070B506460D4626200021FDF735FF10B9B7
:104DE0000024204670BD00212720FDF72DFF00285C
:104DF000F6D000212820FDF727FF0028F0D0002161
:104E00002920FDF721FF0028EAD000212A20FDF704
:104E10001BFF0028E4D000212B20FDF715FF002800
:104E2000DED000215D20FDF70FFF0028D8D02946F5
:104E30003046FFF7CBFF04460028D1D00022044BB8
:104E400029461D70034B30461A60FFF7D9FEC8E7AC
:104E5000BC190020C019002070B50D461446FEF79D
:104E60000BF8064680B1B5B31D4B5B7E8BBB013D95
:104E7000052D09D8DFE805F0030C12181E242CB10B
:104E800002212620FFF7A4FF304670BD0121F8E77C
:104E900014B102212720F5E70121FBE714B102211B
:104EA0002820EFE70121FBE714B102212920E9E7DF
:104EB0000121FBE714B102212A20E3E70121FBE7EE
:104EC00014B102212B20DDE70121FBE702215D2047
:104ED000D8E71E46D8E7002CF8D10121F7E700BF3C
:104EE000640C002008B50C4B1B789BB9FEF7A4F9A5
:104EF00080B90A4B1A783AB1094A527E52B95978A8
:104F0000BDE80840FEF754B8064B1B78042B01D0CF
:104F10001146F5E708BD00BFBC190020883C002001
:104F2000640C0020CC400020704700002DE9FF47B2
:104F3000464E05460F46FFF7F7FFFFF7D3FF3478DD
:104F4000002C32D0424D2B6813B907F097FE286031
:104F5000286807F0D9FE41F28733984205D93378A3
:104F60000133337007F08AFE28603378013B032B4E
:104F700017D8DFE803F0020C101400226420114659
:104F800005F0CAFB0024204604B0BDE8F0870022EB
:104F900064211046F4E7002164220846F0E7642209
:104FA000F6E7002434702C60EDE72A4B1B78BBB980
:104FB00039462846FFF762FA0028E3D039462846EA
:104FC000FFF77CFA0028DDD03946284600F02EF99C
:104FD00004460028D6D039462846FDF765FED2E7BC
:104FE000002320461A461946013404F0FFFC682CC1
:104FF000F6D10024DFF860A0DFF860900DF104081E
:105000000A26514632464046FCF746F999F81F30C9
:10501000E2B2B3FBF6F6964214F8080012D9312B2F
:1050200003D900236422194606E01D2B4FF000032C
:105030008CBF64221A466421013404F0D7FC0A2C88
:10504000DED1B5E700231A46EDE700BF8219002044
:10505000841900207D1900200C0F0108640C002029
:1050600070B505460E46FDF783FFFEF7E5F810B173
:105070000320FDF785FF2B780A2B0ED10124084B66
:1050800031461C70074B28461B781BB908F0EAF91B
:10509000204670BD0BF0F2FCFAE70020F9E700BFF4
:1050A000C4190020883C0020012810B5044611D006
:1050B00002280AD1FEF7C0F80138012805D80320DC
:1050C000FDF75EFF0020FEF7BDF82046BDE810406A
:1050D00007F078BD014B1870F7E700BFE01700201C
:1050E000014808F02CBE00BFA0860100024B1878D2
:1050F000C0F34000704700BFB43C0020034B1A7857
:1051000060F341021A70186801F069BBB43C0020DA
:10511000044A137823F0030343F003031370106869
:1051200001F05DBBB43C002001207047002208B5AF
:10513000094B1A7001F050FB084B186008B9FFF7D3
:10514000E7FFFF22C8210020FDF794FD0020FDF7B6
:1051500043FD012008BD00BFC5190020B43C00205C
:105160000120704708B5FF20FDF736FD012008BD7E
:1051700047F61763984210B50BD847F61363984269
:1051800009D847F62003984232D047F60863984280
:105190002ED0012413E0A0F5FC4015388C780228AD
:1051A00003D8DFE800F00E172000002CF1D06020BB
:1051B0000BF068FB0122052100200BF095FB204637
:1051C00010BD002CE5D060200BF05CFB0122052116
:1051D0001320F2E7002CDCD060200BF053FB0122FF
:1051E00005212620E9E7002CD3D00BF08CFBE6E765
:1051F000024B5C78003C18BF0124E0E777100020E8
:10520000037C63B9074B187850B1DB78DB0706D411
:10521000054BD87F09288CBF002001207047012052
:10522000704700BF883C0020640C00202DE9F04F3F
:10523000A14B85B01A780093002A6DD19F4B5C7802
:105240000393002C68D106F0D3F84FF0000A9C4B72
:10525000DFF88082DFF884B21870019398F80300B9
:10526000FBF768FC9749FBF771FD019B0546187831
:10527000FBF70EF90022944BFBF79EFA0F46064609
:1052800098F80200FBF75AFC2946FBF7ABFCFBF74A
:1052900011F952465B46FBF765F932463B46FBF790
:1052A00061F9FBF771FBC3B298F801000293FBF7B9
:1052B00045FC2946FBF796FCFBF7FCF852465B469B
:1052C000FBF750F932463B46FBF74CF9FBF75CFB2A
:1052D0005FFA80F918F8040BFBF730FC2946FBF75E
:1052E00081FCFBF7E7F852465B46FBF73BF9324699
:1052F0003B46FBF737F9FBF747FB4A46C1B2029B37
:105300002046013404F072FB682CA7D1009B1B7867
:1053100013B9039B5B78FBB16C4C6D4D20782B78F7
:10532000184300F0D0F9012876D1FF235B201A46FC
:10533000194604F05BFB20782B78184300F0C3F982
:10534000012875D1009B1B78013B052B77D8DFE83E
:1053500003F0888F94999EA34FF0000A5D4DDFF80B
:105360007CB195F8A301FBF7E5FB5649FBF7EEFC92
:10537000019B80461878FBF78BF80022524BFBF715
:105380001BFA0F46064695F8A201FBF7D7FB4146EC
:10539000FBF728FCFBF78EF852465B46FBF7E2F87A
:1053A00032463B46FBF7DEF8FBF7EEFAC3B295F860
:1053B000A1010293FBF7C2FB4146FBF713FCFBF78D
:1053C00079F852465B46FBF7CDF832463B46FBF791
:1053D000C9F8FBF7D9FA5FFA80F995F8A001FBF755
:1053E000ADFB4146FBF7FEFBFBF764F852465B461C
:1053F000FBF7B8F832463B46FBF7B4F8FBF7C4FAC4
:105400004A46C1B2029B2046013404F0EFFA742CE4
:1054100005F10405A5D17FE720782B78184300F02B
:1054200052F9032887D1FF235C201A46194680E7EA
:1054300020782B78184300F046F9032882D0264BB9
:105440001B78DB0609D5207800F03DF948BB6423C2
:105450005B201A46194604F0C9FA012005B0BDE8E0
:10546000F08FFF2326201A46194604F0BFFAE6E71C
:10547000FF2327201A461946F7E7FF2328201A465C
:105480001946F2E7FF2329201A461946EDE7FF23C4
:105490002A201A461946E8E7FF232B201A46194608
:1054A000E3E7207800F00FF90228D6D164235C20CE
:1054B0001A461946CFE700BF883C0020771000202D
:1054C000B03C002000007F4300005940CE1900206E
:1054D000D2190020602B0020B83C00200000E03FE3
:1054E0000420704703280DD805290BD8142A09D8A1
:1054F0007E235843152303FB0101034B0A4433F871
:105500001200704701207047280F010804207047DF
:10551000032808D839B9054B82F0010202EB40009C
:1055200033F8100070470120704700BF180F0108C2
:105530000120704701207047704708B5FFF7FCFF56
:1055400008BD000013B502AB03E903000F4B1B7845
:10555000B3B99DF80230009873B16AB100F0FCFC59
:1055600004460146009800F0B3FC2046009902B0C2
:10557000BDE8104001F058BB00F0CCFC0446F4E755
:10558000009800F0E9FC0099F1E700BFCD19002078
:10559000034610B400885C880A4640EA04409988B3
:1055A00010BCFFF7CFBF0120704710B504460021A3
:1055B000FFF7EEFF2146FFF7C0FF10BD704708B5AB
:1055C00000F08CFBFFF7FAFFBDE8084046F2A81098
:1055D00008F0B5BB08B5FFF7F2FFBDE8084007F0DB
:1055E000ABBB08B5FFF7EBFFBDE8084007F0CCBB4D
:1055F00038B501210546FFF7CBFF2946044606F0E2
:1056000095F908B9002038BD29462046FFF7EEF885
:105610000028F7D02946204606F0E4FF0028F1D004
:105620002946204606F088FB0028EBD02946204674
:1056300006F056FF0028E5D02946204605F0B2FFC7
:105640000028DFD02946204607F01AF80028D9D0D4
:10565000AB787BB147F65A439C4222D00ED847F62E
:1056600001439C421AD047F603439C4214D0B4F540
:10567000F84F0ED02846FFF75BFFC4E747F65B43C1
:105680009C4211D047F65C439C42F3D101F066F88E
:10569000F0E7FFF79FFFB5E701F072F8FFF7A1FF12
:1056A000B0E701F067F8E5E701F067F8E2E708B571
:1056B00000F06EF803F0F4FB002005F0B7FDBDE844
:1056C0000840FFF781B8034600091CBF03460420C9
:1056D0009A081EBF13460230C0B25B081CBF0130DF
:1056E000C0B270477047012070470000C04310F0FF
:1056F000010F14BF4FF480614FF08061094BC2B2BB
:10570000996191074CBF4FF400614FF0006112F0B6
:10571000040F14BF4FF480524FF080529961014B37
:105720009A6170470008004038B50546FFF7DBFF77
:10573000044610B12846FFF7D9FF204638BD0000C7
:1057400010B50E4C01224FF48061204609F0A5FCF3
:105750004FF4806301224FF400612046A36109F0F9
:105760009CFC4FF400630122A3614FF4805120465A
:1057700009F093FC4FF48053A36110BD0008004072
:1057800010B50446FFF7AEFF2046FFF7CDFF10BD72
:1057900008B507F0DDF8FFF7F3FF08BD10B507F017
:1057A000D7F8074B04461A78824207D0187007F0E2
:1057B00065FA044B18602046FFF7E2FF10BD00BFFA
:1057C000CC190020C819002010B586B06C4684E8BA
:1057D00003009DF802300BB100F002FF0023ADF88A
:1057E000163094E80300ADF8141089B20490ADF8B7
:1057F0000C0004AC41B14FF6FF7382B29A4203D061
:105800002046FFF7D0FE18B194E8030000F01CFE1C
:1058100006B010BD008800F0BFBB08B529B102F08A
:1058200025F8BDE8084002F0F5B802F07DF8F8E789
:1058300038B505460C46FDF755FF1CB92846FDF75F
:10584000B1FF38BD6420013C08F079FAA4B2F4E756
:1058500008B539280CBF50210A21FFF7E9FF08BD20
:105860002DE9F047877981460C46857800F082FE65
:105870003F090646F0B12E46E5B1C4F3072303F015
:10588000F002402A09D004F12002D2B2072A24D91A
:105890001FB903F0E003202B21D0AD4B5E7816F04A
:1058A000040607D0022000F025FF00F063FE80F020
:1058B0000106F6B2C4F3033ABAF10B0F3ED8DFE8A3
:1058C0001AF0100010005E005E00CB00E3003D0007
:1058D0003D00E8004901590159010026EAE73E462A
:1058E000E8E7C4F30723C4F3032713F0F00F18BF4E
:1058F0003F01E4B285B157B104F12003DBB2072BBD
:10590000384600D92CB900F045FE00F099FE20463B
:105910005EE000F055FEF8E72046FDF743FF6FB16B
:1059200004F12003DBB2072B384600D914B900F08C
:1059300039FE01E000F04CFE00F082FEAAF1080AF8
:10594000BAF1030F03D807F003F8FFF719FF002E91
:1059500000F06A8100F006FE10F0010040F0648162
:1059600089F8020000F0F6FD00F048FA484600F021
:1059700071F900F0EFFDBDE8F04700F04BBAC4F359
:10598000072303F0F003C4F30328202BE4B218BF6D
:105990004FEA081874B1012C48D0002D4ED0002FCA
:1059A00047D099F80630DA07B1D56FF3071389F8B5
:1059B00006303EE0664B5B78590714D45DB1B8F110
:1059C000000F04D0404600F0E5FD00F039FE002055
:1059D000FDF788FEB2E72846FDF7E4FEB8F1000FB8
:1059E000ACD04046A3E795B13FB900F0FFFD40EAD7
:1059F0000800C0B2FDF724FFA0E7012FF5D100F0A9
:105A0000F5FD40EA0800C0B200F0FCFD96E72FB9B2
:105A100000F00AFE4046FDF73FFF8FE7012F8DD0D3
:105A20004046FDF739FF00F0FFFD87E71DB1052F68
:105A300084D84046DEE7042F80D8EBE7002FE9D07A
:105A4000392C0CBF4FF4FA504FF47A7008F077F904
:105A50002046FDF7A7FE71E714F4406FC4F38123DD
:105A600008D0012B7FF46AAF65B1C4F3090006F0DA
:105A7000B5FF63E725B1C4F3090006F093FF5DE7C6
:105A80002846FAE72846F2E72946E0B2FFF7C5FEC6
:105A900054E714F4407F29D1002D7FF44FAFC4F3B5
:105AA00042108000C2B204F00F0014F0100300FA9C
:105AB00002F0C5B21EBF0F209040C043C4F3812442
:105AC00018BFC3B2022C43EA050009D0032C0AD048
:105AD000012C02D000F06AF930E700F05FF92DE701
